{
	"contracts/Dauth.sol": {
		"DAuth": {
			"abi": [
				{
					"inputs": [],
					"stateMutability": "nonpayable",
					"type": "constructor"
				},
				{
					"inputs": [
						{
							"internalType": "uint256",
							"name": "requested",
							"type": "uint256"
						},
						{
							"internalType": "uint256",
							"name": "available",
							"type": "uint256"
						}
					],
					"name": "InsufficientBalance",
					"type": "error"
				},
				{
					"anonymous": false,
					"inputs": [
						{
							"indexed": false,
							"internalType": "address",
							"name": "from",
							"type": "address"
						},
						{
							"indexed": false,
							"internalType": "address",
							"name": "to",
							"type": "address"
						},
						{
							"indexed": false,
							"internalType": "uint256",
							"name": "amount",
							"type": "uint256"
						}
					],
					"name": "Sent",
					"type": "event"
				},
				{
					"inputs": [
						{
							"internalType": "address",
							"name": "",
							"type": "address"
						}
					],
					"name": "balances",
					"outputs": [
						{
							"internalType": "uint256",
							"name": "",
							"type": "uint256"
						}
					],
					"stateMutability": "view",
					"type": "function"
				},
				{
					"inputs": [],
					"name": "getNodes",
					"outputs": [
						{
							"components": [
								{
									"internalType": "address",
									"name": "nodeAddress",
									"type": "address"
								},
								{
									"internalType": "string",
									"name": "nodePubKey",
									"type": "string"
								}
							],
							"internalType": "struct DAuth.Node[]",
							"name": "nodes",
							"type": "tuple[]"
						}
					],
					"stateMutability": "view",
					"type": "function"
				},
				{
					"inputs": [
						{
							"internalType": "address",
							"name": "receiver",
							"type": "address"
						},
						{
							"internalType": "uint256",
							"name": "amount",
							"type": "uint256"
						}
					],
					"name": "mint",
					"outputs": [],
					"stateMutability": "nonpayable",
					"type": "function"
				},
				{
					"inputs": [],
					"name": "minter",
					"outputs": [
						{
							"internalType": "address",
							"name": "",
							"type": "address"
						}
					],
					"stateMutability": "view",
					"type": "function"
				},
				{
					"inputs": [
						{
							"internalType": "string",
							"name": "userId",
							"type": "string"
						},
						{
							"internalType": "string",
							"name": "recoverProof",
							"type": "string"
						}
					],
					"name": "recoverDone",
					"outputs": [],
					"stateMutability": "nonpayable",
					"type": "function"
				},
				{
					"inputs": [
						{
							"internalType": "string",
							"name": "",
							"type": "string"
						}
					],
					"name": "recoverHistoryList",
					"outputs": [
						{
							"internalType": "address",
							"name": "userAddress",
							"type": "address"
						},
						{
							"internalType": "string",
							"name": "userId",
							"type": "string"
						},
						{
							"internalType": "uint256",
							"name": "status",
							"type": "uint256"
						},
						{
							"internalType": "uint256",
							"name": "serialNumber",
							"type": "uint256"
						},
						{
							"internalType": "string",
							"name": "recoverProof1",
							"type": "string"
						},
						{
							"internalType": "uint256",
							"name": "nodeConfirm1",
							"type": "uint256"
						},
						{
							"internalType": "string",
							"name": "recoverProof2",
							"type": "string"
						},
						{
							"internalType": "uint256",
							"name": "nodeConfirm2",
							"type": "uint256"
						},
						{
							"internalType": "string",
							"name": "recoverProof3",
							"type": "string"
						},
						{
							"internalType": "uint256",
							"name": "nodeConfirm3",
							"type": "uint256"
						}
					],
					"stateMutability": "view",
					"type": "function"
				},
				{
					"inputs": [
						{
							"internalType": "string",
							"name": "userId",
							"type": "string"
						}
					],
					"name": "recoverRequest",
					"outputs": [],
					"stateMutability": "nonpayable",
					"type": "function"
				},
				{
					"inputs": [
						{
							"internalType": "string",
							"name": "_nodePubKey",
							"type": "string"
						}
					],
					"name": "registerNode",
					"outputs": [],
					"stateMutability": "nonpayable",
					"type": "function"
				},
				{
					"inputs": [
						{
							"internalType": "string",
							"name": "userId",
							"type": "string"
						},
						{
							"internalType": "uint256",
							"name": "condition1Type",
							"type": "uint256"
						},
						{
							"internalType": "address",
							"name": "nodeAddress1",
							"type": "address"
						},
						{
							"internalType": "uint256",
							"name": "condition2Type",
							"type": "uint256"
						},
						{
							"internalType": "address",
							"name": "nodeAddress2",
							"type": "address"
						},
						{
							"internalType": "uint256",
							"name": "condition3Type",
							"type": "uint256"
						},
						{
							"internalType": "address",
							"name": "nodeAddress3",
							"type": "address"
						}
					],
					"name": "registerUser",
					"outputs": [],
					"stateMutability": "nonpayable",
					"type": "function"
				},
				{
					"inputs": [
						{
							"internalType": "address",
							"name": "receiver",
							"type": "address"
						},
						{
							"internalType": "uint256",
							"name": "amount",
							"type": "uint256"
						}
					],
					"name": "send",
					"outputs": [],
					"stateMutability": "nonpayable",
					"type": "function"
				},
				{
					"inputs": [
						{
							"internalType": "string",
							"name": "userId",
							"type": "string"
						},
						{
							"internalType": "string",
							"name": "signProof",
							"type": "string"
						}
					],
					"name": "signDone",
					"outputs": [],
					"stateMutability": "nonpayable",
					"type": "function"
				},
				{
					"inputs": [
						{
							"internalType": "string",
							"name": "",
							"type": "string"
						}
					],
					"name": "signHistoryList",
					"outputs": [
						{
							"internalType": "address",
							"name": "userAddress",
							"type": "address"
						},
						{
							"internalType": "string",
							"name": "userId",
							"type": "string"
						},
						{
							"internalType": "uint256",
							"name": "status",
							"type": "uint256"
						},
						{
							"internalType": "uint256",
							"name": "serialNumber",
							"type": "uint256"
						},
						{
							"internalType": "string",
							"name": "signProof1",
							"type": "string"
						},
						{
							"internalType": "uint256",
							"name": "nodeConfirm1",
							"type": "uint256"
						},
						{
							"internalType": "string",
							"name": "signProof2",
							"type": "string"
						},
						{
							"internalType": "uint256",
							"name": "nodeConfirm2",
							"type": "uint256"
						},
						{
							"internalType": "string",
							"name": "signProof3",
							"type": "string"
						},
						{
							"internalType": "uint256",
							"name": "nodeConfirm3",
							"type": "uint256"
						}
					],
					"stateMutability": "view",
					"type": "function"
				},
				{
					"inputs": [
						{
							"internalType": "string",
							"name": "userId",
							"type": "string"
						}
					],
					"name": "signRequest",
					"outputs": [],
					"stateMutability": "nonpayable",
					"type": "function"
				},
				{
					"inputs": [
						{
							"internalType": "string",
							"name": "",
							"type": "string"
						}
					],
					"name": "userList",
					"outputs": [
						{
							"internalType": "address",
							"name": "userAddress",
							"type": "address"
						},
						{
							"internalType": "string",
							"name": "userID",
							"type": "string"
						},
						{
							"internalType": "uint256",
							"name": "condition1Type",
							"type": "uint256"
						},
						{
							"internalType": "address",
							"name": "nodeAddress1",
							"type": "address"
						},
						{
							"internalType": "uint256",
							"name": "condition2Type",
							"type": "uint256"
						},
						{
							"internalType": "address",
							"name": "nodeAddress2",
							"type": "address"
						},
						{
							"internalType": "uint256",
							"name": "condition3Type",
							"type": "uint256"
						},
						{
							"internalType": "address",
							"name": "nodeAddress3",
							"type": "address"
						}
					],
					"stateMutability": "view",
					"type": "function"
				}
			],
			"devdoc": {
				"kind": "dev",
				"methods": {},
				"version": 1
			},
			"evm": {
				"assembly": "    /* \"contracts/Dauth.sol\":57:7519  contract DAuth {... */\n  mstore(0x40, 0x80)\n    /* \"contracts/Dauth.sol\":1700:1893  constructor() public {... */\n  callvalue\n  dup1\n  iszero\n  tag_1\n  jumpi\n  0x00\n  dup1\n  revert\ntag_1:\n  pop\n    /* \"contracts/Dauth.sol\":1736:1746  msg.sender */\n  caller\n    /* \"contracts/Dauth.sol\":1727:1733  minter */\n  0x00\n  dup1\n    /* \"contracts/Dauth.sol\":1727:1746  minter = msg.sender */\n  0x0100\n  exp\n  dup2\n  sload\n  dup2\n  0xffffffffffffffffffffffffffffffffffffffff\n  mul\n  not\n  and\n  swap1\n  dup4\n  0xffffffffffffffffffffffffffffffffffffffff\n  and\n  mul\n  or\n  swap1\n  sstore\n  pop\n    /* \"contracts/Dauth.sol\":1752:1773  _name = \"DAuth Token\" */\n  mload(0x40)\n  dup1\n  0x40\n  add\n  0x40\n  mstore\n  dup1\n  0x0b\n  dup2\n  mstore\n  0x20\n  add\n  0x444175746820546f6b656e000000000000000000000000000000000000000000\n  dup2\n  mstore\n  pop\n    /* \"contracts/Dauth.sol\":1752:1757  _name */\n  0x09\n    /* \"contracts/Dauth.sol\":1752:1773  _name = \"DAuth Token\" */\n  swap1\n  dup2\n  tag_4\n  swap2\n  swap1\n  tag_5\n  jump\t// in\ntag_4:\n  pop\n    /* \"contracts/Dauth.sol\":1779:1794  _symbol = \"DAT\" */\n  mload(0x40)\n  dup1\n  0x40\n  add\n  0x40\n  mstore\n  dup1\n  0x03\n  dup2\n  mstore\n  0x20\n  add\n  0x4441540000000000000000000000000000000000000000000000000000000000\n  dup2\n  mstore\n  pop\n    /* \"contracts/Dauth.sol\":1779:1786  _symbol */\n  0x08\n    /* \"contracts/Dauth.sol\":1779:1794  _symbol = \"DAT\" */\n  swap1\n  dup2\n  tag_6\n  swap2\n  swap1\n  tag_5\n  jump\t// in\ntag_6:\n  pop\n    /* \"contracts/Dauth.sol\":1812:1814  18 */\n  0x12\n    /* \"contracts/Dauth.sol\":1800:1809  _decimals */\n  0x07\n  0x00\n    /* \"contracts/Dauth.sol\":1800:1814  _decimals = 18 */\n  0x0100\n  exp\n  dup2\n  sload\n  dup2\n  0xff\n  mul\n  not\n  and\n  swap1\n  dup4\n  0xff\n  and\n  mul\n  or\n  swap1\n  sstore\n  pop\n    /* \"contracts/Dauth.sol\":1835:1845  1000000000 */\n  0x3b9aca00\n    /* \"contracts/Dauth.sol\":1820:1832  _totalSupply */\n  0x06\n    /* \"contracts/Dauth.sol\":1820:1845  _totalSupply = 1000000000 */\n  dup2\n  swap1\n  sstore\n  pop\n    /* \"contracts/Dauth.sol\":1875:1887  _totalSupply */\n  sload(0x06)\n    /* \"contracts/Dauth.sol\":1851:1860  _balances */\n  0x0a\n    /* \"contracts/Dauth.sol\":1851:1872  _balances[msg.sender] */\n  0x00\n    /* \"contracts/Dauth.sol\":1861:1871  msg.sender */\n  caller\n    /* \"contracts/Dauth.sol\":1851:1872  _balances[msg.sender] */\n  0xffffffffffffffffffffffffffffffffffffffff\n  and\n  0xffffffffffffffffffffffffffffffffffffffff\n  and\n  dup2\n  mstore\n  0x20\n  add\n  swap1\n  dup2\n  mstore\n  0x20\n  add\n  0x00\n  keccak256\n    /* \"contracts/Dauth.sol\":1851:1887  _balances[msg.sender] = _totalSupply */\n  dup2\n  swap1\n  sstore\n  pop\n    /* \"contracts/Dauth.sol\":57:7519  contract DAuth {... */\n  jump(tag_7)\n    /* \"#utility.yul\":7:106   */\ntag_8:\n    /* \"#utility.yul\":59:65   */\n  0x00\n    /* \"#utility.yul\":93:98   */\n  dup2\n    /* \"#utility.yul\":87:99   */\n  mload\n    /* \"#utility.yul\":77:99   */\n  swap1\n  pop\n    /* \"#utility.yul\":7:106   */\n  swap2\n  swap1\n  pop\n  jump\t// out\n    /* \"#utility.yul\":112:292   */\ntag_9:\n    /* \"#utility.yul\":160:237   */\n  0x4e487b7100000000000000000000000000000000000000000000000000000000\n    /* \"#utility.yul\":157:158   */\n  0x00\n    /* \"#utility.yul\":150:238   */\n  mstore\n    /* \"#utility.yul\":257:261   */\n  0x41\n    /* \"#utility.yul\":254:255   */\n  0x04\n    /* \"#utility.yul\":247:262   */\n  mstore\n    /* \"#utility.yul\":281:285   */\n  0x24\n    /* \"#utility.yul\":278:279   */\n  0x00\n    /* \"#utility.yul\":271:286   */\n  revert\n    /* \"#utility.yul\":298:478   */\ntag_10:\n    /* \"#utility.yul\":346:423   */\n  0x4e487b7100000000000000000000000000000000000000000000000000000000\n    /* \"#utility.yul\":343:344   */\n  0x00\n    /* \"#utility.yul\":336:424   */\n  mstore\n    /* \"#utility.yul\":443:447   */\n  0x22\n    /* \"#utility.yul\":440:441   */\n  0x04\n    /* \"#utility.yul\":433:448   */\n  mstore\n    /* \"#utility.yul\":467:471   */\n  0x24\n    /* \"#utility.yul\":464:465   */\n  0x00\n    /* \"#utility.yul\":457:472   */\n  revert\n    /* \"#utility.yul\":484:804   */\ntag_11:\n    /* \"#utility.yul\":528:534   */\n  0x00\n    /* \"#utility.yul\":565:566   */\n  0x02\n    /* \"#utility.yul\":559:563   */\n  dup3\n    /* \"#utility.yul\":555:567   */\n  div\n    /* \"#utility.yul\":545:567   */\n  swap1\n  pop\n    /* \"#utility.yul\":612:613   */\n  0x01\n    /* \"#utility.yul\":606:610   */\n  dup3\n    /* \"#utility.yul\":602:614   */\n  and\n    /* \"#utility.yul\":633:651   */\n  dup1\n    /* \"#utility.yul\":623:704   */\n  tag_33\n  jumpi\n    /* \"#utility.yul\":689:693   */\n  0x7f\n    /* \"#utility.yul\":681:687   */\n  dup3\n    /* \"#utility.yul\":677:694   */\n  and\n    /* \"#utility.yul\":667:694   */\n  swap2\n  pop\n    /* \"#utility.yul\":623:704   */\ntag_33:\n    /* \"#utility.yul\":751:753   */\n  0x20\n    /* \"#utility.yul\":743:749   */\n  dup3\n    /* \"#utility.yul\":740:754   */\n  lt\n    /* \"#utility.yul\":720:738   */\n  dup2\n    /* \"#utility.yul\":717:755   */\n  sub\n    /* \"#utility.yul\":714:798   */\n  tag_34\n  jumpi\n    /* \"#utility.yul\":770:788   */\n  tag_35\n  tag_10\n  jump\t// in\ntag_35:\n    /* \"#utility.yul\":714:798   */\ntag_34:\n    /* \"#utility.yul\":535:804   */\n  pop\n    /* \"#utility.yul\":484:804   */\n  swap2\n  swap1\n  pop\n  jump\t// out\n    /* \"#utility.yul\":810:951   */\ntag_12:\n    /* \"#utility.yul\":859:863   */\n  0x00\n    /* \"#utility.yul\":882:885   */\n  dup2\n    /* \"#utility.yul\":874:885   */\n  swap1\n  pop\n    /* \"#utility.yul\":905:908   */\n  dup2\n    /* \"#utility.yul\":902:903   */\n  0x00\n    /* \"#utility.yul\":895:909   */\n  mstore\n    /* \"#utility.yul\":939:943   */\n  0x20\n    /* \"#utility.yul\":936:937   */\n  0x00\n    /* \"#utility.yul\":926:944   */\n  keccak256\n    /* \"#utility.yul\":918:944   */\n  swap1\n  pop\n    /* \"#utility.yul\":810:951   */\n  swap2\n  swap1\n  pop\n  jump\t// out\n    /* \"#utility.yul\":957:1050   */\ntag_13:\n    /* \"#utility.yul\":994:1000   */\n  0x00\n    /* \"#utility.yul\":1041:1043   */\n  0x20\n    /* \"#utility.yul\":1036:1038   */\n  0x1f\n    /* \"#utility.yul\":1029:1034   */\n  dup4\n    /* \"#utility.yul\":1025:1039   */\n  add\n    /* \"#utility.yul\":1021:1044   */\n  div\n    /* \"#utility.yul\":1011:1044   */\n  swap1\n  pop\n    /* \"#utility.yul\":957:1050   */\n  swap2\n  swap1\n  pop\n  jump\t// out\n    /* \"#utility.yul\":1056:1163   */\ntag_14:\n    /* \"#utility.yul\":1100:1108   */\n  0x00\n    /* \"#utility.yul\":1150:1155   */\n  dup3\n    /* \"#utility.yul\":1144:1148   */\n  dup3\n    /* \"#utility.yul\":1140:1156   */\n  shl\n    /* \"#utility.yul\":1119:1156   */\n  swap1\n  pop\n    /* \"#utility.yul\":1056:1163   */\n  swap3\n  swap2\n  pop\n  pop\n  jump\t// out\n    /* \"#utility.yul\":1169:1562   */\ntag_15:\n    /* \"#utility.yul\":1238:1244   */\n  0x00\n    /* \"#utility.yul\":1288:1289   */\n  0x08\n    /* \"#utility.yul\":1276:1286   */\n  dup4\n    /* \"#utility.yul\":1272:1290   */\n  mul\n    /* \"#utility.yul\":1311:1408   */\n  tag_40\n    /* \"#utility.yul\":1341:1407   */\n  0xffffffffffffffffffffffffffffffffffffffffffffffffffffffffffffffff\n    /* \"#utility.yul\":1330:1339   */\n  dup3\n    /* \"#utility.yul\":1311:1408   */\n  tag_14\n  jump\t// in\ntag_40:\n    /* \"#utility.yul\":1429:1468   */\n  tag_41\n    /* \"#utility.yul\":1459:1467   */\n  dup7\n    /* \"#utility.yul\":1448:1457   */\n  dup4\n    /* \"#utility.yul\":1429:1468   */\n  tag_14\n  jump\t// in\ntag_41:\n    /* \"#utility.yul\":1417:1468   */\n  swap6\n  pop\n    /* \"#utility.yul\":1501:1505   */\n  dup1\n    /* \"#utility.yul\":1497:1506   */\n  not\n    /* \"#utility.yul\":1490:1495   */\n  dup5\n    /* \"#utility.yul\":1486:1507   */\n  and\n    /* \"#utility.yul\":1477:1507   */\n  swap4\n  pop\n    /* \"#utility.yul\":1550:1554   */\n  dup1\n    /* \"#utility.yul\":1540:1548   */\n  dup7\n    /* \"#utility.yul\":1536:1555   */\n  and\n    /* \"#utility.yul\":1529:1534   */\n  dup5\n    /* \"#utility.yul\":1526:1556   */\n  or\n    /* \"#utility.yul\":1516:1556   */\n  swap3\n  pop\n    /* \"#utility.yul\":1245:1562   */\n  pop\n  pop\n    /* \"#utility.yul\":1169:1562   */\n  swap4\n  swap3\n  pop\n  pop\n  pop\n  jump\t// out\n    /* \"#utility.yul\":1568:1645   */\ntag_16:\n    /* \"#utility.yul\":1605:1612   */\n  0x00\n    /* \"#utility.yul\":1634:1639   */\n  dup2\n    /* \"#utility.yul\":1623:1639   */\n  swap1\n  pop\n    /* \"#utility.yul\":1568:1645   */\n  swap2\n  swap1\n  pop\n  jump\t// out\n    /* \"#utility.yul\":1651:1711   */\ntag_17:\n    /* \"#utility.yul\":1679:1682   */\n  0x00\n    /* \"#utility.yul\":1700:1705   */\n  dup2\n    /* \"#utility.yul\":1693:1705   */\n  swap1\n  pop\n    /* \"#utility.yul\":1651:1711   */\n  swap2\n  swap1\n  pop\n  jump\t// out\n    /* \"#utility.yul\":1717:1859   */\ntag_18:\n    /* \"#utility.yul\":1767:1776   */\n  0x00\n    /* \"#utility.yul\":1800:1853   */\n  tag_45\n    /* \"#utility.yul\":1818:1852   */\n  tag_46\n    /* \"#utility.yul\":1827:1851   */\n  tag_47\n    /* \"#utility.yul\":1845:1850   */\n  dup5\n    /* \"#utility.yul\":1827:1851   */\n  tag_16\n  jump\t// in\ntag_47:\n    /* \"#utility.yul\":1818:1852   */\n  tag_17\n  jump\t// in\ntag_46:\n    /* \"#utility.yul\":1800:1853   */\n  tag_16\n  jump\t// in\ntag_45:\n    /* \"#utility.yul\":1787:1853   */\n  swap1\n  pop\n    /* \"#utility.yul\":1717:1859   */\n  swap2\n  swap1\n  pop\n  jump\t// out\n    /* \"#utility.yul\":1865:1940   */\ntag_19:\n    /* \"#utility.yul\":1908:1911   */\n  0x00\n    /* \"#utility.yul\":1929:1934   */\n  dup2\n    /* \"#utility.yul\":1922:1934   */\n  swap1\n  pop\n    /* \"#utility.yul\":1865:1940   */\n  swap2\n  swap1\n  pop\n  jump\t// out\n    /* \"#utility.yul\":1946:2215   */\ntag_20:\n    /* \"#utility.yul\":2056:2095   */\n  tag_50\n    /* \"#utility.yul\":2087:2094   */\n  dup4\n    /* \"#utility.yul\":2056:2095   */\n  tag_18\n  jump\t// in\ntag_50:\n    /* \"#utility.yul\":2117:2208   */\n  tag_51\n    /* \"#utility.yul\":2166:2207   */\n  tag_52\n    /* \"#utility.yul\":2190:2206   */\n  dup3\n    /* \"#utility.yul\":2166:2207   */\n  tag_19\n  jump\t// in\ntag_52:\n    /* \"#utility.yul\":2158:2164   */\n  dup5\n    /* \"#utility.yul\":2151:2155   */\n  dup5\n    /* \"#utility.yul\":2145:2156   */\n  sload\n    /* \"#utility.yul\":2117:2208   */\n  tag_15\n  jump\t// in\ntag_51:\n    /* \"#utility.yul\":2111:2115   */\n  dup3\n    /* \"#utility.yul\":2104:2209   */\n  sstore\n    /* \"#utility.yul\":2022:2215   */\n  pop\n    /* \"#utility.yul\":1946:2215   */\n  pop\n  pop\n  pop\n  jump\t// out\n    /* \"#utility.yul\":2221:2294   */\ntag_21:\n    /* \"#utility.yul\":2266:2269   */\n  0x00\n    /* \"#utility.yul\":2221:2294   */\n  swap1\n  jump\t// out\n    /* \"#utility.yul\":2300:2489   */\ntag_22:\n    /* \"#utility.yul\":2377:2409   */\n  tag_55\n  tag_21\n  jump\t// in\ntag_55:\n    /* \"#utility.yul\":2418:2483   */\n  tag_56\n    /* \"#utility.yul\":2476:2482   */\n  dup2\n    /* \"#utility.yul\":2468:2474   */\n  dup5\n    /* \"#utility.yul\":2462:2466   */\n  dup5\n    /* \"#utility.yul\":2418:2483   */\n  tag_20\n  jump\t// in\ntag_56:\n    /* \"#utility.yul\":2353:2489   */\n  pop\n    /* \"#utility.yul\":2300:2489   */\n  pop\n  pop\n  jump\t// out\n    /* \"#utility.yul\":2495:2681   */\ntag_23:\n    /* \"#utility.yul\":2555:2675   */\ntag_58:\n    /* \"#utility.yul\":2572:2575   */\n  dup2\n    /* \"#utility.yul\":2565:2570   */\n  dup2\n    /* \"#utility.yul\":2562:2576   */\n  lt\n    /* \"#utility.yul\":2555:2675   */\n  iszero\n  tag_60\n  jumpi\n    /* \"#utility.yul\":2626:2665   */\n  tag_61\n    /* \"#utility.yul\":2663:2664   */\n  0x00\n    /* \"#utility.yul\":2656:2661   */\n  dup3\n    /* \"#utility.yul\":2626:2665   */\n  tag_22\n  jump\t// in\ntag_61:\n    /* \"#utility.yul\":2599:2600   */\n  0x01\n    /* \"#utility.yul\":2592:2597   */\n  dup2\n    /* \"#utility.yul\":2588:2601   */\n  add\n    /* \"#utility.yul\":2579:2601   */\n  swap1\n  pop\n    /* \"#utility.yul\":2555:2675   */\n  jump(tag_58)\ntag_60:\n    /* \"#utility.yul\":2495:2681   */\n  pop\n  pop\n  jump\t// out\n    /* \"#utility.yul\":2687:3230   */\ntag_24:\n    /* \"#utility.yul\":2788:2790   */\n  0x1f\n    /* \"#utility.yul\":2783:2786   */\n  dup3\n    /* \"#utility.yul\":2780:2791   */\n  gt\n    /* \"#utility.yul\":2777:3223   */\n  iszero\n  tag_63\n  jumpi\n    /* \"#utility.yul\":2822:2860   */\n  tag_64\n    /* \"#utility.yul\":2854:2859   */\n  dup2\n    /* \"#utility.yul\":2822:2860   */\n  tag_12\n  jump\t// in\ntag_64:\n    /* \"#utility.yul\":2906:2935   */\n  tag_65\n    /* \"#utility.yul\":2924:2934   */\n  dup5\n    /* \"#utility.yul\":2906:2935   */\n  tag_13\n  jump\t// in\ntag_65:\n    /* \"#utility.yul\":2896:2904   */\n  dup2\n    /* \"#utility.yul\":2892:2936   */\n  add\n    /* \"#utility.yul\":3089:3091   */\n  0x20\n    /* \"#utility.yul\":3077:3087   */\n  dup6\n    /* \"#utility.yul\":3074:3092   */\n  lt\n    /* \"#utility.yul\":3071:3120   */\n  iszero\n  tag_66\n  jumpi\n    /* \"#utility.yul\":3110:3118   */\n  dup2\n    /* \"#utility.yul\":3095:3118   */\n  swap1\n  pop\n    /* \"#utility.yul\":3071:3120   */\ntag_66:\n    /* \"#utility.yul\":3133:3213   */\n  tag_67\n    /* \"#utility.yul\":3189:3211   */\n  tag_68\n    /* \"#utility.yul\":3207:3210   */\n  dup6\n    /* \"#utility.yul\":3189:3211   */\n  tag_13\n  jump\t// in\ntag_68:\n    /* \"#utility.yul\":3179:3187   */\n  dup4\n    /* \"#utility.yul\":3175:3212   */\n  add\n    /* \"#utility.yul\":3162:3173   */\n  dup3\n    /* \"#utility.yul\":3133:3213   */\n  tag_23\n  jump\t// in\ntag_67:\n    /* \"#utility.yul\":2792:3223   */\n  pop\n  pop\n    /* \"#utility.yul\":2777:3223   */\ntag_63:\n    /* \"#utility.yul\":2687:3230   */\n  pop\n  pop\n  pop\n  jump\t// out\n    /* \"#utility.yul\":3236:3353   */\ntag_25:\n    /* \"#utility.yul\":3290:3298   */\n  0x00\n    /* \"#utility.yul\":3340:3345   */\n  dup3\n    /* \"#utility.yul\":3334:3338   */\n  dup3\n    /* \"#utility.yul\":3330:3346   */\n  shr\n    /* \"#utility.yul\":3309:3346   */\n  swap1\n  pop\n    /* \"#utility.yul\":3236:3353   */\n  swap3\n  swap2\n  pop\n  pop\n  jump\t// out\n    /* \"#utility.yul\":3359:3528   */\ntag_26:\n    /* \"#utility.yul\":3403:3409   */\n  0x00\n    /* \"#utility.yul\":3436:3487   */\n  tag_71\n    /* \"#utility.yul\":3484:3485   */\n  0x00\n    /* \"#utility.yul\":3480:3486   */\n  not\n    /* \"#utility.yul\":3472:3477   */\n  dup5\n    /* \"#utility.yul\":3469:3470   */\n  0x08\n    /* \"#utility.yul\":3465:3478   */\n  mul\n    /* \"#utility.yul\":3436:3487   */\n  tag_25\n  jump\t// in\ntag_71:\n    /* \"#utility.yul\":3432:3488   */\n  not\n    /* \"#utility.yul\":3517:3521   */\n  dup1\n    /* \"#utility.yul\":3511:3515   */\n  dup4\n    /* \"#utility.yul\":3507:3522   */\n  and\n    /* \"#utility.yul\":3497:3522   */\n  swap2\n  pop\n    /* \"#utility.yul\":3410:3528   */\n  pop\n    /* \"#utility.yul\":3359:3528   */\n  swap3\n  swap2\n  pop\n  pop\n  jump\t// out\n    /* \"#utility.yul\":3533:3828   */\ntag_27:\n    /* \"#utility.yul\":3609:3613   */\n  0x00\n    /* \"#utility.yul\":3755:3784   */\n  tag_73\n    /* \"#utility.yul\":3780:3783   */\n  dup4\n    /* \"#utility.yul\":3774:3778   */\n  dup4\n    /* \"#utility.yul\":3755:3784   */\n  tag_26\n  jump\t// in\ntag_73:\n    /* \"#utility.yul\":3747:3784   */\n  swap2\n  pop\n    /* \"#utility.yul\":3817:3820   */\n  dup3\n    /* \"#utility.yul\":3814:3815   */\n  0x02\n    /* \"#utility.yul\":3810:3821   */\n  mul\n    /* \"#utility.yul\":3804:3808   */\n  dup3\n    /* \"#utility.yul\":3801:3822   */\n  or\n    /* \"#utility.yul\":3793:3822   */\n  swap1\n  pop\n    /* \"#utility.yul\":3533:3828   */\n  swap3\n  swap2\n  pop\n  pop\n  jump\t// out\n    /* \"#utility.yul\":3833:5228   */\ntag_5:\n    /* \"#utility.yul\":3950:3987   */\n  tag_75\n    /* \"#utility.yul\":3983:3986   */\n  dup3\n    /* \"#utility.yul\":3950:3987   */\n  tag_8\n  jump\t// in\ntag_75:\n    /* \"#utility.yul\":4052:4070   */\n  0xffffffffffffffff\n    /* \"#utility.yul\":4044:4050   */\n  dup2\n    /* \"#utility.yul\":4041:4071   */\n  gt\n    /* \"#utility.yul\":4038:4094   */\n  iszero\n  tag_76\n  jumpi\n    /* \"#utility.yul\":4074:4092   */\n  tag_77\n  tag_9\n  jump\t// in\ntag_77:\n    /* \"#utility.yul\":4038:4094   */\ntag_76:\n    /* \"#utility.yul\":4118:4156   */\n  tag_78\n    /* \"#utility.yul\":4150:4154   */\n  dup3\n    /* \"#utility.yul\":4144:4155   */\n  sload\n    /* \"#utility.yul\":4118:4156   */\n  tag_11\n  jump\t// in\ntag_78:\n    /* \"#utility.yul\":4203:4270   */\n  tag_79\n    /* \"#utility.yul\":4263:4269   */\n  dup3\n    /* \"#utility.yul\":4255:4261   */\n  dup3\n    /* \"#utility.yul\":4249:4253   */\n  dup6\n    /* \"#utility.yul\":4203:4270   */\n  tag_24\n  jump\t// in\ntag_79:\n    /* \"#utility.yul\":4297:4298   */\n  0x00\n    /* \"#utility.yul\":4321:4325   */\n  0x20\n    /* \"#utility.yul\":4308:4325   */\n  swap1\n  pop\n    /* \"#utility.yul\":4353:4355   */\n  0x1f\n    /* \"#utility.yul\":4345:4351   */\n  dup4\n    /* \"#utility.yul\":4342:4356   */\n  gt\n    /* \"#utility.yul\":4370:4371   */\n  0x01\n    /* \"#utility.yul\":4365:4983   */\n  dup2\n  eq\n  tag_81\n  jumpi\n    /* \"#utility.yul\":5027:5028   */\n  0x00\n    /* \"#utility.yul\":5044:5050   */\n  dup5\n    /* \"#utility.yul\":5041:5118   */\n  iszero\n  tag_82\n  jumpi\n    /* \"#utility.yul\":5093:5102   */\n  dup3\n    /* \"#utility.yul\":5088:5091   */\n  dup8\n    /* \"#utility.yul\":5084:5103   */\n  add\n    /* \"#utility.yul\":5078:5104   */\n  mload\n    /* \"#utility.yul\":5069:5104   */\n  swap1\n  pop\n    /* \"#utility.yul\":5041:5118   */\ntag_82:\n    /* \"#utility.yul\":5144:5211   */\n  tag_83\n    /* \"#utility.yul\":5204:5210   */\n  dup6\n    /* \"#utility.yul\":5197:5202   */\n  dup3\n    /* \"#utility.yul\":5144:5211   */\n  tag_27\n  jump\t// in\ntag_83:\n    /* \"#utility.yul\":5138:5142   */\n  dup7\n    /* \"#utility.yul\":5131:5212   */\n  sstore\n    /* \"#utility.yul\":5000:5222   */\n  pop\n    /* \"#utility.yul\":4335:5222   */\n  jump(tag_80)\n    /* \"#utility.yul\":4365:4983   */\ntag_81:\n    /* \"#utility.yul\":4417:4421   */\n  0x1f\n    /* \"#utility.yul\":4413:4422   */\n  not\n    /* \"#utility.yul\":4405:4411   */\n  dup5\n    /* \"#utility.yul\":4401:4423   */\n  and\n    /* \"#utility.yul\":4451:4488   */\n  tag_84\n    /* \"#utility.yul\":4483:4487   */\n  dup7\n    /* \"#utility.yul\":4451:4488   */\n  tag_12\n  jump\t// in\ntag_84:\n    /* \"#utility.yul\":4510:4511   */\n  0x00\n    /* \"#utility.yul\":4524:4732   */\ntag_85:\n    /* \"#utility.yul\":4538:4545   */\n  dup3\n    /* \"#utility.yul\":4535:4536   */\n  dup2\n    /* \"#utility.yul\":4532:4546   */\n  lt\n    /* \"#utility.yul\":4524:4732   */\n  iszero\n  tag_87\n  jumpi\n    /* \"#utility.yul\":4617:4626   */\n  dup5\n    /* \"#utility.yul\":4612:4615   */\n  dup10\n    /* \"#utility.yul\":4608:4627   */\n  add\n    /* \"#utility.yul\":4602:4628   */\n  mload\n    /* \"#utility.yul\":4594:4600   */\n  dup3\n    /* \"#utility.yul\":4587:4629   */\n  sstore\n    /* \"#utility.yul\":4668:4669   */\n  0x01\n    /* \"#utility.yul\":4660:4666   */\n  dup3\n    /* \"#utility.yul\":4656:4670   */\n  add\n    /* \"#utility.yul\":4646:4670   */\n  swap2\n  pop\n    /* \"#utility.yul\":4715:4717   */\n  0x20\n    /* \"#utility.yul\":4704:4713   */\n  dup6\n    /* \"#utility.yul\":4700:4718   */\n  add\n    /* \"#utility.yul\":4687:4718   */\n  swap5\n  pop\n    /* \"#utility.yul\":4561:4565   */\n  0x20\n    /* \"#utility.yul\":4558:4559   */\n  dup2\n    /* \"#utility.yul\":4554:4566   */\n  add\n    /* \"#utility.yul\":4549:4566   */\n  swap1\n  pop\n    /* \"#utility.yul\":4524:4732   */\n  jump(tag_85)\ntag_87:\n    /* \"#utility.yul\":4760:4766   */\n  dup7\n    /* \"#utility.yul\":4751:4758   */\n  dup4\n    /* \"#utility.yul\":4748:4767   */\n  lt\n    /* \"#utility.yul\":4745:4924   */\n  iszero\n  tag_88\n  jumpi\n    /* \"#utility.yul\":4818:4827   */\n  dup5\n    /* \"#utility.yul\":4813:4816   */\n  dup10\n    /* \"#utility.yul\":4809:4828   */\n  add\n    /* \"#utility.yul\":4803:4829   */\n  mload\n    /* \"#utility.yul\":4861:4909   */\n  tag_89\n    /* \"#utility.yul\":4903:4907   */\n  0x1f\n    /* \"#utility.yul\":4895:4901   */\n  dup10\n    /* \"#utility.yul\":4891:4908   */\n  and\n    /* \"#utility.yul\":4880:4889   */\n  dup3\n    /* \"#utility.yul\":4861:4909   */\n  tag_26\n  jump\t// in\ntag_89:\n    /* \"#utility.yul\":4853:4859   */\n  dup4\n    /* \"#utility.yul\":4846:4910   */\n  sstore\n    /* \"#utility.yul\":4768:4924   */\n  pop\n    /* \"#utility.yul\":4745:4924   */\ntag_88:\n    /* \"#utility.yul\":4970:4971   */\n  0x01\n    /* \"#utility.yul\":4966:4967   */\n  0x02\n    /* \"#utility.yul\":4958:4964   */\n  dup9\n    /* \"#utility.yul\":4954:4968   */\n  mul\n    /* \"#utility.yul\":4950:4972   */\n  add\n    /* \"#utility.yul\":4944:4948   */\n  dup9\n    /* \"#utility.yul\":4937:4973   */\n  sstore\n    /* \"#utility.yul\":4372:4983   */\n  pop\n  pop\n  pop\n    /* \"#utility.yul\":4335:5222   */\ntag_80:\n  pop\n    /* \"#utility.yul\":3925:5228   */\n  pop\n  pop\n  pop\n    /* \"#utility.yul\":3833:5228   */\n  pop\n  pop\n  jump\t// out\n    /* \"contracts/Dauth.sol\":57:7519  contract DAuth {... */\ntag_7:\n  dataSize(sub_0)\n  dup1\n  dataOffset(sub_0)\n  0x00\n  codecopy\n  0x00\n  return\nstop\n\nsub_0: assembly {\n        /* \"contracts/Dauth.sol\":57:7519  contract DAuth {... */\n      mstore(0x40, 0x80)\n      callvalue\n      dup1\n      iszero\n      tag_1\n      jumpi\n      0x00\n      dup1\n      revert\n    tag_1:\n      pop\n      jumpi(tag_2, lt(calldatasize, 0x04))\n      shr(0xe0, calldataload(0x00))\n      dup1\n      0x8ab0c338\n      gt\n      tag_17\n      jumpi\n      dup1\n      0xd0679d34\n      gt\n      tag_18\n      jumpi\n      dup1\n      0xd0679d34\n      eq\n      tag_13\n      jumpi\n      dup1\n      0xe29581aa\n      eq\n      tag_14\n      jumpi\n      dup1\n      0xe41e0690\n      eq\n      tag_15\n      jumpi\n      dup1\n      0xf30e1474\n      eq\n      tag_16\n      jumpi\n      jump(tag_2)\n    tag_18:\n      dup1\n      0x8ab0c338\n      eq\n      tag_10\n      jumpi\n      dup1\n      0x9940f736\n      eq\n      tag_11\n      jumpi\n      dup1\n      0xc96b1f32\n      eq\n      tag_12\n      jumpi\n      jump(tag_2)\n    tag_17:\n      dup1\n      0x40c10f19\n      gt\n      tag_19\n      jumpi\n      dup1\n      0x40c10f19\n      eq\n      tag_6\n      jumpi\n      dup1\n      0x64ca7ddd\n      eq\n      tag_7\n      jumpi\n      dup1\n      0x7612fc62\n      eq\n      tag_8\n      jumpi\n      dup1\n      0x784138f3\n      eq\n      tag_9\n      jumpi\n      jump(tag_2)\n    tag_19:\n      dup1\n      0x07546172\n      eq\n      tag_3\n      jumpi\n      dup1\n      0x27c6f43e\n      eq\n      tag_4\n      jumpi\n      dup1\n      0x27e235e3\n      eq\n      tag_5\n      jumpi\n    tag_2:\n      0x00\n      dup1\n      revert\n        /* \"contracts/Dauth.sol\":161:182  address public minter */\n    tag_3:\n      tag_20\n      tag_21\n      jump\t// in\n    tag_20:\n      mload(0x40)\n      tag_22\n      swap2\n      swap1\n      tag_23\n      jump\t// in\n    tag_22:\n      mload(0x40)\n      dup1\n      swap2\n      sub\n      swap1\n      return\n        /* \"contracts/Dauth.sol\":2784:3106  function registerNode(string memory _nodePubKey) public {... */\n    tag_4:\n      tag_24\n      0x04\n      dup1\n      calldatasize\n      sub\n      dup2\n      add\n      swap1\n      tag_25\n      swap2\n      swap1\n      tag_26\n      jump\t// in\n    tag_25:\n      tag_27\n      jump\t// in\n    tag_24:\n      stop\n        /* \"contracts/Dauth.sol\":188:229  mapping (address => uint) public balances */\n    tag_5:\n      tag_28\n      0x04\n      dup1\n      calldatasize\n      sub\n      dup2\n      add\n      swap1\n      tag_29\n      swap2\n      swap1\n      tag_30\n      jump\t// in\n    tag_29:\n      tag_31\n      jump\t// in\n    tag_28:\n      mload(0x40)\n      tag_32\n      swap2\n      swap1\n      tag_33\n      jump\t// in\n    tag_32:\n      mload(0x40)\n      dup1\n      swap2\n      sub\n      swap1\n      return\n        /* \"contracts/Dauth.sol\":2009:2141  function mint(address receiver, uint amount) public {... */\n    tag_6:\n      tag_34\n      0x04\n      dup1\n      calldatasize\n      sub\n      dup2\n      add\n      swap1\n      tag_35\n      swap2\n      swap1\n      tag_36\n      jump\t// in\n    tag_35:\n      tag_37\n      jump\t// in\n    tag_34:\n      stop\n        /* \"contracts/Dauth.sol\":4086:4252  function recoverRequest(string memory userId) public {... */\n    tag_7:\n      tag_38\n      0x04\n      dup1\n      calldatasize\n      sub\n      dup2\n      add\n      swap1\n      tag_39\n      swap2\n      swap1\n      tag_26\n      jump\t// in\n    tag_39:\n      tag_40\n      jump\t// in\n    tag_38:\n      stop\n        /* \"contracts/Dauth.sol\":6009:7516  function signDone(string memory userId, ... */\n    tag_8:\n      tag_41\n      0x04\n      dup1\n      calldatasize\n      sub\n      dup2\n      add\n      swap1\n      tag_42\n      swap2\n      swap1\n      tag_43\n      jump\t// in\n    tag_42:\n      tag_44\n      jump\t// in\n    tag_41:\n      stop\n        /* \"contracts/Dauth.sol\":1258:1311  mapping(string => SignHistory) public signHistoryList */\n    tag_9:\n      tag_45\n      0x04\n      dup1\n      calldatasize\n      sub\n      dup2\n      add\n      swap1\n      tag_46\n      swap2\n      swap1\n      tag_26\n      jump\t// in\n    tag_46:\n      tag_47\n      jump\t// in\n    tag_45:\n      mload(0x40)\n      tag_48\n      swap11\n      swap10\n      swap9\n      swap8\n      swap7\n      swap6\n      swap5\n      swap4\n      swap3\n      swap2\n      swap1\n      tag_49\n      jump\t// in\n    tag_48:\n      mload(0x40)\n      dup1\n      swap2\n      sub\n      swap1\n      return\n        /* \"contracts/Dauth.sol\":4258:5837  function recoverDone(string memory userId, ... */\n    tag_10:\n      tag_50\n      0x04\n      dup1\n      calldatasize\n      sub\n      dup2\n      add\n      swap1\n      tag_51\n      swap2\n      swap1\n      tag_43\n      jump\t// in\n    tag_51:\n      tag_52\n      jump\t// in\n    tag_50:\n      stop\n        /* \"contracts/Dauth.sol\":1193:1252  mapping(string => RecoverHistory) public recoverHistoryList */\n    tag_11:\n      tag_53\n      0x04\n      dup1\n      calldatasize\n      sub\n      dup2\n      add\n      swap1\n      tag_54\n      swap2\n      swap1\n      tag_26\n      jump\t// in\n    tag_54:\n      tag_55\n      jump\t// in\n    tag_53:\n      mload(0x40)\n      tag_56\n      swap11\n      swap10\n      swap9\n      swap8\n      swap7\n      swap6\n      swap5\n      swap4\n      swap3\n      swap2\n      swap1\n      tag_49\n      jump\t// in\n    tag_56:\n      mload(0x40)\n      dup1\n      swap2\n      sub\n      swap1\n      return\n        /* \"contracts/Dauth.sol\":5843:6003  function signRequest(string memory userId) public {... */\n    tag_12:\n      tag_57\n      0x04\n      dup1\n      calldatasize\n      sub\n      dup2\n      add\n      swap1\n      tag_58\n      swap2\n      swap1\n      tag_26\n      jump\t// in\n    tag_58:\n      tag_59\n      jump\t// in\n    tag_57:\n      stop\n        /* \"contracts/Dauth.sol\":2430:2774  function send(address receiver, uint amount) public {... */\n    tag_13:\n      tag_60\n      0x04\n      dup1\n      calldatasize\n      sub\n      dup2\n      add\n      swap1\n      tag_61\n      swap2\n      swap1\n      tag_36\n      jump\t// in\n    tag_61:\n      tag_62\n      jump\t// in\n    tag_60:\n      stop\n        /* \"contracts/Dauth.sol\":3112:3203  function getNodes() public view returns(Node[] memory nodes) {... */\n    tag_14:\n      tag_63\n      tag_64\n      jump\t// in\n    tag_63:\n      mload(0x40)\n      tag_65\n      swap2\n      swap1\n      tag_66\n      jump\t// in\n    tag_65:\n      mload(0x40)\n      dup1\n      swap2\n      sub\n      swap1\n      return\n        /* \"contracts/Dauth.sol\":3209:4080  function registerUser(string memory userId, uint condition1Type, address nodeAddress1, ... */\n    tag_15:\n      tag_67\n      0x04\n      dup1\n      calldatasize\n      sub\n      dup2\n      add\n      swap1\n      tag_68\n      swap2\n      swap1\n      tag_69\n      jump\t// in\n    tag_68:\n      tag_70\n      jump\t// in\n    tag_67:\n      stop\n        /* \"contracts/Dauth.sol\":1148:1187  mapping(string => User) public userList */\n    tag_16:\n      tag_71\n      0x04\n      dup1\n      calldatasize\n      sub\n      dup2\n      add\n      swap1\n      tag_72\n      swap2\n      swap1\n      tag_26\n      jump\t// in\n    tag_72:\n      tag_73\n      jump\t// in\n    tag_71:\n      mload(0x40)\n      tag_74\n      swap9\n      swap8\n      swap7\n      swap6\n      swap5\n      swap4\n      swap3\n      swap2\n      swap1\n      tag_75\n      jump\t// in\n    tag_74:\n      mload(0x40)\n      dup1\n      swap2\n      sub\n      swap1\n      return\n        /* \"contracts/Dauth.sol\":161:182  address public minter */\n    tag_21:\n      0x00\n      dup1\n      sload\n      swap1\n      0x0100\n      exp\n      swap1\n      div\n      0xffffffffffffffffffffffffffffffffffffffff\n      and\n      dup2\n      jump\t// out\n        /* \"contracts/Dauth.sol\":2784:3106  function registerNode(string memory _nodePubKey) public {... */\n    tag_27:\n        /* \"contracts/Dauth.sol\":2848:2856  uint len */\n      0x00\n        /* \"contracts/Dauth.sol\":2859:2867  nodeList */\n      0x02\n        /* \"contracts/Dauth.sol\":2859:2874  nodeList.length */\n      dup1\n      sload\n      swap1\n      pop\n        /* \"contracts/Dauth.sol\":2848:2874  uint len = nodeList.length */\n      swap1\n      pop\n        /* \"contracts/Dauth.sol\":2887:2893  uint i */\n      0x00\n        /* \"contracts/Dauth.sol\":2882:3047  for (uint i; i < len; i++) {... */\n    tag_77:\n        /* \"contracts/Dauth.sol\":2899:2902  len */\n      dup2\n        /* \"contracts/Dauth.sol\":2895:2896  i */\n      dup2\n        /* \"contracts/Dauth.sol\":2895:2902  i < len */\n      lt\n        /* \"contracts/Dauth.sol\":2882:3047  for (uint i; i < len; i++) {... */\n      iszero\n      tag_78\n      jumpi\n        /* \"contracts/Dauth.sol\":2950:2960  msg.sender */\n      caller\n        /* \"contracts/Dauth.sol\":2923:2960  nodeList[i].nodeAddress == msg.sender */\n      0xffffffffffffffffffffffffffffffffffffffff\n      and\n        /* \"contracts/Dauth.sol\":2923:2931  nodeList */\n      0x02\n        /* \"contracts/Dauth.sol\":2932:2933  i */\n      dup3\n        /* \"contracts/Dauth.sol\":2923:2934  nodeList[i] */\n      dup2\n      sload\n      dup2\n      lt\n      tag_80\n      jumpi\n      tag_81\n      tag_82\n      jump\t// in\n    tag_81:\n    tag_80:\n      swap1\n      0x00\n      mstore\n      keccak256(0x00, 0x20)\n      swap1\n      0x02\n      mul\n      add\n        /* \"contracts/Dauth.sol\":2923:2946  nodeList[i].nodeAddress */\n      0x00\n      add\n      0x00\n      swap1\n      sload\n      swap1\n      0x0100\n      exp\n      swap1\n      div\n      0xffffffffffffffffffffffffffffffffffffffff\n      and\n        /* \"contracts/Dauth.sol\":2923:2960  nodeList[i].nodeAddress == msg.sender */\n      0xffffffffffffffffffffffffffffffffffffffff\n      and\n      sub\n        /* \"contracts/Dauth.sol\":2919:3039  if (nodeList[i].nodeAddress == msg.sender) {... */\n      tag_84\n      jumpi\n        /* \"contracts/Dauth.sol\":2999:3010  _nodePubKey */\n      dup3\n        /* \"contracts/Dauth.sol\":2974:2982  nodeList */\n      0x02\n        /* \"contracts/Dauth.sol\":2983:2984  i */\n      dup3\n        /* \"contracts/Dauth.sol\":2974:2985  nodeList[i] */\n      dup2\n      sload\n      dup2\n      lt\n      tag_85\n      jumpi\n      tag_86\n      tag_82\n      jump\t// in\n    tag_86:\n    tag_85:\n      swap1\n      0x00\n      mstore\n      keccak256(0x00, 0x20)\n      swap1\n      0x02\n      mul\n      add\n        /* \"contracts/Dauth.sol\":2974:2996  nodeList[i].nodePubKey */\n      0x01\n      add\n        /* \"contracts/Dauth.sol\":2974:3010  nodeList[i].nodePubKey = _nodePubKey */\n      swap1\n      dup2\n      tag_88\n      swap2\n      swap1\n      tag_89\n      jump\t// in\n    tag_88:\n      pop\n        /* \"contracts/Dauth.sol\":3022:3029  return; */\n      pop\n      pop\n      jump(tag_76)\n        /* \"contracts/Dauth.sol\":2919:3039  if (nodeList[i].nodeAddress == msg.sender) {... */\n    tag_84:\n        /* \"contracts/Dauth.sol\":2904:2907  i++ */\n      dup1\n      dup1\n      tag_90\n      swap1\n      tag_91\n      jump\t// in\n    tag_90:\n      swap2\n      pop\n      pop\n        /* \"contracts/Dauth.sol\":2882:3047  for (uint i; i < len; i++) {... */\n      jump(tag_77)\n    tag_78:\n      pop\n        /* \"contracts/Dauth.sol\":3054:3062  nodeList */\n      0x02\n        /* \"contracts/Dauth.sol\":3069:3098  Node(msg.sender, _nodePubKey) */\n      mload(0x40)\n      dup1\n      0x40\n      add\n      0x40\n      mstore\n      dup1\n        /* \"contracts/Dauth.sol\":3074:3084  msg.sender */\n      caller\n        /* \"contracts/Dauth.sol\":3069:3098  Node(msg.sender, _nodePubKey) */\n      0xffffffffffffffffffffffffffffffffffffffff\n      and\n      dup2\n      mstore\n      0x20\n      add\n        /* \"contracts/Dauth.sol\":3086:3097  _nodePubKey */\n      dup5\n        /* \"contracts/Dauth.sol\":3069:3098  Node(msg.sender, _nodePubKey) */\n      dup2\n      mstore\n      pop\n        /* \"contracts/Dauth.sol\":3054:3099  nodeList.push( Node(msg.sender, _nodePubKey)) */\n      swap1\n      dup1\n      0x01\n      dup2\n      sload\n      add\n      dup1\n      dup3\n      sstore\n      dup1\n      swap2\n      pop\n      pop\n      0x01\n      swap1\n      sub\n      swap1\n      0x00\n      mstore\n      keccak256(0x00, 0x20)\n      swap1\n      0x02\n      mul\n      add\n      0x00\n      swap1\n      swap2\n      swap1\n      swap2\n      swap1\n      swap2\n      pop\n      0x00\n      dup3\n      add\n      mload\n      dup2\n      0x00\n      add\n      exp(0x0100, 0x00)\n      dup2\n      sload\n      dup2\n      0xffffffffffffffffffffffffffffffffffffffff\n      mul\n      not\n      and\n      swap1\n      dup4\n      0xffffffffffffffffffffffffffffffffffffffff\n      and\n      mul\n      or\n      swap1\n      sstore\n      pop\n      0x20\n      dup3\n      add\n      mload\n      dup2\n      0x01\n      add\n      swap1\n      dup2\n      tag_93\n      swap2\n      swap1\n      tag_89\n      jump\t// in\n    tag_93:\n      pop\n      pop\n      pop\n        /* \"contracts/Dauth.sol\":2840:3106  {... */\n      pop\n        /* \"contracts/Dauth.sol\":2784:3106  function registerNode(string memory _nodePubKey) public {... */\n    tag_76:\n      pop\n      jump\t// out\n        /* \"contracts/Dauth.sol\":188:229  mapping (address => uint) public balances */\n    tag_31:\n      mstore(0x20, 0x01)\n      dup1\n      0x00\n      mstore\n      keccak256(0x00, 0x40)\n      0x00\n      swap2\n      pop\n      swap1\n      pop\n      sload\n      dup2\n      jump\t// out\n        /* \"contracts/Dauth.sol\":2009:2141  function mint(address receiver, uint amount) public {... */\n    tag_37:\n        /* \"contracts/Dauth.sol\":2091:2097  minter */\n      0x00\n      dup1\n      sload\n      swap1\n      0x0100\n      exp\n      swap1\n      div\n      0xffffffffffffffffffffffffffffffffffffffff\n      and\n        /* \"contracts/Dauth.sol\":2077:2097  msg.sender == minter */\n      0xffffffffffffffffffffffffffffffffffffffff\n      and\n        /* \"contracts/Dauth.sol\":2077:2087  msg.sender */\n      caller\n        /* \"contracts/Dauth.sol\":2077:2097  msg.sender == minter */\n      0xffffffffffffffffffffffffffffffffffffffff\n      and\n      eq\n        /* \"contracts/Dauth.sol\":2069:2098  require(msg.sender == minter) */\n      tag_95\n      jumpi\n      0x00\n      dup1\n      revert\n    tag_95:\n        /* \"contracts/Dauth.sol\":2128:2134  amount */\n      dup1\n        /* \"contracts/Dauth.sol\":2106:2114  balances */\n      0x01\n        /* \"contracts/Dauth.sol\":2106:2124  balances[receiver] */\n      0x00\n        /* \"contracts/Dauth.sol\":2115:2123  receiver */\n      dup5\n        /* \"contracts/Dauth.sol\":2106:2124  balances[receiver] */\n      0xffffffffffffffffffffffffffffffffffffffff\n      and\n      0xffffffffffffffffffffffffffffffffffffffff\n      and\n      dup2\n      mstore\n      0x20\n      add\n      swap1\n      dup2\n      mstore\n      0x20\n      add\n      0x00\n      keccak256\n      0x00\n        /* \"contracts/Dauth.sol\":2106:2134  balances[receiver] += amount */\n      dup3\n      dup3\n      sload\n      tag_96\n      swap2\n      swap1\n      tag_97\n      jump\t// in\n    tag_96:\n      swap3\n      pop\n      pop\n      dup2\n      swap1\n      sstore\n      pop\n        /* \"contracts/Dauth.sol\":2009:2141  function mint(address receiver, uint amount) public {... */\n      pop\n      pop\n      jump\t// out\n        /* \"contracts/Dauth.sol\":4086:4252  function recoverRequest(string memory userId) public {... */\n    tag_40:\n        /* \"contracts/Dauth.sol\":4190:4191  0 */\n      0x00\n        /* \"contracts/Dauth.sol\":4150:4192  userList[userId].userAddress == address(0) */\n      0xffffffffffffffffffffffffffffffffffffffff\n      and\n        /* \"contracts/Dauth.sol\":4150:4158  userList */\n      0x03\n        /* \"contracts/Dauth.sol\":4159:4165  userId */\n      dup3\n        /* \"contracts/Dauth.sol\":4150:4166  userList[userId] */\n      mload(0x40)\n      tag_99\n      swap2\n      swap1\n      tag_100\n      jump\t// in\n    tag_99:\n      swap1\n      dup2\n      mstore\n      0x20\n      add\n      mload(0x40)\n      dup1\n      swap2\n      sub\n      swap1\n      keccak256\n        /* \"contracts/Dauth.sol\":4150:4178  userList[userId].userAddress */\n      0x00\n      add\n      0x00\n      swap1\n      sload\n      swap1\n      0x0100\n      exp\n      swap1\n      div\n      0xffffffffffffffffffffffffffffffffffffffff\n      and\n        /* \"contracts/Dauth.sol\":4150:4192  userList[userId].userAddress == address(0) */\n      0xffffffffffffffffffffffffffffffffffffffff\n      and\n      sub\n        /* \"contracts/Dauth.sol\":4147:4201  if(userList[userId].userAddress == address(0)) return; */\n      iszero\n        /* \"contracts/Dauth.sol\":4194:4201  return; */\n      tag_98\n        /* \"contracts/Dauth.sol\":4147:4201  if(userList[userId].userAddress == address(0)) return; */\n      jumpi\n        /* \"contracts/Dauth.sol\":4244:4245  1 */\n      0x01\n        /* \"contracts/Dauth.sol\":4208:4226  recoverHistoryList */\n      0x04\n        /* \"contracts/Dauth.sol\":4227:4233  userId */\n      dup3\n        /* \"contracts/Dauth.sol\":4208:4234  recoverHistoryList[userId] */\n      mload(0x40)\n      tag_102\n      swap2\n      swap1\n      tag_100\n      jump\t// in\n    tag_102:\n      swap1\n      dup2\n      mstore\n      0x20\n      add\n      mload(0x40)\n      dup1\n      swap2\n      sub\n      swap1\n      keccak256\n        /* \"contracts/Dauth.sol\":4208:4241  recoverHistoryList[userId].status */\n      0x02\n      add\n        /* \"contracts/Dauth.sol\":4208:4245  recoverHistoryList[userId].status = 1 */\n      dup2\n      swap1\n      sstore\n      pop\n        /* \"contracts/Dauth.sol\":4086:4252  function recoverRequest(string memory userId) public {... */\n    tag_98:\n      pop\n      jump\t// out\n        /* \"contracts/Dauth.sol\":6009:7516  function signDone(string memory userId, ... */\n    tag_44:\n        /* \"contracts/Dauth.sol\":6141:6142  3 */\n      0x03\n        /* \"contracts/Dauth.sol\":6100:6108  balances */\n      0x01\n        /* \"contracts/Dauth.sol\":6100:6138  balances[userList[userId].userAddress] */\n      0x00\n        /* \"contracts/Dauth.sol\":6109:6117  userList */\n      0x03\n        /* \"contracts/Dauth.sol\":6118:6124  userId */\n      dup6\n        /* \"contracts/Dauth.sol\":6109:6125  userList[userId] */\n      mload(0x40)\n      tag_104\n      swap2\n      swap1\n      tag_100\n      jump\t// in\n    tag_104:\n      swap1\n      dup2\n      mstore\n      0x20\n      add\n      mload(0x40)\n      dup1\n      swap2\n      sub\n      swap1\n      keccak256\n        /* \"contracts/Dauth.sol\":6109:6137  userList[userId].userAddress */\n      0x00\n      add\n      0x00\n      swap1\n      sload\n      swap1\n      0x0100\n      exp\n      swap1\n      div\n      0xffffffffffffffffffffffffffffffffffffffff\n      and\n        /* \"contracts/Dauth.sol\":6100:6138  balances[userList[userId].userAddress] */\n      0xffffffffffffffffffffffffffffffffffffffff\n      and\n      0xffffffffffffffffffffffffffffffffffffffff\n      and\n      dup2\n      mstore\n      0x20\n      add\n      swap1\n      dup2\n      mstore\n      0x20\n      add\n      0x00\n      keccak256\n      sload\n        /* \"contracts/Dauth.sol\":6100:6142  balances[userList[userId].userAddress] < 3 */\n      lt\n        /* \"contracts/Dauth.sol\":6144:6151  return; */\n      tag_103\n        /* \"contracts/Dauth.sol\":6097:6151  if(balances[userList[userId].userAddress] < 3) return; */\n      jumpi\n        /* \"contracts/Dauth.sol\":6201:6202  0 */\n      0x00\n        /* \"contracts/Dauth.sol\":6161:6203  userList[userId].userAddress == address(0) */\n      0xffffffffffffffffffffffffffffffffffffffff\n      and\n        /* \"contracts/Dauth.sol\":6161:6169  userList */\n      0x03\n        /* \"contracts/Dauth.sol\":6170:6176  userId */\n      dup4\n        /* \"contracts/Dauth.sol\":6161:6177  userList[userId] */\n      mload(0x40)\n      tag_106\n      swap2\n      swap1\n      tag_100\n      jump\t// in\n    tag_106:\n      swap1\n      dup2\n      mstore\n      0x20\n      add\n      mload(0x40)\n      dup1\n      swap2\n      sub\n      swap1\n      keccak256\n        /* \"contracts/Dauth.sol\":6161:6189  userList[userId].userAddress */\n      0x00\n      add\n      0x00\n      swap1\n      sload\n      swap1\n      0x0100\n      exp\n      swap1\n      div\n      0xffffffffffffffffffffffffffffffffffffffff\n      and\n        /* \"contracts/Dauth.sol\":6161:6203  userList[userId].userAddress == address(0) */\n      0xffffffffffffffffffffffffffffffffffffffff\n      and\n      sub\n        /* \"contracts/Dauth.sol\":6158:6212  if(userList[userId].userAddress == address(0)) return; */\n      iszero\n        /* \"contracts/Dauth.sol\":6205:6212  return; */\n      tag_103\n        /* \"contracts/Dauth.sol\":6158:6212  if(userList[userId].userAddress == address(0)) return; */\n      jumpi\n        /* \"contracts/Dauth.sol\":6256:6257  1 */\n      0x01\n        /* \"contracts/Dauth.sol\":6222:6237  signHistoryList */\n      0x05\n        /* \"contracts/Dauth.sol\":6238:6244  userId */\n      dup4\n        /* \"contracts/Dauth.sol\":6222:6245  signHistoryList[userId] */\n      mload(0x40)\n      tag_108\n      swap2\n      swap1\n      tag_100\n      jump\t// in\n    tag_108:\n      swap1\n      dup2\n      mstore\n      0x20\n      add\n      mload(0x40)\n      dup1\n      swap2\n      sub\n      swap1\n      keccak256\n        /* \"contracts/Dauth.sol\":6222:6252  signHistoryList[userId].status */\n      0x02\n      add\n      sload\n        /* \"contracts/Dauth.sol\":6222:6257  signHistoryList[userId].status != 1 */\n      sub\n        /* \"contracts/Dauth.sol\":6259:6266  return; */\n      tag_103\n        /* \"contracts/Dauth.sol\":6219:6266  if(signHistoryList[userId].status != 1) return; */\n      jumpi\n        /* \"contracts/Dauth.sol\":6291:6299  userList */\n      0x03\n        /* \"contracts/Dauth.sol\":6300:6306  userId */\n      dup3\n        /* \"contracts/Dauth.sol\":6291:6307  userList[userId] */\n      mload(0x40)\n      tag_110\n      swap2\n      swap1\n      tag_100\n      jump\t// in\n    tag_110:\n      swap1\n      dup2\n      mstore\n      0x20\n      add\n      mload(0x40)\n      dup1\n      swap2\n      sub\n      swap1\n      keccak256\n        /* \"contracts/Dauth.sol\":6291:6320  userList[userId].nodeAddress1 */\n      0x03\n      add\n      0x00\n      swap1\n      sload\n      swap1\n      0x0100\n      exp\n      swap1\n      div\n      0xffffffffffffffffffffffffffffffffffffffff\n      and\n        /* \"contracts/Dauth.sol\":6277:6320  msg.sender == userList[userId].nodeAddress1 */\n      0xffffffffffffffffffffffffffffffffffffffff\n      and\n        /* \"contracts/Dauth.sol\":6277:6287  msg.sender */\n      caller\n        /* \"contracts/Dauth.sol\":6277:6320  msg.sender == userList[userId].nodeAddress1 */\n      0xffffffffffffffffffffffffffffffffffffffff\n      and\n      sub\n        /* \"contracts/Dauth.sol\":6274:6956  if(msg.sender == userList[userId].nodeAddress1) {... */\n      tag_111\n      jumpi\n        /* \"contracts/Dauth.sol\":6369:6378  signProof */\n      dup1\n        /* \"contracts/Dauth.sol\":6332:6347  signHistoryList */\n      0x05\n        /* \"contracts/Dauth.sol\":6348:6354  userId */\n      dup4\n        /* \"contracts/Dauth.sol\":6332:6355  signHistoryList[userId] */\n      mload(0x40)\n      tag_112\n      swap2\n      swap1\n      tag_100\n      jump\t// in\n    tag_112:\n      swap1\n      dup2\n      mstore\n      0x20\n      add\n      mload(0x40)\n      dup1\n      swap2\n      sub\n      swap1\n      keccak256\n        /* \"contracts/Dauth.sol\":6332:6366  signHistoryList[userId].signProof1 */\n      0x04\n      add\n        /* \"contracts/Dauth.sol\":6332:6378  signHistoryList[userId].signProof1 = signProof */\n      swap1\n      dup2\n      tag_113\n      swap2\n      swap1\n      tag_89\n      jump\t// in\n    tag_113:\n      pop\n        /* \"contracts/Dauth.sol\":6477:6478  1 */\n      0x01\n        /* \"contracts/Dauth.sol\":6438:6453  signHistoryList */\n      0x05\n        /* \"contracts/Dauth.sol\":6454:6460  userId */\n      dup4\n        /* \"contracts/Dauth.sol\":6438:6461  signHistoryList[userId] */\n      mload(0x40)\n      tag_114\n      swap2\n      swap1\n      tag_100\n      jump\t// in\n    tag_114:\n      swap1\n      dup2\n      mstore\n      0x20\n      add\n      mload(0x40)\n      dup1\n      swap2\n      sub\n      swap1\n      keccak256\n        /* \"contracts/Dauth.sol\":6438:6474  signHistoryList[userId].serialNumber */\n      0x03\n      add\n      sload\n        /* \"contracts/Dauth.sol\":6438:6478  signHistoryList[userId].serialNumber + 1 */\n      tag_115\n      swap2\n      swap1\n      tag_97\n      jump\t// in\n    tag_115:\n        /* \"contracts/Dauth.sol\":6388:6403  signHistoryList */\n      0x05\n        /* \"contracts/Dauth.sol\":6404:6410  userId */\n      dup4\n        /* \"contracts/Dauth.sol\":6388:6411  signHistoryList[userId] */\n      mload(0x40)\n      tag_116\n      swap2\n      swap1\n      tag_100\n      jump\t// in\n    tag_116:\n      swap1\n      dup2\n      mstore\n      0x20\n      add\n      mload(0x40)\n      dup1\n      swap2\n      sub\n      swap1\n      keccak256\n        /* \"contracts/Dauth.sol\":6388:6424  signHistoryList[userId].nodeConfirm1 */\n      0x05\n      add\n        /* \"contracts/Dauth.sol\":6388:6478  signHistoryList[userId].nodeConfirm1 = ... */\n      dup2\n      swap1\n      sstore\n      pop\n        /* \"contracts/Dauth.sol\":6274:6956  if(msg.sender == userList[userId].nodeAddress1) {... */\n      jump(tag_117)\n    tag_111:\n        /* \"contracts/Dauth.sol\":6510:6518  userList */\n      0x03\n        /* \"contracts/Dauth.sol\":6519:6525  userId */\n      dup3\n        /* \"contracts/Dauth.sol\":6510:6526  userList[userId] */\n      mload(0x40)\n      tag_118\n      swap2\n      swap1\n      tag_100\n      jump\t// in\n    tag_118:\n      swap1\n      dup2\n      mstore\n      0x20\n      add\n      mload(0x40)\n      dup1\n      swap2\n      sub\n      swap1\n      keccak256\n        /* \"contracts/Dauth.sol\":6510:6539  userList[userId].nodeAddress2 */\n      0x05\n      add\n      0x00\n      swap1\n      sload\n      swap1\n      0x0100\n      exp\n      swap1\n      div\n      0xffffffffffffffffffffffffffffffffffffffff\n      and\n        /* \"contracts/Dauth.sol\":6496:6539  msg.sender == userList[userId].nodeAddress2 */\n      0xffffffffffffffffffffffffffffffffffffffff\n      and\n        /* \"contracts/Dauth.sol\":6496:6506  msg.sender */\n      caller\n        /* \"contracts/Dauth.sol\":6496:6539  msg.sender == userList[userId].nodeAddress2 */\n      0xffffffffffffffffffffffffffffffffffffffff\n      and\n      sub\n        /* \"contracts/Dauth.sol\":6493:6956  if(msg.sender == userList[userId].nodeAddress2) {... */\n      tag_119\n      jumpi\n        /* \"contracts/Dauth.sol\":6588:6597  signProof */\n      dup1\n        /* \"contracts/Dauth.sol\":6551:6566  signHistoryList */\n      0x05\n        /* \"contracts/Dauth.sol\":6567:6573  userId */\n      dup4\n        /* \"contracts/Dauth.sol\":6551:6574  signHistoryList[userId] */\n      mload(0x40)\n      tag_120\n      swap2\n      swap1\n      tag_100\n      jump\t// in\n    tag_120:\n      swap1\n      dup2\n      mstore\n      0x20\n      add\n      mload(0x40)\n      dup1\n      swap2\n      sub\n      swap1\n      keccak256\n        /* \"contracts/Dauth.sol\":6551:6585  signHistoryList[userId].signProof2 */\n      0x06\n      add\n        /* \"contracts/Dauth.sol\":6551:6597  signHistoryList[userId].signProof2 = signProof */\n      swap1\n      dup2\n      tag_121\n      swap2\n      swap1\n      tag_89\n      jump\t// in\n    tag_121:\n      pop\n        /* \"contracts/Dauth.sol\":6696:6697  1 */\n      0x01\n        /* \"contracts/Dauth.sol\":6657:6672  signHistoryList */\n      0x05\n        /* \"contracts/Dauth.sol\":6673:6679  userId */\n      dup4\n        /* \"contracts/Dauth.sol\":6657:6680  signHistoryList[userId] */\n      mload(0x40)\n      tag_122\n      swap2\n      swap1\n      tag_100\n      jump\t// in\n    tag_122:\n      swap1\n      dup2\n      mstore\n      0x20\n      add\n      mload(0x40)\n      dup1\n      swap2\n      sub\n      swap1\n      keccak256\n        /* \"contracts/Dauth.sol\":6657:6693  signHistoryList[userId].serialNumber */\n      0x03\n      add\n      sload\n        /* \"contracts/Dauth.sol\":6657:6697  signHistoryList[userId].serialNumber + 1 */\n      tag_123\n      swap2\n      swap1\n      tag_97\n      jump\t// in\n    tag_123:\n        /* \"contracts/Dauth.sol\":6607:6622  signHistoryList */\n      0x05\n        /* \"contracts/Dauth.sol\":6623:6629  userId */\n      dup4\n        /* \"contracts/Dauth.sol\":6607:6630  signHistoryList[userId] */\n      mload(0x40)\n      tag_124\n      swap2\n      swap1\n      tag_100\n      jump\t// in\n    tag_124:\n      swap1\n      dup2\n      mstore\n      0x20\n      add\n      mload(0x40)\n      dup1\n      swap2\n      sub\n      swap1\n      keccak256\n        /* \"contracts/Dauth.sol\":6607:6643  signHistoryList[userId].nodeConfirm2 */\n      0x07\n      add\n        /* \"contracts/Dauth.sol\":6607:6697  signHistoryList[userId].nodeConfirm2 = ... */\n      dup2\n      swap1\n      sstore\n      pop\n        /* \"contracts/Dauth.sol\":6493:6956  if(msg.sender == userList[userId].nodeAddress2) {... */\n      jump(tag_125)\n    tag_119:\n        /* \"contracts/Dauth.sol\":6729:6737  userList */\n      0x03\n        /* \"contracts/Dauth.sol\":6738:6744  userId */\n      dup3\n        /* \"contracts/Dauth.sol\":6729:6745  userList[userId] */\n      mload(0x40)\n      tag_126\n      swap2\n      swap1\n      tag_100\n      jump\t// in\n    tag_126:\n      swap1\n      dup2\n      mstore\n      0x20\n      add\n      mload(0x40)\n      dup1\n      swap2\n      sub\n      swap1\n      keccak256\n        /* \"contracts/Dauth.sol\":6729:6758  userList[userId].nodeAddress3 */\n      0x07\n      add\n      0x00\n      swap1\n      sload\n      swap1\n      0x0100\n      exp\n      swap1\n      div\n      0xffffffffffffffffffffffffffffffffffffffff\n      and\n        /* \"contracts/Dauth.sol\":6715:6758  msg.sender == userList[userId].nodeAddress3 */\n      0xffffffffffffffffffffffffffffffffffffffff\n      and\n        /* \"contracts/Dauth.sol\":6715:6725  msg.sender */\n      caller\n        /* \"contracts/Dauth.sol\":6715:6758  msg.sender == userList[userId].nodeAddress3 */\n      0xffffffffffffffffffffffffffffffffffffffff\n      and\n      sub\n        /* \"contracts/Dauth.sol\":6712:6956  if(msg.sender == userList[userId].nodeAddress3) {... */\n      tag_127\n      jumpi\n        /* \"contracts/Dauth.sol\":6807:6816  signProof */\n      dup1\n        /* \"contracts/Dauth.sol\":6770:6785  signHistoryList */\n      0x05\n        /* \"contracts/Dauth.sol\":6786:6792  userId */\n      dup4\n        /* \"contracts/Dauth.sol\":6770:6793  signHistoryList[userId] */\n      mload(0x40)\n      tag_128\n      swap2\n      swap1\n      tag_100\n      jump\t// in\n    tag_128:\n      swap1\n      dup2\n      mstore\n      0x20\n      add\n      mload(0x40)\n      dup1\n      swap2\n      sub\n      swap1\n      keccak256\n        /* \"contracts/Dauth.sol\":6770:6804  signHistoryList[userId].signProof3 */\n      0x08\n      add\n        /* \"contracts/Dauth.sol\":6770:6816  signHistoryList[userId].signProof3 = signProof */\n      swap1\n      dup2\n      tag_129\n      swap2\n      swap1\n      tag_89\n      jump\t// in\n    tag_129:\n      pop\n        /* \"contracts/Dauth.sol\":6915:6916  1 */\n      0x01\n        /* \"contracts/Dauth.sol\":6876:6891  signHistoryList */\n      0x05\n        /* \"contracts/Dauth.sol\":6892:6898  userId */\n      dup4\n        /* \"contracts/Dauth.sol\":6876:6899  signHistoryList[userId] */\n      mload(0x40)\n      tag_130\n      swap2\n      swap1\n      tag_100\n      jump\t// in\n    tag_130:\n      swap1\n      dup2\n      mstore\n      0x20\n      add\n      mload(0x40)\n      dup1\n      swap2\n      sub\n      swap1\n      keccak256\n        /* \"contracts/Dauth.sol\":6876:6912  signHistoryList[userId].serialNumber */\n      0x03\n      add\n      sload\n        /* \"contracts/Dauth.sol\":6876:6916  signHistoryList[userId].serialNumber + 1 */\n      tag_131\n      swap2\n      swap1\n      tag_97\n      jump\t// in\n    tag_131:\n        /* \"contracts/Dauth.sol\":6826:6841  signHistoryList */\n      0x05\n        /* \"contracts/Dauth.sol\":6842:6848  userId */\n      dup4\n        /* \"contracts/Dauth.sol\":6826:6849  signHistoryList[userId] */\n      mload(0x40)\n      tag_132\n      swap2\n      swap1\n      tag_100\n      jump\t// in\n    tag_132:\n      swap1\n      dup2\n      mstore\n      0x20\n      add\n      mload(0x40)\n      dup1\n      swap2\n      sub\n      swap1\n      keccak256\n        /* \"contracts/Dauth.sol\":6826:6862  signHistoryList[userId].nodeConfirm3 */\n      0x09\n      add\n        /* \"contracts/Dauth.sol\":6826:6916  signHistoryList[userId].nodeConfirm3 = ... */\n      dup2\n      swap1\n      sstore\n      pop\n        /* \"contracts/Dauth.sol\":6712:6956  if(msg.sender == userList[userId].nodeAddress3) {... */\n      jump(tag_133)\n    tag_127:\n        /* \"contracts/Dauth.sol\":6941:6948  return; */\n      jump(tag_103)\n        /* \"contracts/Dauth.sol\":6712:6956  if(msg.sender == userList[userId].nodeAddress3) {... */\n    tag_133:\n        /* \"contracts/Dauth.sol\":6493:6956  if(msg.sender == userList[userId].nodeAddress2) {... */\n    tag_125:\n        /* \"contracts/Dauth.sol\":6274:6956  if(msg.sender == userList[userId].nodeAddress1) {... */\n    tag_117:\n        /* \"contracts/Dauth.sol\":6963:6980  uint nodeConfirms */\n      0x00\n        /* \"contracts/Dauth.sol\":7079:7094  signHistoryList */\n      0x05\n        /* \"contracts/Dauth.sol\":7095:7101  userId */\n      dup4\n        /* \"contracts/Dauth.sol\":7079:7102  signHistoryList[userId] */\n      mload(0x40)\n      tag_134\n      swap2\n      swap1\n      tag_100\n      jump\t// in\n    tag_134:\n      swap1\n      dup2\n      mstore\n      0x20\n      add\n      mload(0x40)\n      dup1\n      swap2\n      sub\n      swap1\n      keccak256\n        /* \"contracts/Dauth.sol\":7079:7115  signHistoryList[userId].nodeConfirm3 */\n      0x09\n      add\n      sload\n        /* \"contracts/Dauth.sol\":7031:7046  signHistoryList */\n      0x05\n        /* \"contracts/Dauth.sol\":7047:7053  userId */\n      dup5\n        /* \"contracts/Dauth.sol\":7031:7054  signHistoryList[userId] */\n      mload(0x40)\n      tag_135\n      swap2\n      swap1\n      tag_100\n      jump\t// in\n    tag_135:\n      swap1\n      dup2\n      mstore\n      0x20\n      add\n      mload(0x40)\n      dup1\n      swap2\n      sub\n      swap1\n      keccak256\n        /* \"contracts/Dauth.sol\":7031:7067  signHistoryList[userId].nodeConfirm2 */\n      0x07\n      add\n      sload\n        /* \"contracts/Dauth.sol\":6983:6998  signHistoryList */\n      0x05\n        /* \"contracts/Dauth.sol\":6999:7005  userId */\n      dup6\n        /* \"contracts/Dauth.sol\":6983:7006  signHistoryList[userId] */\n      mload(0x40)\n      tag_136\n      swap2\n      swap1\n      tag_100\n      jump\t// in\n    tag_136:\n      swap1\n      dup2\n      mstore\n      0x20\n      add\n      mload(0x40)\n      dup1\n      swap2\n      sub\n      swap1\n      keccak256\n        /* \"contracts/Dauth.sol\":6983:7019  signHistoryList[userId].nodeConfirm1 */\n      0x05\n      add\n      sload\n        /* \"contracts/Dauth.sol\":6983:7067  signHistoryList[userId].nodeConfirm1 + ... */\n      tag_137\n      swap2\n      swap1\n      tag_97\n      jump\t// in\n    tag_137:\n        /* \"contracts/Dauth.sol\":6983:7115  signHistoryList[userId].nodeConfirm1 + ... */\n      tag_138\n      swap2\n      swap1\n      tag_97\n      jump\t// in\n    tag_138:\n        /* \"contracts/Dauth.sol\":6963:7115  uint nodeConfirms = signHistoryList[userId].nodeConfirm1 + ... */\n      swap1\n      pop\n        /* \"contracts/Dauth.sol\":7187:7188  2 */\n      0x02\n        /* \"contracts/Dauth.sol\":7147:7162  signHistoryList */\n      0x05\n        /* \"contracts/Dauth.sol\":7163:7169  userId */\n      dup5\n        /* \"contracts/Dauth.sol\":7147:7170  signHistoryList[userId] */\n      mload(0x40)\n      tag_139\n      swap2\n      swap1\n      tag_100\n      jump\t// in\n    tag_139:\n      swap1\n      dup2\n      mstore\n      0x20\n      add\n      mload(0x40)\n      dup1\n      swap2\n      sub\n      swap1\n      keccak256\n        /* \"contracts/Dauth.sol\":7147:7183  signHistoryList[userId].serialNumber */\n      0x03\n      add\n      sload\n        /* \"contracts/Dauth.sol\":7143:7144  3 */\n      0x03\n        /* \"contracts/Dauth.sol\":7143:7183  3 * signHistoryList[userId].serialNumber */\n      tag_140\n      swap2\n      swap1\n      tag_141\n      jump\t// in\n    tag_140:\n        /* \"contracts/Dauth.sol\":7128:7140  nodeConfirms */\n      dup3\n        /* \"contracts/Dauth.sol\":7128:7183  nodeConfirms - 3 * signHistoryList[userId].serialNumber */\n      tag_142\n      swap2\n      swap1\n      tag_143\n      jump\t// in\n    tag_142:\n        /* \"contracts/Dauth.sol\":7128:7188  nodeConfirms - 3 * signHistoryList[userId].serialNumber >= 2 */\n      lt\n        /* \"contracts/Dauth.sol\":7124:7510  if (nodeConfirms - 3 * signHistoryList[userId].serialNumber >= 2) {... */\n      tag_144\n      jumpi\n        /* \"contracts/Dauth.sol\":7233:7234  2 */\n      0x02\n        /* \"contracts/Dauth.sol\":7200:7215  signHistoryList */\n      0x05\n        /* \"contracts/Dauth.sol\":7216:7222  userId */\n      dup5\n        /* \"contracts/Dauth.sol\":7200:7223  signHistoryList[userId] */\n      mload(0x40)\n      tag_145\n      swap2\n      swap1\n      tag_100\n      jump\t// in\n    tag_145:\n      swap1\n      dup2\n      mstore\n      0x20\n      add\n      mload(0x40)\n      dup1\n      swap2\n      sub\n      swap1\n      keccak256\n        /* \"contracts/Dauth.sol\":7200:7230  signHistoryList[userId].status */\n      0x02\n      add\n        /* \"contracts/Dauth.sol\":7200:7234  signHistoryList[userId].status = 2 */\n      dup2\n      swap1\n      sstore\n      pop\n        /* \"contracts/Dauth.sol\":7284:7285  1 */\n      0x01\n        /* \"contracts/Dauth.sol\":7244:7259  signHistoryList */\n      0x05\n        /* \"contracts/Dauth.sol\":7260:7266  userId */\n      dup5\n        /* \"contracts/Dauth.sol\":7244:7267  signHistoryList[userId] */\n      mload(0x40)\n      tag_146\n      swap2\n      swap1\n      tag_100\n      jump\t// in\n    tag_146:\n      swap1\n      dup2\n      mstore\n      0x20\n      add\n      mload(0x40)\n      dup1\n      swap2\n      sub\n      swap1\n      keccak256\n        /* \"contracts/Dauth.sol\":7244:7280  signHistoryList[userId].serialNumber */\n      0x03\n      add\n      0x00\n        /* \"contracts/Dauth.sol\":7244:7285  signHistoryList[userId].serialNumber += 1 */\n      dup3\n      dup3\n      sload\n      tag_147\n      swap2\n      swap1\n      tag_97\n      jump\t// in\n    tag_147:\n      swap3\n      pop\n      pop\n      dup2\n      swap1\n      sstore\n      pop\n        /* \"contracts/Dauth.sol\":7338:7339  3 */\n      0x03\n        /* \"contracts/Dauth.sol\":7296:7304  balances */\n      0x01\n        /* \"contracts/Dauth.sol\":7296:7334  balances[userList[userId].userAddress] */\n      0x00\n        /* \"contracts/Dauth.sol\":7305:7313  userList */\n      0x03\n        /* \"contracts/Dauth.sol\":7314:7320  userId */\n      dup7\n        /* \"contracts/Dauth.sol\":7305:7321  userList[userId] */\n      mload(0x40)\n      tag_148\n      swap2\n      swap1\n      tag_100\n      jump\t// in\n    tag_148:\n      swap1\n      dup2\n      mstore\n      0x20\n      add\n      mload(0x40)\n      dup1\n      swap2\n      sub\n      swap1\n      keccak256\n        /* \"contracts/Dauth.sol\":7305:7333  userList[userId].userAddress */\n      0x00\n      add\n      0x00\n      swap1\n      sload\n      swap1\n      0x0100\n      exp\n      swap1\n      div\n      0xffffffffffffffffffffffffffffffffffffffff\n      and\n        /* \"contracts/Dauth.sol\":7296:7334  balances[userList[userId].userAddress] */\n      0xffffffffffffffffffffffffffffffffffffffff\n      and\n      0xffffffffffffffffffffffffffffffffffffffff\n      and\n      dup2\n      mstore\n      0x20\n      add\n      swap1\n      dup2\n      mstore\n      0x20\n      add\n      0x00\n      keccak256\n      0x00\n        /* \"contracts/Dauth.sol\":7296:7339  balances[userList[userId].userAddress] -= 3 */\n      dup3\n      dup3\n      sload\n      tag_149\n      swap2\n      swap1\n      tag_143\n      jump\t// in\n    tag_149:\n      swap3\n      pop\n      pop\n      dup2\n      swap1\n      sstore\n      pop\n        /* \"contracts/Dauth.sol\":7392:7393  1 */\n      0x01\n        /* \"contracts/Dauth.sol\":7349:7357  balances */\n      dup1\n        /* \"contracts/Dauth.sol\":7349:7388  balances[userList[userId].nodeAddress1] */\n      0x00\n        /* \"contracts/Dauth.sol\":7358:7366  userList */\n      0x03\n        /* \"contracts/Dauth.sol\":7367:7373  userId */\n      dup7\n        /* \"contracts/Dauth.sol\":7358:7374  userList[userId] */\n      mload(0x40)\n      tag_150\n      swap2\n      swap1\n      tag_100\n      jump\t// in\n    tag_150:\n      swap1\n      dup2\n      mstore\n      0x20\n      add\n      mload(0x40)\n      dup1\n      swap2\n      sub\n      swap1\n      keccak256\n        /* \"contracts/Dauth.sol\":7358:7387  userList[userId].nodeAddress1 */\n      0x03\n      add\n      0x00\n      swap1\n      sload\n      swap1\n      0x0100\n      exp\n      swap1\n      div\n      0xffffffffffffffffffffffffffffffffffffffff\n      and\n        /* \"contracts/Dauth.sol\":7349:7388  balances[userList[userId].nodeAddress1] */\n      0xffffffffffffffffffffffffffffffffffffffff\n      and\n      0xffffffffffffffffffffffffffffffffffffffff\n      and\n      dup2\n      mstore\n      0x20\n      add\n      swap1\n      dup2\n      mstore\n      0x20\n      add\n      0x00\n      keccak256\n      0x00\n        /* \"contracts/Dauth.sol\":7349:7393  balances[userList[userId].nodeAddress1] += 1 */\n      dup3\n      dup3\n      sload\n      tag_151\n      swap2\n      swap1\n      tag_97\n      jump\t// in\n    tag_151:\n      swap3\n      pop\n      pop\n      dup2\n      swap1\n      sstore\n      pop\n        /* \"contracts/Dauth.sol\":7446:7447  1 */\n      0x01\n        /* \"contracts/Dauth.sol\":7403:7411  balances */\n      dup1\n        /* \"contracts/Dauth.sol\":7403:7442  balances[userList[userId].nodeAddress2] */\n      0x00\n        /* \"contracts/Dauth.sol\":7412:7420  userList */\n      0x03\n        /* \"contracts/Dauth.sol\":7421:7427  userId */\n      dup7\n        /* \"contracts/Dauth.sol\":7412:7428  userList[userId] */\n      mload(0x40)\n      tag_152\n      swap2\n      swap1\n      tag_100\n      jump\t// in\n    tag_152:\n      swap1\n      dup2\n      mstore\n      0x20\n      add\n      mload(0x40)\n      dup1\n      swap2\n      sub\n      swap1\n      keccak256\n        /* \"contracts/Dauth.sol\":7412:7441  userList[userId].nodeAddress2 */\n      0x05\n      add\n      0x00\n      swap1\n      sload\n      swap1\n      0x0100\n      exp\n      swap1\n      div\n      0xffffffffffffffffffffffffffffffffffffffff\n      and\n        /* \"contracts/Dauth.sol\":7403:7442  balances[userList[userId].nodeAddress2] */\n      0xffffffffffffffffffffffffffffffffffffffff\n      and\n      0xffffffffffffffffffffffffffffffffffffffff\n      and\n      dup2\n      mstore\n      0x20\n      add\n      swap1\n      dup2\n      mstore\n      0x20\n      add\n      0x00\n      keccak256\n      0x00\n        /* \"contracts/Dauth.sol\":7403:7447  balances[userList[userId].nodeAddress2] += 1 */\n      dup3\n      dup3\n      sload\n      tag_153\n      swap2\n      swap1\n      tag_97\n      jump\t// in\n    tag_153:\n      swap3\n      pop\n      pop\n      dup2\n      swap1\n      sstore\n      pop\n        /* \"contracts/Dauth.sol\":7500:7501  1 */\n      0x01\n        /* \"contracts/Dauth.sol\":7457:7465  balances */\n      dup1\n        /* \"contracts/Dauth.sol\":7457:7496  balances[userList[userId].nodeAddress3] */\n      0x00\n        /* \"contracts/Dauth.sol\":7466:7474  userList */\n      0x03\n        /* \"contracts/Dauth.sol\":7475:7481  userId */\n      dup7\n        /* \"contracts/Dauth.sol\":7466:7482  userList[userId] */\n      mload(0x40)\n      tag_154\n      swap2\n      swap1\n      tag_100\n      jump\t// in\n    tag_154:\n      swap1\n      dup2\n      mstore\n      0x20\n      add\n      mload(0x40)\n      dup1\n      swap2\n      sub\n      swap1\n      keccak256\n        /* \"contracts/Dauth.sol\":7466:7495  userList[userId].nodeAddress3 */\n      0x07\n      add\n      0x00\n      swap1\n      sload\n      swap1\n      0x0100\n      exp\n      swap1\n      div\n      0xffffffffffffffffffffffffffffffffffffffff\n      and\n        /* \"contracts/Dauth.sol\":7457:7496  balances[userList[userId].nodeAddress3] */\n      0xffffffffffffffffffffffffffffffffffffffff\n      and\n      0xffffffffffffffffffffffffffffffffffffffff\n      and\n      dup2\n      mstore\n      0x20\n      add\n      swap1\n      dup2\n      mstore\n      0x20\n      add\n      0x00\n      keccak256\n      0x00\n        /* \"contracts/Dauth.sol\":7457:7501  balances[userList[userId].nodeAddress3] += 1 */\n      dup3\n      dup3\n      sload\n      tag_155\n      swap2\n      swap1\n      tag_97\n      jump\t// in\n    tag_155:\n      swap3\n      pop\n      pop\n      dup2\n      swap1\n      sstore\n      pop\n        /* \"contracts/Dauth.sol\":7124:7510  if (nodeConfirms - 3 * signHistoryList[userId].serialNumber >= 2) {... */\n    tag_144:\n        /* \"contracts/Dauth.sol\":6088:7516  {... */\n      pop\n        /* \"contracts/Dauth.sol\":6009:7516  function signDone(string memory userId, ... */\n    tag_103:\n      pop\n      pop\n      jump\t// out\n        /* \"contracts/Dauth.sol\":1258:1311  mapping(string => SignHistory) public signHistoryList */\n    tag_47:\n      0x05\n      dup2\n      dup1\n      mload\n      0x20\n      dup2\n      add\n      dup3\n      add\n      dup1\n      mload\n      dup5\n      dup3\n      mstore\n      0x20\n      dup4\n      add\n      0x20\n      dup6\n      add\n      keccak256\n      dup2\n      dup4\n      mstore\n      dup1\n      swap6\n      pop\n      pop\n      pop\n      pop\n      pop\n      pop\n      0x00\n      swap2\n      pop\n      swap1\n      pop\n      dup1\n      0x00\n      add\n      0x00\n      swap1\n      sload\n      swap1\n      0x0100\n      exp\n      swap1\n      div\n      0xffffffffffffffffffffffffffffffffffffffff\n      and\n      swap1\n      dup1\n      0x01\n      add\n      dup1\n      sload\n      tag_156\n      swap1\n      tag_157\n      jump\t// in\n    tag_156:\n      dup1\n      0x1f\n      add\n      0x20\n      dup1\n      swap2\n      div\n      mul\n      0x20\n      add\n      mload(0x40)\n      swap1\n      dup2\n      add\n      0x40\n      mstore\n      dup1\n      swap3\n      swap2\n      swap1\n      dup2\n      dup2\n      mstore\n      0x20\n      add\n      dup3\n      dup1\n      sload\n      tag_158\n      swap1\n      tag_157\n      jump\t// in\n    tag_158:\n      dup1\n      iszero\n      tag_159\n      jumpi\n      dup1\n      0x1f\n      lt\n      tag_160\n      jumpi\n      0x0100\n      dup1\n      dup4\n      sload\n      div\n      mul\n      dup4\n      mstore\n      swap2\n      0x20\n      add\n      swap2\n      jump(tag_159)\n    tag_160:\n      dup3\n      add\n      swap2\n      swap1\n      0x00\n      mstore\n      keccak256(0x00, 0x20)\n      swap1\n    tag_161:\n      dup2\n      sload\n      dup2\n      mstore\n      swap1\n      0x01\n      add\n      swap1\n      0x20\n      add\n      dup1\n      dup4\n      gt\n      tag_161\n      jumpi\n      dup3\n      swap1\n      sub\n      0x1f\n      and\n      dup3\n      add\n      swap2\n    tag_159:\n      pop\n      pop\n      pop\n      pop\n      pop\n      swap1\n      dup1\n      0x02\n      add\n      sload\n      swap1\n      dup1\n      0x03\n      add\n      sload\n      swap1\n      dup1\n      0x04\n      add\n      dup1\n      sload\n      tag_162\n      swap1\n      tag_157\n      jump\t// in\n    tag_162:\n      dup1\n      0x1f\n      add\n      0x20\n      dup1\n      swap2\n      div\n      mul\n      0x20\n      add\n      mload(0x40)\n      swap1\n      dup2\n      add\n      0x40\n      mstore\n      dup1\n      swap3\n      swap2\n      swap1\n      dup2\n      dup2\n      mstore\n      0x20\n      add\n      dup3\n      dup1\n      sload\n      tag_163\n      swap1\n      tag_157\n      jump\t// in\n    tag_163:\n      dup1\n      iszero\n      tag_164\n      jumpi\n      dup1\n      0x1f\n      lt\n      tag_165\n      jumpi\n      0x0100\n      dup1\n      dup4\n      sload\n      div\n      mul\n      dup4\n      mstore\n      swap2\n      0x20\n      add\n      swap2\n      jump(tag_164)\n    tag_165:\n      dup3\n      add\n      swap2\n      swap1\n      0x00\n      mstore\n      keccak256(0x00, 0x20)\n      swap1\n    tag_166:\n      dup2\n      sload\n      dup2\n      mstore\n      swap1\n      0x01\n      add\n      swap1\n      0x20\n      add\n      dup1\n      dup4\n      gt\n      tag_166\n      jumpi\n      dup3\n      swap1\n      sub\n      0x1f\n      and\n      dup3\n      add\n      swap2\n    tag_164:\n      pop\n      pop\n      pop\n      pop\n      pop\n      swap1\n      dup1\n      0x05\n      add\n      sload\n      swap1\n      dup1\n      0x06\n      add\n      dup1\n      sload\n      tag_167\n      swap1\n      tag_157\n      jump\t// in\n    tag_167:\n      dup1\n      0x1f\n      add\n      0x20\n      dup1\n      swap2\n      div\n      mul\n      0x20\n      add\n      mload(0x40)\n      swap1\n      dup2\n      add\n      0x40\n      mstore\n      dup1\n      swap3\n      swap2\n      swap1\n      dup2\n      dup2\n      mstore\n      0x20\n      add\n      dup3\n      dup1\n      sload\n      tag_168\n      swap1\n      tag_157\n      jump\t// in\n    tag_168:\n      dup1\n      iszero\n      tag_169\n      jumpi\n      dup1\n      0x1f\n      lt\n      tag_170\n      jumpi\n      0x0100\n      dup1\n      dup4\n      sload\n      div\n      mul\n      dup4\n      mstore\n      swap2\n      0x20\n      add\n      swap2\n      jump(tag_169)\n    tag_170:\n      dup3\n      add\n      swap2\n      swap1\n      0x00\n      mstore\n      keccak256(0x00, 0x20)\n      swap1\n    tag_171:\n      dup2\n      sload\n      dup2\n      mstore\n      swap1\n      0x01\n      add\n      swap1\n      0x20\n      add\n      dup1\n      dup4\n      gt\n      tag_171\n      jumpi\n      dup3\n      swap1\n      sub\n      0x1f\n      and\n      dup3\n      add\n      swap2\n    tag_169:\n      pop\n      pop\n      pop\n      pop\n      pop\n      swap1\n      dup1\n      0x07\n      add\n      sload\n      swap1\n      dup1\n      0x08\n      add\n      dup1\n      sload\n      tag_172\n      swap1\n      tag_157\n      jump\t// in\n    tag_172:\n      dup1\n      0x1f\n      add\n      0x20\n      dup1\n      swap2\n      div\n      mul\n      0x20\n      add\n      mload(0x40)\n      swap1\n      dup2\n      add\n      0x40\n      mstore\n      dup1\n      swap3\n      swap2\n      swap1\n      dup2\n      dup2\n      mstore\n      0x20\n      add\n      dup3\n      dup1\n      sload\n      tag_173\n      swap1\n      tag_157\n      jump\t// in\n    tag_173:\n      dup1\n      iszero\n      tag_174\n      jumpi\n      dup1\n      0x1f\n      lt\n      tag_175\n      jumpi\n      0x0100\n      dup1\n      dup4\n      sload\n      div\n      mul\n      dup4\n      mstore\n      swap2\n      0x20\n      add\n      swap2\n      jump(tag_174)\n    tag_175:\n      dup3\n      add\n      swap2\n      swap1\n      0x00\n      mstore\n      keccak256(0x00, 0x20)\n      swap1\n    tag_176:\n      dup2\n      sload\n      dup2\n      mstore\n      swap1\n      0x01\n      add\n      swap1\n      0x20\n      add\n      dup1\n      dup4\n      gt\n      tag_176\n      jumpi\n      dup3\n      swap1\n      sub\n      0x1f\n      and\n      dup3\n      add\n      swap2\n    tag_174:\n      pop\n      pop\n      pop\n      pop\n      pop\n      swap1\n      dup1\n      0x09\n      add\n      sload\n      swap1\n      pop\n      dup11\n      jump\t// out\n        /* \"contracts/Dauth.sol\":4258:5837  function recoverDone(string memory userId, ... */\n    tag_52:\n        /* \"contracts/Dauth.sol\":4396:4397  3 */\n      0x03\n        /* \"contracts/Dauth.sol\":4355:4363  balances */\n      0x01\n        /* \"contracts/Dauth.sol\":4355:4393  balances[userList[userId].userAddress] */\n      0x00\n        /* \"contracts/Dauth.sol\":4364:4372  userList */\n      0x03\n        /* \"contracts/Dauth.sol\":4373:4379  userId */\n      dup6\n        /* \"contracts/Dauth.sol\":4364:4380  userList[userId] */\n      mload(0x40)\n      tag_178\n      swap2\n      swap1\n      tag_100\n      jump\t// in\n    tag_178:\n      swap1\n      dup2\n      mstore\n      0x20\n      add\n      mload(0x40)\n      dup1\n      swap2\n      sub\n      swap1\n      keccak256\n        /* \"contracts/Dauth.sol\":4364:4392  userList[userId].userAddress */\n      0x00\n      add\n      0x00\n      swap1\n      sload\n      swap1\n      0x0100\n      exp\n      swap1\n      div\n      0xffffffffffffffffffffffffffffffffffffffff\n      and\n        /* \"contracts/Dauth.sol\":4355:4393  balances[userList[userId].userAddress] */\n      0xffffffffffffffffffffffffffffffffffffffff\n      and\n      0xffffffffffffffffffffffffffffffffffffffff\n      and\n      dup2\n      mstore\n      0x20\n      add\n      swap1\n      dup2\n      mstore\n      0x20\n      add\n      0x00\n      keccak256\n      sload\n        /* \"contracts/Dauth.sol\":4355:4397  balances[userList[userId].userAddress] < 3 */\n      lt\n        /* \"contracts/Dauth.sol\":4399:4406  return; */\n      tag_177\n        /* \"contracts/Dauth.sol\":4352:4406  if(balances[userList[userId].userAddress] < 3) return; */\n      jumpi\n        /* \"contracts/Dauth.sol\":4456:4457  0 */\n      0x00\n        /* \"contracts/Dauth.sol\":4416:4458  userList[userId].userAddress == address(0) */\n      0xffffffffffffffffffffffffffffffffffffffff\n      and\n        /* \"contracts/Dauth.sol\":4416:4424  userList */\n      0x03\n        /* \"contracts/Dauth.sol\":4425:4431  userId */\n      dup4\n        /* \"contracts/Dauth.sol\":4416:4432  userList[userId] */\n      mload(0x40)\n      tag_180\n      swap2\n      swap1\n      tag_100\n      jump\t// in\n    tag_180:\n      swap1\n      dup2\n      mstore\n      0x20\n      add\n      mload(0x40)\n      dup1\n      swap2\n      sub\n      swap1\n      keccak256\n        /* \"contracts/Dauth.sol\":4416:4444  userList[userId].userAddress */\n      0x00\n      add\n      0x00\n      swap1\n      sload\n      swap1\n      0x0100\n      exp\n      swap1\n      div\n      0xffffffffffffffffffffffffffffffffffffffff\n      and\n        /* \"contracts/Dauth.sol\":4416:4458  userList[userId].userAddress == address(0) */\n      0xffffffffffffffffffffffffffffffffffffffff\n      and\n      sub\n        /* \"contracts/Dauth.sol\":4413:4467  if(userList[userId].userAddress == address(0)) return; */\n      iszero\n        /* \"contracts/Dauth.sol\":4460:4467  return; */\n      tag_177\n        /* \"contracts/Dauth.sol\":4413:4467  if(userList[userId].userAddress == address(0)) return; */\n      jumpi\n        /* \"contracts/Dauth.sol\":4514:4515  1 */\n      0x01\n        /* \"contracts/Dauth.sol\":4477:4495  recoverHistoryList */\n      0x04\n        /* \"contracts/Dauth.sol\":4496:4502  userId */\n      dup4\n        /* \"contracts/Dauth.sol\":4477:4503  recoverHistoryList[userId] */\n      mload(0x40)\n      tag_182\n      swap2\n      swap1\n      tag_100\n      jump\t// in\n    tag_182:\n      swap1\n      dup2\n      mstore\n      0x20\n      add\n      mload(0x40)\n      dup1\n      swap2\n      sub\n      swap1\n      keccak256\n        /* \"contracts/Dauth.sol\":4477:4510  recoverHistoryList[userId].status */\n      0x02\n      add\n      sload\n        /* \"contracts/Dauth.sol\":4477:4515  recoverHistoryList[userId].status != 1 */\n      sub\n        /* \"contracts/Dauth.sol\":4517:4524  return; */\n      tag_177\n        /* \"contracts/Dauth.sol\":4474:4524  if(recoverHistoryList[userId].status != 1) return; */\n      jumpi\n        /* \"contracts/Dauth.sol\":4549:4557  userList */\n      0x03\n        /* \"contracts/Dauth.sol\":4558:4564  userId */\n      dup3\n        /* \"contracts/Dauth.sol\":4549:4565  userList[userId] */\n      mload(0x40)\n      tag_184\n      swap2\n      swap1\n      tag_100\n      jump\t// in\n    tag_184:\n      swap1\n      dup2\n      mstore\n      0x20\n      add\n      mload(0x40)\n      dup1\n      swap2\n      sub\n      swap1\n      keccak256\n        /* \"contracts/Dauth.sol\":4549:4578  userList[userId].nodeAddress1 */\n      0x03\n      add\n      0x00\n      swap1\n      sload\n      swap1\n      0x0100\n      exp\n      swap1\n      div\n      0xffffffffffffffffffffffffffffffffffffffff\n      and\n        /* \"contracts/Dauth.sol\":4535:4578  msg.sender == userList[userId].nodeAddress1 */\n      0xffffffffffffffffffffffffffffffffffffffff\n      and\n        /* \"contracts/Dauth.sol\":4535:4545  msg.sender */\n      caller\n        /* \"contracts/Dauth.sol\":4535:4578  msg.sender == userList[userId].nodeAddress1 */\n      0xffffffffffffffffffffffffffffffffffffffff\n      and\n      sub\n        /* \"contracts/Dauth.sol\":4532:5259  if(msg.sender == userList[userId].nodeAddress1) {... */\n      tag_185\n      jumpi\n        /* \"contracts/Dauth.sol\":4633:4645  recoverProof */\n      dup1\n        /* \"contracts/Dauth.sol\":4590:4608  recoverHistoryList */\n      0x04\n        /* \"contracts/Dauth.sol\":4609:4615  userId */\n      dup4\n        /* \"contracts/Dauth.sol\":4590:4616  recoverHistoryList[userId] */\n      mload(0x40)\n      tag_186\n      swap2\n      swap1\n      tag_100\n      jump\t// in\n    tag_186:\n      swap1\n      dup2\n      mstore\n      0x20\n      add\n      mload(0x40)\n      dup1\n      swap2\n      sub\n      swap1\n      keccak256\n        /* \"contracts/Dauth.sol\":4590:4630  recoverHistoryList[userId].recoverProof1 */\n      0x04\n      add\n        /* \"contracts/Dauth.sol\":4590:4645  recoverHistoryList[userId].recoverProof1 = recoverProof */\n      swap1\n      dup2\n      tag_187\n      swap2\n      swap1\n      tag_89\n      jump\t// in\n    tag_187:\n      pop\n        /* \"contracts/Dauth.sol\":4750:4751  1 */\n      0x01\n        /* \"contracts/Dauth.sol\":4708:4726  recoverHistoryList */\n      0x04\n        /* \"contracts/Dauth.sol\":4727:4733  userId */\n      dup4\n        /* \"contracts/Dauth.sol\":4708:4734  recoverHistoryList[userId] */\n      mload(0x40)\n      tag_188\n      swap2\n      swap1\n      tag_100\n      jump\t// in\n    tag_188:\n      swap1\n      dup2\n      mstore\n      0x20\n      add\n      mload(0x40)\n      dup1\n      swap2\n      sub\n      swap1\n      keccak256\n        /* \"contracts/Dauth.sol\":4708:4747  recoverHistoryList[userId].serialNumber */\n      0x03\n      add\n      sload\n        /* \"contracts/Dauth.sol\":4708:4751  recoverHistoryList[userId].serialNumber + 1 */\n      tag_189\n      swap2\n      swap1\n      tag_97\n      jump\t// in\n    tag_189:\n        /* \"contracts/Dauth.sol\":4655:4673  recoverHistoryList */\n      0x04\n        /* \"contracts/Dauth.sol\":4674:4680  userId */\n      dup4\n        /* \"contracts/Dauth.sol\":4655:4681  recoverHistoryList[userId] */\n      mload(0x40)\n      tag_190\n      swap2\n      swap1\n      tag_100\n      jump\t// in\n    tag_190:\n      swap1\n      dup2\n      mstore\n      0x20\n      add\n      mload(0x40)\n      dup1\n      swap2\n      sub\n      swap1\n      keccak256\n        /* \"contracts/Dauth.sol\":4655:4694  recoverHistoryList[userId].nodeConfirm1 */\n      0x05\n      add\n        /* \"contracts/Dauth.sol\":4655:4751  recoverHistoryList[userId].nodeConfirm1 = ... */\n      dup2\n      swap1\n      sstore\n      pop\n        /* \"contracts/Dauth.sol\":4532:5259  if(msg.sender == userList[userId].nodeAddress1) {... */\n      jump(tag_191)\n    tag_185:\n        /* \"contracts/Dauth.sol\":4783:4791  userList */\n      0x03\n        /* \"contracts/Dauth.sol\":4792:4798  userId */\n      dup3\n        /* \"contracts/Dauth.sol\":4783:4799  userList[userId] */\n      mload(0x40)\n      tag_192\n      swap2\n      swap1\n      tag_100\n      jump\t// in\n    tag_192:\n      swap1\n      dup2\n      mstore\n      0x20\n      add\n      mload(0x40)\n      dup1\n      swap2\n      sub\n      swap1\n      keccak256\n        /* \"contracts/Dauth.sol\":4783:4812  userList[userId].nodeAddress2 */\n      0x05\n      add\n      0x00\n      swap1\n      sload\n      swap1\n      0x0100\n      exp\n      swap1\n      div\n      0xffffffffffffffffffffffffffffffffffffffff\n      and\n        /* \"contracts/Dauth.sol\":4769:4812  msg.sender == userList[userId].nodeAddress2 */\n      0xffffffffffffffffffffffffffffffffffffffff\n      and\n        /* \"contracts/Dauth.sol\":4769:4779  msg.sender */\n      caller\n        /* \"contracts/Dauth.sol\":4769:4812  msg.sender == userList[userId].nodeAddress2 */\n      0xffffffffffffffffffffffffffffffffffffffff\n      and\n      sub\n        /* \"contracts/Dauth.sol\":4766:5259  if(msg.sender == userList[userId].nodeAddress2) {... */\n      tag_193\n      jumpi\n        /* \"contracts/Dauth.sol\":4867:4879  recoverProof */\n      dup1\n        /* \"contracts/Dauth.sol\":4824:4842  recoverHistoryList */\n      0x04\n        /* \"contracts/Dauth.sol\":4843:4849  userId */\n      dup4\n        /* \"contracts/Dauth.sol\":4824:4850  recoverHistoryList[userId] */\n      mload(0x40)\n      tag_194\n      swap2\n      swap1\n      tag_100\n      jump\t// in\n    tag_194:\n      swap1\n      dup2\n      mstore\n      0x20\n      add\n      mload(0x40)\n      dup1\n      swap2\n      sub\n      swap1\n      keccak256\n        /* \"contracts/Dauth.sol\":4824:4864  recoverHistoryList[userId].recoverProof2 */\n      0x06\n      add\n        /* \"contracts/Dauth.sol\":4824:4879  recoverHistoryList[userId].recoverProof2 = recoverProof */\n      swap1\n      dup2\n      tag_195\n      swap2\n      swap1\n      tag_89\n      jump\t// in\n    tag_195:\n      pop\n        /* \"contracts/Dauth.sol\":4984:4985  1 */\n      0x01\n        /* \"contracts/Dauth.sol\":4942:4960  recoverHistoryList */\n      0x04\n        /* \"contracts/Dauth.sol\":4961:4967  userId */\n      dup4\n        /* \"contracts/Dauth.sol\":4942:4968  recoverHistoryList[userId] */\n      mload(0x40)\n      tag_196\n      swap2\n      swap1\n      tag_100\n      jump\t// in\n    tag_196:\n      swap1\n      dup2\n      mstore\n      0x20\n      add\n      mload(0x40)\n      dup1\n      swap2\n      sub\n      swap1\n      keccak256\n        /* \"contracts/Dauth.sol\":4942:4981  recoverHistoryList[userId].serialNumber */\n      0x03\n      add\n      sload\n        /* \"contracts/Dauth.sol\":4942:4985  recoverHistoryList[userId].serialNumber + 1 */\n      tag_197\n      swap2\n      swap1\n      tag_97\n      jump\t// in\n    tag_197:\n        /* \"contracts/Dauth.sol\":4889:4907  recoverHistoryList */\n      0x04\n        /* \"contracts/Dauth.sol\":4908:4914  userId */\n      dup4\n        /* \"contracts/Dauth.sol\":4889:4915  recoverHistoryList[userId] */\n      mload(0x40)\n      tag_198\n      swap2\n      swap1\n      tag_100\n      jump\t// in\n    tag_198:\n      swap1\n      dup2\n      mstore\n      0x20\n      add\n      mload(0x40)\n      dup1\n      swap2\n      sub\n      swap1\n      keccak256\n        /* \"contracts/Dauth.sol\":4889:4928  recoverHistoryList[userId].nodeConfirm2 */\n      0x07\n      add\n        /* \"contracts/Dauth.sol\":4889:4985  recoverHistoryList[userId].nodeConfirm2 = ... */\n      dup2\n      swap1\n      sstore\n      pop\n        /* \"contracts/Dauth.sol\":4766:5259  if(msg.sender == userList[userId].nodeAddress2) {... */\n      jump(tag_199)\n    tag_193:\n        /* \"contracts/Dauth.sol\":5017:5025  userList */\n      0x03\n        /* \"contracts/Dauth.sol\":5026:5032  userId */\n      dup3\n        /* \"contracts/Dauth.sol\":5017:5033  userList[userId] */\n      mload(0x40)\n      tag_200\n      swap2\n      swap1\n      tag_100\n      jump\t// in\n    tag_200:\n      swap1\n      dup2\n      mstore\n      0x20\n      add\n      mload(0x40)\n      dup1\n      swap2\n      sub\n      swap1\n      keccak256\n        /* \"contracts/Dauth.sol\":5017:5046  userList[userId].nodeAddress3 */\n      0x07\n      add\n      0x00\n      swap1\n      sload\n      swap1\n      0x0100\n      exp\n      swap1\n      div\n      0xffffffffffffffffffffffffffffffffffffffff\n      and\n        /* \"contracts/Dauth.sol\":5003:5046  msg.sender == userList[userId].nodeAddress3 */\n      0xffffffffffffffffffffffffffffffffffffffff\n      and\n        /* \"contracts/Dauth.sol\":5003:5013  msg.sender */\n      caller\n        /* \"contracts/Dauth.sol\":5003:5046  msg.sender == userList[userId].nodeAddress3 */\n      0xffffffffffffffffffffffffffffffffffffffff\n      and\n      sub\n        /* \"contracts/Dauth.sol\":5000:5259  if(msg.sender == userList[userId].nodeAddress3) {... */\n      tag_201\n      jumpi\n        /* \"contracts/Dauth.sol\":5101:5113  recoverProof */\n      dup1\n        /* \"contracts/Dauth.sol\":5058:5076  recoverHistoryList */\n      0x04\n        /* \"contracts/Dauth.sol\":5077:5083  userId */\n      dup4\n        /* \"contracts/Dauth.sol\":5058:5084  recoverHistoryList[userId] */\n      mload(0x40)\n      tag_202\n      swap2\n      swap1\n      tag_100\n      jump\t// in\n    tag_202:\n      swap1\n      dup2\n      mstore\n      0x20\n      add\n      mload(0x40)\n      dup1\n      swap2\n      sub\n      swap1\n      keccak256\n        /* \"contracts/Dauth.sol\":5058:5098  recoverHistoryList[userId].recoverProof3 */\n      0x08\n      add\n        /* \"contracts/Dauth.sol\":5058:5113  recoverHistoryList[userId].recoverProof3 = recoverProof */\n      swap1\n      dup2\n      tag_203\n      swap2\n      swap1\n      tag_89\n      jump\t// in\n    tag_203:\n      pop\n        /* \"contracts/Dauth.sol\":5218:5219  1 */\n      0x01\n        /* \"contracts/Dauth.sol\":5176:5194  recoverHistoryList */\n      0x04\n        /* \"contracts/Dauth.sol\":5195:5201  userId */\n      dup4\n        /* \"contracts/Dauth.sol\":5176:5202  recoverHistoryList[userId] */\n      mload(0x40)\n      tag_204\n      swap2\n      swap1\n      tag_100\n      jump\t// in\n    tag_204:\n      swap1\n      dup2\n      mstore\n      0x20\n      add\n      mload(0x40)\n      dup1\n      swap2\n      sub\n      swap1\n      keccak256\n        /* \"contracts/Dauth.sol\":5176:5215  recoverHistoryList[userId].serialNumber */\n      0x03\n      add\n      sload\n        /* \"contracts/Dauth.sol\":5176:5219  recoverHistoryList[userId].serialNumber + 1 */\n      tag_205\n      swap2\n      swap1\n      tag_97\n      jump\t// in\n    tag_205:\n        /* \"contracts/Dauth.sol\":5123:5141  recoverHistoryList */\n      0x04\n        /* \"contracts/Dauth.sol\":5142:5148  userId */\n      dup4\n        /* \"contracts/Dauth.sol\":5123:5149  recoverHistoryList[userId] */\n      mload(0x40)\n      tag_206\n      swap2\n      swap1\n      tag_100\n      jump\t// in\n    tag_206:\n      swap1\n      dup2\n      mstore\n      0x20\n      add\n      mload(0x40)\n      dup1\n      swap2\n      sub\n      swap1\n      keccak256\n        /* \"contracts/Dauth.sol\":5123:5162  recoverHistoryList[userId].nodeConfirm3 */\n      0x09\n      add\n        /* \"contracts/Dauth.sol\":5123:5219  recoverHistoryList[userId].nodeConfirm3 = ... */\n      dup2\n      swap1\n      sstore\n      pop\n        /* \"contracts/Dauth.sol\":5000:5259  if(msg.sender == userList[userId].nodeAddress3) {... */\n      jump(tag_207)\n    tag_201:\n        /* \"contracts/Dauth.sol\":5244:5251  return; */\n      jump(tag_177)\n        /* \"contracts/Dauth.sol\":5000:5259  if(msg.sender == userList[userId].nodeAddress3) {... */\n    tag_207:\n        /* \"contracts/Dauth.sol\":4766:5259  if(msg.sender == userList[userId].nodeAddress2) {... */\n    tag_199:\n        /* \"contracts/Dauth.sol\":4532:5259  if(msg.sender == userList[userId].nodeAddress1) {... */\n    tag_191:\n        /* \"contracts/Dauth.sol\":5266:5283  uint nodeConfirms */\n      0x00\n        /* \"contracts/Dauth.sol\":5388:5406  recoverHistoryList */\n      0x04\n        /* \"contracts/Dauth.sol\":5407:5413  userId */\n      dup4\n        /* \"contracts/Dauth.sol\":5388:5414  recoverHistoryList[userId] */\n      mload(0x40)\n      tag_208\n      swap2\n      swap1\n      tag_100\n      jump\t// in\n    tag_208:\n      swap1\n      dup2\n      mstore\n      0x20\n      add\n      mload(0x40)\n      dup1\n      swap2\n      sub\n      swap1\n      keccak256\n        /* \"contracts/Dauth.sol\":5388:5427  recoverHistoryList[userId].nodeConfirm3 */\n      0x09\n      add\n      sload\n        /* \"contracts/Dauth.sol\":5337:5355  recoverHistoryList */\n      0x04\n        /* \"contracts/Dauth.sol\":5356:5362  userId */\n      dup5\n        /* \"contracts/Dauth.sol\":5337:5363  recoverHistoryList[userId] */\n      mload(0x40)\n      tag_209\n      swap2\n      swap1\n      tag_100\n      jump\t// in\n    tag_209:\n      swap1\n      dup2\n      mstore\n      0x20\n      add\n      mload(0x40)\n      dup1\n      swap2\n      sub\n      swap1\n      keccak256\n        /* \"contracts/Dauth.sol\":5337:5376  recoverHistoryList[userId].nodeConfirm2 */\n      0x07\n      add\n      sload\n        /* \"contracts/Dauth.sol\":5286:5304  recoverHistoryList */\n      0x04\n        /* \"contracts/Dauth.sol\":5305:5311  userId */\n      dup6\n        /* \"contracts/Dauth.sol\":5286:5312  recoverHistoryList[userId] */\n      mload(0x40)\n      tag_210\n      swap2\n      swap1\n      tag_100\n      jump\t// in\n    tag_210:\n      swap1\n      dup2\n      mstore\n      0x20\n      add\n      mload(0x40)\n      dup1\n      swap2\n      sub\n      swap1\n      keccak256\n        /* \"contracts/Dauth.sol\":5286:5325  recoverHistoryList[userId].nodeConfirm1 */\n      0x05\n      add\n      sload\n        /* \"contracts/Dauth.sol\":5286:5376  recoverHistoryList[userId].nodeConfirm1 + ... */\n      tag_211\n      swap2\n      swap1\n      tag_97\n      jump\t// in\n    tag_211:\n        /* \"contracts/Dauth.sol\":5286:5427  recoverHistoryList[userId].nodeConfirm1 + ... */\n      tag_212\n      swap2\n      swap1\n      tag_97\n      jump\t// in\n    tag_212:\n        /* \"contracts/Dauth.sol\":5266:5427  uint nodeConfirms = recoverHistoryList[userId].nodeConfirm1 + ... */\n      swap1\n      pop\n        /* \"contracts/Dauth.sol\":5502:5503  2 */\n      0x02\n        /* \"contracts/Dauth.sol\":5459:5477  recoverHistoryList */\n      0x04\n        /* \"contracts/Dauth.sol\":5478:5484  userId */\n      dup5\n        /* \"contracts/Dauth.sol\":5459:5485  recoverHistoryList[userId] */\n      mload(0x40)\n      tag_213\n      swap2\n      swap1\n      tag_100\n      jump\t// in\n    tag_213:\n      swap1\n      dup2\n      mstore\n      0x20\n      add\n      mload(0x40)\n      dup1\n      swap2\n      sub\n      swap1\n      keccak256\n        /* \"contracts/Dauth.sol\":5459:5498  recoverHistoryList[userId].serialNumber */\n      0x03\n      add\n      sload\n        /* \"contracts/Dauth.sol\":5455:5456  3 */\n      0x03\n        /* \"contracts/Dauth.sol\":5455:5498  3 * recoverHistoryList[userId].serialNumber */\n      tag_214\n      swap2\n      swap1\n      tag_141\n      jump\t// in\n    tag_214:\n        /* \"contracts/Dauth.sol\":5440:5452  nodeConfirms */\n      dup3\n        /* \"contracts/Dauth.sol\":5440:5498  nodeConfirms - 3 * recoverHistoryList[userId].serialNumber */\n      tag_215\n      swap2\n      swap1\n      tag_143\n      jump\t// in\n    tag_215:\n        /* \"contracts/Dauth.sol\":5440:5503  nodeConfirms - 3 * recoverHistoryList[userId].serialNumber >= 2 */\n      lt\n        /* \"contracts/Dauth.sol\":5436:5831  if (nodeConfirms - 3 * recoverHistoryList[userId].serialNumber >= 2) {... */\n      tag_216\n      jumpi\n        /* \"contracts/Dauth.sol\":5551:5552  2 */\n      0x02\n        /* \"contracts/Dauth.sol\":5515:5533  recoverHistoryList */\n      0x04\n        /* \"contracts/Dauth.sol\":5534:5540  userId */\n      dup5\n        /* \"contracts/Dauth.sol\":5515:5541  recoverHistoryList[userId] */\n      mload(0x40)\n      tag_217\n      swap2\n      swap1\n      tag_100\n      jump\t// in\n    tag_217:\n      swap1\n      dup2\n      mstore\n      0x20\n      add\n      mload(0x40)\n      dup1\n      swap2\n      sub\n      swap1\n      keccak256\n        /* \"contracts/Dauth.sol\":5515:5548  recoverHistoryList[userId].status */\n      0x02\n      add\n        /* \"contracts/Dauth.sol\":5515:5552  recoverHistoryList[userId].status = 2 */\n      dup2\n      swap1\n      sstore\n      pop\n        /* \"contracts/Dauth.sol\":5605:5606  1 */\n      0x01\n        /* \"contracts/Dauth.sol\":5562:5580  recoverHistoryList */\n      0x04\n        /* \"contracts/Dauth.sol\":5581:5587  userId */\n      dup5\n        /* \"contracts/Dauth.sol\":5562:5588  recoverHistoryList[userId] */\n      mload(0x40)\n      tag_218\n      swap2\n      swap1\n      tag_100\n      jump\t// in\n    tag_218:\n      swap1\n      dup2\n      mstore\n      0x20\n      add\n      mload(0x40)\n      dup1\n      swap2\n      sub\n      swap1\n      keccak256\n        /* \"contracts/Dauth.sol\":5562:5601  recoverHistoryList[userId].serialNumber */\n      0x03\n      add\n      0x00\n        /* \"contracts/Dauth.sol\":5562:5606  recoverHistoryList[userId].serialNumber += 1 */\n      dup3\n      dup3\n      sload\n      tag_219\n      swap2\n      swap1\n      tag_97\n      jump\t// in\n    tag_219:\n      swap3\n      pop\n      pop\n      dup2\n      swap1\n      sstore\n      pop\n        /* \"contracts/Dauth.sol\":5659:5660  3 */\n      0x03\n        /* \"contracts/Dauth.sol\":5617:5625  balances */\n      0x01\n        /* \"contracts/Dauth.sol\":5617:5655  balances[userList[userId].userAddress] */\n      0x00\n        /* \"contracts/Dauth.sol\":5626:5634  userList */\n      0x03\n        /* \"contracts/Dauth.sol\":5635:5641  userId */\n      dup7\n        /* \"contracts/Dauth.sol\":5626:5642  userList[userId] */\n      mload(0x40)\n      tag_220\n      swap2\n      swap1\n      tag_100\n      jump\t// in\n    tag_220:\n      swap1\n      dup2\n      mstore\n      0x20\n      add\n      mload(0x40)\n      dup1\n      swap2\n      sub\n      swap1\n      keccak256\n        /* \"contracts/Dauth.sol\":5626:5654  userList[userId].userAddress */\n      0x00\n      add\n      0x00\n      swap1\n      sload\n      swap1\n      0x0100\n      exp\n      swap1\n      div\n      0xffffffffffffffffffffffffffffffffffffffff\n      and\n        /* \"contracts/Dauth.sol\":5617:5655  balances[userList[userId].userAddress] */\n      0xffffffffffffffffffffffffffffffffffffffff\n      and\n      0xffffffffffffffffffffffffffffffffffffffff\n      and\n      dup2\n      mstore\n      0x20\n      add\n      swap1\n      dup2\n      mstore\n      0x20\n      add\n      0x00\n      keccak256\n      0x00\n        /* \"contracts/Dauth.sol\":5617:5660  balances[userList[userId].userAddress] -= 3 */\n      dup3\n      dup3\n      sload\n      tag_221\n      swap2\n      swap1\n      tag_143\n      jump\t// in\n    tag_221:\n      swap3\n      pop\n      pop\n      dup2\n      swap1\n      sstore\n      pop\n        /* \"contracts/Dauth.sol\":5713:5714  1 */\n      0x01\n        /* \"contracts/Dauth.sol\":5670:5678  balances */\n      dup1\n        /* \"contracts/Dauth.sol\":5670:5709  balances[userList[userId].nodeAddress1] */\n      0x00\n        /* \"contracts/Dauth.sol\":5679:5687  userList */\n      0x03\n        /* \"contracts/Dauth.sol\":5688:5694  userId */\n      dup7\n        /* \"contracts/Dauth.sol\":5679:5695  userList[userId] */\n      mload(0x40)\n      tag_222\n      swap2\n      swap1\n      tag_100\n      jump\t// in\n    tag_222:\n      swap1\n      dup2\n      mstore\n      0x20\n      add\n      mload(0x40)\n      dup1\n      swap2\n      sub\n      swap1\n      keccak256\n        /* \"contracts/Dauth.sol\":5679:5708  userList[userId].nodeAddress1 */\n      0x03\n      add\n      0x00\n      swap1\n      sload\n      swap1\n      0x0100\n      exp\n      swap1\n      div\n      0xffffffffffffffffffffffffffffffffffffffff\n      and\n        /* \"contracts/Dauth.sol\":5670:5709  balances[userList[userId].nodeAddress1] */\n      0xffffffffffffffffffffffffffffffffffffffff\n      and\n      0xffffffffffffffffffffffffffffffffffffffff\n      and\n      dup2\n      mstore\n      0x20\n      add\n      swap1\n      dup2\n      mstore\n      0x20\n      add\n      0x00\n      keccak256\n      0x00\n        /* \"contracts/Dauth.sol\":5670:5714  balances[userList[userId].nodeAddress1] += 1 */\n      dup3\n      dup3\n      sload\n      tag_223\n      swap2\n      swap1\n      tag_97\n      jump\t// in\n    tag_223:\n      swap3\n      pop\n      pop\n      dup2\n      swap1\n      sstore\n      pop\n        /* \"contracts/Dauth.sol\":5767:5768  1 */\n      0x01\n        /* \"contracts/Dauth.sol\":5724:5732  balances */\n      dup1\n        /* \"contracts/Dauth.sol\":5724:5763  balances[userList[userId].nodeAddress2] */\n      0x00\n        /* \"contracts/Dauth.sol\":5733:5741  userList */\n      0x03\n        /* \"contracts/Dauth.sol\":5742:5748  userId */\n      dup7\n        /* \"contracts/Dauth.sol\":5733:5749  userList[userId] */\n      mload(0x40)\n      tag_224\n      swap2\n      swap1\n      tag_100\n      jump\t// in\n    tag_224:\n      swap1\n      dup2\n      mstore\n      0x20\n      add\n      mload(0x40)\n      dup1\n      swap2\n      sub\n      swap1\n      keccak256\n        /* \"contracts/Dauth.sol\":5733:5762  userList[userId].nodeAddress2 */\n      0x05\n      add\n      0x00\n      swap1\n      sload\n      swap1\n      0x0100\n      exp\n      swap1\n      div\n      0xffffffffffffffffffffffffffffffffffffffff\n      and\n        /* \"contracts/Dauth.sol\":5724:5763  balances[userList[userId].nodeAddress2] */\n      0xffffffffffffffffffffffffffffffffffffffff\n      and\n      0xffffffffffffffffffffffffffffffffffffffff\n      and\n      dup2\n      mstore\n      0x20\n      add\n      swap1\n      dup2\n      mstore\n      0x20\n      add\n      0x00\n      keccak256\n      0x00\n        /* \"contracts/Dauth.sol\":5724:5768  balances[userList[userId].nodeAddress2] += 1 */\n      dup3\n      dup3\n      sload\n      tag_225\n      swap2\n      swap1\n      tag_97\n      jump\t// in\n    tag_225:\n      swap3\n      pop\n      pop\n      dup2\n      swap1\n      sstore\n      pop\n        /* \"contracts/Dauth.sol\":5821:5822  1 */\n      0x01\n        /* \"contracts/Dauth.sol\":5778:5786  balances */\n      dup1\n        /* \"contracts/Dauth.sol\":5778:5817  balances[userList[userId].nodeAddress3] */\n      0x00\n        /* \"contracts/Dauth.sol\":5787:5795  userList */\n      0x03\n        /* \"contracts/Dauth.sol\":5796:5802  userId */\n      dup7\n        /* \"contracts/Dauth.sol\":5787:5803  userList[userId] */\n      mload(0x40)\n      tag_226\n      swap2\n      swap1\n      tag_100\n      jump\t// in\n    tag_226:\n      swap1\n      dup2\n      mstore\n      0x20\n      add\n      mload(0x40)\n      dup1\n      swap2\n      sub\n      swap1\n      keccak256\n        /* \"contracts/Dauth.sol\":5787:5816  userList[userId].nodeAddress3 */\n      0x07\n      add\n      0x00\n      swap1\n      sload\n      swap1\n      0x0100\n      exp\n      swap1\n      div\n      0xffffffffffffffffffffffffffffffffffffffff\n      and\n        /* \"contracts/Dauth.sol\":5778:5817  balances[userList[userId].nodeAddress3] */\n      0xffffffffffffffffffffffffffffffffffffffff\n      and\n      0xffffffffffffffffffffffffffffffffffffffff\n      and\n      dup2\n      mstore\n      0x20\n      add\n      swap1\n      dup2\n      mstore\n      0x20\n      add\n      0x00\n      keccak256\n      0x00\n        /* \"contracts/Dauth.sol\":5778:5822  balances[userList[userId].nodeAddress3] += 1 */\n      dup3\n      dup3\n      sload\n      tag_227\n      swap2\n      swap1\n      tag_97\n      jump\t// in\n    tag_227:\n      swap3\n      pop\n      pop\n      dup2\n      swap1\n      sstore\n      pop\n        /* \"contracts/Dauth.sol\":5436:5831  if (nodeConfirms - 3 * recoverHistoryList[userId].serialNumber >= 2) {... */\n    tag_216:\n        /* \"contracts/Dauth.sol\":4343:5837  {... */\n      pop\n        /* \"contracts/Dauth.sol\":4258:5837  function recoverDone(string memory userId, ... */\n    tag_177:\n      pop\n      pop\n      jump\t// out\n        /* \"contracts/Dauth.sol\":1193:1252  mapping(string => RecoverHistory) public recoverHistoryList */\n    tag_55:\n      0x04\n      dup2\n      dup1\n      mload\n      0x20\n      dup2\n      add\n      dup3\n      add\n      dup1\n      mload\n      dup5\n      dup3\n      mstore\n      0x20\n      dup4\n      add\n      0x20\n      dup6\n      add\n      keccak256\n      dup2\n      dup4\n      mstore\n      dup1\n      swap6\n      pop\n      pop\n      pop\n      pop\n      pop\n      pop\n      0x00\n      swap2\n      pop\n      swap1\n      pop\n      dup1\n      0x00\n      add\n      0x00\n      swap1\n      sload\n      swap1\n      0x0100\n      exp\n      swap1\n      div\n      0xffffffffffffffffffffffffffffffffffffffff\n      and\n      swap1\n      dup1\n      0x01\n      add\n      dup1\n      sload\n      tag_228\n      swap1\n      tag_157\n      jump\t// in\n    tag_228:\n      dup1\n      0x1f\n      add\n      0x20\n      dup1\n      swap2\n      div\n      mul\n      0x20\n      add\n      mload(0x40)\n      swap1\n      dup2\n      add\n      0x40\n      mstore\n      dup1\n      swap3\n      swap2\n      swap1\n      dup2\n      dup2\n      mstore\n      0x20\n      add\n      dup3\n      dup1\n      sload\n      tag_229\n      swap1\n      tag_157\n      jump\t// in\n    tag_229:\n      dup1\n      iszero\n      tag_230\n      jumpi\n      dup1\n      0x1f\n      lt\n      tag_231\n      jumpi\n      0x0100\n      dup1\n      dup4\n      sload\n      div\n      mul\n      dup4\n      mstore\n      swap2\n      0x20\n      add\n      swap2\n      jump(tag_230)\n    tag_231:\n      dup3\n      add\n      swap2\n      swap1\n      0x00\n      mstore\n      keccak256(0x00, 0x20)\n      swap1\n    tag_232:\n      dup2\n      sload\n      dup2\n      mstore\n      swap1\n      0x01\n      add\n      swap1\n      0x20\n      add\n      dup1\n      dup4\n      gt\n      tag_232\n      jumpi\n      dup3\n      swap1\n      sub\n      0x1f\n      and\n      dup3\n      add\n      swap2\n    tag_230:\n      pop\n      pop\n      pop\n      pop\n      pop\n      swap1\n      dup1\n      0x02\n      add\n      sload\n      swap1\n      dup1\n      0x03\n      add\n      sload\n      swap1\n      dup1\n      0x04\n      add\n      dup1\n      sload\n      tag_233\n      swap1\n      tag_157\n      jump\t// in\n    tag_233:\n      dup1\n      0x1f\n      add\n      0x20\n      dup1\n      swap2\n      div\n      mul\n      0x20\n      add\n      mload(0x40)\n      swap1\n      dup2\n      add\n      0x40\n      mstore\n      dup1\n      swap3\n      swap2\n      swap1\n      dup2\n      dup2\n      mstore\n      0x20\n      add\n      dup3\n      dup1\n      sload\n      tag_234\n      swap1\n      tag_157\n      jump\t// in\n    tag_234:\n      dup1\n      iszero\n      tag_235\n      jumpi\n      dup1\n      0x1f\n      lt\n      tag_236\n      jumpi\n      0x0100\n      dup1\n      dup4\n      sload\n      div\n      mul\n      dup4\n      mstore\n      swap2\n      0x20\n      add\n      swap2\n      jump(tag_235)\n    tag_236:\n      dup3\n      add\n      swap2\n      swap1\n      0x00\n      mstore\n      keccak256(0x00, 0x20)\n      swap1\n    tag_237:\n      dup2\n      sload\n      dup2\n      mstore\n      swap1\n      0x01\n      add\n      swap1\n      0x20\n      add\n      dup1\n      dup4\n      gt\n      tag_237\n      jumpi\n      dup3\n      swap1\n      sub\n      0x1f\n      and\n      dup3\n      add\n      swap2\n    tag_235:\n      pop\n      pop\n      pop\n      pop\n      pop\n      swap1\n      dup1\n      0x05\n      add\n      sload\n      swap1\n      dup1\n      0x06\n      add\n      dup1\n      sload\n      tag_238\n      swap1\n      tag_157\n      jump\t// in\n    tag_238:\n      dup1\n      0x1f\n      add\n      0x20\n      dup1\n      swap2\n      div\n      mul\n      0x20\n      add\n      mload(0x40)\n      swap1\n      dup2\n      add\n      0x40\n      mstore\n      dup1\n      swap3\n      swap2\n      swap1\n      dup2\n      dup2\n      mstore\n      0x20\n      add\n      dup3\n      dup1\n      sload\n      tag_239\n      swap1\n      tag_157\n      jump\t// in\n    tag_239:\n      dup1\n      iszero\n      tag_240\n      jumpi\n      dup1\n      0x1f\n      lt\n      tag_241\n      jumpi\n      0x0100\n      dup1\n      dup4\n      sload\n      div\n      mul\n      dup4\n      mstore\n      swap2\n      0x20\n      add\n      swap2\n      jump(tag_240)\n    tag_241:\n      dup3\n      add\n      swap2\n      swap1\n      0x00\n      mstore\n      keccak256(0x00, 0x20)\n      swap1\n    tag_242:\n      dup2\n      sload\n      dup2\n      mstore\n      swap1\n      0x01\n      add\n      swap1\n      0x20\n      add\n      dup1\n      dup4\n      gt\n      tag_242\n      jumpi\n      dup3\n      swap1\n      sub\n      0x1f\n      and\n      dup3\n      add\n      swap2\n    tag_240:\n      pop\n      pop\n      pop\n      pop\n      pop\n      swap1\n      dup1\n      0x07\n      add\n      sload\n      swap1\n      dup1\n      0x08\n      add\n      dup1\n      sload\n      tag_243\n      swap1\n      tag_157\n      jump\t// in\n    tag_243:\n      dup1\n      0x1f\n      add\n      0x20\n      dup1\n      swap2\n      div\n      mul\n      0x20\n      add\n      mload(0x40)\n      swap1\n      dup2\n      add\n      0x40\n      mstore\n      dup1\n      swap3\n      swap2\n      swap1\n      dup2\n      dup2\n      mstore\n      0x20\n      add\n      dup3\n      dup1\n      sload\n      tag_244\n      swap1\n      tag_157\n      jump\t// in\n    tag_244:\n      dup1\n      iszero\n      tag_245\n      jumpi\n      dup1\n      0x1f\n      lt\n      tag_246\n      jumpi\n      0x0100\n      dup1\n      dup4\n      sload\n      div\n      mul\n      dup4\n      mstore\n      swap2\n      0x20\n      add\n      swap2\n      jump(tag_245)\n    tag_246:\n      dup3\n      add\n      swap2\n      swap1\n      0x00\n      mstore\n      keccak256(0x00, 0x20)\n      swap1\n    tag_247:\n      dup2\n      sload\n      dup2\n      mstore\n      swap1\n      0x01\n      add\n      swap1\n      0x20\n      add\n      dup1\n      dup4\n      gt\n      tag_247\n      jumpi\n      dup3\n      swap1\n      sub\n      0x1f\n      and\n      dup3\n      add\n      swap2\n    tag_245:\n      pop\n      pop\n      pop\n      pop\n      pop\n      swap1\n      dup1\n      0x09\n      add\n      sload\n      swap1\n      pop\n      dup11\n      jump\t// out\n        /* \"contracts/Dauth.sol\":5843:6003  function signRequest(string memory userId) public {... */\n    tag_59:\n        /* \"contracts/Dauth.sol\":5944:5945  0 */\n      0x00\n        /* \"contracts/Dauth.sol\":5904:5946  userList[userId].userAddress == address(0) */\n      0xffffffffffffffffffffffffffffffffffffffff\n      and\n        /* \"contracts/Dauth.sol\":5904:5912  userList */\n      0x03\n        /* \"contracts/Dauth.sol\":5913:5919  userId */\n      dup3\n        /* \"contracts/Dauth.sol\":5904:5920  userList[userId] */\n      mload(0x40)\n      tag_249\n      swap2\n      swap1\n      tag_100\n      jump\t// in\n    tag_249:\n      swap1\n      dup2\n      mstore\n      0x20\n      add\n      mload(0x40)\n      dup1\n      swap2\n      sub\n      swap1\n      keccak256\n        /* \"contracts/Dauth.sol\":5904:5932  userList[userId].userAddress */\n      0x00\n      add\n      0x00\n      swap1\n      sload\n      swap1\n      0x0100\n      exp\n      swap1\n      div\n      0xffffffffffffffffffffffffffffffffffffffff\n      and\n        /* \"contracts/Dauth.sol\":5904:5946  userList[userId].userAddress == address(0) */\n      0xffffffffffffffffffffffffffffffffffffffff\n      and\n      sub\n        /* \"contracts/Dauth.sol\":5901:5955  if(userList[userId].userAddress == address(0)) return; */\n      iszero\n        /* \"contracts/Dauth.sol\":5948:5955  return; */\n      tag_248\n        /* \"contracts/Dauth.sol\":5901:5955  if(userList[userId].userAddress == address(0)) return; */\n      jumpi\n        /* \"contracts/Dauth.sol\":5995:5996  1 */\n      0x01\n        /* \"contracts/Dauth.sol\":5962:5977  signHistoryList */\n      0x05\n        /* \"contracts/Dauth.sol\":5978:5984  userId */\n      dup3\n        /* \"contracts/Dauth.sol\":5962:5985  signHistoryList[userId] */\n      mload(0x40)\n      tag_251\n      swap2\n      swap1\n      tag_100\n      jump\t// in\n    tag_251:\n      swap1\n      dup2\n      mstore\n      0x20\n      add\n      mload(0x40)\n      dup1\n      swap2\n      sub\n      swap1\n      keccak256\n        /* \"contracts/Dauth.sol\":5962:5992  signHistoryList[userId].status */\n      0x02\n      add\n        /* \"contracts/Dauth.sol\":5962:5996  signHistoryList[userId].status = 1 */\n      dup2\n      swap1\n      sstore\n      pop\n        /* \"contracts/Dauth.sol\":5843:6003  function signRequest(string memory userId) public {... */\n    tag_248:\n      pop\n      jump\t// out\n        /* \"contracts/Dauth.sol\":2430:2774  function send(address receiver, uint amount) public {... */\n    tag_62:\n        /* \"contracts/Dauth.sol\":2503:2511  balances */\n      0x01\n        /* \"contracts/Dauth.sol\":2503:2523  balances[msg.sender] */\n      0x00\n        /* \"contracts/Dauth.sol\":2512:2522  msg.sender */\n      caller\n        /* \"contracts/Dauth.sol\":2503:2523  balances[msg.sender] */\n      0xffffffffffffffffffffffffffffffffffffffff\n      and\n      0xffffffffffffffffffffffffffffffffffffffff\n      and\n      dup2\n      mstore\n      0x20\n      add\n      swap1\n      dup2\n      mstore\n      0x20\n      add\n      0x00\n      keccak256\n      sload\n        /* \"contracts/Dauth.sol\":2494:2500  amount */\n      dup2\n        /* \"contracts/Dauth.sol\":2494:2523  amount > balances[msg.sender] */\n      gt\n        /* \"contracts/Dauth.sol\":2490:2645  if (amount > balances[msg.sender])... */\n      iszero\n      tag_253\n      jumpi\n        /* \"contracts/Dauth.sol\":2583:2589  amount */\n      dup1\n        /* \"contracts/Dauth.sol\":2614:2622  balances */\n      0x01\n        /* \"contracts/Dauth.sol\":2614:2634  balances[msg.sender] */\n      0x00\n        /* \"contracts/Dauth.sol\":2623:2633  msg.sender */\n      caller\n        /* \"contracts/Dauth.sol\":2614:2634  balances[msg.sender] */\n      0xffffffffffffffffffffffffffffffffffffffff\n      and\n      0xffffffffffffffffffffffffffffffffffffffff\n      and\n      dup2\n      mstore\n      0x20\n      add\n      swap1\n      dup2\n      mstore\n      0x20\n      add\n      0x00\n      keccak256\n      sload\n        /* \"contracts/Dauth.sol\":2540:2645  InsufficientBalance({... */\n      mload(0x40)\n      0xcf47918100000000000000000000000000000000000000000000000000000000\n      dup2\n      mstore\n      0x04\n      add\n      tag_254\n      swap3\n      swap2\n      swap1\n      tag_255\n      jump\t// in\n    tag_254:\n      mload(0x40)\n      dup1\n      swap2\n      sub\n      swap1\n      revert\n        /* \"contracts/Dauth.sol\":2490:2645  if (amount > balances[msg.sender])... */\n    tag_253:\n        /* \"contracts/Dauth.sol\":2678:2684  amount */\n      dup1\n        /* \"contracts/Dauth.sol\":2654:2662  balances */\n      0x01\n        /* \"contracts/Dauth.sol\":2654:2674  balances[msg.sender] */\n      0x00\n        /* \"contracts/Dauth.sol\":2663:2673  msg.sender */\n      caller\n        /* \"contracts/Dauth.sol\":2654:2674  balances[msg.sender] */\n      0xffffffffffffffffffffffffffffffffffffffff\n      and\n      0xffffffffffffffffffffffffffffffffffffffff\n      and\n      dup2\n      mstore\n      0x20\n      add\n      swap1\n      dup2\n      mstore\n      0x20\n      add\n      0x00\n      keccak256\n      0x00\n        /* \"contracts/Dauth.sol\":2654:2684  balances[msg.sender] -= amount */\n      dup3\n      dup3\n      sload\n      tag_256\n      swap2\n      swap1\n      tag_143\n      jump\t// in\n    tag_256:\n      swap3\n      pop\n      pop\n      dup2\n      swap1\n      sstore\n      pop\n        /* \"contracts/Dauth.sol\":2714:2720  amount */\n      dup1\n        /* \"contracts/Dauth.sol\":2692:2700  balances */\n      0x01\n        /* \"contracts/Dauth.sol\":2692:2710  balances[receiver] */\n      0x00\n        /* \"contracts/Dauth.sol\":2701:2709  receiver */\n      dup5\n        /* \"contracts/Dauth.sol\":2692:2710  balances[receiver] */\n      0xffffffffffffffffffffffffffffffffffffffff\n      and\n      0xffffffffffffffffffffffffffffffffffffffff\n      and\n      dup2\n      mstore\n      0x20\n      add\n      swap1\n      dup2\n      mstore\n      0x20\n      add\n      0x00\n      keccak256\n      0x00\n        /* \"contracts/Dauth.sol\":2692:2720  balances[receiver] += amount */\n      dup3\n      dup3\n      sload\n      tag_257\n      swap2\n      swap1\n      tag_97\n      jump\t// in\n    tag_257:\n      swap3\n      pop\n      pop\n      dup2\n      swap1\n      sstore\n      pop\n        /* \"contracts/Dauth.sol\":2733:2767  Sent(msg.sender, receiver, amount) */\n      0x3990db2d31862302a685e8086b5755072a6e2b5b780af1ee81ece35ee3cd3345\n        /* \"contracts/Dauth.sol\":2738:2748  msg.sender */\n      caller\n        /* \"contracts/Dauth.sol\":2750:2758  receiver */\n      dup4\n        /* \"contracts/Dauth.sol\":2760:2766  amount */\n      dup4\n        /* \"contracts/Dauth.sol\":2733:2767  Sent(msg.sender, receiver, amount) */\n      mload(0x40)\n      tag_258\n      swap4\n      swap3\n      swap2\n      swap1\n      tag_259\n      jump\t// in\n    tag_258:\n      mload(0x40)\n      dup1\n      swap2\n      sub\n      swap1\n      log1\n        /* \"contracts/Dauth.sol\":2430:2774  function send(address receiver, uint amount) public {... */\n      pop\n      pop\n      jump\t// out\n        /* \"contracts/Dauth.sol\":3112:3203  function getNodes() public view returns(Node[] memory nodes) {... */\n    tag_64:\n        /* \"contracts/Dauth.sol\":3152:3171  Node[] memory nodes */\n      0x60\n        /* \"contracts/Dauth.sol\":3188:3196  nodeList */\n      0x02\n        /* \"contracts/Dauth.sol\":3181:3196  return nodeList */\n      dup1\n      sload\n      dup1\n      0x20\n      mul\n      0x20\n      add\n      mload(0x40)\n      swap1\n      dup2\n      add\n      0x40\n      mstore\n      dup1\n      swap3\n      swap2\n      swap1\n      dup2\n      dup2\n      mstore\n      0x20\n      add\n      0x00\n      swap1\n    tag_261:\n      dup3\n      dup3\n      lt\n      iszero\n      tag_262\n      jumpi\n      dup4\n      dup3\n      swap1\n      0x00\n      mstore\n      keccak256(0x00, 0x20)\n      swap1\n      0x02\n      mul\n      add\n      mload(0x40)\n      dup1\n      0x40\n      add\n      0x40\n      mstore\n      swap1\n      dup2\n      0x00\n      dup3\n      add\n      0x00\n      swap1\n      sload\n      swap1\n      0x0100\n      exp\n      swap1\n      div\n      0xffffffffffffffffffffffffffffffffffffffff\n      and\n      0xffffffffffffffffffffffffffffffffffffffff\n      and\n      0xffffffffffffffffffffffffffffffffffffffff\n      and\n      dup2\n      mstore\n      0x20\n      add\n      0x01\n      dup3\n      add\n      dup1\n      sload\n      tag_264\n      swap1\n      tag_157\n      jump\t// in\n    tag_264:\n      dup1\n      0x1f\n      add\n      0x20\n      dup1\n      swap2\n      div\n      mul\n      0x20\n      add\n      mload(0x40)\n      swap1\n      dup2\n      add\n      0x40\n      mstore\n      dup1\n      swap3\n      swap2\n      swap1\n      dup2\n      dup2\n      mstore\n      0x20\n      add\n      dup3\n      dup1\n      sload\n      tag_265\n      swap1\n      tag_157\n      jump\t// in\n    tag_265:\n      dup1\n      iszero\n      tag_266\n      jumpi\n      dup1\n      0x1f\n      lt\n      tag_267\n      jumpi\n      0x0100\n      dup1\n      dup4\n      sload\n      div\n      mul\n      dup4\n      mstore\n      swap2\n      0x20\n      add\n      swap2\n      jump(tag_266)\n    tag_267:\n      dup3\n      add\n      swap2\n      swap1\n      0x00\n      mstore\n      keccak256(0x00, 0x20)\n      swap1\n    tag_268:\n      dup2\n      sload\n      dup2\n      mstore\n      swap1\n      0x01\n      add\n      swap1\n      0x20\n      add\n      dup1\n      dup4\n      gt\n      tag_268\n      jumpi\n      dup3\n      swap1\n      sub\n      0x1f\n      and\n      dup3\n      add\n      swap2\n    tag_266:\n      pop\n      pop\n      pop\n      pop\n      pop\n      dup2\n      mstore\n      pop\n      pop\n      dup2\n      mstore\n      0x20\n      add\n      swap1\n      0x01\n      add\n      swap1\n      jump(tag_261)\n    tag_262:\n      pop\n      pop\n      pop\n      pop\n      swap1\n      pop\n        /* \"contracts/Dauth.sol\":3112:3203  function getNodes() public view returns(Node[] memory nodes) {... */\n      swap1\n      jump\t// out\n        /* \"contracts/Dauth.sol\":3209:4080  function registerUser(string memory userId, uint condition1Type, address nodeAddress1, ... */\n    tag_70:\n        /* \"contracts/Dauth.sol\":3460:3461  0 */\n      0x00\n        /* \"contracts/Dauth.sol\":3420:3462  userList[userId].userAddress == address(0) */\n      0xffffffffffffffffffffffffffffffffffffffff\n      and\n        /* \"contracts/Dauth.sol\":3420:3428  userList */\n      0x03\n        /* \"contracts/Dauth.sol\":3429:3435  userId */\n      dup9\n        /* \"contracts/Dauth.sol\":3420:3436  userList[userId] */\n      mload(0x40)\n      tag_270\n      swap2\n      swap1\n      tag_100\n      jump\t// in\n    tag_270:\n      swap1\n      dup2\n      mstore\n      0x20\n      add\n      mload(0x40)\n      dup1\n      swap2\n      sub\n      swap1\n      keccak256\n        /* \"contracts/Dauth.sol\":3420:3448  userList[userId].userAddress */\n      0x00\n      add\n      0x00\n      swap1\n      sload\n      swap1\n      0x0100\n      exp\n      swap1\n      div\n      0xffffffffffffffffffffffffffffffffffffffff\n      and\n        /* \"contracts/Dauth.sol\":3420:3462  userList[userId].userAddress == address(0) */\n      0xffffffffffffffffffffffffffffffffffffffff\n      and\n      sub\n        /* \"contracts/Dauth.sol\":3417:3637  if(userList[userId].userAddress == address(0)) {... */\n      tag_271\n      jumpi\n        /* \"contracts/Dauth.sol\":3501:3502  6 */\n      0x06\n        /* \"contracts/Dauth.sol\":3478:3486  balances */\n      0x01\n        /* \"contracts/Dauth.sol\":3478:3498  balances[msg.sender] */\n      0x00\n        /* \"contracts/Dauth.sol\":3487:3497  msg.sender */\n      caller\n        /* \"contracts/Dauth.sol\":3478:3498  balances[msg.sender] */\n      0xffffffffffffffffffffffffffffffffffffffff\n      and\n      0xffffffffffffffffffffffffffffffffffffffff\n      and\n      dup2\n      mstore\n      0x20\n      add\n      swap1\n      dup2\n      mstore\n      0x20\n      add\n      0x00\n      keccak256\n      sload\n        /* \"contracts/Dauth.sol\":3478:3502  balances[msg.sender] < 6 */\n      lt\n        /* \"contracts/Dauth.sol\":3504:3511  return; */\n      tag_269\n        /* \"contracts/Dauth.sol\":3475:3511  if(balances[msg.sender] < 6) return; */\n      jumpi\n        /* \"contracts/Dauth.sol\":3520:3535  send(minter, 3) */\n      tag_273\n        /* \"contracts/Dauth.sol\":3525:3531  minter */\n      0x00\n      dup1\n      sload\n      swap1\n      0x0100\n      exp\n      swap1\n      div\n      0xffffffffffffffffffffffffffffffffffffffff\n      and\n        /* \"contracts/Dauth.sol\":3533:3534  3 */\n      0x03\n        /* \"contracts/Dauth.sol\":3520:3524  send */\n      tag_62\n        /* \"contracts/Dauth.sol\":3520:3535  send(minter, 3) */\n      jump\t// in\n    tag_273:\n        /* \"contracts/Dauth.sol\":3545:3566  send(nodeAddress1, 1) */\n      tag_274\n        /* \"contracts/Dauth.sol\":3550:3562  nodeAddress1 */\n      dup6\n        /* \"contracts/Dauth.sol\":3564:3565  1 */\n      0x01\n        /* \"contracts/Dauth.sol\":3545:3549  send */\n      tag_62\n        /* \"contracts/Dauth.sol\":3545:3566  send(nodeAddress1, 1) */\n      jump\t// in\n    tag_274:\n        /* \"contracts/Dauth.sol\":3576:3597  send(nodeAddress2, 1) */\n      tag_275\n        /* \"contracts/Dauth.sol\":3581:3593  nodeAddress2 */\n      dup4\n        /* \"contracts/Dauth.sol\":3595:3596  1 */\n      0x01\n        /* \"contracts/Dauth.sol\":3576:3580  send */\n      tag_62\n        /* \"contracts/Dauth.sol\":3576:3597  send(nodeAddress2, 1) */\n      jump\t// in\n    tag_275:\n        /* \"contracts/Dauth.sol\":3607:3628  send(nodeAddress3, 1) */\n      tag_276\n        /* \"contracts/Dauth.sol\":3612:3624  nodeAddress3 */\n      dup2\n        /* \"contracts/Dauth.sol\":3626:3627  1 */\n      0x01\n        /* \"contracts/Dauth.sol\":3607:3611  send */\n      tag_62\n        /* \"contracts/Dauth.sol\":3607:3628  send(nodeAddress3, 1) */\n      jump\t// in\n    tag_276:\n        /* \"contracts/Dauth.sol\":3417:3637  if(userList[userId].userAddress == address(0)) {... */\n    tag_271:\n        /* \"contracts/Dauth.sol\":3727:3857  User(msg.sender, userId, condition1Type,... */\n      mload(0x40)\n      dup1\n      0x0100\n      add\n      0x40\n      mstore\n      dup1\n        /* \"contracts/Dauth.sol\":3732:3742  msg.sender */\n      caller\n        /* \"contracts/Dauth.sol\":3727:3857  User(msg.sender, userId, condition1Type,... */\n      0xffffffffffffffffffffffffffffffffffffffff\n      and\n      dup2\n      mstore\n      0x20\n      add\n        /* \"contracts/Dauth.sol\":3744:3750  userId */\n      dup9\n        /* \"contracts/Dauth.sol\":3727:3857  User(msg.sender, userId, condition1Type,... */\n      dup2\n      mstore\n      0x20\n      add\n        /* \"contracts/Dauth.sol\":3752:3766  condition1Type */\n      dup8\n        /* \"contracts/Dauth.sol\":3727:3857  User(msg.sender, userId, condition1Type,... */\n      dup2\n      mstore\n      0x20\n      add\n        /* \"contracts/Dauth.sol\":3776:3788  nodeAddress1 */\n      dup7\n        /* \"contracts/Dauth.sol\":3727:3857  User(msg.sender, userId, condition1Type,... */\n      0xffffffffffffffffffffffffffffffffffffffff\n      and\n      dup2\n      mstore\n      0x20\n      add\n        /* \"contracts/Dauth.sol\":3790:3804  condition2Type */\n      dup6\n        /* \"contracts/Dauth.sol\":3727:3857  User(msg.sender, userId, condition1Type,... */\n      dup2\n      mstore\n      0x20\n      add\n        /* \"contracts/Dauth.sol\":3806:3818  nodeAddress2 */\n      dup5\n        /* \"contracts/Dauth.sol\":3727:3857  User(msg.sender, userId, condition1Type,... */\n      0xffffffffffffffffffffffffffffffffffffffff\n      and\n      dup2\n      mstore\n      0x20\n      add\n        /* \"contracts/Dauth.sol\":3820:3834  condition3Type */\n      dup4\n        /* \"contracts/Dauth.sol\":3727:3857  User(msg.sender, userId, condition1Type,... */\n      dup2\n      mstore\n      0x20\n      add\n        /* \"contracts/Dauth.sol\":3844:3856  nodeAddress3 */\n      dup3\n        /* \"contracts/Dauth.sol\":3727:3857  User(msg.sender, userId, condition1Type,... */\n      0xffffffffffffffffffffffffffffffffffffffff\n      and\n      dup2\n      mstore\n      pop\n        /* \"contracts/Dauth.sol\":3708:3716  userList */\n      0x03\n        /* \"contracts/Dauth.sol\":3717:3723  userId */\n      dup9\n        /* \"contracts/Dauth.sol\":3708:3724  userList[userId] */\n      mload(0x40)\n      tag_277\n      swap2\n      swap1\n      tag_100\n      jump\t// in\n    tag_277:\n      swap1\n      dup2\n      mstore\n      0x20\n      add\n      mload(0x40)\n      dup1\n      swap2\n      sub\n      swap1\n      keccak256\n        /* \"contracts/Dauth.sol\":3708:3857  userList[userId] = User(msg.sender, userId, condition1Type,... */\n      0x00\n      dup3\n      add\n      mload\n      dup2\n      0x00\n      add\n      exp(0x0100, 0x00)\n      dup2\n      sload\n      dup2\n      0xffffffffffffffffffffffffffffffffffffffff\n      mul\n      not\n      and\n      swap1\n      dup4\n      0xffffffffffffffffffffffffffffffffffffffff\n      and\n      mul\n      or\n      swap1\n      sstore\n      pop\n      0x20\n      dup3\n      add\n      mload\n      dup2\n      0x01\n      add\n      swap1\n      dup2\n      tag_278\n      swap2\n      swap1\n      tag_89\n      jump\t// in\n    tag_278:\n      pop\n      0x40\n      dup3\n      add\n      mload\n      dup2\n      0x02\n      add\n      sstore\n      0x60\n      dup3\n      add\n      mload\n      dup2\n      0x03\n      add\n      exp(0x0100, 0x00)\n      dup2\n      sload\n      dup2\n      0xffffffffffffffffffffffffffffffffffffffff\n      mul\n      not\n      and\n      swap1\n      dup4\n      0xffffffffffffffffffffffffffffffffffffffff\n      and\n      mul\n      or\n      swap1\n      sstore\n      pop\n      0x80\n      dup3\n      add\n      mload\n      dup2\n      0x04\n      add\n      sstore\n      0xa0\n      dup3\n      add\n      mload\n      dup2\n      0x05\n      add\n      exp(0x0100, 0x00)\n      dup2\n      sload\n      dup2\n      0xffffffffffffffffffffffffffffffffffffffff\n      mul\n      not\n      and\n      swap1\n      dup4\n      0xffffffffffffffffffffffffffffffffffffffff\n      and\n      mul\n      or\n      swap1\n      sstore\n      pop\n      0xc0\n      dup3\n      add\n      mload\n      dup2\n      0x06\n      add\n      sstore\n      0xe0\n      dup3\n      add\n      mload\n      dup2\n      0x07\n      add\n      exp(0x0100, 0x00)\n      dup2\n      sload\n      dup2\n      0xffffffffffffffffffffffffffffffffffffffff\n      mul\n      not\n      and\n      swap1\n      dup4\n      0xffffffffffffffffffffffffffffffffffffffff\n      and\n      mul\n      or\n      swap1\n      sstore\n      pop\n      swap1\n      pop\n      pop\n        /* \"contracts/Dauth.sol\":3901:3970  RecoverHistory(msg.sender, userId, 0, 0, \"\", 0,... */\n      mload(0x40)\n      dup1\n      0x0140\n      add\n      0x40\n      mstore\n      dup1\n        /* \"contracts/Dauth.sol\":3916:3926  msg.sender */\n      caller\n        /* \"contracts/Dauth.sol\":3901:3970  RecoverHistory(msg.sender, userId, 0, 0, \"\", 0,... */\n      0xffffffffffffffffffffffffffffffffffffffff\n      and\n      dup2\n      mstore\n      0x20\n      add\n        /* \"contracts/Dauth.sol\":3928:3934  userId */\n      dup9\n        /* \"contracts/Dauth.sol\":3901:3970  RecoverHistory(msg.sender, userId, 0, 0, \"\", 0,... */\n      dup2\n      mstore\n      0x20\n      add\n        /* \"contracts/Dauth.sol\":3936:3937  0 */\n      0x00\n        /* \"contracts/Dauth.sol\":3901:3970  RecoverHistory(msg.sender, userId, 0, 0, \"\", 0,... */\n      dup2\n      mstore\n      0x20\n      add\n        /* \"contracts/Dauth.sol\":3939:3940  0 */\n      0x00\n        /* \"contracts/Dauth.sol\":3901:3970  RecoverHistory(msg.sender, userId, 0, 0, \"\", 0,... */\n      dup2\n      mstore\n      0x20\n      add\n      mload(0x40)\n      dup1\n      0x20\n      add\n      0x40\n      mstore\n      dup1\n      0x00\n      dup2\n      mstore\n      pop\n      dup2\n      mstore\n      0x20\n      add\n        /* \"contracts/Dauth.sol\":3946:3947  0 */\n      0x00\n        /* \"contracts/Dauth.sol\":3901:3970  RecoverHistory(msg.sender, userId, 0, 0, \"\", 0,... */\n      dup2\n      mstore\n      0x20\n      add\n      mload(0x40)\n      dup1\n      0x20\n      add\n      0x40\n      mstore\n      dup1\n      0x00\n      dup2\n      mstore\n      pop\n      dup2\n      mstore\n      0x20\n      add\n        /* \"contracts/Dauth.sol\":3961:3962  0 */\n      0x00\n        /* \"contracts/Dauth.sol\":3901:3970  RecoverHistory(msg.sender, userId, 0, 0, \"\", 0,... */\n      dup2\n      mstore\n      0x20\n      add\n      mload(0x40)\n      dup1\n      0x20\n      add\n      0x40\n      mstore\n      dup1\n      0x00\n      dup2\n      mstore\n      pop\n      dup2\n      mstore\n      0x20\n      add\n        /* \"contracts/Dauth.sol\":3968:3969  0 */\n      0x00\n        /* \"contracts/Dauth.sol\":3901:3970  RecoverHistory(msg.sender, userId, 0, 0, \"\", 0,... */\n      dup2\n      mstore\n      pop\n        /* \"contracts/Dauth.sol\":3872:3890  recoverHistoryList */\n      0x04\n        /* \"contracts/Dauth.sol\":3891:3897  userId */\n      dup9\n        /* \"contracts/Dauth.sol\":3872:3898  recoverHistoryList[userId] */\n      mload(0x40)\n      tag_279\n      swap2\n      swap1\n      tag_100\n      jump\t// in\n    tag_279:\n      swap1\n      dup2\n      mstore\n      0x20\n      add\n      mload(0x40)\n      dup1\n      swap2\n      sub\n      swap1\n      keccak256\n        /* \"contracts/Dauth.sol\":3872:3970  recoverHistoryList[userId] = RecoverHistory(msg.sender, userId, 0, 0, \"\", 0,... */\n      0x00\n      dup3\n      add\n      mload\n      dup2\n      0x00\n      add\n      exp(0x0100, 0x00)\n      dup2\n      sload\n      dup2\n      0xffffffffffffffffffffffffffffffffffffffff\n      mul\n      not\n      and\n      swap1\n      dup4\n      0xffffffffffffffffffffffffffffffffffffffff\n      and\n      mul\n      or\n      swap1\n      sstore\n      pop\n      0x20\n      dup3\n      add\n      mload\n      dup2\n      0x01\n      add\n      swap1\n      dup2\n      tag_280\n      swap2\n      swap1\n      tag_89\n      jump\t// in\n    tag_280:\n      pop\n      0x40\n      dup3\n      add\n      mload\n      dup2\n      0x02\n      add\n      sstore\n      0x60\n      dup3\n      add\n      mload\n      dup2\n      0x03\n      add\n      sstore\n      0x80\n      dup3\n      add\n      mload\n      dup2\n      0x04\n      add\n      swap1\n      dup2\n      tag_281\n      swap2\n      swap1\n      tag_89\n      jump\t// in\n    tag_281:\n      pop\n      0xa0\n      dup3\n      add\n      mload\n      dup2\n      0x05\n      add\n      sstore\n      0xc0\n      dup3\n      add\n      mload\n      dup2\n      0x06\n      add\n      swap1\n      dup2\n      tag_282\n      swap2\n      swap1\n      tag_89\n      jump\t// in\n    tag_282:\n      pop\n      0xe0\n      dup3\n      add\n      mload\n      dup2\n      0x07\n      add\n      sstore\n      0x0100\n      dup3\n      add\n      mload\n      dup2\n      0x08\n      add\n      swap1\n      dup2\n      tag_283\n      swap2\n      swap1\n      tag_89\n      jump\t// in\n    tag_283:\n      pop\n      0x0120\n      dup3\n      add\n      mload\n      dup2\n      0x09\n      add\n      sstore\n      swap1\n      pop\n      pop\n        /* \"contracts/Dauth.sol\":4005:4071  SignHistory(msg.sender, userId, 0, 0, \"\", 0,... */\n      mload(0x40)\n      dup1\n      0x0140\n      add\n      0x40\n      mstore\n      dup1\n        /* \"contracts/Dauth.sol\":4017:4027  msg.sender */\n      caller\n        /* \"contracts/Dauth.sol\":4005:4071  SignHistory(msg.sender, userId, 0, 0, \"\", 0,... */\n      0xffffffffffffffffffffffffffffffffffffffff\n      and\n      dup2\n      mstore\n      0x20\n      add\n        /* \"contracts/Dauth.sol\":4029:4035  userId */\n      dup9\n        /* \"contracts/Dauth.sol\":4005:4071  SignHistory(msg.sender, userId, 0, 0, \"\", 0,... */\n      dup2\n      mstore\n      0x20\n      add\n        /* \"contracts/Dauth.sol\":4037:4038  0 */\n      0x00\n        /* \"contracts/Dauth.sol\":4005:4071  SignHistory(msg.sender, userId, 0, 0, \"\", 0,... */\n      dup2\n      mstore\n      0x20\n      add\n        /* \"contracts/Dauth.sol\":4040:4041  0 */\n      0x00\n        /* \"contracts/Dauth.sol\":4005:4071  SignHistory(msg.sender, userId, 0, 0, \"\", 0,... */\n      dup2\n      mstore\n      0x20\n      add\n      mload(0x40)\n      dup1\n      0x20\n      add\n      0x40\n      mstore\n      dup1\n      0x00\n      dup2\n      mstore\n      pop\n      dup2\n      mstore\n      0x20\n      add\n        /* \"contracts/Dauth.sol\":4047:4048  0 */\n      0x00\n        /* \"contracts/Dauth.sol\":4005:4071  SignHistory(msg.sender, userId, 0, 0, \"\", 0,... */\n      dup2\n      mstore\n      0x20\n      add\n      mload(0x40)\n      dup1\n      0x20\n      add\n      0x40\n      mstore\n      dup1\n      0x00\n      dup2\n      mstore\n      pop\n      dup2\n      mstore\n      0x20\n      add\n        /* \"contracts/Dauth.sol\":4062:4063  0 */\n      0x00\n        /* \"contracts/Dauth.sol\":4005:4071  SignHistory(msg.sender, userId, 0, 0, \"\", 0,... */\n      dup2\n      mstore\n      0x20\n      add\n      mload(0x40)\n      dup1\n      0x20\n      add\n      0x40\n      mstore\n      dup1\n      0x00\n      dup2\n      mstore\n      pop\n      dup2\n      mstore\n      0x20\n      add\n        /* \"contracts/Dauth.sol\":4069:4070  0 */\n      0x00\n        /* \"contracts/Dauth.sol\":4005:4071  SignHistory(msg.sender, userId, 0, 0, \"\", 0,... */\n      dup2\n      mstore\n      pop\n        /* \"contracts/Dauth.sol\":3979:3994  signHistoryList */\n      0x05\n        /* \"contracts/Dauth.sol\":3995:4001  userId */\n      dup9\n        /* \"contracts/Dauth.sol\":3979:4002  signHistoryList[userId] */\n      mload(0x40)\n      tag_284\n      swap2\n      swap1\n      tag_100\n      jump\t// in\n    tag_284:\n      swap1\n      dup2\n      mstore\n      0x20\n      add\n      mload(0x40)\n      dup1\n      swap2\n      sub\n      swap1\n      keccak256\n        /* \"contracts/Dauth.sol\":3979:4071  signHistoryList[userId] = SignHistory(msg.sender, userId, 0, 0, \"\", 0,... */\n      0x00\n      dup3\n      add\n      mload\n      dup2\n      0x00\n      add\n      exp(0x0100, 0x00)\n      dup2\n      sload\n      dup2\n      0xffffffffffffffffffffffffffffffffffffffff\n      mul\n      not\n      and\n      swap1\n      dup4\n      0xffffffffffffffffffffffffffffffffffffffff\n      and\n      mul\n      or\n      swap1\n      sstore\n      pop\n      0x20\n      dup3\n      add\n      mload\n      dup2\n      0x01\n      add\n      swap1\n      dup2\n      tag_285\n      swap2\n      swap1\n      tag_89\n      jump\t// in\n    tag_285:\n      pop\n      0x40\n      dup3\n      add\n      mload\n      dup2\n      0x02\n      add\n      sstore\n      0x60\n      dup3\n      add\n      mload\n      dup2\n      0x03\n      add\n      sstore\n      0x80\n      dup3\n      add\n      mload\n      dup2\n      0x04\n      add\n      swap1\n      dup2\n      tag_286\n      swap2\n      swap1\n      tag_89\n      jump\t// in\n    tag_286:\n      pop\n      0xa0\n      dup3\n      add\n      mload\n      dup2\n      0x05\n      add\n      sstore\n      0xc0\n      dup3\n      add\n      mload\n      dup2\n      0x06\n      add\n      swap1\n      dup2\n      tag_287\n      swap2\n      swap1\n      tag_89\n      jump\t// in\n    tag_287:\n      pop\n      0xe0\n      dup3\n      add\n      mload\n      dup2\n      0x07\n      add\n      sstore\n      0x0100\n      dup3\n      add\n      mload\n      dup2\n      0x08\n      add\n      swap1\n      dup2\n      tag_288\n      swap2\n      swap1\n      tag_89\n      jump\t// in\n    tag_288:\n      pop\n      0x0120\n      dup3\n      add\n      mload\n      dup2\n      0x09\n      add\n      sstore\n      swap1\n      pop\n      pop\n        /* \"contracts/Dauth.sol\":3209:4080  function registerUser(string memory userId, uint condition1Type, address nodeAddress1, ... */\n    tag_269:\n      pop\n      pop\n      pop\n      pop\n      pop\n      pop\n      pop\n      jump\t// out\n        /* \"contracts/Dauth.sol\":1148:1187  mapping(string => User) public userList */\n    tag_73:\n      0x03\n      dup2\n      dup1\n      mload\n      0x20\n      dup2\n      add\n      dup3\n      add\n      dup1\n      mload\n      dup5\n      dup3\n      mstore\n      0x20\n      dup4\n      add\n      0x20\n      dup6\n      add\n      keccak256\n      dup2\n      dup4\n      mstore\n      dup1\n      swap6\n      pop\n      pop\n      pop\n      pop\n      pop\n      pop\n      0x00\n      swap2\n      pop\n      swap1\n      pop\n      dup1\n      0x00\n      add\n      0x00\n      swap1\n      sload\n      swap1\n      0x0100\n      exp\n      swap1\n      div\n      0xffffffffffffffffffffffffffffffffffffffff\n      and\n      swap1\n      dup1\n      0x01\n      add\n      dup1\n      sload\n      tag_289\n      swap1\n      tag_157\n      jump\t// in\n    tag_289:\n      dup1\n      0x1f\n      add\n      0x20\n      dup1\n      swap2\n      div\n      mul\n      0x20\n      add\n      mload(0x40)\n      swap1\n      dup2\n      add\n      0x40\n      mstore\n      dup1\n      swap3\n      swap2\n      swap1\n      dup2\n      dup2\n      mstore\n      0x20\n      add\n      dup3\n      dup1\n      sload\n      tag_290\n      swap1\n      tag_157\n      jump\t// in\n    tag_290:\n      dup1\n      iszero\n      tag_291\n      jumpi\n      dup1\n      0x1f\n      lt\n      tag_292\n      jumpi\n      0x0100\n      dup1\n      dup4\n      sload\n      div\n      mul\n      dup4\n      mstore\n      swap2\n      0x20\n      add\n      swap2\n      jump(tag_291)\n    tag_292:\n      dup3\n      add\n      swap2\n      swap1\n      0x00\n      mstore\n      keccak256(0x00, 0x20)\n      swap1\n    tag_293:\n      dup2\n      sload\n      dup2\n      mstore\n      swap1\n      0x01\n      add\n      swap1\n      0x20\n      add\n      dup1\n      dup4\n      gt\n      tag_293\n      jumpi\n      dup3\n      swap1\n      sub\n      0x1f\n      and\n      dup3\n      add\n      swap2\n    tag_291:\n      pop\n      pop\n      pop\n      pop\n      pop\n      swap1\n      dup1\n      0x02\n      add\n      sload\n      swap1\n      dup1\n      0x03\n      add\n      0x00\n      swap1\n      sload\n      swap1\n      0x0100\n      exp\n      swap1\n      div\n      0xffffffffffffffffffffffffffffffffffffffff\n      and\n      swap1\n      dup1\n      0x04\n      add\n      sload\n      swap1\n      dup1\n      0x05\n      add\n      0x00\n      swap1\n      sload\n      swap1\n      0x0100\n      exp\n      swap1\n      div\n      0xffffffffffffffffffffffffffffffffffffffff\n      and\n      swap1\n      dup1\n      0x06\n      add\n      sload\n      swap1\n      dup1\n      0x07\n      add\n      0x00\n      swap1\n      sload\n      swap1\n      0x0100\n      exp\n      swap1\n      div\n      0xffffffffffffffffffffffffffffffffffffffff\n      and\n      swap1\n      pop\n      dup9\n      jump\t// out\n        /* \"#utility.yul\":7:133   */\n    tag_294:\n        /* \"#utility.yul\":44:51   */\n      0x00\n        /* \"#utility.yul\":84:126   */\n      0xffffffffffffffffffffffffffffffffffffffff\n        /* \"#utility.yul\":77:82   */\n      dup3\n        /* \"#utility.yul\":73:127   */\n      and\n        /* \"#utility.yul\":62:127   */\n      swap1\n      pop\n        /* \"#utility.yul\":7:133   */\n      swap2\n      swap1\n      pop\n      jump\t// out\n        /* \"#utility.yul\":139:235   */\n    tag_295:\n        /* \"#utility.yul\":176:183   */\n      0x00\n        /* \"#utility.yul\":205:229   */\n      tag_352\n        /* \"#utility.yul\":223:228   */\n      dup3\n        /* \"#utility.yul\":205:229   */\n      tag_294\n      jump\t// in\n    tag_352:\n        /* \"#utility.yul\":194:229   */\n      swap1\n      pop\n        /* \"#utility.yul\":139:235   */\n      swap2\n      swap1\n      pop\n      jump\t// out\n        /* \"#utility.yul\":241:359   */\n    tag_296:\n        /* \"#utility.yul\":328:352   */\n      tag_354\n        /* \"#utility.yul\":346:351   */\n      dup2\n        /* \"#utility.yul\":328:352   */\n      tag_295\n      jump\t// in\n    tag_354:\n        /* \"#utility.yul\":323:326   */\n      dup3\n        /* \"#utility.yul\":316:353   */\n      mstore\n        /* \"#utility.yul\":241:359   */\n      pop\n      pop\n      jump\t// out\n        /* \"#utility.yul\":365:587   */\n    tag_23:\n        /* \"#utility.yul\":458:462   */\n      0x00\n        /* \"#utility.yul\":496:498   */\n      0x20\n        /* \"#utility.yul\":485:494   */\n      dup3\n        /* \"#utility.yul\":481:499   */\n      add\n        /* \"#utility.yul\":473:499   */\n      swap1\n      pop\n        /* \"#utility.yul\":509:580   */\n      tag_356\n        /* \"#utility.yul\":577:578   */\n      0x00\n        /* \"#utility.yul\":566:575   */\n      dup4\n        /* \"#utility.yul\":562:579   */\n      add\n        /* \"#utility.yul\":553:559   */\n      dup5\n        /* \"#utility.yul\":509:580   */\n      tag_296\n      jump\t// in\n    tag_356:\n        /* \"#utility.yul\":365:587   */\n      swap3\n      swap2\n      pop\n      pop\n      jump\t// out\n        /* \"#utility.yul\":593:668   */\n    tag_297:\n        /* \"#utility.yul\":626:632   */\n      0x00\n        /* \"#utility.yul\":659:661   */\n      0x40\n        /* \"#utility.yul\":653:662   */\n      mload\n        /* \"#utility.yul\":643:662   */\n      swap1\n      pop\n        /* \"#utility.yul\":593:668   */\n      swap1\n      jump\t// out\n        /* \"#utility.yul\":674:791   */\n    tag_298:\n        /* \"#utility.yul\":783:784   */\n      0x00\n        /* \"#utility.yul\":780:781   */\n      dup1\n        /* \"#utility.yul\":773:785   */\n      revert\n        /* \"#utility.yul\":797:914   */\n    tag_299:\n        /* \"#utility.yul\":906:907   */\n      0x00\n        /* \"#utility.yul\":903:904   */\n      dup1\n        /* \"#utility.yul\":896:908   */\n      revert\n        /* \"#utility.yul\":920:1037   */\n    tag_300:\n        /* \"#utility.yul\":1029:1030   */\n      0x00\n        /* \"#utility.yul\":1026:1027   */\n      dup1\n        /* \"#utility.yul\":1019:1031   */\n      revert\n        /* \"#utility.yul\":1043:1160   */\n    tag_301:\n        /* \"#utility.yul\":1152:1153   */\n      0x00\n        /* \"#utility.yul\":1149:1150   */\n      dup1\n        /* \"#utility.yul\":1142:1154   */\n      revert\n        /* \"#utility.yul\":1166:1268   */\n    tag_302:\n        /* \"#utility.yul\":1207:1213   */\n      0x00\n        /* \"#utility.yul\":1258:1260   */\n      0x1f\n        /* \"#utility.yul\":1254:1261   */\n      not\n        /* \"#utility.yul\":1249:1251   */\n      0x1f\n        /* \"#utility.yul\":1242:1247   */\n      dup4\n        /* \"#utility.yul\":1238:1252   */\n      add\n        /* \"#utility.yul\":1234:1262   */\n      and\n        /* \"#utility.yul\":1224:1262   */\n      swap1\n      pop\n        /* \"#utility.yul\":1166:1268   */\n      swap2\n      swap1\n      pop\n      jump\t// out\n        /* \"#utility.yul\":1274:1454   */\n    tag_303:\n        /* \"#utility.yul\":1322:1399   */\n      0x4e487b7100000000000000000000000000000000000000000000000000000000\n        /* \"#utility.yul\":1319:1320   */\n      0x00\n        /* \"#utility.yul\":1312:1400   */\n      mstore\n        /* \"#utility.yul\":1419:1423   */\n      0x41\n        /* \"#utility.yul\":1416:1417   */\n      0x04\n        /* \"#utility.yul\":1409:1424   */\n      mstore\n        /* \"#utility.yul\":1443:1447   */\n      0x24\n        /* \"#utility.yul\":1440:1441   */\n      0x00\n        /* \"#utility.yul\":1433:1448   */\n      revert\n        /* \"#utility.yul\":1460:1741   */\n    tag_304:\n        /* \"#utility.yul\":1543:1570   */\n      tag_365\n        /* \"#utility.yul\":1565:1569   */\n      dup3\n        /* \"#utility.yul\":1543:1570   */\n      tag_302\n      jump\t// in\n    tag_365:\n        /* \"#utility.yul\":1535:1541   */\n      dup2\n        /* \"#utility.yul\":1531:1571   */\n      add\n        /* \"#utility.yul\":1673:1679   */\n      dup2\n        /* \"#utility.yul\":1661:1671   */\n      dup2\n        /* \"#utility.yul\":1658:1680   */\n      lt\n        /* \"#utility.yul\":1637:1655   */\n      0xffffffffffffffff\n        /* \"#utility.yul\":1625:1635   */\n      dup3\n        /* \"#utility.yul\":1622:1656   */\n      gt\n        /* \"#utility.yul\":1619:1681   */\n      or\n        /* \"#utility.yul\":1616:1704   */\n      iszero\n      tag_366\n      jumpi\n        /* \"#utility.yul\":1684:1702   */\n      tag_367\n      tag_303\n      jump\t// in\n    tag_367:\n        /* \"#utility.yul\":1616:1704   */\n    tag_366:\n        /* \"#utility.yul\":1724:1734   */\n      dup1\n        /* \"#utility.yul\":1720:1722   */\n      0x40\n        /* \"#utility.yul\":1713:1735   */\n      mstore\n        /* \"#utility.yul\":1503:1741   */\n      pop\n        /* \"#utility.yul\":1460:1741   */\n      pop\n      pop\n      jump\t// out\n        /* \"#utility.yul\":1747:1876   */\n    tag_305:\n        /* \"#utility.yul\":1781:1787   */\n      0x00\n        /* \"#utility.yul\":1808:1828   */\n      tag_369\n      tag_297\n      jump\t// in\n    tag_369:\n        /* \"#utility.yul\":1798:1828   */\n      swap1\n      pop\n        /* \"#utility.yul\":1837:1870   */\n      tag_370\n        /* \"#utility.yul\":1865:1869   */\n      dup3\n        /* \"#utility.yul\":1857:1863   */\n      dup3\n        /* \"#utility.yul\":1837:1870   */\n      tag_304\n      jump\t// in\n    tag_370:\n        /* \"#utility.yul\":1747:1876   */\n      swap2\n      swap1\n      pop\n      jump\t// out\n        /* \"#utility.yul\":1882:2190   */\n    tag_306:\n        /* \"#utility.yul\":1944:1948   */\n      0x00\n        /* \"#utility.yul\":2034:2052   */\n      0xffffffffffffffff\n        /* \"#utility.yul\":2026:2032   */\n      dup3\n        /* \"#utility.yul\":2023:2053   */\n      gt\n        /* \"#utility.yul\":2020:2076   */\n      iszero\n      tag_372\n      jumpi\n        /* \"#utility.yul\":2056:2074   */\n      tag_373\n      tag_303\n      jump\t// in\n    tag_373:\n        /* \"#utility.yul\":2020:2076   */\n    tag_372:\n        /* \"#utility.yul\":2094:2123   */\n      tag_374\n        /* \"#utility.yul\":2116:2122   */\n      dup3\n        /* \"#utility.yul\":2094:2123   */\n      tag_302\n      jump\t// in\n    tag_374:\n        /* \"#utility.yul\":2086:2123   */\n      swap1\n      pop\n        /* \"#utility.yul\":2178:2182   */\n      0x20\n        /* \"#utility.yul\":2172:2176   */\n      dup2\n        /* \"#utility.yul\":2168:2183   */\n      add\n        /* \"#utility.yul\":2160:2183   */\n      swap1\n      pop\n        /* \"#utility.yul\":1882:2190   */\n      swap2\n      swap1\n      pop\n      jump\t// out\n        /* \"#utility.yul\":2196:2342   */\n    tag_307:\n        /* \"#utility.yul\":2293:2299   */\n      dup3\n        /* \"#utility.yul\":2288:2291   */\n      dup2\n        /* \"#utility.yul\":2283:2286   */\n      dup4\n        /* \"#utility.yul\":2270:2300   */\n      calldatacopy\n        /* \"#utility.yul\":2334:2335   */\n      0x00\n        /* \"#utility.yul\":2325:2331   */\n      dup4\n        /* \"#utility.yul\":2320:2323   */\n      dup4\n        /* \"#utility.yul\":2316:2332   */\n      add\n        /* \"#utility.yul\":2309:2336   */\n      mstore\n        /* \"#utility.yul\":2196:2342   */\n      pop\n      pop\n      pop\n      jump\t// out\n        /* \"#utility.yul\":2348:2773   */\n    tag_308:\n        /* \"#utility.yul\":2426:2431   */\n      0x00\n        /* \"#utility.yul\":2451:2517   */\n      tag_377\n        /* \"#utility.yul\":2467:2516   */\n      tag_378\n        /* \"#utility.yul\":2509:2515   */\n      dup5\n        /* \"#utility.yul\":2467:2516   */\n      tag_306\n      jump\t// in\n    tag_378:\n        /* \"#utility.yul\":2451:2517   */\n      tag_305\n      jump\t// in\n    tag_377:\n        /* \"#utility.yul\":2442:2517   */\n      swap1\n      pop\n        /* \"#utility.yul\":2540:2546   */\n      dup3\n        /* \"#utility.yul\":2533:2538   */\n      dup2\n        /* \"#utility.yul\":2526:2547   */\n      mstore\n        /* \"#utility.yul\":2578:2582   */\n      0x20\n        /* \"#utility.yul\":2571:2576   */\n      dup2\n        /* \"#utility.yul\":2567:2583   */\n      add\n        /* \"#utility.yul\":2616:2619   */\n      dup5\n        /* \"#utility.yul\":2607:2613   */\n      dup5\n        /* \"#utility.yul\":2602:2605   */\n      dup5\n        /* \"#utility.yul\":2598:2614   */\n      add\n        /* \"#utility.yul\":2595:2620   */\n      gt\n        /* \"#utility.yul\":2592:2704   */\n      iszero\n      tag_379\n      jumpi\n        /* \"#utility.yul\":2623:2702   */\n      tag_380\n      tag_301\n      jump\t// in\n    tag_380:\n        /* \"#utility.yul\":2592:2704   */\n    tag_379:\n        /* \"#utility.yul\":2713:2767   */\n      tag_381\n        /* \"#utility.yul\":2760:2766   */\n      dup5\n        /* \"#utility.yul\":2755:2758   */\n      dup3\n        /* \"#utility.yul\":2750:2753   */\n      dup6\n        /* \"#utility.yul\":2713:2767   */\n      tag_307\n      jump\t// in\n    tag_381:\n        /* \"#utility.yul\":2432:2773   */\n      pop\n        /* \"#utility.yul\":2348:2773   */\n      swap4\n      swap3\n      pop\n      pop\n      pop\n      jump\t// out\n        /* \"#utility.yul\":2793:3133   */\n    tag_309:\n        /* \"#utility.yul\":2849:2854   */\n      0x00\n        /* \"#utility.yul\":2898:2901   */\n      dup3\n        /* \"#utility.yul\":2891:2895   */\n      0x1f\n        /* \"#utility.yul\":2883:2889   */\n      dup4\n        /* \"#utility.yul\":2879:2896   */\n      add\n        /* \"#utility.yul\":2875:2902   */\n      slt\n        /* \"#utility.yul\":2865:2987   */\n      tag_383\n      jumpi\n        /* \"#utility.yul\":2906:2985   */\n      tag_384\n      tag_300\n      jump\t// in\n    tag_384:\n        /* \"#utility.yul\":2865:2987   */\n    tag_383:\n        /* \"#utility.yul\":3023:3029   */\n      dup2\n        /* \"#utility.yul\":3010:3030   */\n      calldataload\n        /* \"#utility.yul\":3048:3127   */\n      tag_385\n        /* \"#utility.yul\":3123:3126   */\n      dup5\n        /* \"#utility.yul\":3115:3121   */\n      dup3\n        /* \"#utility.yul\":3108:3112   */\n      0x20\n        /* \"#utility.yul\":3100:3106   */\n      dup7\n        /* \"#utility.yul\":3096:3113   */\n      add\n        /* \"#utility.yul\":3048:3127   */\n      tag_308\n      jump\t// in\n    tag_385:\n        /* \"#utility.yul\":3039:3127   */\n      swap2\n      pop\n        /* \"#utility.yul\":2855:3133   */\n      pop\n        /* \"#utility.yul\":2793:3133   */\n      swap3\n      swap2\n      pop\n      pop\n      jump\t// out\n        /* \"#utility.yul\":3139:3648   */\n    tag_26:\n        /* \"#utility.yul\":3208:3214   */\n      0x00\n        /* \"#utility.yul\":3257:3259   */\n      0x20\n        /* \"#utility.yul\":3245:3254   */\n      dup3\n        /* \"#utility.yul\":3236:3243   */\n      dup5\n        /* \"#utility.yul\":3232:3255   */\n      sub\n        /* \"#utility.yul\":3228:3260   */\n      slt\n        /* \"#utility.yul\":3225:3344   */\n      iszero\n      tag_387\n      jumpi\n        /* \"#utility.yul\":3263:3342   */\n      tag_388\n      tag_298\n      jump\t// in\n    tag_388:\n        /* \"#utility.yul\":3225:3344   */\n    tag_387:\n        /* \"#utility.yul\":3411:3412   */\n      0x00\n        /* \"#utility.yul\":3400:3409   */\n      dup3\n        /* \"#utility.yul\":3396:3413   */\n      add\n        /* \"#utility.yul\":3383:3414   */\n      calldataload\n        /* \"#utility.yul\":3441:3459   */\n      0xffffffffffffffff\n        /* \"#utility.yul\":3433:3439   */\n      dup2\n        /* \"#utility.yul\":3430:3460   */\n      gt\n        /* \"#utility.yul\":3427:3544   */\n      iszero\n      tag_389\n      jumpi\n        /* \"#utility.yul\":3463:3542   */\n      tag_390\n      tag_299\n      jump\t// in\n    tag_390:\n        /* \"#utility.yul\":3427:3544   */\n    tag_389:\n        /* \"#utility.yul\":3568:3631   */\n      tag_391\n        /* \"#utility.yul\":3623:3630   */\n      dup5\n        /* \"#utility.yul\":3614:3620   */\n      dup3\n        /* \"#utility.yul\":3603:3612   */\n      dup6\n        /* \"#utility.yul\":3599:3621   */\n      add\n        /* \"#utility.yul\":3568:3631   */\n      tag_309\n      jump\t// in\n    tag_391:\n        /* \"#utility.yul\":3558:3631   */\n      swap2\n      pop\n        /* \"#utility.yul\":3354:3641   */\n      pop\n        /* \"#utility.yul\":3139:3648   */\n      swap3\n      swap2\n      pop\n      pop\n      jump\t// out\n        /* \"#utility.yul\":3654:3776   */\n    tag_310:\n        /* \"#utility.yul\":3727:3751   */\n      tag_393\n        /* \"#utility.yul\":3745:3750   */\n      dup2\n        /* \"#utility.yul\":3727:3751   */\n      tag_295\n      jump\t// in\n    tag_393:\n        /* \"#utility.yul\":3720:3725   */\n      dup2\n        /* \"#utility.yul\":3717:3752   */\n      eq\n        /* \"#utility.yul\":3707:3770   */\n      tag_394\n      jumpi\n        /* \"#utility.yul\":3766:3767   */\n      0x00\n        /* \"#utility.yul\":3763:3764   */\n      dup1\n        /* \"#utility.yul\":3756:3768   */\n      revert\n        /* \"#utility.yul\":3707:3770   */\n    tag_394:\n        /* \"#utility.yul\":3654:3776   */\n      pop\n      jump\t// out\n        /* \"#utility.yul\":3782:3921   */\n    tag_311:\n        /* \"#utility.yul\":3828:3833   */\n      0x00\n        /* \"#utility.yul\":3866:3872   */\n      dup2\n        /* \"#utility.yul\":3853:3873   */\n      calldataload\n        /* \"#utility.yul\":3844:3873   */\n      swap1\n      pop\n        /* \"#utility.yul\":3882:3915   */\n      tag_396\n        /* \"#utility.yul\":3909:3914   */\n      dup2\n        /* \"#utility.yul\":3882:3915   */\n      tag_310\n      jump\t// in\n    tag_396:\n        /* \"#utility.yul\":3782:3921   */\n      swap3\n      swap2\n      pop\n      pop\n      jump\t// out\n        /* \"#utility.yul\":3927:4256   */\n    tag_30:\n        /* \"#utility.yul\":3986:3992   */\n      0x00\n        /* \"#utility.yul\":4035:4037   */\n      0x20\n        /* \"#utility.yul\":4023:4032   */\n      dup3\n        /* \"#utility.yul\":4014:4021   */\n      dup5\n        /* \"#utility.yul\":4010:4033   */\n      sub\n        /* \"#utility.yul\":4006:4038   */\n      slt\n        /* \"#utility.yul\":4003:4122   */\n      iszero\n      tag_398\n      jumpi\n        /* \"#utility.yul\":4041:4120   */\n      tag_399\n      tag_298\n      jump\t// in\n    tag_399:\n        /* \"#utility.yul\":4003:4122   */\n    tag_398:\n        /* \"#utility.yul\":4161:4162   */\n      0x00\n        /* \"#utility.yul\":4186:4239   */\n      tag_400\n        /* \"#utility.yul\":4231:4238   */\n      dup5\n        /* \"#utility.yul\":4222:4228   */\n      dup3\n        /* \"#utility.yul\":4211:4220   */\n      dup6\n        /* \"#utility.yul\":4207:4229   */\n      add\n        /* \"#utility.yul\":4186:4239   */\n      tag_311\n      jump\t// in\n    tag_400:\n        /* \"#utility.yul\":4176:4239   */\n      swap2\n      pop\n        /* \"#utility.yul\":4132:4249   */\n      pop\n        /* \"#utility.yul\":3927:4256   */\n      swap3\n      swap2\n      pop\n      pop\n      jump\t// out\n        /* \"#utility.yul\":4262:4339   */\n    tag_312:\n        /* \"#utility.yul\":4299:4306   */\n      0x00\n        /* \"#utility.yul\":4328:4333   */\n      dup2\n        /* \"#utility.yul\":4317:4333   */\n      swap1\n      pop\n        /* \"#utility.yul\":4262:4339   */\n      swap2\n      swap1\n      pop\n      jump\t// out\n        /* \"#utility.yul\":4345:4463   */\n    tag_313:\n        /* \"#utility.yul\":4432:4456   */\n      tag_403\n        /* \"#utility.yul\":4450:4455   */\n      dup2\n        /* \"#utility.yul\":4432:4456   */\n      tag_312\n      jump\t// in\n    tag_403:\n        /* \"#utility.yul\":4427:4430   */\n      dup3\n        /* \"#utility.yul\":4420:4457   */\n      mstore\n        /* \"#utility.yul\":4345:4463   */\n      pop\n      pop\n      jump\t// out\n        /* \"#utility.yul\":4469:4691   */\n    tag_33:\n        /* \"#utility.yul\":4562:4566   */\n      0x00\n        /* \"#utility.yul\":4600:4602   */\n      0x20\n        /* \"#utility.yul\":4589:4598   */\n      dup3\n        /* \"#utility.yul\":4585:4603   */\n      add\n        /* \"#utility.yul\":4577:4603   */\n      swap1\n      pop\n        /* \"#utility.yul\":4613:4684   */\n      tag_405\n        /* \"#utility.yul\":4681:4682   */\n      0x00\n        /* \"#utility.yul\":4670:4679   */\n      dup4\n        /* \"#utility.yul\":4666:4683   */\n      add\n        /* \"#utility.yul\":4657:4663   */\n      dup5\n        /* \"#utility.yul\":4613:4684   */\n      tag_313\n      jump\t// in\n    tag_405:\n        /* \"#utility.yul\":4469:4691   */\n      swap3\n      swap2\n      pop\n      pop\n      jump\t// out\n        /* \"#utility.yul\":4697:4819   */\n    tag_314:\n        /* \"#utility.yul\":4770:4794   */\n      tag_407\n        /* \"#utility.yul\":4788:4793   */\n      dup2\n        /* \"#utility.yul\":4770:4794   */\n      tag_312\n      jump\t// in\n    tag_407:\n        /* \"#utility.yul\":4763:4768   */\n      dup2\n        /* \"#utility.yul\":4760:4795   */\n      eq\n        /* \"#utility.yul\":4750:4813   */\n      tag_408\n      jumpi\n        /* \"#utility.yul\":4809:4810   */\n      0x00\n        /* \"#utility.yul\":4806:4807   */\n      dup1\n        /* \"#utility.yul\":4799:4811   */\n      revert\n        /* \"#utility.yul\":4750:4813   */\n    tag_408:\n        /* \"#utility.yul\":4697:4819   */\n      pop\n      jump\t// out\n        /* \"#utility.yul\":4825:4964   */\n    tag_315:\n        /* \"#utility.yul\":4871:4876   */\n      0x00\n        /* \"#utility.yul\":4909:4915   */\n      dup2\n        /* \"#utility.yul\":4896:4916   */\n      calldataload\n        /* \"#utility.yul\":4887:4916   */\n      swap1\n      pop\n        /* \"#utility.yul\":4925:4958   */\n      tag_410\n        /* \"#utility.yul\":4952:4957   */\n      dup2\n        /* \"#utility.yul\":4925:4958   */\n      tag_314\n      jump\t// in\n    tag_410:\n        /* \"#utility.yul\":4825:4964   */\n      swap3\n      swap2\n      pop\n      pop\n      jump\t// out\n        /* \"#utility.yul\":4970:5444   */\n    tag_36:\n        /* \"#utility.yul\":5038:5044   */\n      0x00\n        /* \"#utility.yul\":5046:5052   */\n      dup1\n        /* \"#utility.yul\":5095:5097   */\n      0x40\n        /* \"#utility.yul\":5083:5092   */\n      dup4\n        /* \"#utility.yul\":5074:5081   */\n      dup6\n        /* \"#utility.yul\":5070:5093   */\n      sub\n        /* \"#utility.yul\":5066:5098   */\n      slt\n        /* \"#utility.yul\":5063:5182   */\n      iszero\n      tag_412\n      jumpi\n        /* \"#utility.yul\":5101:5180   */\n      tag_413\n      tag_298\n      jump\t// in\n    tag_413:\n        /* \"#utility.yul\":5063:5182   */\n    tag_412:\n        /* \"#utility.yul\":5221:5222   */\n      0x00\n        /* \"#utility.yul\":5246:5299   */\n      tag_414\n        /* \"#utility.yul\":5291:5298   */\n      dup6\n        /* \"#utility.yul\":5282:5288   */\n      dup3\n        /* \"#utility.yul\":5271:5280   */\n      dup7\n        /* \"#utility.yul\":5267:5289   */\n      add\n        /* \"#utility.yul\":5246:5299   */\n      tag_311\n      jump\t// in\n    tag_414:\n        /* \"#utility.yul\":5236:5299   */\n      swap3\n      pop\n        /* \"#utility.yul\":5192:5309   */\n      pop\n        /* \"#utility.yul\":5348:5350   */\n      0x20\n        /* \"#utility.yul\":5374:5427   */\n      tag_415\n        /* \"#utility.yul\":5419:5426   */\n      dup6\n        /* \"#utility.yul\":5410:5416   */\n      dup3\n        /* \"#utility.yul\":5399:5408   */\n      dup7\n        /* \"#utility.yul\":5395:5417   */\n      add\n        /* \"#utility.yul\":5374:5427   */\n      tag_315\n      jump\t// in\n    tag_415:\n        /* \"#utility.yul\":5364:5427   */\n      swap2\n      pop\n        /* \"#utility.yul\":5319:5437   */\n      pop\n        /* \"#utility.yul\":4970:5444   */\n      swap3\n      pop\n      swap3\n      swap1\n      pop\n      jump\t// out\n        /* \"#utility.yul\":5450:6284   */\n    tag_43:\n        /* \"#utility.yul\":5538:5544   */\n      0x00\n        /* \"#utility.yul\":5546:5552   */\n      dup1\n        /* \"#utility.yul\":5595:5597   */\n      0x40\n        /* \"#utility.yul\":5583:5592   */\n      dup4\n        /* \"#utility.yul\":5574:5581   */\n      dup6\n        /* \"#utility.yul\":5570:5593   */\n      sub\n        /* \"#utility.yul\":5566:5598   */\n      slt\n        /* \"#utility.yul\":5563:5682   */\n      iszero\n      tag_417\n      jumpi\n        /* \"#utility.yul\":5601:5680   */\n      tag_418\n      tag_298\n      jump\t// in\n    tag_418:\n        /* \"#utility.yul\":5563:5682   */\n    tag_417:\n        /* \"#utility.yul\":5749:5750   */\n      0x00\n        /* \"#utility.yul\":5738:5747   */\n      dup4\n        /* \"#utility.yul\":5734:5751   */\n      add\n        /* \"#utility.yul\":5721:5752   */\n      calldataload\n        /* \"#utility.yul\":5779:5797   */\n      0xffffffffffffffff\n        /* \"#utility.yul\":5771:5777   */\n      dup2\n        /* \"#utility.yul\":5768:5798   */\n      gt\n        /* \"#utility.yul\":5765:5882   */\n      iszero\n      tag_419\n      jumpi\n        /* \"#utility.yul\":5801:5880   */\n      tag_420\n      tag_299\n      jump\t// in\n    tag_420:\n        /* \"#utility.yul\":5765:5882   */\n    tag_419:\n        /* \"#utility.yul\":5906:5969   */\n      tag_421\n        /* \"#utility.yul\":5961:5968   */\n      dup6\n        /* \"#utility.yul\":5952:5958   */\n      dup3\n        /* \"#utility.yul\":5941:5950   */\n      dup7\n        /* \"#utility.yul\":5937:5959   */\n      add\n        /* \"#utility.yul\":5906:5969   */\n      tag_309\n      jump\t// in\n    tag_421:\n        /* \"#utility.yul\":5896:5969   */\n      swap3\n      pop\n        /* \"#utility.yul\":5692:5979   */\n      pop\n        /* \"#utility.yul\":6046:6048   */\n      0x20\n        /* \"#utility.yul\":6035:6044   */\n      dup4\n        /* \"#utility.yul\":6031:6049   */\n      add\n        /* \"#utility.yul\":6018:6050   */\n      calldataload\n        /* \"#utility.yul\":6077:6095   */\n      0xffffffffffffffff\n        /* \"#utility.yul\":6069:6075   */\n      dup2\n        /* \"#utility.yul\":6066:6096   */\n      gt\n        /* \"#utility.yul\":6063:6180   */\n      iszero\n      tag_422\n      jumpi\n        /* \"#utility.yul\":6099:6178   */\n      tag_423\n      tag_299\n      jump\t// in\n    tag_423:\n        /* \"#utility.yul\":6063:6180   */\n    tag_422:\n        /* \"#utility.yul\":6204:6267   */\n      tag_424\n        /* \"#utility.yul\":6259:6266   */\n      dup6\n        /* \"#utility.yul\":6250:6256   */\n      dup3\n        /* \"#utility.yul\":6239:6248   */\n      dup7\n        /* \"#utility.yul\":6235:6257   */\n      add\n        /* \"#utility.yul\":6204:6267   */\n      tag_309\n      jump\t// in\n    tag_424:\n        /* \"#utility.yul\":6194:6267   */\n      swap2\n      pop\n        /* \"#utility.yul\":5989:6277   */\n      pop\n        /* \"#utility.yul\":5450:6284   */\n      swap3\n      pop\n      swap3\n      swap1\n      pop\n      jump\t// out\n        /* \"#utility.yul\":6290:6389   */\n    tag_316:\n        /* \"#utility.yul\":6342:6348   */\n      0x00\n        /* \"#utility.yul\":6376:6381   */\n      dup2\n        /* \"#utility.yul\":6370:6382   */\n      mload\n        /* \"#utility.yul\":6360:6382   */\n      swap1\n      pop\n        /* \"#utility.yul\":6290:6389   */\n      swap2\n      swap1\n      pop\n      jump\t// out\n        /* \"#utility.yul\":6395:6564   */\n    tag_317:\n        /* \"#utility.yul\":6479:6490   */\n      0x00\n        /* \"#utility.yul\":6513:6519   */\n      dup3\n        /* \"#utility.yul\":6508:6511   */\n      dup3\n        /* \"#utility.yul\":6501:6520   */\n      mstore\n        /* \"#utility.yul\":6553:6557   */\n      0x20\n        /* \"#utility.yul\":6548:6551   */\n      dup3\n        /* \"#utility.yul\":6544:6558   */\n      add\n        /* \"#utility.yul\":6529:6558   */\n      swap1\n      pop\n        /* \"#utility.yul\":6395:6564   */\n      swap3\n      swap2\n      pop\n      pop\n      jump\t// out\n        /* \"#utility.yul\":6570:6816   */\n    tag_318:\n        /* \"#utility.yul\":6651:6652   */\n      0x00\n        /* \"#utility.yul\":6661:6774   */\n    tag_428:\n        /* \"#utility.yul\":6675:6681   */\n      dup4\n        /* \"#utility.yul\":6672:6673   */\n      dup2\n        /* \"#utility.yul\":6669:6682   */\n      lt\n        /* \"#utility.yul\":6661:6774   */\n      iszero\n      tag_430\n      jumpi\n        /* \"#utility.yul\":6760:6761   */\n      dup1\n        /* \"#utility.yul\":6755:6758   */\n      dup3\n        /* \"#utility.yul\":6751:6762   */\n      add\n        /* \"#utility.yul\":6745:6763   */\n      mload\n        /* \"#utility.yul\":6741:6742   */\n      dup2\n        /* \"#utility.yul\":6736:6739   */\n      dup5\n        /* \"#utility.yul\":6732:6743   */\n      add\n        /* \"#utility.yul\":6725:6764   */\n      mstore\n        /* \"#utility.yul\":6697:6699   */\n      0x20\n        /* \"#utility.yul\":6694:6695   */\n      dup2\n        /* \"#utility.yul\":6690:6700   */\n      add\n        /* \"#utility.yul\":6685:6700   */\n      swap1\n      pop\n        /* \"#utility.yul\":6661:6774   */\n      jump(tag_428)\n    tag_430:\n        /* \"#utility.yul\":6808:6809   */\n      0x00\n        /* \"#utility.yul\":6799:6805   */\n      dup5\n        /* \"#utility.yul\":6794:6797   */\n      dup5\n        /* \"#utility.yul\":6790:6806   */\n      add\n        /* \"#utility.yul\":6783:6810   */\n      mstore\n        /* \"#utility.yul\":6632:6816   */\n      pop\n        /* \"#utility.yul\":6570:6816   */\n      pop\n      pop\n      pop\n      jump\t// out\n        /* \"#utility.yul\":6822:7199   */\n    tag_319:\n        /* \"#utility.yul\":6910:6913   */\n      0x00\n        /* \"#utility.yul\":6938:6977   */\n      tag_432\n        /* \"#utility.yul\":6971:6976   */\n      dup3\n        /* \"#utility.yul\":6938:6977   */\n      tag_316\n      jump\t// in\n    tag_432:\n        /* \"#utility.yul\":6993:7064   */\n      tag_433\n        /* \"#utility.yul\":7057:7063   */\n      dup2\n        /* \"#utility.yul\":7052:7055   */\n      dup6\n        /* \"#utility.yul\":6993:7064   */\n      tag_317\n      jump\t// in\n    tag_433:\n        /* \"#utility.yul\":6986:7064   */\n      swap4\n      pop\n        /* \"#utility.yul\":7073:7138   */\n      tag_434\n        /* \"#utility.yul\":7131:7137   */\n      dup2\n        /* \"#utility.yul\":7126:7129   */\n      dup6\n        /* \"#utility.yul\":7119:7123   */\n      0x20\n        /* \"#utility.yul\":7112:7117   */\n      dup7\n        /* \"#utility.yul\":7108:7124   */\n      add\n        /* \"#utility.yul\":7073:7138   */\n      tag_318\n      jump\t// in\n    tag_434:\n        /* \"#utility.yul\":7163:7192   */\n      tag_435\n        /* \"#utility.yul\":7185:7191   */\n      dup2\n        /* \"#utility.yul\":7163:7192   */\n      tag_302\n      jump\t// in\n    tag_435:\n        /* \"#utility.yul\":7158:7161   */\n      dup5\n        /* \"#utility.yul\":7154:7193   */\n      add\n        /* \"#utility.yul\":7147:7193   */\n      swap2\n      pop\n        /* \"#utility.yul\":6914:7199   */\n      pop\n        /* \"#utility.yul\":6822:7199   */\n      swap3\n      swap2\n      pop\n      pop\n      jump\t// out\n        /* \"#utility.yul\":7205:8788   */\n    tag_49:\n        /* \"#utility.yul\":7630:7634   */\n      0x00\n        /* \"#utility.yul\":7668:7671   */\n      0x0140\n        /* \"#utility.yul\":7657:7666   */\n      dup3\n        /* \"#utility.yul\":7653:7672   */\n      add\n        /* \"#utility.yul\":7645:7672   */\n      swap1\n      pop\n        /* \"#utility.yul\":7682:7753   */\n      tag_437\n        /* \"#utility.yul\":7750:7751   */\n      0x00\n        /* \"#utility.yul\":7739:7748   */\n      dup4\n        /* \"#utility.yul\":7735:7752   */\n      add\n        /* \"#utility.yul\":7726:7732   */\n      dup14\n        /* \"#utility.yul\":7682:7753   */\n      tag_296\n      jump\t// in\n    tag_437:\n        /* \"#utility.yul\":7800:7809   */\n      dup2\n        /* \"#utility.yul\":7794:7798   */\n      dup2\n        /* \"#utility.yul\":7790:7810   */\n      sub\n        /* \"#utility.yul\":7785:7787   */\n      0x20\n        /* \"#utility.yul\":7774:7783   */\n      dup4\n        /* \"#utility.yul\":7770:7788   */\n      add\n        /* \"#utility.yul\":7763:7811   */\n      mstore\n        /* \"#utility.yul\":7828:7906   */\n      tag_438\n        /* \"#utility.yul\":7901:7905   */\n      dup2\n        /* \"#utility.yul\":7892:7898   */\n      dup13\n        /* \"#utility.yul\":7828:7906   */\n      tag_319\n      jump\t// in\n    tag_438:\n        /* \"#utility.yul\":7820:7906   */\n      swap1\n      pop\n        /* \"#utility.yul\":7916:7988   */\n      tag_439\n        /* \"#utility.yul\":7984:7986   */\n      0x40\n        /* \"#utility.yul\":7973:7982   */\n      dup4\n        /* \"#utility.yul\":7969:7987   */\n      add\n        /* \"#utility.yul\":7960:7966   */\n      dup12\n        /* \"#utility.yul\":7916:7988   */\n      tag_313\n      jump\t// in\n    tag_439:\n        /* \"#utility.yul\":7998:8070   */\n      tag_440\n        /* \"#utility.yul\":8066:8068   */\n      0x60\n        /* \"#utility.yul\":8055:8064   */\n      dup4\n        /* \"#utility.yul\":8051:8069   */\n      add\n        /* \"#utility.yul\":8042:8048   */\n      dup11\n        /* \"#utility.yul\":7998:8070   */\n      tag_313\n      jump\t// in\n    tag_440:\n        /* \"#utility.yul\":8118:8127   */\n      dup2\n        /* \"#utility.yul\":8112:8116   */\n      dup2\n        /* \"#utility.yul\":8108:8128   */\n      sub\n        /* \"#utility.yul\":8102:8105   */\n      0x80\n        /* \"#utility.yul\":8091:8100   */\n      dup4\n        /* \"#utility.yul\":8087:8106   */\n      add\n        /* \"#utility.yul\":8080:8129   */\n      mstore\n        /* \"#utility.yul\":8146:8224   */\n      tag_441\n        /* \"#utility.yul\":8219:8223   */\n      dup2\n        /* \"#utility.yul\":8210:8216   */\n      dup10\n        /* \"#utility.yul\":8146:8224   */\n      tag_319\n      jump\t// in\n    tag_441:\n        /* \"#utility.yul\":8138:8224   */\n      swap1\n      pop\n        /* \"#utility.yul\":8234:8307   */\n      tag_442\n        /* \"#utility.yul\":8302:8305   */\n      0xa0\n        /* \"#utility.yul\":8291:8300   */\n      dup4\n        /* \"#utility.yul\":8287:8306   */\n      add\n        /* \"#utility.yul\":8278:8284   */\n      dup9\n        /* \"#utility.yul\":8234:8307   */\n      tag_313\n      jump\t// in\n    tag_442:\n        /* \"#utility.yul\":8355:8364   */\n      dup2\n        /* \"#utility.yul\":8349:8353   */\n      dup2\n        /* \"#utility.yul\":8345:8365   */\n      sub\n        /* \"#utility.yul\":8339:8342   */\n      0xc0\n        /* \"#utility.yul\":8328:8337   */\n      dup4\n        /* \"#utility.yul\":8324:8343   */\n      add\n        /* \"#utility.yul\":8317:8366   */\n      mstore\n        /* \"#utility.yul\":8383:8461   */\n      tag_443\n        /* \"#utility.yul\":8456:8460   */\n      dup2\n        /* \"#utility.yul\":8447:8453   */\n      dup8\n        /* \"#utility.yul\":8383:8461   */\n      tag_319\n      jump\t// in\n    tag_443:\n        /* \"#utility.yul\":8375:8461   */\n      swap1\n      pop\n        /* \"#utility.yul\":8471:8544   */\n      tag_444\n        /* \"#utility.yul\":8539:8542   */\n      0xe0\n        /* \"#utility.yul\":8528:8537   */\n      dup4\n        /* \"#utility.yul\":8524:8543   */\n      add\n        /* \"#utility.yul\":8515:8521   */\n      dup7\n        /* \"#utility.yul\":8471:8544   */\n      tag_313\n      jump\t// in\n    tag_444:\n        /* \"#utility.yul\":8592:8601   */\n      dup2\n        /* \"#utility.yul\":8586:8590   */\n      dup2\n        /* \"#utility.yul\":8582:8602   */\n      sub\n        /* \"#utility.yul\":8576:8579   */\n      0x0100\n        /* \"#utility.yul\":8565:8574   */\n      dup4\n        /* \"#utility.yul\":8561:8580   */\n      add\n        /* \"#utility.yul\":8554:8603   */\n      mstore\n        /* \"#utility.yul\":8620:8698   */\n      tag_445\n        /* \"#utility.yul\":8693:8697   */\n      dup2\n        /* \"#utility.yul\":8684:8690   */\n      dup6\n        /* \"#utility.yul\":8620:8698   */\n      tag_319\n      jump\t// in\n    tag_445:\n        /* \"#utility.yul\":8612:8698   */\n      swap1\n      pop\n        /* \"#utility.yul\":8708:8781   */\n      tag_446\n        /* \"#utility.yul\":8776:8779   */\n      0x0120\n        /* \"#utility.yul\":8765:8774   */\n      dup4\n        /* \"#utility.yul\":8761:8780   */\n      add\n        /* \"#utility.yul\":8752:8758   */\n      dup5\n        /* \"#utility.yul\":8708:8781   */\n      tag_313\n      jump\t// in\n    tag_446:\n        /* \"#utility.yul\":7205:8788   */\n      swap12\n      swap11\n      pop\n      pop\n      pop\n      pop\n      pop\n      pop\n      pop\n      pop\n      pop\n      pop\n      pop\n      jump\t// out\n        /* \"#utility.yul\":8794:8928   */\n    tag_320:\n        /* \"#utility.yul\":8881:8887   */\n      0x00\n        /* \"#utility.yul\":8915:8920   */\n      dup2\n        /* \"#utility.yul\":8909:8921   */\n      mload\n        /* \"#utility.yul\":8899:8921   */\n      swap1\n      pop\n        /* \"#utility.yul\":8794:8928   */\n      swap2\n      swap1\n      pop\n      jump\t// out\n        /* \"#utility.yul\":8934:9138   */\n    tag_321:\n        /* \"#utility.yul\":9053:9064   */\n      0x00\n        /* \"#utility.yul\":9087:9093   */\n      dup3\n        /* \"#utility.yul\":9082:9085   */\n      dup3\n        /* \"#utility.yul\":9075:9094   */\n      mstore\n        /* \"#utility.yul\":9127:9131   */\n      0x20\n        /* \"#utility.yul\":9122:9125   */\n      dup3\n        /* \"#utility.yul\":9118:9132   */\n      add\n        /* \"#utility.yul\":9103:9132   */\n      swap1\n      pop\n        /* \"#utility.yul\":8934:9138   */\n      swap3\n      swap2\n      pop\n      pop\n      jump\t// out\n        /* \"#utility.yul\":9144:9296   */\n    tag_322:\n        /* \"#utility.yul\":9231:9235   */\n      0x00\n        /* \"#utility.yul\":9254:9257   */\n      dup2\n        /* \"#utility.yul\":9246:9257   */\n      swap1\n      pop\n        /* \"#utility.yul\":9284:9288   */\n      0x20\n        /* \"#utility.yul\":9279:9282   */\n      dup3\n        /* \"#utility.yul\":9275:9289   */\n      add\n        /* \"#utility.yul\":9267:9289   */\n      swap1\n      pop\n        /* \"#utility.yul\":9144:9296   */\n      swap2\n      swap1\n      pop\n      jump\t// out\n        /* \"#utility.yul\":9302:9410   */\n    tag_323:\n        /* \"#utility.yul\":9379:9403   */\n      tag_451\n        /* \"#utility.yul\":9397:9402   */\n      dup2\n        /* \"#utility.yul\":9379:9403   */\n      tag_295\n      jump\t// in\n    tag_451:\n        /* \"#utility.yul\":9374:9377   */\n      dup3\n        /* \"#utility.yul\":9367:9404   */\n      mstore\n        /* \"#utility.yul\":9302:9410   */\n      pop\n      pop\n      jump\t// out\n        /* \"#utility.yul\":9416:9575   */\n    tag_324:\n        /* \"#utility.yul\":9490:9501   */\n      0x00\n        /* \"#utility.yul\":9524:9530   */\n      dup3\n        /* \"#utility.yul\":9519:9522   */\n      dup3\n        /* \"#utility.yul\":9512:9531   */\n      mstore\n        /* \"#utility.yul\":9564:9568   */\n      0x20\n        /* \"#utility.yul\":9559:9562   */\n      dup3\n        /* \"#utility.yul\":9555:9569   */\n      add\n        /* \"#utility.yul\":9540:9569   */\n      swap1\n      pop\n        /* \"#utility.yul\":9416:9575   */\n      swap3\n      swap2\n      pop\n      pop\n      jump\t// out\n        /* \"#utility.yul\":9581:9938   */\n    tag_325:\n        /* \"#utility.yul\":9659:9662   */\n      0x00\n        /* \"#utility.yul\":9687:9726   */\n      tag_454\n        /* \"#utility.yul\":9720:9725   */\n      dup3\n        /* \"#utility.yul\":9687:9726   */\n      tag_316\n      jump\t// in\n    tag_454:\n        /* \"#utility.yul\":9742:9803   */\n      tag_455\n        /* \"#utility.yul\":9796:9802   */\n      dup2\n        /* \"#utility.yul\":9791:9794   */\n      dup6\n        /* \"#utility.yul\":9742:9803   */\n      tag_324\n      jump\t// in\n    tag_455:\n        /* \"#utility.yul\":9735:9803   */\n      swap4\n      pop\n        /* \"#utility.yul\":9812:9877   */\n      tag_456\n        /* \"#utility.yul\":9870:9876   */\n      dup2\n        /* \"#utility.yul\":9865:9868   */\n      dup6\n        /* \"#utility.yul\":9858:9862   */\n      0x20\n        /* \"#utility.yul\":9851:9856   */\n      dup7\n        /* \"#utility.yul\":9847:9863   */\n      add\n        /* \"#utility.yul\":9812:9877   */\n      tag_318\n      jump\t// in\n    tag_456:\n        /* \"#utility.yul\":9902:9931   */\n      tag_457\n        /* \"#utility.yul\":9924:9930   */\n      dup2\n        /* \"#utility.yul\":9902:9931   */\n      tag_302\n      jump\t// in\n    tag_457:\n        /* \"#utility.yul\":9897:9900   */\n      dup5\n        /* \"#utility.yul\":9893:9932   */\n      add\n        /* \"#utility.yul\":9886:9932   */\n      swap2\n      pop\n        /* \"#utility.yul\":9663:9938   */\n      pop\n        /* \"#utility.yul\":9581:9938   */\n      swap3\n      swap2\n      pop\n      pop\n      jump\t// out\n        /* \"#utility.yul\":9990:10589   */\n    tag_326:\n        /* \"#utility.yul\":10089:10092   */\n      0x00\n        /* \"#utility.yul\":10125:10129   */\n      0x40\n        /* \"#utility.yul\":10120:10123   */\n      dup4\n        /* \"#utility.yul\":10116:10130   */\n      add\n        /* \"#utility.yul\":10219:10223   */\n      0x00\n        /* \"#utility.yul\":10212:10217   */\n      dup4\n        /* \"#utility.yul\":10208:10224   */\n      add\n        /* \"#utility.yul\":10202:10225   */\n      mload\n        /* \"#utility.yul\":10238:10301   */\n      tag_459\n        /* \"#utility.yul\":10295:10299   */\n      0x00\n        /* \"#utility.yul\":10290:10293   */\n      dup7\n        /* \"#utility.yul\":10286:10300   */\n      add\n        /* \"#utility.yul\":10272:10284   */\n      dup3\n        /* \"#utility.yul\":10238:10301   */\n      tag_323\n      jump\t// in\n    tag_459:\n        /* \"#utility.yul\":10140:10311   */\n      pop\n        /* \"#utility.yul\":10399:10403   */\n      0x20\n        /* \"#utility.yul\":10392:10397   */\n      dup4\n        /* \"#utility.yul\":10388:10404   */\n      add\n        /* \"#utility.yul\":10382:10405   */\n      mload\n        /* \"#utility.yul\":10452:10455   */\n      dup5\n        /* \"#utility.yul\":10446:10450   */\n      dup3\n        /* \"#utility.yul\":10442:10456   */\n      sub\n        /* \"#utility.yul\":10435:10439   */\n      0x20\n        /* \"#utility.yul\":10430:10433   */\n      dup7\n        /* \"#utility.yul\":10426:10440   */\n      add\n        /* \"#utility.yul\":10419:10457   */\n      mstore\n        /* \"#utility.yul\":10478:10551   */\n      tag_460\n        /* \"#utility.yul\":10546:10550   */\n      dup3\n        /* \"#utility.yul\":10532:10544   */\n      dup3\n        /* \"#utility.yul\":10478:10551   */\n      tag_325\n      jump\t// in\n    tag_460:\n        /* \"#utility.yul\":10470:10551   */\n      swap2\n      pop\n        /* \"#utility.yul\":10321:10562   */\n      pop\n        /* \"#utility.yul\":10579:10583   */\n      dup1\n        /* \"#utility.yul\":10572:10583   */\n      swap2\n      pop\n        /* \"#utility.yul\":10094:10589   */\n      pop\n        /* \"#utility.yul\":9990:10589   */\n      swap3\n      swap2\n      pop\n      pop\n      jump\t// out\n        /* \"#utility.yul\":10595:10831   */\n    tag_327:\n        /* \"#utility.yul\":10704:10714   */\n      0x00\n        /* \"#utility.yul\":10739:10825   */\n      tag_462\n        /* \"#utility.yul\":10821:10824   */\n      dup4\n        /* \"#utility.yul\":10813:10819   */\n      dup4\n        /* \"#utility.yul\":10739:10825   */\n      tag_326\n      jump\t// in\n    tag_462:\n        /* \"#utility.yul\":10725:10825   */\n      swap1\n      pop\n        /* \"#utility.yul\":10595:10831   */\n      swap3\n      swap2\n      pop\n      pop\n      jump\t// out\n        /* \"#utility.yul\":10837:10970   */\n    tag_328:\n        /* \"#utility.yul\":10927:10931   */\n      0x00\n        /* \"#utility.yul\":10959:10963   */\n      0x20\n        /* \"#utility.yul\":10954:10957   */\n      dup3\n        /* \"#utility.yul\":10950:10964   */\n      add\n        /* \"#utility.yul\":10942:10964   */\n      swap1\n      pop\n        /* \"#utility.yul\":10837:10970   */\n      swap2\n      swap1\n      pop\n      jump\t// out\n        /* \"#utility.yul\":11026:12097   */\n    tag_329:\n        /* \"#utility.yul\":11185:11188   */\n      0x00\n        /* \"#utility.yul\":11214:11288   */\n      tag_465\n        /* \"#utility.yul\":11282:11287   */\n      dup3\n        /* \"#utility.yul\":11214:11288   */\n      tag_320\n      jump\t// in\n    tag_465:\n        /* \"#utility.yul\":11304:11410   */\n      tag_466\n        /* \"#utility.yul\":11403:11409   */\n      dup2\n        /* \"#utility.yul\":11398:11401   */\n      dup6\n        /* \"#utility.yul\":11304:11410   */\n      tag_321\n      jump\t// in\n    tag_466:\n        /* \"#utility.yul\":11297:11410   */\n      swap4\n      pop\n        /* \"#utility.yul\":11436:11439   */\n      dup4\n        /* \"#utility.yul\":11481:11485   */\n      0x20\n        /* \"#utility.yul\":11473:11479   */\n      dup3\n        /* \"#utility.yul\":11469:11486   */\n      mul\n        /* \"#utility.yul\":11464:11467   */\n      dup6\n        /* \"#utility.yul\":11460:11487   */\n      add\n        /* \"#utility.yul\":11511:11587   */\n      tag_467\n        /* \"#utility.yul\":11581:11586   */\n      dup6\n        /* \"#utility.yul\":11511:11587   */\n      tag_322\n      jump\t// in\n    tag_467:\n        /* \"#utility.yul\":11610:11617   */\n      dup1\n        /* \"#utility.yul\":11641:11642   */\n      0x00\n        /* \"#utility.yul\":11626:12052   */\n    tag_468:\n        /* \"#utility.yul\":11651:11657   */\n      dup6\n        /* \"#utility.yul\":11648:11649   */\n      dup2\n        /* \"#utility.yul\":11645:11658   */\n      lt\n        /* \"#utility.yul\":11626:12052   */\n      iszero\n      tag_470\n      jumpi\n        /* \"#utility.yul\":11722:11731   */\n      dup5\n        /* \"#utility.yul\":11716:11720   */\n      dup5\n        /* \"#utility.yul\":11712:11732   */\n      sub\n        /* \"#utility.yul\":11707:11710   */\n      dup10\n        /* \"#utility.yul\":11700:11733   */\n      mstore\n        /* \"#utility.yul\":11773:11779   */\n      dup2\n        /* \"#utility.yul\":11767:11780   */\n      mload\n        /* \"#utility.yul\":11801:11905   */\n      tag_471\n        /* \"#utility.yul\":11900:11904   */\n      dup6\n        /* \"#utility.yul\":11885:11898   */\n      dup3\n        /* \"#utility.yul\":11801:11905   */\n      tag_327\n      jump\t// in\n    tag_471:\n        /* \"#utility.yul\":11793:11905   */\n      swap5\n      pop\n        /* \"#utility.yul\":11928:12008   */\n      tag_472\n        /* \"#utility.yul\":12001:12007   */\n      dup4\n        /* \"#utility.yul\":11928:12008   */\n      tag_328\n      jump\t// in\n    tag_472:\n        /* \"#utility.yul\":11918:12008   */\n      swap3\n      pop\n        /* \"#utility.yul\":12037:12041   */\n      0x20\n        /* \"#utility.yul\":12032:12035   */\n      dup11\n        /* \"#utility.yul\":12028:12042   */\n      add\n        /* \"#utility.yul\":12021:12042   */\n      swap10\n      pop\n        /* \"#utility.yul\":11686:12052   */\n      pop\n        /* \"#utility.yul\":11673:11674   */\n      0x01\n        /* \"#utility.yul\":11670:11671   */\n      dup2\n        /* \"#utility.yul\":11666:11675   */\n      add\n        /* \"#utility.yul\":11661:11675   */\n      swap1\n      pop\n        /* \"#utility.yul\":11626:12052   */\n      jump(tag_468)\n    tag_470:\n        /* \"#utility.yul\":11630:11644   */\n      pop\n        /* \"#utility.yul\":12068:12072   */\n      dup3\n        /* \"#utility.yul\":12061:12072   */\n      swap8\n      pop\n        /* \"#utility.yul\":12088:12091   */\n      dup8\n        /* \"#utility.yul\":12081:12091   */\n      swap6\n      pop\n        /* \"#utility.yul\":11190:12097   */\n      pop\n      pop\n      pop\n      pop\n      pop\n        /* \"#utility.yul\":11026:12097   */\n      swap3\n      swap2\n      pop\n      pop\n      jump\t// out\n        /* \"#utility.yul\":12103:12556   */\n    tag_66:\n        /* \"#utility.yul\":12286:12290   */\n      0x00\n        /* \"#utility.yul\":12324:12326   */\n      0x20\n        /* \"#utility.yul\":12313:12322   */\n      dup3\n        /* \"#utility.yul\":12309:12327   */\n      add\n        /* \"#utility.yul\":12301:12327   */\n      swap1\n      pop\n        /* \"#utility.yul\":12373:12382   */\n      dup2\n        /* \"#utility.yul\":12367:12371   */\n      dup2\n        /* \"#utility.yul\":12363:12383   */\n      sub\n        /* \"#utility.yul\":12359:12360   */\n      0x00\n        /* \"#utility.yul\":12348:12357   */\n      dup4\n        /* \"#utility.yul\":12344:12361   */\n      add\n        /* \"#utility.yul\":12337:12384   */\n      mstore\n        /* \"#utility.yul\":12401:12549   */\n      tag_474\n        /* \"#utility.yul\":12544:12548   */\n      dup2\n        /* \"#utility.yul\":12535:12541   */\n      dup5\n        /* \"#utility.yul\":12401:12549   */\n      tag_329\n      jump\t// in\n    tag_474:\n        /* \"#utility.yul\":12393:12549   */\n      swap1\n      pop\n        /* \"#utility.yul\":12103:12556   */\n      swap3\n      swap2\n      pop\n      pop\n      jump\t// out\n        /* \"#utility.yul\":12562:13945   */\n    tag_69:\n        /* \"#utility.yul\":12685:12691   */\n      0x00\n        /* \"#utility.yul\":12693:12699   */\n      dup1\n        /* \"#utility.yul\":12701:12707   */\n      0x00\n        /* \"#utility.yul\":12709:12715   */\n      dup1\n        /* \"#utility.yul\":12717:12723   */\n      0x00\n        /* \"#utility.yul\":12725:12731   */\n      dup1\n        /* \"#utility.yul\":12733:12739   */\n      0x00\n        /* \"#utility.yul\":12782:12785   */\n      0xe0\n        /* \"#utility.yul\":12770:12779   */\n      dup9\n        /* \"#utility.yul\":12761:12768   */\n      dup11\n        /* \"#utility.yul\":12757:12780   */\n      sub\n        /* \"#utility.yul\":12753:12786   */\n      slt\n        /* \"#utility.yul\":12750:12870   */\n      iszero\n      tag_476\n      jumpi\n        /* \"#utility.yul\":12789:12868   */\n      tag_477\n      tag_298\n      jump\t// in\n    tag_477:\n        /* \"#utility.yul\":12750:12870   */\n    tag_476:\n        /* \"#utility.yul\":12937:12938   */\n      0x00\n        /* \"#utility.yul\":12926:12935   */\n      dup9\n        /* \"#utility.yul\":12922:12939   */\n      add\n        /* \"#utility.yul\":12909:12940   */\n      calldataload\n        /* \"#utility.yul\":12967:12985   */\n      0xffffffffffffffff\n        /* \"#utility.yul\":12959:12965   */\n      dup2\n        /* \"#utility.yul\":12956:12986   */\n      gt\n        /* \"#utility.yul\":12953:13070   */\n      iszero\n      tag_478\n      jumpi\n        /* \"#utility.yul\":12989:13068   */\n      tag_479\n      tag_299\n      jump\t// in\n    tag_479:\n        /* \"#utility.yul\":12953:13070   */\n    tag_478:\n        /* \"#utility.yul\":13094:13157   */\n      tag_480\n        /* \"#utility.yul\":13149:13156   */\n      dup11\n        /* \"#utility.yul\":13140:13146   */\n      dup3\n        /* \"#utility.yul\":13129:13138   */\n      dup12\n        /* \"#utility.yul\":13125:13147   */\n      add\n        /* \"#utility.yul\":13094:13157   */\n      tag_309\n      jump\t// in\n    tag_480:\n        /* \"#utility.yul\":13084:13157   */\n      swap8\n      pop\n        /* \"#utility.yul\":12880:13167   */\n      pop\n        /* \"#utility.yul\":13206:13208   */\n      0x20\n        /* \"#utility.yul\":13232:13285   */\n      tag_481\n        /* \"#utility.yul\":13277:13284   */\n      dup11\n        /* \"#utility.yul\":13268:13274   */\n      dup3\n        /* \"#utility.yul\":13257:13266   */\n      dup12\n        /* \"#utility.yul\":13253:13275   */\n      add\n        /* \"#utility.yul\":13232:13285   */\n      tag_315\n      jump\t// in\n    tag_481:\n        /* \"#utility.yul\":13222:13285   */\n      swap7\n      pop\n        /* \"#utility.yul\":13177:13295   */\n      pop\n        /* \"#utility.yul\":13334:13336   */\n      0x40\n        /* \"#utility.yul\":13360:13413   */\n      tag_482\n        /* \"#utility.yul\":13405:13412   */\n      dup11\n        /* \"#utility.yul\":13396:13402   */\n      dup3\n        /* \"#utility.yul\":13385:13394   */\n      dup12\n        /* \"#utility.yul\":13381:13403   */\n      add\n        /* \"#utility.yul\":13360:13413   */\n      tag_311\n      jump\t// in\n    tag_482:\n        /* \"#utility.yul\":13350:13413   */\n      swap6\n      pop\n        /* \"#utility.yul\":13305:13423   */\n      pop\n        /* \"#utility.yul\":13462:13464   */\n      0x60\n        /* \"#utility.yul\":13488:13541   */\n      tag_483\n        /* \"#utility.yul\":13533:13540   */\n      dup11\n        /* \"#utility.yul\":13524:13530   */\n      dup3\n        /* \"#utility.yul\":13513:13522   */\n      dup12\n        /* \"#utility.yul\":13509:13531   */\n      add\n        /* \"#utility.yul\":13488:13541   */\n      tag_315\n      jump\t// in\n    tag_483:\n        /* \"#utility.yul\":13478:13541   */\n      swap5\n      pop\n        /* \"#utility.yul\":13433:13551   */\n      pop\n        /* \"#utility.yul\":13590:13593   */\n      0x80\n        /* \"#utility.yul\":13617:13670   */\n      tag_484\n        /* \"#utility.yul\":13662:13669   */\n      dup11\n        /* \"#utility.yul\":13653:13659   */\n      dup3\n        /* \"#utility.yul\":13642:13651   */\n      dup12\n        /* \"#utility.yul\":13638:13660   */\n      add\n        /* \"#utility.yul\":13617:13670   */\n      tag_311\n      jump\t// in\n    tag_484:\n        /* \"#utility.yul\":13607:13670   */\n      swap4\n      pop\n        /* \"#utility.yul\":13561:13680   */\n      pop\n        /* \"#utility.yul\":13719:13722   */\n      0xa0\n        /* \"#utility.yul\":13746:13799   */\n      tag_485\n        /* \"#utility.yul\":13791:13798   */\n      dup11\n        /* \"#utility.yul\":13782:13788   */\n      dup3\n        /* \"#utility.yul\":13771:13780   */\n      dup12\n        /* \"#utility.yul\":13767:13789   */\n      add\n        /* \"#utility.yul\":13746:13799   */\n      tag_315\n      jump\t// in\n    tag_485:\n        /* \"#utility.yul\":13736:13799   */\n      swap3\n      pop\n        /* \"#utility.yul\":13690:13809   */\n      pop\n        /* \"#utility.yul\":13848:13851   */\n      0xc0\n        /* \"#utility.yul\":13875:13928   */\n      tag_486\n        /* \"#utility.yul\":13920:13927   */\n      dup11\n        /* \"#utility.yul\":13911:13917   */\n      dup3\n        /* \"#utility.yul\":13900:13909   */\n      dup12\n        /* \"#utility.yul\":13896:13918   */\n      add\n        /* \"#utility.yul\":13875:13928   */\n      tag_311\n      jump\t// in\n    tag_486:\n        /* \"#utility.yul\":13865:13928   */\n      swap2\n      pop\n        /* \"#utility.yul\":13819:13938   */\n      pop\n        /* \"#utility.yul\":12562:13945   */\n      swap3\n      swap6\n      swap9\n      swap2\n      swap5\n      swap8\n      pop\n      swap3\n      swap6\n      pop\n      jump\t// out\n        /* \"#utility.yul\":13951:15039   */\n    tag_75:\n        /* \"#utility.yul\":14260:14264   */\n      0x00\n        /* \"#utility.yul\":14298:14301   */\n      0x0100\n        /* \"#utility.yul\":14287:14296   */\n      dup3\n        /* \"#utility.yul\":14283:14302   */\n      add\n        /* \"#utility.yul\":14275:14302   */\n      swap1\n      pop\n        /* \"#utility.yul\":14312:14383   */\n      tag_488\n        /* \"#utility.yul\":14380:14381   */\n      0x00\n        /* \"#utility.yul\":14369:14378   */\n      dup4\n        /* \"#utility.yul\":14365:14382   */\n      add\n        /* \"#utility.yul\":14356:14362   */\n      dup12\n        /* \"#utility.yul\":14312:14383   */\n      tag_296\n      jump\t// in\n    tag_488:\n        /* \"#utility.yul\":14430:14439   */\n      dup2\n        /* \"#utility.yul\":14424:14428   */\n      dup2\n        /* \"#utility.yul\":14420:14440   */\n      sub\n        /* \"#utility.yul\":14415:14417   */\n      0x20\n        /* \"#utility.yul\":14404:14413   */\n      dup4\n        /* \"#utility.yul\":14400:14418   */\n      add\n        /* \"#utility.yul\":14393:14441   */\n      mstore\n        /* \"#utility.yul\":14458:14536   */\n      tag_489\n        /* \"#utility.yul\":14531:14535   */\n      dup2\n        /* \"#utility.yul\":14522:14528   */\n      dup11\n        /* \"#utility.yul\":14458:14536   */\n      tag_319\n      jump\t// in\n    tag_489:\n        /* \"#utility.yul\":14450:14536   */\n      swap1\n      pop\n        /* \"#utility.yul\":14546:14618   */\n      tag_490\n        /* \"#utility.yul\":14614:14616   */\n      0x40\n        /* \"#utility.yul\":14603:14612   */\n      dup4\n        /* \"#utility.yul\":14599:14617   */\n      add\n        /* \"#utility.yul\":14590:14596   */\n      dup10\n        /* \"#utility.yul\":14546:14618   */\n      tag_313\n      jump\t// in\n    tag_490:\n        /* \"#utility.yul\":14628:14700   */\n      tag_491\n        /* \"#utility.yul\":14696:14698   */\n      0x60\n        /* \"#utility.yul\":14685:14694   */\n      dup4\n        /* \"#utility.yul\":14681:14699   */\n      add\n        /* \"#utility.yul\":14672:14678   */\n      dup9\n        /* \"#utility.yul\":14628:14700   */\n      tag_296\n      jump\t// in\n    tag_491:\n        /* \"#utility.yul\":14710:14783   */\n      tag_492\n        /* \"#utility.yul\":14778:14781   */\n      0x80\n        /* \"#utility.yul\":14767:14776   */\n      dup4\n        /* \"#utility.yul\":14763:14782   */\n      add\n        /* \"#utility.yul\":14754:14760   */\n      dup8\n        /* \"#utility.yul\":14710:14783   */\n      tag_313\n      jump\t// in\n    tag_492:\n        /* \"#utility.yul\":14793:14866   */\n      tag_493\n        /* \"#utility.yul\":14861:14864   */\n      0xa0\n        /* \"#utility.yul\":14850:14859   */\n      dup4\n        /* \"#utility.yul\":14846:14865   */\n      add\n        /* \"#utility.yul\":14837:14843   */\n      dup7\n        /* \"#utility.yul\":14793:14866   */\n      tag_296\n      jump\t// in\n    tag_493:\n        /* \"#utility.yul\":14876:14949   */\n      tag_494\n        /* \"#utility.yul\":14944:14947   */\n      0xc0\n        /* \"#utility.yul\":14933:14942   */\n      dup4\n        /* \"#utility.yul\":14929:14948   */\n      add\n        /* \"#utility.yul\":14920:14926   */\n      dup6\n        /* \"#utility.yul\":14876:14949   */\n      tag_313\n      jump\t// in\n    tag_494:\n        /* \"#utility.yul\":14959:15032   */\n      tag_495\n        /* \"#utility.yul\":15027:15030   */\n      0xe0\n        /* \"#utility.yul\":15016:15025   */\n      dup4\n        /* \"#utility.yul\":15012:15031   */\n      add\n        /* \"#utility.yul\":15003:15009   */\n      dup5\n        /* \"#utility.yul\":14959:15032   */\n      tag_296\n      jump\t// in\n    tag_495:\n        /* \"#utility.yul\":13951:15039   */\n      swap10\n      swap9\n      pop\n      pop\n      pop\n      pop\n      pop\n      pop\n      pop\n      pop\n      pop\n      jump\t// out\n        /* \"#utility.yul\":15045:15225   */\n    tag_82:\n        /* \"#utility.yul\":15093:15170   */\n      0x4e487b7100000000000000000000000000000000000000000000000000000000\n        /* \"#utility.yul\":15090:15091   */\n      0x00\n        /* \"#utility.yul\":15083:15171   */\n      mstore\n        /* \"#utility.yul\":15190:15194   */\n      0x32\n        /* \"#utility.yul\":15187:15188   */\n      0x04\n        /* \"#utility.yul\":15180:15195   */\n      mstore\n        /* \"#utility.yul\":15214:15218   */\n      0x24\n        /* \"#utility.yul\":15211:15212   */\n      0x00\n        /* \"#utility.yul\":15204:15219   */\n      revert\n        /* \"#utility.yul\":15231:15411   */\n    tag_330:\n        /* \"#utility.yul\":15279:15356   */\n      0x4e487b7100000000000000000000000000000000000000000000000000000000\n        /* \"#utility.yul\":15276:15277   */\n      0x00\n        /* \"#utility.yul\":15269:15357   */\n      mstore\n        /* \"#utility.yul\":15376:15380   */\n      0x22\n        /* \"#utility.yul\":15373:15374   */\n      0x04\n        /* \"#utility.yul\":15366:15381   */\n      mstore\n        /* \"#utility.yul\":15400:15404   */\n      0x24\n        /* \"#utility.yul\":15397:15398   */\n      0x00\n        /* \"#utility.yul\":15390:15405   */\n      revert\n        /* \"#utility.yul\":15417:15737   */\n    tag_157:\n        /* \"#utility.yul\":15461:15467   */\n      0x00\n        /* \"#utility.yul\":15498:15499   */\n      0x02\n        /* \"#utility.yul\":15492:15496   */\n      dup3\n        /* \"#utility.yul\":15488:15500   */\n      div\n        /* \"#utility.yul\":15478:15500   */\n      swap1\n      pop\n        /* \"#utility.yul\":15545:15546   */\n      0x01\n        /* \"#utility.yul\":15539:15543   */\n      dup3\n        /* \"#utility.yul\":15535:15547   */\n      and\n        /* \"#utility.yul\":15566:15584   */\n      dup1\n        /* \"#utility.yul\":15556:15637   */\n      tag_499\n      jumpi\n        /* \"#utility.yul\":15622:15626   */\n      0x7f\n        /* \"#utility.yul\":15614:15620   */\n      dup3\n        /* \"#utility.yul\":15610:15627   */\n      and\n        /* \"#utility.yul\":15600:15627   */\n      swap2\n      pop\n        /* \"#utility.yul\":15556:15637   */\n    tag_499:\n        /* \"#utility.yul\":15684:15686   */\n      0x20\n        /* \"#utility.yul\":15676:15682   */\n      dup3\n        /* \"#utility.yul\":15673:15687   */\n      lt\n        /* \"#utility.yul\":15653:15671   */\n      dup2\n        /* \"#utility.yul\":15650:15688   */\n      sub\n        /* \"#utility.yul\":15647:15731   */\n      tag_500\n      jumpi\n        /* \"#utility.yul\":15703:15721   */\n      tag_501\n      tag_330\n      jump\t// in\n    tag_501:\n        /* \"#utility.yul\":15647:15731   */\n    tag_500:\n        /* \"#utility.yul\":15468:15737   */\n      pop\n        /* \"#utility.yul\":15417:15737   */\n      swap2\n      swap1\n      pop\n      jump\t// out\n        /* \"#utility.yul\":15743:15884   */\n    tag_331:\n        /* \"#utility.yul\":15792:15796   */\n      0x00\n        /* \"#utility.yul\":15815:15818   */\n      dup2\n        /* \"#utility.yul\":15807:15818   */\n      swap1\n      pop\n        /* \"#utility.yul\":15838:15841   */\n      dup2\n        /* \"#utility.yul\":15835:15836   */\n      0x00\n        /* \"#utility.yul\":15828:15842   */\n      mstore\n        /* \"#utility.yul\":15872:15876   */\n      0x20\n        /* \"#utility.yul\":15869:15870   */\n      0x00\n        /* \"#utility.yul\":15859:15877   */\n      keccak256\n        /* \"#utility.yul\":15851:15877   */\n      swap1\n      pop\n        /* \"#utility.yul\":15743:15884   */\n      swap2\n      swap1\n      pop\n      jump\t// out\n        /* \"#utility.yul\":15890:15983   */\n    tag_332:\n        /* \"#utility.yul\":15927:15933   */\n      0x00\n        /* \"#utility.yul\":15974:15976   */\n      0x20\n        /* \"#utility.yul\":15969:15971   */\n      0x1f\n        /* \"#utility.yul\":15962:15967   */\n      dup4\n        /* \"#utility.yul\":15958:15972   */\n      add\n        /* \"#utility.yul\":15954:15977   */\n      div\n        /* \"#utility.yul\":15944:15977   */\n      swap1\n      pop\n        /* \"#utility.yul\":15890:15983   */\n      swap2\n      swap1\n      pop\n      jump\t// out\n        /* \"#utility.yul\":15989:16096   */\n    tag_333:\n        /* \"#utility.yul\":16033:16041   */\n      0x00\n        /* \"#utility.yul\":16083:16088   */\n      dup3\n        /* \"#utility.yul\":16077:16081   */\n      dup3\n        /* \"#utility.yul\":16073:16089   */\n      shl\n        /* \"#utility.yul\":16052:16089   */\n      swap1\n      pop\n        /* \"#utility.yul\":15989:16096   */\n      swap3\n      swap2\n      pop\n      pop\n      jump\t// out\n        /* \"#utility.yul\":16102:16495   */\n    tag_334:\n        /* \"#utility.yul\":16171:16177   */\n      0x00\n        /* \"#utility.yul\":16221:16222   */\n      0x08\n        /* \"#utility.yul\":16209:16219   */\n      dup4\n        /* \"#utility.yul\":16205:16223   */\n      mul\n        /* \"#utility.yul\":16244:16341   */\n      tag_506\n        /* \"#utility.yul\":16274:16340   */\n      0xffffffffffffffffffffffffffffffffffffffffffffffffffffffffffffffff\n        /* \"#utility.yul\":16263:16272   */\n      dup3\n        /* \"#utility.yul\":16244:16341   */\n      tag_333\n      jump\t// in\n    tag_506:\n        /* \"#utility.yul\":16362:16401   */\n      tag_507\n        /* \"#utility.yul\":16392:16400   */\n      dup7\n        /* \"#utility.yul\":16381:16390   */\n      dup4\n        /* \"#utility.yul\":16362:16401   */\n      tag_333\n      jump\t// in\n    tag_507:\n        /* \"#utility.yul\":16350:16401   */\n      swap6\n      pop\n        /* \"#utility.yul\":16434:16438   */\n      dup1\n        /* \"#utility.yul\":16430:16439   */\n      not\n        /* \"#utility.yul\":16423:16428   */\n      dup5\n        /* \"#utility.yul\":16419:16440   */\n      and\n        /* \"#utility.yul\":16410:16440   */\n      swap4\n      pop\n        /* \"#utility.yul\":16483:16487   */\n      dup1\n        /* \"#utility.yul\":16473:16481   */\n      dup7\n        /* \"#utility.yul\":16469:16488   */\n      and\n        /* \"#utility.yul\":16462:16467   */\n      dup5\n        /* \"#utility.yul\":16459:16489   */\n      or\n        /* \"#utility.yul\":16449:16489   */\n      swap3\n      pop\n        /* \"#utility.yul\":16178:16495   */\n      pop\n      pop\n        /* \"#utility.yul\":16102:16495   */\n      swap4\n      swap3\n      pop\n      pop\n      pop\n      jump\t// out\n        /* \"#utility.yul\":16501:16561   */\n    tag_335:\n        /* \"#utility.yul\":16529:16532   */\n      0x00\n        /* \"#utility.yul\":16550:16555   */\n      dup2\n        /* \"#utility.yul\":16543:16555   */\n      swap1\n      pop\n        /* \"#utility.yul\":16501:16561   */\n      swap2\n      swap1\n      pop\n      jump\t// out\n        /* \"#utility.yul\":16567:16709   */\n    tag_336:\n        /* \"#utility.yul\":16617:16626   */\n      0x00\n        /* \"#utility.yul\":16650:16703   */\n      tag_510\n        /* \"#utility.yul\":16668:16702   */\n      tag_511\n        /* \"#utility.yul\":16677:16701   */\n      tag_512\n        /* \"#utility.yul\":16695:16700   */\n      dup5\n        /* \"#utility.yul\":16677:16701   */\n      tag_312\n      jump\t// in\n    tag_512:\n        /* \"#utility.yul\":16668:16702   */\n      tag_335\n      jump\t// in\n    tag_511:\n        /* \"#utility.yul\":16650:16703   */\n      tag_312\n      jump\t// in\n    tag_510:\n        /* \"#utility.yul\":16637:16703   */\n      swap1\n      pop\n        /* \"#utility.yul\":16567:16709   */\n      swap2\n      swap1\n      pop\n      jump\t// out\n        /* \"#utility.yul\":16715:16790   */\n    tag_337:\n        /* \"#utility.yul\":16758:16761   */\n      0x00\n        /* \"#utility.yul\":16779:16784   */\n      dup2\n        /* \"#utility.yul\":16772:16784   */\n      swap1\n      pop\n        /* \"#utility.yul\":16715:16790   */\n      swap2\n      swap1\n      pop\n      jump\t// out\n        /* \"#utility.yul\":16796:17065   */\n    tag_338:\n        /* \"#utility.yul\":16906:16945   */\n      tag_515\n        /* \"#utility.yul\":16937:16944   */\n      dup4\n        /* \"#utility.yul\":16906:16945   */\n      tag_336\n      jump\t// in\n    tag_515:\n        /* \"#utility.yul\":16967:17058   */\n      tag_516\n        /* \"#utility.yul\":17016:17057   */\n      tag_517\n        /* \"#utility.yul\":17040:17056   */\n      dup3\n        /* \"#utility.yul\":17016:17057   */\n      tag_337\n      jump\t// in\n    tag_517:\n        /* \"#utility.yul\":17008:17014   */\n      dup5\n        /* \"#utility.yul\":17001:17005   */\n      dup5\n        /* \"#utility.yul\":16995:17006   */\n      sload\n        /* \"#utility.yul\":16967:17058   */\n      tag_334\n      jump\t// in\n    tag_516:\n        /* \"#utility.yul\":16961:16965   */\n      dup3\n        /* \"#utility.yul\":16954:17059   */\n      sstore\n        /* \"#utility.yul\":16872:17065   */\n      pop\n        /* \"#utility.yul\":16796:17065   */\n      pop\n      pop\n      pop\n      jump\t// out\n        /* \"#utility.yul\":17071:17144   */\n    tag_339:\n        /* \"#utility.yul\":17116:17119   */\n      0x00\n        /* \"#utility.yul\":17071:17144   */\n      swap1\n      jump\t// out\n        /* \"#utility.yul\":17150:17339   */\n    tag_340:\n        /* \"#utility.yul\":17227:17259   */\n      tag_520\n      tag_339\n      jump\t// in\n    tag_520:\n        /* \"#utility.yul\":17268:17333   */\n      tag_521\n        /* \"#utility.yul\":17326:17332   */\n      dup2\n        /* \"#utility.yul\":17318:17324   */\n      dup5\n        /* \"#utility.yul\":17312:17316   */\n      dup5\n        /* \"#utility.yul\":17268:17333   */\n      tag_338\n      jump\t// in\n    tag_521:\n        /* \"#utility.yul\":17203:17339   */\n      pop\n        /* \"#utility.yul\":17150:17339   */\n      pop\n      pop\n      jump\t// out\n        /* \"#utility.yul\":17345:17531   */\n    tag_341:\n        /* \"#utility.yul\":17405:17525   */\n    tag_523:\n        /* \"#utility.yul\":17422:17425   */\n      dup2\n        /* \"#utility.yul\":17415:17420   */\n      dup2\n        /* \"#utility.yul\":17412:17426   */\n      lt\n        /* \"#utility.yul\":17405:17525   */\n      iszero\n      tag_525\n      jumpi\n        /* \"#utility.yul\":17476:17515   */\n      tag_526\n        /* \"#utility.yul\":17513:17514   */\n      0x00\n        /* \"#utility.yul\":17506:17511   */\n      dup3\n        /* \"#utility.yul\":17476:17515   */\n      tag_340\n      jump\t// in\n    tag_526:\n        /* \"#utility.yul\":17449:17450   */\n      0x01\n        /* \"#utility.yul\":17442:17447   */\n      dup2\n        /* \"#utility.yul\":17438:17451   */\n      add\n        /* \"#utility.yul\":17429:17451   */\n      swap1\n      pop\n        /* \"#utility.yul\":17405:17525   */\n      jump(tag_523)\n    tag_525:\n        /* \"#utility.yul\":17345:17531   */\n      pop\n      pop\n      jump\t// out\n        /* \"#utility.yul\":17537:18080   */\n    tag_342:\n        /* \"#utility.yul\":17638:17640   */\n      0x1f\n        /* \"#utility.yul\":17633:17636   */\n      dup3\n        /* \"#utility.yul\":17630:17641   */\n      gt\n        /* \"#utility.yul\":17627:18073   */\n      iszero\n      tag_528\n      jumpi\n        /* \"#utility.yul\":17672:17710   */\n      tag_529\n        /* \"#utility.yul\":17704:17709   */\n      dup2\n        /* \"#utility.yul\":17672:17710   */\n      tag_331\n      jump\t// in\n    tag_529:\n        /* \"#utility.yul\":17756:17785   */\n      tag_530\n        /* \"#utility.yul\":17774:17784   */\n      dup5\n        /* \"#utility.yul\":17756:17785   */\n      tag_332\n      jump\t// in\n    tag_530:\n        /* \"#utility.yul\":17746:17754   */\n      dup2\n        /* \"#utility.yul\":17742:17786   */\n      add\n        /* \"#utility.yul\":17939:17941   */\n      0x20\n        /* \"#utility.yul\":17927:17937   */\n      dup6\n        /* \"#utility.yul\":17924:17942   */\n      lt\n        /* \"#utility.yul\":17921:17970   */\n      iszero\n      tag_531\n      jumpi\n        /* \"#utility.yul\":17960:17968   */\n      dup2\n        /* \"#utility.yul\":17945:17968   */\n      swap1\n      pop\n        /* \"#utility.yul\":17921:17970   */\n    tag_531:\n        /* \"#utility.yul\":17983:18063   */\n      tag_532\n        /* \"#utility.yul\":18039:18061   */\n      tag_533\n        /* \"#utility.yul\":18057:18060   */\n      dup6\n        /* \"#utility.yul\":18039:18061   */\n      tag_332\n      jump\t// in\n    tag_533:\n        /* \"#utility.yul\":18029:18037   */\n      dup4\n        /* \"#utility.yul\":18025:18062   */\n      add\n        /* \"#utility.yul\":18012:18023   */\n      dup3\n        /* \"#utility.yul\":17983:18063   */\n      tag_341\n      jump\t// in\n    tag_532:\n        /* \"#utility.yul\":17642:18073   */\n      pop\n      pop\n        /* \"#utility.yul\":17627:18073   */\n    tag_528:\n        /* \"#utility.yul\":17537:18080   */\n      pop\n      pop\n      pop\n      jump\t// out\n        /* \"#utility.yul\":18086:18203   */\n    tag_343:\n        /* \"#utility.yul\":18140:18148   */\n      0x00\n        /* \"#utility.yul\":18190:18195   */\n      dup3\n        /* \"#utility.yul\":18184:18188   */\n      dup3\n        /* \"#utility.yul\":18180:18196   */\n      shr\n        /* \"#utility.yul\":18159:18196   */\n      swap1\n      pop\n        /* \"#utility.yul\":18086:18203   */\n      swap3\n      swap2\n      pop\n      pop\n      jump\t// out\n        /* \"#utility.yul\":18209:18378   */\n    tag_344:\n        /* \"#utility.yul\":18253:18259   */\n      0x00\n        /* \"#utility.yul\":18286:18337   */\n      tag_536\n        /* \"#utility.yul\":18334:18335   */\n      0x00\n        /* \"#utility.yul\":18330:18336   */\n      not\n        /* \"#utility.yul\":18322:18327   */\n      dup5\n        /* \"#utility.yul\":18319:18320   */\n      0x08\n        /* \"#utility.yul\":18315:18328   */\n      mul\n        /* \"#utility.yul\":18286:18337   */\n      tag_343\n      jump\t// in\n    tag_536:\n        /* \"#utility.yul\":18282:18338   */\n      not\n        /* \"#utility.yul\":18367:18371   */\n      dup1\n        /* \"#utility.yul\":18361:18365   */\n      dup4\n        /* \"#utility.yul\":18357:18372   */\n      and\n        /* \"#utility.yul\":18347:18372   */\n      swap2\n      pop\n        /* \"#utility.yul\":18260:18378   */\n      pop\n        /* \"#utility.yul\":18209:18378   */\n      swap3\n      swap2\n      pop\n      pop\n      jump\t// out\n        /* \"#utility.yul\":18383:18678   */\n    tag_345:\n        /* \"#utility.yul\":18459:18463   */\n      0x00\n        /* \"#utility.yul\":18605:18634   */\n      tag_538\n        /* \"#utility.yul\":18630:18633   */\n      dup4\n        /* \"#utility.yul\":18624:18628   */\n      dup4\n        /* \"#utility.yul\":18605:18634   */\n      tag_344\n      jump\t// in\n    tag_538:\n        /* \"#utility.yul\":18597:18634   */\n      swap2\n      pop\n        /* \"#utility.yul\":18667:18670   */\n      dup3\n        /* \"#utility.yul\":18664:18665   */\n      0x02\n        /* \"#utility.yul\":18660:18671   */\n      mul\n        /* \"#utility.yul\":18654:18658   */\n      dup3\n        /* \"#utility.yul\":18651:18672   */\n      or\n        /* \"#utility.yul\":18643:18672   */\n      swap1\n      pop\n        /* \"#utility.yul\":18383:18678   */\n      swap3\n      swap2\n      pop\n      pop\n      jump\t// out\n        /* \"#utility.yul\":18683:20078   */\n    tag_89:\n        /* \"#utility.yul\":18800:18837   */\n      tag_540\n        /* \"#utility.yul\":18833:18836   */\n      dup3\n        /* \"#utility.yul\":18800:18837   */\n      tag_316\n      jump\t// in\n    tag_540:\n        /* \"#utility.yul\":18902:18920   */\n      0xffffffffffffffff\n        /* \"#utility.yul\":18894:18900   */\n      dup2\n        /* \"#utility.yul\":18891:18921   */\n      gt\n        /* \"#utility.yul\":18888:18944   */\n      iszero\n      tag_541\n      jumpi\n        /* \"#utility.yul\":18924:18942   */\n      tag_542\n      tag_303\n      jump\t// in\n    tag_542:\n        /* \"#utility.yul\":18888:18944   */\n    tag_541:\n        /* \"#utility.yul\":18968:19006   */\n      tag_543\n        /* \"#utility.yul\":19000:19004   */\n      dup3\n        /* \"#utility.yul\":18994:19005   */\n      sload\n        /* \"#utility.yul\":18968:19006   */\n      tag_157\n      jump\t// in\n    tag_543:\n        /* \"#utility.yul\":19053:19120   */\n      tag_544\n        /* \"#utility.yul\":19113:19119   */\n      dup3\n        /* \"#utility.yul\":19105:19111   */\n      dup3\n        /* \"#utility.yul\":19099:19103   */\n      dup6\n        /* \"#utility.yul\":19053:19120   */\n      tag_342\n      jump\t// in\n    tag_544:\n        /* \"#utility.yul\":19147:19148   */\n      0x00\n        /* \"#utility.yul\":19171:19175   */\n      0x20\n        /* \"#utility.yul\":19158:19175   */\n      swap1\n      pop\n        /* \"#utility.yul\":19203:19205   */\n      0x1f\n        /* \"#utility.yul\":19195:19201   */\n      dup4\n        /* \"#utility.yul\":19192:19206   */\n      gt\n        /* \"#utility.yul\":19220:19221   */\n      0x01\n        /* \"#utility.yul\":19215:19833   */\n      dup2\n      eq\n      tag_546\n      jumpi\n        /* \"#utility.yul\":19877:19878   */\n      0x00\n        /* \"#utility.yul\":19894:19900   */\n      dup5\n        /* \"#utility.yul\":19891:19968   */\n      iszero\n      tag_547\n      jumpi\n        /* \"#utility.yul\":19943:19952   */\n      dup3\n        /* \"#utility.yul\":19938:19941   */\n      dup8\n        /* \"#utility.yul\":19934:19953   */\n      add\n        /* \"#utility.yul\":19928:19954   */\n      mload\n        /* \"#utility.yul\":19919:19954   */\n      swap1\n      pop\n        /* \"#utility.yul\":19891:19968   */\n    tag_547:\n        /* \"#utility.yul\":19994:20061   */\n      tag_548\n        /* \"#utility.yul\":20054:20060   */\n      dup6\n        /* \"#utility.yul\":20047:20052   */\n      dup3\n        /* \"#utility.yul\":19994:20061   */\n      tag_345\n      jump\t// in\n    tag_548:\n        /* \"#utility.yul\":19988:19992   */\n      dup7\n        /* \"#utility.yul\":19981:20062   */\n      sstore\n        /* \"#utility.yul\":19850:20072   */\n      pop\n        /* \"#utility.yul\":19185:20072   */\n      jump(tag_545)\n        /* \"#utility.yul\":19215:19833   */\n    tag_546:\n        /* \"#utility.yul\":19267:19271   */\n      0x1f\n        /* \"#utility.yul\":19263:19272   */\n      not\n        /* \"#utility.yul\":19255:19261   */\n      dup5\n        /* \"#utility.yul\":19251:19273   */\n      and\n        /* \"#utility.yul\":19301:19338   */\n      tag_549\n        /* \"#utility.yul\":19333:19337   */\n      dup7\n        /* \"#utility.yul\":19301:19338   */\n      tag_331\n      jump\t// in\n    tag_549:\n        /* \"#utility.yul\":19360:19361   */\n      0x00\n        /* \"#utility.yul\":19374:19582   */\n    tag_550:\n        /* \"#utility.yul\":19388:19395   */\n      dup3\n        /* \"#utility.yul\":19385:19386   */\n      dup2\n        /* \"#utility.yul\":19382:19396   */\n      lt\n        /* \"#utility.yul\":19374:19582   */\n      iszero\n      tag_552\n      jumpi\n        /* \"#utility.yul\":19467:19476   */\n      dup5\n        /* \"#utility.yul\":19462:19465   */\n      dup10\n        /* \"#utility.yul\":19458:19477   */\n      add\n        /* \"#utility.yul\":19452:19478   */\n      mload\n        /* \"#utility.yul\":19444:19450   */\n      dup3\n        /* \"#utility.yul\":19437:19479   */\n      sstore\n        /* \"#utility.yul\":19518:19519   */\n      0x01\n        /* \"#utility.yul\":19510:19516   */\n      dup3\n        /* \"#utility.yul\":19506:19520   */\n      add\n        /* \"#utility.yul\":19496:19520   */\n      swap2\n      pop\n        /* \"#utility.yul\":19565:19567   */\n      0x20\n        /* \"#utility.yul\":19554:19563   */\n      dup6\n        /* \"#utility.yul\":19550:19568   */\n      add\n        /* \"#utility.yul\":19537:19568   */\n      swap5\n      pop\n        /* \"#utility.yul\":19411:19415   */\n      0x20\n        /* \"#utility.yul\":19408:19409   */\n      dup2\n        /* \"#utility.yul\":19404:19416   */\n      add\n        /* \"#utility.yul\":19399:19416   */\n      swap1\n      pop\n        /* \"#utility.yul\":19374:19582   */\n      jump(tag_550)\n    tag_552:\n        /* \"#utility.yul\":19610:19616   */\n      dup7\n        /* \"#utility.yul\":19601:19608   */\n      dup4\n        /* \"#utility.yul\":19598:19617   */\n      lt\n        /* \"#utility.yul\":19595:19774   */\n      iszero\n      tag_553\n      jumpi\n        /* \"#utility.yul\":19668:19677   */\n      dup5\n        /* \"#utility.yul\":19663:19666   */\n      dup10\n        /* \"#utility.yul\":19659:19678   */\n      add\n        /* \"#utility.yul\":19653:19679   */\n      mload\n        /* \"#utility.yul\":19711:19759   */\n      tag_554\n        /* \"#utility.yul\":19753:19757   */\n      0x1f\n        /* \"#utility.yul\":19745:19751   */\n      dup10\n        /* \"#utility.yul\":19741:19758   */\n      and\n        /* \"#utility.yul\":19730:19739   */\n      dup3\n        /* \"#utility.yul\":19711:19759   */\n      tag_344\n      jump\t// in\n    tag_554:\n        /* \"#utility.yul\":19703:19709   */\n      dup4\n        /* \"#utility.yul\":19696:19760   */\n      sstore\n        /* \"#utility.yul\":19618:19774   */\n      pop\n        /* \"#utility.yul\":19595:19774   */\n    tag_553:\n        /* \"#utility.yul\":19820:19821   */\n      0x01\n        /* \"#utility.yul\":19816:19817   */\n      0x02\n        /* \"#utility.yul\":19808:19814   */\n      dup9\n        /* \"#utility.yul\":19804:19818   */\n      mul\n        /* \"#utility.yul\":19800:19822   */\n      add\n        /* \"#utility.yul\":19794:19798   */\n      dup9\n        /* \"#utility.yul\":19787:19823   */\n      sstore\n        /* \"#utility.yul\":19222:19833   */\n      pop\n      pop\n      pop\n        /* \"#utility.yul\":19185:20072   */\n    tag_545:\n      pop\n        /* \"#utility.yul\":18775:20078   */\n      pop\n      pop\n      pop\n        /* \"#utility.yul\":18683:20078   */\n      pop\n      pop\n      jump\t// out\n        /* \"#utility.yul\":20084:20264   */\n    tag_346:\n        /* \"#utility.yul\":20132:20209   */\n      0x4e487b7100000000000000000000000000000000000000000000000000000000\n        /* \"#utility.yul\":20129:20130   */\n      0x00\n        /* \"#utility.yul\":20122:20210   */\n      mstore\n        /* \"#utility.yul\":20229:20233   */\n      0x11\n        /* \"#utility.yul\":20226:20227   */\n      0x04\n        /* \"#utility.yul\":20219:20234   */\n      mstore\n        /* \"#utility.yul\":20253:20257   */\n      0x24\n        /* \"#utility.yul\":20250:20251   */\n      0x00\n        /* \"#utility.yul\":20243:20258   */\n      revert\n        /* \"#utility.yul\":20270:20503   */\n    tag_91:\n        /* \"#utility.yul\":20309:20312   */\n      0x00\n        /* \"#utility.yul\":20332:20356   */\n      tag_557\n        /* \"#utility.yul\":20350:20355   */\n      dup3\n        /* \"#utility.yul\":20332:20356   */\n      tag_312\n      jump\t// in\n    tag_557:\n        /* \"#utility.yul\":20323:20356   */\n      swap2\n      pop\n        /* \"#utility.yul\":20378:20444   */\n      0xffffffffffffffffffffffffffffffffffffffffffffffffffffffffffffffff\n        /* \"#utility.yul\":20371:20376   */\n      dup3\n        /* \"#utility.yul\":20368:20445   */\n      sub\n        /* \"#utility.yul\":20365:20468   */\n      tag_558\n      jumpi\n        /* \"#utility.yul\":20448:20466   */\n      tag_559\n      tag_346\n      jump\t// in\n    tag_559:\n        /* \"#utility.yul\":20365:20468   */\n    tag_558:\n        /* \"#utility.yul\":20495:20496   */\n      0x01\n        /* \"#utility.yul\":20488:20493   */\n      dup3\n        /* \"#utility.yul\":20484:20497   */\n      add\n        /* \"#utility.yul\":20477:20497   */\n      swap1\n      pop\n        /* \"#utility.yul\":20270:20503   */\n      swap2\n      swap1\n      pop\n      jump\t// out\n        /* \"#utility.yul\":20509:20700   */\n    tag_97:\n        /* \"#utility.yul\":20549:20552   */\n      0x00\n        /* \"#utility.yul\":20568:20588   */\n      tag_561\n        /* \"#utility.yul\":20586:20587   */\n      dup3\n        /* \"#utility.yul\":20568:20588   */\n      tag_312\n      jump\t// in\n    tag_561:\n        /* \"#utility.yul\":20563:20588   */\n      swap2\n      pop\n        /* \"#utility.yul\":20602:20622   */\n      tag_562\n        /* \"#utility.yul\":20620:20621   */\n      dup4\n        /* \"#utility.yul\":20602:20622   */\n      tag_312\n      jump\t// in\n    tag_562:\n        /* \"#utility.yul\":20597:20622   */\n      swap3\n      pop\n        /* \"#utility.yul\":20645:20646   */\n      dup3\n        /* \"#utility.yul\":20642:20643   */\n      dup3\n        /* \"#utility.yul\":20638:20647   */\n      add\n        /* \"#utility.yul\":20631:20647   */\n      swap1\n      pop\n        /* \"#utility.yul\":20666:20669   */\n      dup1\n        /* \"#utility.yul\":20663:20664   */\n      dup3\n        /* \"#utility.yul\":20660:20670   */\n      gt\n        /* \"#utility.yul\":20657:20693   */\n      iszero\n      tag_563\n      jumpi\n        /* \"#utility.yul\":20673:20691   */\n      tag_564\n      tag_346\n      jump\t// in\n    tag_564:\n        /* \"#utility.yul\":20657:20693   */\n    tag_563:\n        /* \"#utility.yul\":20509:20700   */\n      swap3\n      swap2\n      pop\n      pop\n      jump\t// out\n        /* \"#utility.yul\":20706:20854   */\n    tag_347:\n        /* \"#utility.yul\":20808:20819   */\n      0x00\n        /* \"#utility.yul\":20845:20848   */\n      dup2\n        /* \"#utility.yul\":20830:20848   */\n      swap1\n      pop\n        /* \"#utility.yul\":20706:20854   */\n      swap3\n      swap2\n      pop\n      pop\n      jump\t// out\n        /* \"#utility.yul\":20860:21250   */\n    tag_348:\n        /* \"#utility.yul\":20966:20969   */\n      0x00\n        /* \"#utility.yul\":20994:21033   */\n      tag_567\n        /* \"#utility.yul\":21027:21032   */\n      dup3\n        /* \"#utility.yul\":20994:21033   */\n      tag_316\n      jump\t// in\n    tag_567:\n        /* \"#utility.yul\":21049:21138   */\n      tag_568\n        /* \"#utility.yul\":21131:21137   */\n      dup2\n        /* \"#utility.yul\":21126:21129   */\n      dup6\n        /* \"#utility.yul\":21049:21138   */\n      tag_347\n      jump\t// in\n    tag_568:\n        /* \"#utility.yul\":21042:21138   */\n      swap4\n      pop\n        /* \"#utility.yul\":21147:21212   */\n      tag_569\n        /* \"#utility.yul\":21205:21211   */\n      dup2\n        /* \"#utility.yul\":21200:21203   */\n      dup6\n        /* \"#utility.yul\":21193:21197   */\n      0x20\n        /* \"#utility.yul\":21186:21191   */\n      dup7\n        /* \"#utility.yul\":21182:21198   */\n      add\n        /* \"#utility.yul\":21147:21212   */\n      tag_318\n      jump\t// in\n    tag_569:\n        /* \"#utility.yul\":21237:21243   */\n      dup1\n        /* \"#utility.yul\":21232:21235   */\n      dup5\n        /* \"#utility.yul\":21228:21244   */\n      add\n        /* \"#utility.yul\":21221:21244   */\n      swap2\n      pop\n        /* \"#utility.yul\":20970:21250   */\n      pop\n        /* \"#utility.yul\":20860:21250   */\n      swap3\n      swap2\n      pop\n      pop\n      jump\t// out\n        /* \"#utility.yul\":21256:21531   */\n    tag_100:\n        /* \"#utility.yul\":21388:21391   */\n      0x00\n        /* \"#utility.yul\":21410:21505   */\n      tag_571\n        /* \"#utility.yul\":21501:21504   */\n      dup3\n        /* \"#utility.yul\":21492:21498   */\n      dup5\n        /* \"#utility.yul\":21410:21505   */\n      tag_348\n      jump\t// in\n    tag_571:\n        /* \"#utility.yul\":21403:21505   */\n      swap2\n      pop\n        /* \"#utility.yul\":21522:21525   */\n      dup2\n        /* \"#utility.yul\":21515:21525   */\n      swap1\n      pop\n        /* \"#utility.yul\":21256:21531   */\n      swap3\n      swap2\n      pop\n      pop\n      jump\t// out\n        /* \"#utility.yul\":21537:21947   */\n    tag_141:\n        /* \"#utility.yul\":21577:21584   */\n      0x00\n        /* \"#utility.yul\":21600:21620   */\n      tag_573\n        /* \"#utility.yul\":21618:21619   */\n      dup3\n        /* \"#utility.yul\":21600:21620   */\n      tag_312\n      jump\t// in\n    tag_573:\n        /* \"#utility.yul\":21595:21620   */\n      swap2\n      pop\n        /* \"#utility.yul\":21634:21654   */\n      tag_574\n        /* \"#utility.yul\":21652:21653   */\n      dup4\n        /* \"#utility.yul\":21634:21654   */\n      tag_312\n      jump\t// in\n    tag_574:\n        /* \"#utility.yul\":21629:21654   */\n      swap3\n      pop\n        /* \"#utility.yul\":21689:21690   */\n      dup3\n        /* \"#utility.yul\":21686:21687   */\n      dup3\n        /* \"#utility.yul\":21682:21691   */\n      mul\n        /* \"#utility.yul\":21711:21741   */\n      tag_575\n        /* \"#utility.yul\":21729:21740   */\n      dup2\n        /* \"#utility.yul\":21711:21741   */\n      tag_312\n      jump\t// in\n    tag_575:\n        /* \"#utility.yul\":21700:21741   */\n      swap2\n      pop\n        /* \"#utility.yul\":21890:21891   */\n      dup3\n        /* \"#utility.yul\":21881:21888   */\n      dup3\n        /* \"#utility.yul\":21877:21892   */\n      div\n        /* \"#utility.yul\":21874:21875   */\n      dup5\n        /* \"#utility.yul\":21871:21893   */\n      eq\n        /* \"#utility.yul\":21851:21852   */\n      dup4\n        /* \"#utility.yul\":21844:21853   */\n      iszero\n        /* \"#utility.yul\":21824:21907   */\n      or\n        /* \"#utility.yul\":21801:21940   */\n      tag_576\n      jumpi\n        /* \"#utility.yul\":21920:21938   */\n      tag_577\n      tag_346\n      jump\t// in\n    tag_577:\n        /* \"#utility.yul\":21801:21940   */\n    tag_576:\n        /* \"#utility.yul\":21585:21947   */\n      pop\n        /* \"#utility.yul\":21537:21947   */\n      swap3\n      swap2\n      pop\n      pop\n      jump\t// out\n        /* \"#utility.yul\":21953:22147   */\n    tag_143:\n        /* \"#utility.yul\":21993:21997   */\n      0x00\n        /* \"#utility.yul\":22013:22033   */\n      tag_579\n        /* \"#utility.yul\":22031:22032   */\n      dup3\n        /* \"#utility.yul\":22013:22033   */\n      tag_312\n      jump\t// in\n    tag_579:\n        /* \"#utility.yul\":22008:22033   */\n      swap2\n      pop\n        /* \"#utility.yul\":22047:22067   */\n      tag_580\n        /* \"#utility.yul\":22065:22066   */\n      dup4\n        /* \"#utility.yul\":22047:22067   */\n      tag_312\n      jump\t// in\n    tag_580:\n        /* \"#utility.yul\":22042:22067   */\n      swap3\n      pop\n        /* \"#utility.yul\":22091:22092   */\n      dup3\n        /* \"#utility.yul\":22088:22089   */\n      dup3\n        /* \"#utility.yul\":22084:22093   */\n      sub\n        /* \"#utility.yul\":22076:22093   */\n      swap1\n      pop\n        /* \"#utility.yul\":22115:22116   */\n      dup2\n        /* \"#utility.yul\":22109:22113   */\n      dup2\n        /* \"#utility.yul\":22106:22117   */\n      gt\n        /* \"#utility.yul\":22103:22140   */\n      iszero\n      tag_581\n      jumpi\n        /* \"#utility.yul\":22120:22138   */\n      tag_582\n      tag_346\n      jump\t// in\n    tag_582:\n        /* \"#utility.yul\":22103:22140   */\n    tag_581:\n        /* \"#utility.yul\":21953:22147   */\n      swap3\n      swap2\n      pop\n      pop\n      jump\t// out\n        /* \"#utility.yul\":22153:22485   */\n    tag_255:\n        /* \"#utility.yul\":22274:22278   */\n      0x00\n        /* \"#utility.yul\":22312:22314   */\n      0x40\n        /* \"#utility.yul\":22301:22310   */\n      dup3\n        /* \"#utility.yul\":22297:22315   */\n      add\n        /* \"#utility.yul\":22289:22315   */\n      swap1\n      pop\n        /* \"#utility.yul\":22325:22396   */\n      tag_584\n        /* \"#utility.yul\":22393:22394   */\n      0x00\n        /* \"#utility.yul\":22382:22391   */\n      dup4\n        /* \"#utility.yul\":22378:22395   */\n      add\n        /* \"#utility.yul\":22369:22375   */\n      dup6\n        /* \"#utility.yul\":22325:22396   */\n      tag_313\n      jump\t// in\n    tag_584:\n        /* \"#utility.yul\":22406:22478   */\n      tag_585\n        /* \"#utility.yul\":22474:22476   */\n      0x20\n        /* \"#utility.yul\":22463:22472   */\n      dup4\n        /* \"#utility.yul\":22459:22477   */\n      add\n        /* \"#utility.yul\":22450:22456   */\n      dup5\n        /* \"#utility.yul\":22406:22478   */\n      tag_313\n      jump\t// in\n    tag_585:\n        /* \"#utility.yul\":22153:22485   */\n      swap4\n      swap3\n      pop\n      pop\n      pop\n      jump\t// out\n        /* \"#utility.yul\":22491:22933   */\n    tag_259:\n        /* \"#utility.yul\":22640:22644   */\n      0x00\n        /* \"#utility.yul\":22678:22680   */\n      0x60\n        /* \"#utility.yul\":22667:22676   */\n      dup3\n        /* \"#utility.yul\":22663:22681   */\n      add\n        /* \"#utility.yul\":22655:22681   */\n      swap1\n      pop\n        /* \"#utility.yul\":22691:22762   */\n      tag_587\n        /* \"#utility.yul\":22759:22760   */\n      0x00\n        /* \"#utility.yul\":22748:22757   */\n      dup4\n        /* \"#utility.yul\":22744:22761   */\n      add\n        /* \"#utility.yul\":22735:22741   */\n      dup7\n        /* \"#utility.yul\":22691:22762   */\n      tag_296\n      jump\t// in\n    tag_587:\n        /* \"#utility.yul\":22772:22844   */\n      tag_588\n        /* \"#utility.yul\":22840:22842   */\n      0x20\n        /* \"#utility.yul\":22829:22838   */\n      dup4\n        /* \"#utility.yul\":22825:22843   */\n      add\n        /* \"#utility.yul\":22816:22822   */\n      dup6\n        /* \"#utility.yul\":22772:22844   */\n      tag_296\n      jump\t// in\n    tag_588:\n        /* \"#utility.yul\":22854:22926   */\n      tag_589\n        /* \"#utility.yul\":22922:22924   */\n      0x40\n        /* \"#utility.yul\":22911:22920   */\n      dup4\n        /* \"#utility.yul\":22907:22925   */\n      add\n        /* \"#utility.yul\":22898:22904   */\n      dup5\n        /* \"#utility.yul\":22854:22926   */\n      tag_313\n      jump\t// in\n    tag_589:\n        /* \"#utility.yul\":22491:22933   */\n      swap5\n      swap4\n      pop\n      pop\n      pop\n      pop\n      jump\t// out\n\n    auxdata: 0xa2646970667358221220b90f4fa93db2ddb03b3e954fba7051076ace2142a4afef82c81ab0641f68308c64736f6c63430008120033\n}\n",
				"bytecode": {
					"linkReferences": {},
					"object": "60806040523480156200001157600080fd5b50336000806101000a81548173ffffffffffffffffffffffffffffffffffffffff021916908373ffffffffffffffffffffffffffffffffffffffff1602179055506040518060400160405280600b81526020017f444175746820546f6b656e00000000000000000000000000000000000000000081525060099081620000989190620003cd565b506040518060400160405280600381526020017f444154000000000000000000000000000000000000000000000000000000000081525060089081620000df9190620003cd565b506012600760006101000a81548160ff021916908360ff160217905550633b9aca00600681905550600654600a60003373ffffffffffffffffffffffffffffffffffffffff1673ffffffffffffffffffffffffffffffffffffffff16815260200190815260200160002081905550620004b4565b600081519050919050565b7f4e487b7100000000000000000000000000000000000000000000000000000000600052604160045260246000fd5b7f4e487b7100000000000000000000000000000000000000000000000000000000600052602260045260246000fd5b60006002820490506001821680620001d557607f821691505b602082108103620001eb57620001ea6200018d565b5b50919050565b60008190508160005260206000209050919050565b60006020601f8301049050919050565b600082821b905092915050565b600060088302620002557fffffffffffffffffffffffffffffffffffffffffffffffffffffffffffffffff8262000216565b62000261868362000216565b95508019841693508086168417925050509392505050565b6000819050919050565b6000819050919050565b6000620002ae620002a8620002a28462000279565b62000283565b62000279565b9050919050565b6000819050919050565b620002ca836200028d565b620002e2620002d982620002b5565b84845462000223565b825550505050565b600090565b620002f9620002ea565b62000306818484620002bf565b505050565b5b818110156200032e5762000322600082620002ef565b6001810190506200030c565b5050565b601f8211156200037d576200034781620001f1565b620003528462000206565b8101602085101562000362578190505b6200037a620003718562000206565b8301826200030b565b50505b505050565b600082821c905092915050565b6000620003a26000198460080262000382565b1980831691505092915050565b6000620003bd83836200038f565b9150826002028217905092915050565b620003d88262000153565b67ffffffffffffffff811115620003f457620003f36200015e565b5b620004008254620001bc565b6200040d82828562000332565b600060209050601f83116001811462000445576000841562000430578287015190505b6200043c8582620003af565b865550620004ac565b601f1984166200045586620001f1565b60005b828110156200047f5784890151825560018201915060208501945060208101905062000458565b868310156200049f57848901516200049b601f8916826200038f565b8355505b6001600288020188555050505b505050505050565b61323180620004c46000396000f3fe608060405234801561001057600080fd5b50600436106100ea5760003560e01c80638ab0c3381161008c578063d0679d3411610066578063d0679d3414610257578063e29581aa14610273578063e41e069014610291578063f30e1474146102ad576100ea565b80638ab0c338146101e65780639940f73614610202578063c96b1f321461023b576100ea565b806340c10f19116100c857806340c10f191461015957806364ca7ddd146101755780637612fc6214610191578063784138f3146101ad576100ea565b806307546172146100ef57806327c6f43e1461010d57806327e235e314610129575b600080fd5b6100f76102e4565b60405161010491906125f7565b60405180910390f35b6101276004803603810190610122919061276c565b610308565b005b610143600480360381019061013e91906127e1565b61049d565b6040516101509190612827565b60405180910390f35b610173600480360381019061016e919061286e565b6104b5565b005b61018f600480360381019061018a919061276c565b610567565b005b6101ab60048036038101906101a691906128ae565b610608565b005b6101c760048036038101906101c2919061276c565b610da9565b6040516101dd9a999897969594939291906129a5565b60405180910390f35b61020060048036038101906101fb91906128ae565b611053565b005b61021c6004803603810190610217919061276c565b6117f4565b6040516102329a999897969594939291906129a5565b60405180910390f35b6102556004803603810190610250919061276c565b611a9e565b005b610271600480360381019061026c919061286e565b611b3f565b005b61027b611cef565b6040516102889190612bb5565b60405180910390f35b6102ab60048036038101906102a69190612bd7565b611e36565b005b6102c760048036038101906102c2919061276c565b612450565b6040516102db989796959493929190612c95565b60405180910390f35b60008054906101000a900473ffffffffffffffffffffffffffffffffffffffff1681565b6000600280549050905060005b818110156103e2573373ffffffffffffffffffffffffffffffffffffffff166002828154811061034857610347612d1a565b5b906000526020600020906002020160000160009054906101000a900473ffffffffffffffffffffffffffffffffffffffff1673ffffffffffffffffffffffffffffffffffffffff16036103cf5782600282815481106103aa576103a9612d1a565b5b906000526020600020906002020160010190816103c79190612f55565b50505061049a565b80806103da90613056565b915050610315565b50600260405180604001604052803373ffffffffffffffffffffffffffffffffffffffff16815260200184815250908060018154018082558091505060019003906000526020600020906002020160009091909190915060008201518160000160006101000a81548173ffffffffffffffffffffffffffffffffffffffff021916908373ffffffffffffffffffffffffffffffffffffffff16021790555060208201518160010190816104959190612f55565b505050505b50565b60016020528060005260406000206000915090505481565b60008054906101000a900473ffffffffffffffffffffffffffffffffffffffff1673ffffffffffffffffffffffffffffffffffffffff163373ffffffffffffffffffffffffffffffffffffffff161461050d57600080fd5b80600160008473ffffffffffffffffffffffffffffffffffffffff1673ffffffffffffffffffffffffffffffffffffffff168152602001908152602001600020600082825461055c919061309e565b925050819055505050565b600073ffffffffffffffffffffffffffffffffffffffff1660038260405161058f919061310e565b908152602001604051809103902060000160009054906101000a900473ffffffffffffffffffffffffffffffffffffffff1673ffffffffffffffffffffffffffffffffffffffff1603156106055760016004826040516105ef919061310e565b9081526020016040518091039020600201819055505b50565b60036001600060038560405161061e919061310e565b908152602001604051809103902060000160009054906101000a900473ffffffffffffffffffffffffffffffffffffffff1673ffffffffffffffffffffffffffffffffffffffff1673ffffffffffffffffffffffffffffffffffffffff1681526020019081526020016000205410610da557600073ffffffffffffffffffffffffffffffffffffffff166003836040516106b8919061310e565b908152602001604051809103902060000160009054906101000a900473ffffffffffffffffffffffffffffffffffffffff1673ffffffffffffffffffffffffffffffffffffffff160315610da5576001600583604051610718919061310e565b90815260200160405180910390206002015403610da55760038260405161073f919061310e565b908152602001604051809103902060030160009054906101000a900473ffffffffffffffffffffffffffffffffffffffff1673ffffffffffffffffffffffffffffffffffffffff163373ffffffffffffffffffffffffffffffffffffffff160361082a57806005836040516107b4919061310e565b908152602001604051809103902060040190816107d19190612f55565b5060016005836040516107e4919061310e565b908152602001604051809103902060030154610800919061309e565b600583604051610810919061310e565b908152602001604051809103902060050181905550610a27565b60038260405161083a919061310e565b908152602001604051809103902060050160009054906101000a900473ffffffffffffffffffffffffffffffffffffffff1673ffffffffffffffffffffffffffffffffffffffff163373ffffffffffffffffffffffffffffffffffffffff160361092557806005836040516108af919061310e565b908152602001604051809103902060060190816108cc9190612f55565b5060016005836040516108df919061310e565b9081526020016040518091039020600301546108fb919061309e565b60058360405161090b919061310e565b908152602001604051809103902060070181905550610a26565b600382604051610935919061310e565b908152602001604051809103902060070160009054906101000a900473ffffffffffffffffffffffffffffffffffffffff1673ffffffffffffffffffffffffffffffffffffffff163373ffffffffffffffffffffffffffffffffffffffff1603610a2057806005836040516109aa919061310e565b908152602001604051809103902060080190816109c79190612f55565b5060016005836040516109da919061310e565b9081526020016040518091039020600301546109f6919061309e565b600583604051610a06919061310e565b908152602001604051809103902060090181905550610a25565b610da5565b5b5b6000600583604051610a39919061310e565b908152602001604051809103902060090154600584604051610a5b919061310e565b908152602001604051809103902060070154600585604051610a7d919061310e565b908152602001604051809103902060050154610a99919061309e565b610aa3919061309e565b90506002600584604051610ab7919061310e565b9081526020016040518091039020600301546003610ad59190613125565b82610ae09190613167565b10610da3576002600584604051610af7919061310e565b9081526020016040518091039020600201819055506001600584604051610b1e919061310e565b90815260200160405180910390206003016000828254610b3e919061309e565b92505081905550600360016000600386604051610b5b919061310e565b908152602001604051809103902060000160009054906101000a900473ffffffffffffffffffffffffffffffffffffffff1673ffffffffffffffffffffffffffffffffffffffff1673ffffffffffffffffffffffffffffffffffffffff1681526020019081526020016000206000828254610bd69190613167565b925050819055506001806000600386604051610bf2919061310e565b908152602001604051809103902060030160009054906101000a900473ffffffffffffffffffffffffffffffffffffffff1673ffffffffffffffffffffffffffffffffffffffff1673ffffffffffffffffffffffffffffffffffffffff1681526020019081526020016000206000828254610c6d919061309e565b925050819055506001806000600386604051610c89919061310e565b908152602001604051809103902060050160009054906101000a900473ffffffffffffffffffffffffffffffffffffffff1673ffffffffffffffffffffffffffffffffffffffff1673ffffffffffffffffffffffffffffffffffffffff1681526020019081526020016000206000828254610d04919061309e565b925050819055506001806000600386604051610d20919061310e565b908152602001604051809103902060070160009054906101000a900473ffffffffffffffffffffffffffffffffffffffff1673ffffffffffffffffffffffffffffffffffffffff1673ffffffffffffffffffffffffffffffffffffffff1681526020019081526020016000206000828254610d9b919061309e565b925050819055505b505b5050565b6005818051602081018201805184825260208301602085012081835280955050505050506000915090508060000160009054906101000a900473ffffffffffffffffffffffffffffffffffffffff1690806001018054610e0890612d78565b80601f0160208091040260200160405190810160405280929190818152602001828054610e3490612d78565b8015610e815780601f10610e5657610100808354040283529160200191610e81565b820191906000526020600020905b815481529060010190602001808311610e6457829003601f168201915b505050505090806002015490806003015490806004018054610ea290612d78565b80601f0160208091040260200160405190810160405280929190818152602001828054610ece90612d78565b8015610f1b5780601f10610ef057610100808354040283529160200191610f1b565b820191906000526020600020905b815481529060010190602001808311610efe57829003601f168201915b505050505090806005015490806006018054610f3690612d78565b80601f0160208091040260200160405190810160405280929190818152602001828054610f6290612d78565b8015610faf5780601f10610f8457610100808354040283529160200191610faf565b820191906000526020600020905b815481529060010190602001808311610f9257829003601f168201915b505050505090806007015490806008018054610fca90612d78565b80601f0160208091040260200160405190810160405280929190818152602001828054610ff690612d78565b80156110435780601f1061101857610100808354040283529160200191611043565b820191906000526020600020905b81548152906001019060200180831161102657829003601f168201915b505050505090806009015490508a565b600360016000600385604051611069919061310e565b908152602001604051809103902060000160009054906101000a900473ffffffffffffffffffffffffffffffffffffffff1673ffffffffffffffffffffffffffffffffffffffff1673ffffffffffffffffffffffffffffffffffffffff16815260200190815260200160002054106117f057600073ffffffffffffffffffffffffffffffffffffffff16600383604051611103919061310e565b908152602001604051809103902060000160009054906101000a900473ffffffffffffffffffffffffffffffffffffffff1673ffffffffffffffffffffffffffffffffffffffff1603156117f0576001600483604051611163919061310e565b908152602001604051809103902060020154036117f05760038260405161118a919061310e565b908152602001604051809103902060030160009054906101000a900473ffffffffffffffffffffffffffffffffffffffff1673ffffffffffffffffffffffffffffffffffffffff163373ffffffffffffffffffffffffffffffffffffffff160361127557806004836040516111ff919061310e565b9081526020016040518091039020600401908161121c9190612f55565b50600160048360405161122f919061310e565b90815260200160405180910390206003015461124b919061309e565b60048360405161125b919061310e565b908152602001604051809103902060050181905550611472565b600382604051611285919061310e565b908152602001604051809103902060050160009054906101000a900473ffffffffffffffffffffffffffffffffffffffff1673ffffffffffffffffffffffffffffffffffffffff163373ffffffffffffffffffffffffffffffffffffffff160361137057806004836040516112fa919061310e565b908152602001604051809103902060060190816113179190612f55565b50600160048360405161132a919061310e565b908152602001604051809103902060030154611346919061309e565b600483604051611356919061310e565b908152602001604051809103902060070181905550611471565b600382604051611380919061310e565b908152602001604051809103902060070160009054906101000a900473ffffffffffffffffffffffffffffffffffffffff1673ffffffffffffffffffffffffffffffffffffffff163373ffffffffffffffffffffffffffffffffffffffff160361146b57806004836040516113f5919061310e565b908152602001604051809103902060080190816114129190612f55565b506001600483604051611425919061310e565b908152602001604051809103902060030154611441919061309e565b600483604051611451919061310e565b908152602001604051809103902060090181905550611470565b6117f0565b5b5b6000600483604051611484919061310e565b9081526020016040518091039020600901546004846040516114a6919061310e565b9081526020016040518091039020600701546004856040516114c8919061310e565b9081526020016040518091039020600501546114e4919061309e565b6114ee919061309e565b90506002600484604051611502919061310e565b90815260200160405180910390206003015460036115209190613125565b8261152b9190613167565b106117ee576002600484604051611542919061310e565b9081526020016040518091039020600201819055506001600484604051611569919061310e565b90815260200160405180910390206003016000828254611589919061309e565b925050819055506003600160006003866040516115a6919061310e565b908152602001604051809103902060000160009054906101000a900473ffffffffffffffffffffffffffffffffffffffff1673ffffffffffffffffffffffffffffffffffffffff1673ffffffffffffffffffffffffffffffffffffffff16815260200190815260200160002060008282546116219190613167565b92505081905550600180600060038660405161163d919061310e565b908152602001604051809103902060030160009054906101000a900473ffffffffffffffffffffffffffffffffffffffff1673ffffffffffffffffffffffffffffffffffffffff1673ffffffffffffffffffffffffffffffffffffffff16815260200190815260200160002060008282546116b8919061309e565b9250508190555060018060006003866040516116d4919061310e565b908152602001604051809103902060050160009054906101000a900473ffffffffffffffffffffffffffffffffffffffff1673ffffffffffffffffffffffffffffffffffffffff1673ffffffffffffffffffffffffffffffffffffffff168152602001908152602001600020600082825461174f919061309e565b92505081905550600180600060038660405161176b919061310e565b908152602001604051809103902060070160009054906101000a900473ffffffffffffffffffffffffffffffffffffffff1673ffffffffffffffffffffffffffffffffffffffff1673ffffffffffffffffffffffffffffffffffffffff16815260200190815260200160002060008282546117e6919061309e565b925050819055505b505b5050565b6004818051602081018201805184825260208301602085012081835280955050505050506000915090508060000160009054906101000a900473ffffffffffffffffffffffffffffffffffffffff169080600101805461185390612d78565b80601f016020809104026020016040519081016040528092919081815260200182805461187f90612d78565b80156118cc5780601f106118a1576101008083540402835291602001916118cc565b820191906000526020600020905b8154815290600101906020018083116118af57829003601f168201915b5050505050908060020154908060030154908060040180546118ed90612d78565b80601f016020809104026020016040519081016040528092919081815260200182805461191990612d78565b80156119665780601f1061193b57610100808354040283529160200191611966565b820191906000526020600020905b81548152906001019060200180831161194957829003601f168201915b50505050509080600501549080600601805461198190612d78565b80601f01602080910402602001604051908101604052809291908181526020018280546119ad90612d78565b80156119fa5780601f106119cf576101008083540402835291602001916119fa565b820191906000526020600020905b8154815290600101906020018083116119dd57829003601f168201915b505050505090806007015490806008018054611a1590612d78565b80601f0160208091040260200160405190810160405280929190818152602001828054611a4190612d78565b8015611a8e5780601f10611a6357610100808354040283529160200191611a8e565b820191906000526020600020905b815481529060010190602001808311611a7157829003601f168201915b505050505090806009015490508a565b600073ffffffffffffffffffffffffffffffffffffffff16600382604051611ac6919061310e565b908152602001604051809103902060000160009054906101000a900473ffffffffffffffffffffffffffffffffffffffff1673ffffffffffffffffffffffffffffffffffffffff160315611b3c576001600582604051611b26919061310e565b9081526020016040518091039020600201819055505b50565b600160003373ffffffffffffffffffffffffffffffffffffffff1673ffffffffffffffffffffffffffffffffffffffff16815260200190815260200160002054811115611c045780600160003373ffffffffffffffffffffffffffffffffffffffff1673ffffffffffffffffffffffffffffffffffffffff168152602001908152602001600020546040517fcf479181000000000000000000000000000000000000000000000000000000008152600401611bfb92919061319b565b60405180910390fd5b80600160003373ffffffffffffffffffffffffffffffffffffffff1673ffffffffffffffffffffffffffffffffffffffff1681526020019081526020016000206000828254611c539190613167565b9250508190555080600160008473ffffffffffffffffffffffffffffffffffffffff1673ffffffffffffffffffffffffffffffffffffffff1681526020019081526020016000206000828254611ca9919061309e565b925050819055507f3990db2d31862302a685e8086b5755072a6e2b5b780af1ee81ece35ee3cd3345338383604051611ce3939291906131c4565b60405180910390a15050565b60606002805480602002602001604051908101604052809291908181526020016000905b82821015611e2d57838290600052602060002090600202016040518060400160405290816000820160009054906101000a900473ffffffffffffffffffffffffffffffffffffffff1673ffffffffffffffffffffffffffffffffffffffff1673ffffffffffffffffffffffffffffffffffffffff168152602001600182018054611d9c90612d78565b80601f0160208091040260200160405190810160405280929190818152602001828054611dc890612d78565b8015611e155780601f10611dea57610100808354040283529160200191611e15565b820191906000526020600020905b815481529060010190602001808311611df857829003601f168201915b50505050508152505081526020019060010190611d13565b50505050905090565b600073ffffffffffffffffffffffffffffffffffffffff16600388604051611e5e919061310e565b908152602001604051809103902060000160009054906101000a900473ffffffffffffffffffffffffffffffffffffffff1673ffffffffffffffffffffffffffffffffffffffff1603611f3f576006600160003373ffffffffffffffffffffffffffffffffffffffff1673ffffffffffffffffffffffffffffffffffffffff168152602001908152602001600020541061244757611f1d60008054906101000a900473ffffffffffffffffffffffffffffffffffffffff166003611b3f565b611f28856001611b3f565b611f33836001611b3f565b611f3e816001611b3f565b5b6040518061010001604052803373ffffffffffffffffffffffffffffffffffffffff1681526020018881526020018781526020018673ffffffffffffffffffffffffffffffffffffffff1681526020018581526020018473ffffffffffffffffffffffffffffffffffffffff1681526020018381526020018273ffffffffffffffffffffffffffffffffffffffff16815250600388604051611fe1919061310e565b908152602001604051809103902060008201518160000160006101000a81548173ffffffffffffffffffffffffffffffffffffffff021916908373ffffffffffffffffffffffffffffffffffffffff160217905550602082015181600101908161204b9190612f55565b506040820151816002015560608201518160030160006101000a81548173ffffffffffffffffffffffffffffffffffffffff021916908373ffffffffffffffffffffffffffffffffffffffff1602179055506080820151816004015560a08201518160050160006101000a81548173ffffffffffffffffffffffffffffffffffffffff021916908373ffffffffffffffffffffffffffffffffffffffff16021790555060c0820151816006015560e08201518160070160006101000a81548173ffffffffffffffffffffffffffffffffffffffff021916908373ffffffffffffffffffffffffffffffffffffffff1602179055509050506040518061014001604052803373ffffffffffffffffffffffffffffffffffffffff1681526020018881526020016000815260200160008152602001604051806020016040528060008152508152602001600081526020016040518060200160405280600081525081526020016000815260200160405180602001604052806000815250815260200160008152506004886040516121e0919061310e565b908152602001604051809103902060008201518160000160006101000a81548173ffffffffffffffffffffffffffffffffffffffff021916908373ffffffffffffffffffffffffffffffffffffffff160217905550602082015181600101908161224a9190612f55565b50604082015181600201556060820151816003015560808201518160040190816122749190612f55565b5060a0820151816005015560c08201518160060190816122949190612f55565b5060e082015181600701556101008201518160080190816122b59190612f55565b5061012082015181600901559050506040518061014001604052803373ffffffffffffffffffffffffffffffffffffffff168152602001888152602001600081526020016000815260200160405180602001604052806000815250815260200160008152602001604051806020016040528060008152508152602001600081526020016040518060200160405280600081525081526020016000815250600588604051612362919061310e565b908152602001604051809103902060008201518160000160006101000a81548173ffffffffffffffffffffffffffffffffffffffff021916908373ffffffffffffffffffffffffffffffffffffffff16021790555060208201518160010190816123cc9190612f55565b50604082015181600201556060820151816003015560808201518160040190816123f69190612f55565b5060a0820151816005015560c08201518160060190816124169190612f55565b5060e082015181600701556101008201518160080190816124379190612f55565b5061012082015181600901559050505b50505050505050565b6003818051602081018201805184825260208301602085012081835280955050505050506000915090508060000160009054906101000a900473ffffffffffffffffffffffffffffffffffffffff16908060010180546124af90612d78565b80601f01602080910402602001604051908101604052809291908181526020018280546124db90612d78565b80156125285780601f106124fd57610100808354040283529160200191612528565b820191906000526020600020905b81548152906001019060200180831161250b57829003601f168201915b5050505050908060020154908060030160009054906101000a900473ffffffffffffffffffffffffffffffffffffffff16908060040154908060050160009054906101000a900473ffffffffffffffffffffffffffffffffffffffff16908060060154908060070160009054906101000a900473ffffffffffffffffffffffffffffffffffffffff16905088565b600073ffffffffffffffffffffffffffffffffffffffff82169050919050565b60006125e1826125b6565b9050919050565b6125f1816125d6565b82525050565b600060208201905061260c60008301846125e8565b92915050565b6000604051905090565b600080fd5b600080fd5b600080fd5b600080fd5b6000601f19601f8301169050919050565b7f4e487b7100000000000000000000000000000000000000000000000000000000600052604160045260246000fd5b61267982612630565b810181811067ffffffffffffffff8211171561269857612697612641565b5b80604052505050565b60006126ab612612565b90506126b78282612670565b919050565b600067ffffffffffffffff8211156126d7576126d6612641565b5b6126e082612630565b9050602081019050919050565b82818337600083830152505050565b600061270f61270a846126bc565b6126a1565b90508281526020810184848401111561272b5761272a61262b565b5b6127368482856126ed565b509392505050565b600082601f83011261275357612752612626565b5b81356127638482602086016126fc565b91505092915050565b6000602082840312156127825761278161261c565b5b600082013567ffffffffffffffff8111156127a05761279f612621565b5b6127ac8482850161273e565b91505092915050565b6127be816125d6565b81146127c957600080fd5b50565b6000813590506127db816127b5565b92915050565b6000602082840312156127f7576127f661261c565b5b6000612805848285016127cc565b91505092915050565b6000819050919050565b6128218161280e565b82525050565b600060208201905061283c6000830184612818565b92915050565b61284b8161280e565b811461285657600080fd5b50565b60008135905061286881612842565b92915050565b600080604083850312156128855761288461261c565b5b6000612893858286016127cc565b92505060206128a485828601612859565b9150509250929050565b600080604083850312156128c5576128c461261c565b5b600083013567ffffffffffffffff8111156128e3576128e2612621565b5b6128ef8582860161273e565b925050602083013567ffffffffffffffff8111156129105761290f612621565b5b61291c8582860161273e565b9150509250929050565b600081519050919050565b600082825260208201905092915050565b60005b83811015612960578082015181840152602081019050612945565b60008484015250505050565b600061297782612926565b6129818185612931565b9350612991818560208601612942565b61299a81612630565b840191505092915050565b6000610140820190506129bb600083018d6125e8565b81810360208301526129cd818c61296c565b90506129dc604083018b612818565b6129e9606083018a612818565b81810360808301526129fb818961296c565b9050612a0a60a0830188612818565b81810360c0830152612a1c818761296c565b9050612a2b60e0830186612818565b818103610100830152612a3e818561296c565b9050612a4e610120830184612818565b9b9a5050505050505050505050565b600081519050919050565b600082825260208201905092915050565b6000819050602082019050919050565b612a92816125d6565b82525050565b600082825260208201905092915050565b6000612ab482612926565b612abe8185612a98565b9350612ace818560208601612942565b612ad781612630565b840191505092915050565b6000604083016000830151612afa6000860182612a89565b5060208301518482036020860152612b128282612aa9565b9150508091505092915050565b6000612b2b8383612ae2565b905092915050565b6000602082019050919050565b6000612b4b82612a5d565b612b558185612a68565b935083602082028501612b6785612a79565b8060005b85811015612ba35784840389528151612b848582612b1f565b9450612b8f83612b33565b925060208a01995050600181019050612b6b565b50829750879550505050505092915050565b60006020820190508181036000830152612bcf8184612b40565b905092915050565b600080600080600080600060e0888a031215612bf657612bf561261c565b5b600088013567ffffffffffffffff811115612c1457612c13612621565b5b612c208a828b0161273e565b9750506020612c318a828b01612859565b9650506040612c428a828b016127cc565b9550506060612c538a828b01612859565b9450506080612c648a828b016127cc565b93505060a0612c758a828b01612859565b92505060c0612c868a828b016127cc565b91505092959891949750929550565b600061010082019050612cab600083018b6125e8565b8181036020830152612cbd818a61296c565b9050612ccc6040830189612818565b612cd960608301886125e8565b612ce66080830187612818565b612cf360a08301866125e8565b612d0060c0830185612818565b612d0d60e08301846125e8565b9998505050505050505050565b7f4e487b7100000000000000000000000000000000000000000000000000000000600052603260045260246000fd5b7f4e487b7100000000000000000000000000000000000000000000000000000000600052602260045260246000fd5b60006002820490506001821680612d9057607f821691505b602082108103612da357612da2612d49565b5b50919050565b60008190508160005260206000209050919050565b60006020601f8301049050919050565b600082821b905092915050565b600060088302612e0b7fffffffffffffffffffffffffffffffffffffffffffffffffffffffffffffffff82612dce565b612e158683612dce565b95508019841693508086168417925050509392505050565b6000819050919050565b6000612e52612e4d612e488461280e565b612e2d565b61280e565b9050919050565b6000819050919050565b612e6c83612e37565b612e80612e7882612e59565b848454612ddb565b825550505050565b600090565b612e95612e88565b612ea0818484612e63565b505050565b5b81811015612ec457612eb9600082612e8d565b600181019050612ea6565b5050565b601f821115612f0957612eda81612da9565b612ee384612dbe565b81016020851015612ef2578190505b612f06612efe85612dbe565b830182612ea5565b50505b505050565b600082821c905092915050565b6000612f2c60001984600802612f0e565b1980831691505092915050565b6000612f458383612f1b565b9150826002028217905092915050565b612f5e82612926565b67ffffffffffffffff811115612f7757612f76612641565b5b612f818254612d78565b612f8c828285612ec8565b600060209050601f831160018114612fbf5760008415612fad578287015190505b612fb78582612f39565b86555061301f565b601f198416612fcd86612da9565b60005b82811015612ff557848901518255600182019150602085019450602081019050612fd0565b86831015613012578489015161300e601f891682612f1b565b8355505b6001600288020188555050505b505050505050565b7f4e487b7100000000000000000000000000000000000000000000000000000000600052601160045260246000fd5b60006130618261280e565b91507fffffffffffffffffffffffffffffffffffffffffffffffffffffffffffffffff820361309357613092613027565b5b600182019050919050565b60006130a98261280e565b91506130b48361280e565b92508282019050808211156130cc576130cb613027565b5b92915050565b600081905092915050565b60006130e882612926565b6130f281856130d2565b9350613102818560208601612942565b80840191505092915050565b600061311a82846130dd565b915081905092915050565b60006131308261280e565b915061313b8361280e565b92508282026131498161280e565b915082820484148315176131605761315f613027565b5b5092915050565b60006131728261280e565b915061317d8361280e565b925082820390508181111561319557613194613027565b5b92915050565b60006040820190506131b06000830185612818565b6131bd6020830184612818565b9392505050565b60006060820190506131d960008301866125e8565b6131e660208301856125e8565b6131f36040830184612818565b94935050505056fea2646970667358221220b90f4fa93db2ddb03b3e954fba7051076ace2142a4afef82c81ab0641f68308c64736f6c63430008120033",
					"opcodes": "PUSH1 0x80 PUSH1 0x40 MSTORE CALLVALUE DUP1 ISZERO PUSH3 0x11 JUMPI PUSH1 0x0 DUP1 REVERT JUMPDEST POP CALLER PUSH1 0x0 DUP1 PUSH2 0x100 EXP DUP2 SLOAD DUP2 PUSH20 0xFFFFFFFFFFFFFFFFFFFFFFFFFFFFFFFFFFFFFFFF MUL NOT AND SWAP1 DUP4 PUSH20 0xFFFFFFFFFFFFFFFFFFFFFFFFFFFFFFFFFFFFFFFF AND MUL OR SWAP1 SSTORE POP PUSH1 0x40 MLOAD DUP1 PUSH1 0x40 ADD PUSH1 0x40 MSTORE DUP1 PUSH1 0xB DUP2 MSTORE PUSH1 0x20 ADD PUSH32 0x444175746820546F6B656E000000000000000000000000000000000000000000 DUP2 MSTORE POP PUSH1 0x9 SWAP1 DUP2 PUSH3 0x98 SWAP2 SWAP1 PUSH3 0x3CD JUMP JUMPDEST POP PUSH1 0x40 MLOAD DUP1 PUSH1 0x40 ADD PUSH1 0x40 MSTORE DUP1 PUSH1 0x3 DUP2 MSTORE PUSH1 0x20 ADD PUSH32 0x4441540000000000000000000000000000000000000000000000000000000000 DUP2 MSTORE POP PUSH1 0x8 SWAP1 DUP2 PUSH3 0xDF SWAP2 SWAP1 PUSH3 0x3CD JUMP JUMPDEST POP PUSH1 0x12 PUSH1 0x7 PUSH1 0x0 PUSH2 0x100 EXP DUP2 SLOAD DUP2 PUSH1 0xFF MUL NOT AND SWAP1 DUP4 PUSH1 0xFF AND MUL OR SWAP1 SSTORE POP PUSH4 0x3B9ACA00 PUSH1 0x6 DUP2 SWAP1 SSTORE POP PUSH1 0x6 SLOAD PUSH1 0xA PUSH1 0x0 CALLER PUSH20 0xFFFFFFFFFFFFFFFFFFFFFFFFFFFFFFFFFFFFFFFF AND PUSH20 0xFFFFFFFFFFFFFFFFFFFFFFFFFFFFFFFFFFFFFFFF AND DUP2 MSTORE PUSH1 0x20 ADD SWAP1 DUP2 MSTORE PUSH1 0x20 ADD PUSH1 0x0 KECCAK256 DUP2 SWAP1 SSTORE POP PUSH3 0x4B4 JUMP JUMPDEST PUSH1 0x0 DUP2 MLOAD SWAP1 POP SWAP2 SWAP1 POP JUMP JUMPDEST PUSH32 0x4E487B7100000000000000000000000000000000000000000000000000000000 PUSH1 0x0 MSTORE PUSH1 0x41 PUSH1 0x4 MSTORE PUSH1 0x24 PUSH1 0x0 REVERT JUMPDEST PUSH32 0x4E487B7100000000000000000000000000000000000000000000000000000000 PUSH1 0x0 MSTORE PUSH1 0x22 PUSH1 0x4 MSTORE PUSH1 0x24 PUSH1 0x0 REVERT JUMPDEST PUSH1 0x0 PUSH1 0x2 DUP3 DIV SWAP1 POP PUSH1 0x1 DUP3 AND DUP1 PUSH3 0x1D5 JUMPI PUSH1 0x7F DUP3 AND SWAP2 POP JUMPDEST PUSH1 0x20 DUP3 LT DUP2 SUB PUSH3 0x1EB JUMPI PUSH3 0x1EA PUSH3 0x18D JUMP JUMPDEST JUMPDEST POP SWAP2 SWAP1 POP JUMP JUMPDEST PUSH1 0x0 DUP2 SWAP1 POP DUP2 PUSH1 0x0 MSTORE PUSH1 0x20 PUSH1 0x0 KECCAK256 SWAP1 POP SWAP2 SWAP1 POP JUMP JUMPDEST PUSH1 0x0 PUSH1 0x20 PUSH1 0x1F DUP4 ADD DIV SWAP1 POP SWAP2 SWAP1 POP JUMP JUMPDEST PUSH1 0x0 DUP3 DUP3 SHL SWAP1 POP SWAP3 SWAP2 POP POP JUMP JUMPDEST PUSH1 0x0 PUSH1 0x8 DUP4 MUL PUSH3 0x255 PUSH32 0xFFFFFFFFFFFFFFFFFFFFFFFFFFFFFFFFFFFFFFFFFFFFFFFFFFFFFFFFFFFFFFFF DUP3 PUSH3 0x216 JUMP JUMPDEST PUSH3 0x261 DUP7 DUP4 PUSH3 0x216 JUMP JUMPDEST SWAP6 POP DUP1 NOT DUP5 AND SWAP4 POP DUP1 DUP7 AND DUP5 OR SWAP3 POP POP POP SWAP4 SWAP3 POP POP POP JUMP JUMPDEST PUSH1 0x0 DUP2 SWAP1 POP SWAP2 SWAP1 POP JUMP JUMPDEST PUSH1 0x0 DUP2 SWAP1 POP SWAP2 SWAP1 POP JUMP JUMPDEST PUSH1 0x0 PUSH3 0x2AE PUSH3 0x2A8 PUSH3 0x2A2 DUP5 PUSH3 0x279 JUMP JUMPDEST PUSH3 0x283 JUMP JUMPDEST PUSH3 0x279 JUMP JUMPDEST SWAP1 POP SWAP2 SWAP1 POP JUMP JUMPDEST PUSH1 0x0 DUP2 SWAP1 POP SWAP2 SWAP1 POP JUMP JUMPDEST PUSH3 0x2CA DUP4 PUSH3 0x28D JUMP JUMPDEST PUSH3 0x2E2 PUSH3 0x2D9 DUP3 PUSH3 0x2B5 JUMP JUMPDEST DUP5 DUP5 SLOAD PUSH3 0x223 JUMP JUMPDEST DUP3 SSTORE POP POP POP POP JUMP JUMPDEST PUSH1 0x0 SWAP1 JUMP JUMPDEST PUSH3 0x2F9 PUSH3 0x2EA JUMP JUMPDEST PUSH3 0x306 DUP2 DUP5 DUP5 PUSH3 0x2BF JUMP JUMPDEST POP POP POP JUMP JUMPDEST JUMPDEST DUP2 DUP2 LT ISZERO PUSH3 0x32E JUMPI PUSH3 0x322 PUSH1 0x0 DUP3 PUSH3 0x2EF JUMP JUMPDEST PUSH1 0x1 DUP2 ADD SWAP1 POP PUSH3 0x30C JUMP JUMPDEST POP POP JUMP JUMPDEST PUSH1 0x1F DUP3 GT ISZERO PUSH3 0x37D JUMPI PUSH3 0x347 DUP2 PUSH3 0x1F1 JUMP JUMPDEST PUSH3 0x352 DUP5 PUSH3 0x206 JUMP JUMPDEST DUP2 ADD PUSH1 0x20 DUP6 LT ISZERO PUSH3 0x362 JUMPI DUP2 SWAP1 POP JUMPDEST PUSH3 0x37A PUSH3 0x371 DUP6 PUSH3 0x206 JUMP JUMPDEST DUP4 ADD DUP3 PUSH3 0x30B JUMP JUMPDEST POP POP JUMPDEST POP POP POP JUMP JUMPDEST PUSH1 0x0 DUP3 DUP3 SHR SWAP1 POP SWAP3 SWAP2 POP POP JUMP JUMPDEST PUSH1 0x0 PUSH3 0x3A2 PUSH1 0x0 NOT DUP5 PUSH1 0x8 MUL PUSH3 0x382 JUMP JUMPDEST NOT DUP1 DUP4 AND SWAP2 POP POP SWAP3 SWAP2 POP POP JUMP JUMPDEST PUSH1 0x0 PUSH3 0x3BD DUP4 DUP4 PUSH3 0x38F JUMP JUMPDEST SWAP2 POP DUP3 PUSH1 0x2 MUL DUP3 OR SWAP1 POP SWAP3 SWAP2 POP POP JUMP JUMPDEST PUSH3 0x3D8 DUP3 PUSH3 0x153 JUMP JUMPDEST PUSH8 0xFFFFFFFFFFFFFFFF DUP2 GT ISZERO PUSH3 0x3F4 JUMPI PUSH3 0x3F3 PUSH3 0x15E JUMP JUMPDEST JUMPDEST PUSH3 0x400 DUP3 SLOAD PUSH3 0x1BC JUMP JUMPDEST PUSH3 0x40D DUP3 DUP3 DUP6 PUSH3 0x332 JUMP JUMPDEST PUSH1 0x0 PUSH1 0x20 SWAP1 POP PUSH1 0x1F DUP4 GT PUSH1 0x1 DUP2 EQ PUSH3 0x445 JUMPI PUSH1 0x0 DUP5 ISZERO PUSH3 0x430 JUMPI DUP3 DUP8 ADD MLOAD SWAP1 POP JUMPDEST PUSH3 0x43C DUP6 DUP3 PUSH3 0x3AF JUMP JUMPDEST DUP7 SSTORE POP PUSH3 0x4AC JUMP JUMPDEST PUSH1 0x1F NOT DUP5 AND PUSH3 0x455 DUP7 PUSH3 0x1F1 JUMP JUMPDEST PUSH1 0x0 JUMPDEST DUP3 DUP2 LT ISZERO PUSH3 0x47F JUMPI DUP5 DUP10 ADD MLOAD DUP3 SSTORE PUSH1 0x1 DUP3 ADD SWAP2 POP PUSH1 0x20 DUP6 ADD SWAP5 POP PUSH1 0x20 DUP2 ADD SWAP1 POP PUSH3 0x458 JUMP JUMPDEST DUP7 DUP4 LT ISZERO PUSH3 0x49F JUMPI DUP5 DUP10 ADD MLOAD PUSH3 0x49B PUSH1 0x1F DUP10 AND DUP3 PUSH3 0x38F JUMP JUMPDEST DUP4 SSTORE POP JUMPDEST PUSH1 0x1 PUSH1 0x2 DUP9 MUL ADD DUP9 SSTORE POP POP POP JUMPDEST POP POP POP POP POP POP JUMP JUMPDEST PUSH2 0x3231 DUP1 PUSH3 0x4C4 PUSH1 0x0 CODECOPY PUSH1 0x0 RETURN INVALID PUSH1 0x80 PUSH1 0x40 MSTORE CALLVALUE DUP1 ISZERO PUSH2 0x10 JUMPI PUSH1 0x0 DUP1 REVERT JUMPDEST POP PUSH1 0x4 CALLDATASIZE LT PUSH2 0xEA JUMPI PUSH1 0x0 CALLDATALOAD PUSH1 0xE0 SHR DUP1 PUSH4 0x8AB0C338 GT PUSH2 0x8C JUMPI DUP1 PUSH4 0xD0679D34 GT PUSH2 0x66 JUMPI DUP1 PUSH4 0xD0679D34 EQ PUSH2 0x257 JUMPI DUP1 PUSH4 0xE29581AA EQ PUSH2 0x273 JUMPI DUP1 PUSH4 0xE41E0690 EQ PUSH2 0x291 JUMPI DUP1 PUSH4 0xF30E1474 EQ PUSH2 0x2AD JUMPI PUSH2 0xEA JUMP JUMPDEST DUP1 PUSH4 0x8AB0C338 EQ PUSH2 0x1E6 JUMPI DUP1 PUSH4 0x9940F736 EQ PUSH2 0x202 JUMPI DUP1 PUSH4 0xC96B1F32 EQ PUSH2 0x23B JUMPI PUSH2 0xEA JUMP JUMPDEST DUP1 PUSH4 0x40C10F19 GT PUSH2 0xC8 JUMPI DUP1 PUSH4 0x40C10F19 EQ PUSH2 0x159 JUMPI DUP1 PUSH4 0x64CA7DDD EQ PUSH2 0x175 JUMPI DUP1 PUSH4 0x7612FC62 EQ PUSH2 0x191 JUMPI DUP1 PUSH4 0x784138F3 EQ PUSH2 0x1AD JUMPI PUSH2 0xEA JUMP JUMPDEST DUP1 PUSH4 0x7546172 EQ PUSH2 0xEF JUMPI DUP1 PUSH4 0x27C6F43E EQ PUSH2 0x10D JUMPI DUP1 PUSH4 0x27E235E3 EQ PUSH2 0x129 JUMPI JUMPDEST PUSH1 0x0 DUP1 REVERT JUMPDEST PUSH2 0xF7 PUSH2 0x2E4 JUMP JUMPDEST PUSH1 0x40 MLOAD PUSH2 0x104 SWAP2 SWAP1 PUSH2 0x25F7 JUMP JUMPDEST PUSH1 0x40 MLOAD DUP1 SWAP2 SUB SWAP1 RETURN JUMPDEST PUSH2 0x127 PUSH1 0x4 DUP1 CALLDATASIZE SUB DUP2 ADD SWAP1 PUSH2 0x122 SWAP2 SWAP1 PUSH2 0x276C JUMP JUMPDEST PUSH2 0x308 JUMP JUMPDEST STOP JUMPDEST PUSH2 0x143 PUSH1 0x4 DUP1 CALLDATASIZE SUB DUP2 ADD SWAP1 PUSH2 0x13E SWAP2 SWAP1 PUSH2 0x27E1 JUMP JUMPDEST PUSH2 0x49D JUMP JUMPDEST PUSH1 0x40 MLOAD PUSH2 0x150 SWAP2 SWAP1 PUSH2 0x2827 JUMP JUMPDEST PUSH1 0x40 MLOAD DUP1 SWAP2 SUB SWAP1 RETURN JUMPDEST PUSH2 0x173 PUSH1 0x4 DUP1 CALLDATASIZE SUB DUP2 ADD SWAP1 PUSH2 0x16E SWAP2 SWAP1 PUSH2 0x286E JUMP JUMPDEST PUSH2 0x4B5 JUMP JUMPDEST STOP JUMPDEST PUSH2 0x18F PUSH1 0x4 DUP1 CALLDATASIZE SUB DUP2 ADD SWAP1 PUSH2 0x18A SWAP2 SWAP1 PUSH2 0x276C JUMP JUMPDEST PUSH2 0x567 JUMP JUMPDEST STOP JUMPDEST PUSH2 0x1AB PUSH1 0x4 DUP1 CALLDATASIZE SUB DUP2 ADD SWAP1 PUSH2 0x1A6 SWAP2 SWAP1 PUSH2 0x28AE JUMP JUMPDEST PUSH2 0x608 JUMP JUMPDEST STOP JUMPDEST PUSH2 0x1C7 PUSH1 0x4 DUP1 CALLDATASIZE SUB DUP2 ADD SWAP1 PUSH2 0x1C2 SWAP2 SWAP1 PUSH2 0x276C JUMP JUMPDEST PUSH2 0xDA9 JUMP JUMPDEST PUSH1 0x40 MLOAD PUSH2 0x1DD SWAP11 SWAP10 SWAP9 SWAP8 SWAP7 SWAP6 SWAP5 SWAP4 SWAP3 SWAP2 SWAP1 PUSH2 0x29A5 JUMP JUMPDEST PUSH1 0x40 MLOAD DUP1 SWAP2 SUB SWAP1 RETURN JUMPDEST PUSH2 0x200 PUSH1 0x4 DUP1 CALLDATASIZE SUB DUP2 ADD SWAP1 PUSH2 0x1FB SWAP2 SWAP1 PUSH2 0x28AE JUMP JUMPDEST PUSH2 0x1053 JUMP JUMPDEST STOP JUMPDEST PUSH2 0x21C PUSH1 0x4 DUP1 CALLDATASIZE SUB DUP2 ADD SWAP1 PUSH2 0x217 SWAP2 SWAP1 PUSH2 0x276C JUMP JUMPDEST PUSH2 0x17F4 JUMP JUMPDEST PUSH1 0x40 MLOAD PUSH2 0x232 SWAP11 SWAP10 SWAP9 SWAP8 SWAP7 SWAP6 SWAP5 SWAP4 SWAP3 SWAP2 SWAP1 PUSH2 0x29A5 JUMP JUMPDEST PUSH1 0x40 MLOAD DUP1 SWAP2 SUB SWAP1 RETURN JUMPDEST PUSH2 0x255 PUSH1 0x4 DUP1 CALLDATASIZE SUB DUP2 ADD SWAP1 PUSH2 0x250 SWAP2 SWAP1 PUSH2 0x276C JUMP JUMPDEST PUSH2 0x1A9E JUMP JUMPDEST STOP JUMPDEST PUSH2 0x271 PUSH1 0x4 DUP1 CALLDATASIZE SUB DUP2 ADD SWAP1 PUSH2 0x26C SWAP2 SWAP1 PUSH2 0x286E JUMP JUMPDEST PUSH2 0x1B3F JUMP JUMPDEST STOP JUMPDEST PUSH2 0x27B PUSH2 0x1CEF JUMP JUMPDEST PUSH1 0x40 MLOAD PUSH2 0x288 SWAP2 SWAP1 PUSH2 0x2BB5 JUMP JUMPDEST PUSH1 0x40 MLOAD DUP1 SWAP2 SUB SWAP1 RETURN JUMPDEST PUSH2 0x2AB PUSH1 0x4 DUP1 CALLDATASIZE SUB DUP2 ADD SWAP1 PUSH2 0x2A6 SWAP2 SWAP1 PUSH2 0x2BD7 JUMP JUMPDEST PUSH2 0x1E36 JUMP JUMPDEST STOP JUMPDEST PUSH2 0x2C7 PUSH1 0x4 DUP1 CALLDATASIZE SUB DUP2 ADD SWAP1 PUSH2 0x2C2 SWAP2 SWAP1 PUSH2 0x276C JUMP JUMPDEST PUSH2 0x2450 JUMP JUMPDEST PUSH1 0x40 MLOAD PUSH2 0x2DB SWAP9 SWAP8 SWAP7 SWAP6 SWAP5 SWAP4 SWAP3 SWAP2 SWAP1 PUSH2 0x2C95 JUMP JUMPDEST PUSH1 0x40 MLOAD DUP1 SWAP2 SUB SWAP1 RETURN JUMPDEST PUSH1 0x0 DUP1 SLOAD SWAP1 PUSH2 0x100 EXP SWAP1 DIV PUSH20 0xFFFFFFFFFFFFFFFFFFFFFFFFFFFFFFFFFFFFFFFF AND DUP2 JUMP JUMPDEST PUSH1 0x0 PUSH1 0x2 DUP1 SLOAD SWAP1 POP SWAP1 POP PUSH1 0x0 JUMPDEST DUP2 DUP2 LT ISZERO PUSH2 0x3E2 JUMPI CALLER PUSH20 0xFFFFFFFFFFFFFFFFFFFFFFFFFFFFFFFFFFFFFFFF AND PUSH1 0x2 DUP3 DUP2 SLOAD DUP2 LT PUSH2 0x348 JUMPI PUSH2 0x347 PUSH2 0x2D1A JUMP JUMPDEST JUMPDEST SWAP1 PUSH1 0x0 MSTORE PUSH1 0x20 PUSH1 0x0 KECCAK256 SWAP1 PUSH1 0x2 MUL ADD PUSH1 0x0 ADD PUSH1 0x0 SWAP1 SLOAD SWAP1 PUSH2 0x100 EXP SWAP1 DIV PUSH20 0xFFFFFFFFFFFFFFFFFFFFFFFFFFFFFFFFFFFFFFFF AND PUSH20 0xFFFFFFFFFFFFFFFFFFFFFFFFFFFFFFFFFFFFFFFF AND SUB PUSH2 0x3CF JUMPI DUP3 PUSH1 0x2 DUP3 DUP2 SLOAD DUP2 LT PUSH2 0x3AA JUMPI PUSH2 0x3A9 PUSH2 0x2D1A JUMP JUMPDEST JUMPDEST SWAP1 PUSH1 0x0 MSTORE PUSH1 0x20 PUSH1 0x0 KECCAK256 SWAP1 PUSH1 0x2 MUL ADD PUSH1 0x1 ADD SWAP1 DUP2 PUSH2 0x3C7 SWAP2 SWAP1 PUSH2 0x2F55 JUMP JUMPDEST POP POP POP PUSH2 0x49A JUMP JUMPDEST DUP1 DUP1 PUSH2 0x3DA SWAP1 PUSH2 0x3056 JUMP JUMPDEST SWAP2 POP POP PUSH2 0x315 JUMP JUMPDEST POP PUSH1 0x2 PUSH1 0x40 MLOAD DUP1 PUSH1 0x40 ADD PUSH1 0x40 MSTORE DUP1 CALLER PUSH20 0xFFFFFFFFFFFFFFFFFFFFFFFFFFFFFFFFFFFFFFFF AND DUP2 MSTORE PUSH1 0x20 ADD DUP5 DUP2 MSTORE POP SWAP1 DUP1 PUSH1 0x1 DUP2 SLOAD ADD DUP1 DUP3 SSTORE DUP1 SWAP2 POP POP PUSH1 0x1 SWAP1 SUB SWAP1 PUSH1 0x0 MSTORE PUSH1 0x20 PUSH1 0x0 KECCAK256 SWAP1 PUSH1 0x2 MUL ADD PUSH1 0x0 SWAP1 SWAP2 SWAP1 SWAP2 SWAP1 SWAP2 POP PUSH1 0x0 DUP3 ADD MLOAD DUP2 PUSH1 0x0 ADD PUSH1 0x0 PUSH2 0x100 EXP DUP2 SLOAD DUP2 PUSH20 0xFFFFFFFFFFFFFFFFFFFFFFFFFFFFFFFFFFFFFFFF MUL NOT AND SWAP1 DUP4 PUSH20 0xFFFFFFFFFFFFFFFFFFFFFFFFFFFFFFFFFFFFFFFF AND MUL OR SWAP1 SSTORE POP PUSH1 0x20 DUP3 ADD MLOAD DUP2 PUSH1 0x1 ADD SWAP1 DUP2 PUSH2 0x495 SWAP2 SWAP1 PUSH2 0x2F55 JUMP JUMPDEST POP POP POP POP JUMPDEST POP JUMP JUMPDEST PUSH1 0x1 PUSH1 0x20 MSTORE DUP1 PUSH1 0x0 MSTORE PUSH1 0x40 PUSH1 0x0 KECCAK256 PUSH1 0x0 SWAP2 POP SWAP1 POP SLOAD DUP2 JUMP JUMPDEST PUSH1 0x0 DUP1 SLOAD SWAP1 PUSH2 0x100 EXP SWAP1 DIV PUSH20 0xFFFFFFFFFFFFFFFFFFFFFFFFFFFFFFFFFFFFFFFF AND PUSH20 0xFFFFFFFFFFFFFFFFFFFFFFFFFFFFFFFFFFFFFFFF AND CALLER PUSH20 0xFFFFFFFFFFFFFFFFFFFFFFFFFFFFFFFFFFFFFFFF AND EQ PUSH2 0x50D JUMPI PUSH1 0x0 DUP1 REVERT JUMPDEST DUP1 PUSH1 0x1 PUSH1 0x0 DUP5 PUSH20 0xFFFFFFFFFFFFFFFFFFFFFFFFFFFFFFFFFFFFFFFF AND PUSH20 0xFFFFFFFFFFFFFFFFFFFFFFFFFFFFFFFFFFFFFFFF AND DUP2 MSTORE PUSH1 0x20 ADD SWAP1 DUP2 MSTORE PUSH1 0x20 ADD PUSH1 0x0 KECCAK256 PUSH1 0x0 DUP3 DUP3 SLOAD PUSH2 0x55C SWAP2 SWAP1 PUSH2 0x309E JUMP JUMPDEST SWAP3 POP POP DUP2 SWAP1 SSTORE POP POP POP JUMP JUMPDEST PUSH1 0x0 PUSH20 0xFFFFFFFFFFFFFFFFFFFFFFFFFFFFFFFFFFFFFFFF AND PUSH1 0x3 DUP3 PUSH1 0x40 MLOAD PUSH2 0x58F SWAP2 SWAP1 PUSH2 0x310E JUMP JUMPDEST SWAP1 DUP2 MSTORE PUSH1 0x20 ADD PUSH1 0x40 MLOAD DUP1 SWAP2 SUB SWAP1 KECCAK256 PUSH1 0x0 ADD PUSH1 0x0 SWAP1 SLOAD SWAP1 PUSH2 0x100 EXP SWAP1 DIV PUSH20 0xFFFFFFFFFFFFFFFFFFFFFFFFFFFFFFFFFFFFFFFF AND PUSH20 0xFFFFFFFFFFFFFFFFFFFFFFFFFFFFFFFFFFFFFFFF AND SUB ISZERO PUSH2 0x605 JUMPI PUSH1 0x1 PUSH1 0x4 DUP3 PUSH1 0x40 MLOAD PUSH2 0x5EF SWAP2 SWAP1 PUSH2 0x310E JUMP JUMPDEST SWAP1 DUP2 MSTORE PUSH1 0x20 ADD PUSH1 0x40 MLOAD DUP1 SWAP2 SUB SWAP1 KECCAK256 PUSH1 0x2 ADD DUP2 SWAP1 SSTORE POP JUMPDEST POP JUMP JUMPDEST PUSH1 0x3 PUSH1 0x1 PUSH1 0x0 PUSH1 0x3 DUP6 PUSH1 0x40 MLOAD PUSH2 0x61E SWAP2 SWAP1 PUSH2 0x310E JUMP JUMPDEST SWAP1 DUP2 MSTORE PUSH1 0x20 ADD PUSH1 0x40 MLOAD DUP1 SWAP2 SUB SWAP1 KECCAK256 PUSH1 0x0 ADD PUSH1 0x0 SWAP1 SLOAD SWAP1 PUSH2 0x100 EXP SWAP1 DIV PUSH20 0xFFFFFFFFFFFFFFFFFFFFFFFFFFFFFFFFFFFFFFFF AND PUSH20 0xFFFFFFFFFFFFFFFFFFFFFFFFFFFFFFFFFFFFFFFF AND PUSH20 0xFFFFFFFFFFFFFFFFFFFFFFFFFFFFFFFFFFFFFFFF AND DUP2 MSTORE PUSH1 0x20 ADD SWAP1 DUP2 MSTORE PUSH1 0x20 ADD PUSH1 0x0 KECCAK256 SLOAD LT PUSH2 0xDA5 JUMPI PUSH1 0x0 PUSH20 0xFFFFFFFFFFFFFFFFFFFFFFFFFFFFFFFFFFFFFFFF AND PUSH1 0x3 DUP4 PUSH1 0x40 MLOAD PUSH2 0x6B8 SWAP2 SWAP1 PUSH2 0x310E JUMP JUMPDEST SWAP1 DUP2 MSTORE PUSH1 0x20 ADD PUSH1 0x40 MLOAD DUP1 SWAP2 SUB SWAP1 KECCAK256 PUSH1 0x0 ADD PUSH1 0x0 SWAP1 SLOAD SWAP1 PUSH2 0x100 EXP SWAP1 DIV PUSH20 0xFFFFFFFFFFFFFFFFFFFFFFFFFFFFFFFFFFFFFFFF AND PUSH20 0xFFFFFFFFFFFFFFFFFFFFFFFFFFFFFFFFFFFFFFFF AND SUB ISZERO PUSH2 0xDA5 JUMPI PUSH1 0x1 PUSH1 0x5 DUP4 PUSH1 0x40 MLOAD PUSH2 0x718 SWAP2 SWAP1 PUSH2 0x310E JUMP JUMPDEST SWAP1 DUP2 MSTORE PUSH1 0x20 ADD PUSH1 0x40 MLOAD DUP1 SWAP2 SUB SWAP1 KECCAK256 PUSH1 0x2 ADD SLOAD SUB PUSH2 0xDA5 JUMPI PUSH1 0x3 DUP3 PUSH1 0x40 MLOAD PUSH2 0x73F SWAP2 SWAP1 PUSH2 0x310E JUMP JUMPDEST SWAP1 DUP2 MSTORE PUSH1 0x20 ADD PUSH1 0x40 MLOAD DUP1 SWAP2 SUB SWAP1 KECCAK256 PUSH1 0x3 ADD PUSH1 0x0 SWAP1 SLOAD SWAP1 PUSH2 0x100 EXP SWAP1 DIV PUSH20 0xFFFFFFFFFFFFFFFFFFFFFFFFFFFFFFFFFFFFFFFF AND PUSH20 0xFFFFFFFFFFFFFFFFFFFFFFFFFFFFFFFFFFFFFFFF AND CALLER PUSH20 0xFFFFFFFFFFFFFFFFFFFFFFFFFFFFFFFFFFFFFFFF AND SUB PUSH2 0x82A JUMPI DUP1 PUSH1 0x5 DUP4 PUSH1 0x40 MLOAD PUSH2 0x7B4 SWAP2 SWAP1 PUSH2 0x310E JUMP JUMPDEST SWAP1 DUP2 MSTORE PUSH1 0x20 ADD PUSH1 0x40 MLOAD DUP1 SWAP2 SUB SWAP1 KECCAK256 PUSH1 0x4 ADD SWAP1 DUP2 PUSH2 0x7D1 SWAP2 SWAP1 PUSH2 0x2F55 JUMP JUMPDEST POP PUSH1 0x1 PUSH1 0x5 DUP4 PUSH1 0x40 MLOAD PUSH2 0x7E4 SWAP2 SWAP1 PUSH2 0x310E JUMP JUMPDEST SWAP1 DUP2 MSTORE PUSH1 0x20 ADD PUSH1 0x40 MLOAD DUP1 SWAP2 SUB SWAP1 KECCAK256 PUSH1 0x3 ADD SLOAD PUSH2 0x800 SWAP2 SWAP1 PUSH2 0x309E JUMP JUMPDEST PUSH1 0x5 DUP4 PUSH1 0x40 MLOAD PUSH2 0x810 SWAP2 SWAP1 PUSH2 0x310E JUMP JUMPDEST SWAP1 DUP2 MSTORE PUSH1 0x20 ADD PUSH1 0x40 MLOAD DUP1 SWAP2 SUB SWAP1 KECCAK256 PUSH1 0x5 ADD DUP2 SWAP1 SSTORE POP PUSH2 0xA27 JUMP JUMPDEST PUSH1 0x3 DUP3 PUSH1 0x40 MLOAD PUSH2 0x83A SWAP2 SWAP1 PUSH2 0x310E JUMP JUMPDEST SWAP1 DUP2 MSTORE PUSH1 0x20 ADD PUSH1 0x40 MLOAD DUP1 SWAP2 SUB SWAP1 KECCAK256 PUSH1 0x5 ADD PUSH1 0x0 SWAP1 SLOAD SWAP1 PUSH2 0x100 EXP SWAP1 DIV PUSH20 0xFFFFFFFFFFFFFFFFFFFFFFFFFFFFFFFFFFFFFFFF AND PUSH20 0xFFFFFFFFFFFFFFFFFFFFFFFFFFFFFFFFFFFFFFFF AND CALLER PUSH20 0xFFFFFFFFFFFFFFFFFFFFFFFFFFFFFFFFFFFFFFFF AND SUB PUSH2 0x925 JUMPI DUP1 PUSH1 0x5 DUP4 PUSH1 0x40 MLOAD PUSH2 0x8AF SWAP2 SWAP1 PUSH2 0x310E JUMP JUMPDEST SWAP1 DUP2 MSTORE PUSH1 0x20 ADD PUSH1 0x40 MLOAD DUP1 SWAP2 SUB SWAP1 KECCAK256 PUSH1 0x6 ADD SWAP1 DUP2 PUSH2 0x8CC SWAP2 SWAP1 PUSH2 0x2F55 JUMP JUMPDEST POP PUSH1 0x1 PUSH1 0x5 DUP4 PUSH1 0x40 MLOAD PUSH2 0x8DF SWAP2 SWAP1 PUSH2 0x310E JUMP JUMPDEST SWAP1 DUP2 MSTORE PUSH1 0x20 ADD PUSH1 0x40 MLOAD DUP1 SWAP2 SUB SWAP1 KECCAK256 PUSH1 0x3 ADD SLOAD PUSH2 0x8FB SWAP2 SWAP1 PUSH2 0x309E JUMP JUMPDEST PUSH1 0x5 DUP4 PUSH1 0x40 MLOAD PUSH2 0x90B SWAP2 SWAP1 PUSH2 0x310E JUMP JUMPDEST SWAP1 DUP2 MSTORE PUSH1 0x20 ADD PUSH1 0x40 MLOAD DUP1 SWAP2 SUB SWAP1 KECCAK256 PUSH1 0x7 ADD DUP2 SWAP1 SSTORE POP PUSH2 0xA26 JUMP JUMPDEST PUSH1 0x3 DUP3 PUSH1 0x40 MLOAD PUSH2 0x935 SWAP2 SWAP1 PUSH2 0x310E JUMP JUMPDEST SWAP1 DUP2 MSTORE PUSH1 0x20 ADD PUSH1 0x40 MLOAD DUP1 SWAP2 SUB SWAP1 KECCAK256 PUSH1 0x7 ADD PUSH1 0x0 SWAP1 SLOAD SWAP1 PUSH2 0x100 EXP SWAP1 DIV PUSH20 0xFFFFFFFFFFFFFFFFFFFFFFFFFFFFFFFFFFFFFFFF AND PUSH20 0xFFFFFFFFFFFFFFFFFFFFFFFFFFFFFFFFFFFFFFFF AND CALLER PUSH20 0xFFFFFFFFFFFFFFFFFFFFFFFFFFFFFFFFFFFFFFFF AND SUB PUSH2 0xA20 JUMPI DUP1 PUSH1 0x5 DUP4 PUSH1 0x40 MLOAD PUSH2 0x9AA SWAP2 SWAP1 PUSH2 0x310E JUMP JUMPDEST SWAP1 DUP2 MSTORE PUSH1 0x20 ADD PUSH1 0x40 MLOAD DUP1 SWAP2 SUB SWAP1 KECCAK256 PUSH1 0x8 ADD SWAP1 DUP2 PUSH2 0x9C7 SWAP2 SWAP1 PUSH2 0x2F55 JUMP JUMPDEST POP PUSH1 0x1 PUSH1 0x5 DUP4 PUSH1 0x40 MLOAD PUSH2 0x9DA SWAP2 SWAP1 PUSH2 0x310E JUMP JUMPDEST SWAP1 DUP2 MSTORE PUSH1 0x20 ADD PUSH1 0x40 MLOAD DUP1 SWAP2 SUB SWAP1 KECCAK256 PUSH1 0x3 ADD SLOAD PUSH2 0x9F6 SWAP2 SWAP1 PUSH2 0x309E JUMP JUMPDEST PUSH1 0x5 DUP4 PUSH1 0x40 MLOAD PUSH2 0xA06 SWAP2 SWAP1 PUSH2 0x310E JUMP JUMPDEST SWAP1 DUP2 MSTORE PUSH1 0x20 ADD PUSH1 0x40 MLOAD DUP1 SWAP2 SUB SWAP1 KECCAK256 PUSH1 0x9 ADD DUP2 SWAP1 SSTORE POP PUSH2 0xA25 JUMP JUMPDEST PUSH2 0xDA5 JUMP JUMPDEST JUMPDEST JUMPDEST PUSH1 0x0 PUSH1 0x5 DUP4 PUSH1 0x40 MLOAD PUSH2 0xA39 SWAP2 SWAP1 PUSH2 0x310E JUMP JUMPDEST SWAP1 DUP2 MSTORE PUSH1 0x20 ADD PUSH1 0x40 MLOAD DUP1 SWAP2 SUB SWAP1 KECCAK256 PUSH1 0x9 ADD SLOAD PUSH1 0x5 DUP5 PUSH1 0x40 MLOAD PUSH2 0xA5B SWAP2 SWAP1 PUSH2 0x310E JUMP JUMPDEST SWAP1 DUP2 MSTORE PUSH1 0x20 ADD PUSH1 0x40 MLOAD DUP1 SWAP2 SUB SWAP1 KECCAK256 PUSH1 0x7 ADD SLOAD PUSH1 0x5 DUP6 PUSH1 0x40 MLOAD PUSH2 0xA7D SWAP2 SWAP1 PUSH2 0x310E JUMP JUMPDEST SWAP1 DUP2 MSTORE PUSH1 0x20 ADD PUSH1 0x40 MLOAD DUP1 SWAP2 SUB SWAP1 KECCAK256 PUSH1 0x5 ADD SLOAD PUSH2 0xA99 SWAP2 SWAP1 PUSH2 0x309E JUMP JUMPDEST PUSH2 0xAA3 SWAP2 SWAP1 PUSH2 0x309E JUMP JUMPDEST SWAP1 POP PUSH1 0x2 PUSH1 0x5 DUP5 PUSH1 0x40 MLOAD PUSH2 0xAB7 SWAP2 SWAP1 PUSH2 0x310E JUMP JUMPDEST SWAP1 DUP2 MSTORE PUSH1 0x20 ADD PUSH1 0x40 MLOAD DUP1 SWAP2 SUB SWAP1 KECCAK256 PUSH1 0x3 ADD SLOAD PUSH1 0x3 PUSH2 0xAD5 SWAP2 SWAP1 PUSH2 0x3125 JUMP JUMPDEST DUP3 PUSH2 0xAE0 SWAP2 SWAP1 PUSH2 0x3167 JUMP JUMPDEST LT PUSH2 0xDA3 JUMPI PUSH1 0x2 PUSH1 0x5 DUP5 PUSH1 0x40 MLOAD PUSH2 0xAF7 SWAP2 SWAP1 PUSH2 0x310E JUMP JUMPDEST SWAP1 DUP2 MSTORE PUSH1 0x20 ADD PUSH1 0x40 MLOAD DUP1 SWAP2 SUB SWAP1 KECCAK256 PUSH1 0x2 ADD DUP2 SWAP1 SSTORE POP PUSH1 0x1 PUSH1 0x5 DUP5 PUSH1 0x40 MLOAD PUSH2 0xB1E SWAP2 SWAP1 PUSH2 0x310E JUMP JUMPDEST SWAP1 DUP2 MSTORE PUSH1 0x20 ADD PUSH1 0x40 MLOAD DUP1 SWAP2 SUB SWAP1 KECCAK256 PUSH1 0x3 ADD PUSH1 0x0 DUP3 DUP3 SLOAD PUSH2 0xB3E SWAP2 SWAP1 PUSH2 0x309E JUMP JUMPDEST SWAP3 POP POP DUP2 SWAP1 SSTORE POP PUSH1 0x3 PUSH1 0x1 PUSH1 0x0 PUSH1 0x3 DUP7 PUSH1 0x40 MLOAD PUSH2 0xB5B SWAP2 SWAP1 PUSH2 0x310E JUMP JUMPDEST SWAP1 DUP2 MSTORE PUSH1 0x20 ADD PUSH1 0x40 MLOAD DUP1 SWAP2 SUB SWAP1 KECCAK256 PUSH1 0x0 ADD PUSH1 0x0 SWAP1 SLOAD SWAP1 PUSH2 0x100 EXP SWAP1 DIV PUSH20 0xFFFFFFFFFFFFFFFFFFFFFFFFFFFFFFFFFFFFFFFF AND PUSH20 0xFFFFFFFFFFFFFFFFFFFFFFFFFFFFFFFFFFFFFFFF AND PUSH20 0xFFFFFFFFFFFFFFFFFFFFFFFFFFFFFFFFFFFFFFFF AND DUP2 MSTORE PUSH1 0x20 ADD SWAP1 DUP2 MSTORE PUSH1 0x20 ADD PUSH1 0x0 KECCAK256 PUSH1 0x0 DUP3 DUP3 SLOAD PUSH2 0xBD6 SWAP2 SWAP1 PUSH2 0x3167 JUMP JUMPDEST SWAP3 POP POP DUP2 SWAP1 SSTORE POP PUSH1 0x1 DUP1 PUSH1 0x0 PUSH1 0x3 DUP7 PUSH1 0x40 MLOAD PUSH2 0xBF2 SWAP2 SWAP1 PUSH2 0x310E JUMP JUMPDEST SWAP1 DUP2 MSTORE PUSH1 0x20 ADD PUSH1 0x40 MLOAD DUP1 SWAP2 SUB SWAP1 KECCAK256 PUSH1 0x3 ADD PUSH1 0x0 SWAP1 SLOAD SWAP1 PUSH2 0x100 EXP SWAP1 DIV PUSH20 0xFFFFFFFFFFFFFFFFFFFFFFFFFFFFFFFFFFFFFFFF AND PUSH20 0xFFFFFFFFFFFFFFFFFFFFFFFFFFFFFFFFFFFFFFFF AND PUSH20 0xFFFFFFFFFFFFFFFFFFFFFFFFFFFFFFFFFFFFFFFF AND DUP2 MSTORE PUSH1 0x20 ADD SWAP1 DUP2 MSTORE PUSH1 0x20 ADD PUSH1 0x0 KECCAK256 PUSH1 0x0 DUP3 DUP3 SLOAD PUSH2 0xC6D SWAP2 SWAP1 PUSH2 0x309E JUMP JUMPDEST SWAP3 POP POP DUP2 SWAP1 SSTORE POP PUSH1 0x1 DUP1 PUSH1 0x0 PUSH1 0x3 DUP7 PUSH1 0x40 MLOAD PUSH2 0xC89 SWAP2 SWAP1 PUSH2 0x310E JUMP JUMPDEST SWAP1 DUP2 MSTORE PUSH1 0x20 ADD PUSH1 0x40 MLOAD DUP1 SWAP2 SUB SWAP1 KECCAK256 PUSH1 0x5 ADD PUSH1 0x0 SWAP1 SLOAD SWAP1 PUSH2 0x100 EXP SWAP1 DIV PUSH20 0xFFFFFFFFFFFFFFFFFFFFFFFFFFFFFFFFFFFFFFFF AND PUSH20 0xFFFFFFFFFFFFFFFFFFFFFFFFFFFFFFFFFFFFFFFF AND PUSH20 0xFFFFFFFFFFFFFFFFFFFFFFFFFFFFFFFFFFFFFFFF AND DUP2 MSTORE PUSH1 0x20 ADD SWAP1 DUP2 MSTORE PUSH1 0x20 ADD PUSH1 0x0 KECCAK256 PUSH1 0x0 DUP3 DUP3 SLOAD PUSH2 0xD04 SWAP2 SWAP1 PUSH2 0x309E JUMP JUMPDEST SWAP3 POP POP DUP2 SWAP1 SSTORE POP PUSH1 0x1 DUP1 PUSH1 0x0 PUSH1 0x3 DUP7 PUSH1 0x40 MLOAD PUSH2 0xD20 SWAP2 SWAP1 PUSH2 0x310E JUMP JUMPDEST SWAP1 DUP2 MSTORE PUSH1 0x20 ADD PUSH1 0x40 MLOAD DUP1 SWAP2 SUB SWAP1 KECCAK256 PUSH1 0x7 ADD PUSH1 0x0 SWAP1 SLOAD SWAP1 PUSH2 0x100 EXP SWAP1 DIV PUSH20 0xFFFFFFFFFFFFFFFFFFFFFFFFFFFFFFFFFFFFFFFF AND PUSH20 0xFFFFFFFFFFFFFFFFFFFFFFFFFFFFFFFFFFFFFFFF AND PUSH20 0xFFFFFFFFFFFFFFFFFFFFFFFFFFFFFFFFFFFFFFFF AND DUP2 MSTORE PUSH1 0x20 ADD SWAP1 DUP2 MSTORE PUSH1 0x20 ADD PUSH1 0x0 KECCAK256 PUSH1 0x0 DUP3 DUP3 SLOAD PUSH2 0xD9B SWAP2 SWAP1 PUSH2 0x309E JUMP JUMPDEST SWAP3 POP POP DUP2 SWAP1 SSTORE POP JUMPDEST POP JUMPDEST POP POP JUMP JUMPDEST PUSH1 0x5 DUP2 DUP1 MLOAD PUSH1 0x20 DUP2 ADD DUP3 ADD DUP1 MLOAD DUP5 DUP3 MSTORE PUSH1 0x20 DUP4 ADD PUSH1 0x20 DUP6 ADD KECCAK256 DUP2 DUP4 MSTORE DUP1 SWAP6 POP POP POP POP POP POP PUSH1 0x0 SWAP2 POP SWAP1 POP DUP1 PUSH1 0x0 ADD PUSH1 0x0 SWAP1 SLOAD SWAP1 PUSH2 0x100 EXP SWAP1 DIV PUSH20 0xFFFFFFFFFFFFFFFFFFFFFFFFFFFFFFFFFFFFFFFF AND SWAP1 DUP1 PUSH1 0x1 ADD DUP1 SLOAD PUSH2 0xE08 SWAP1 PUSH2 0x2D78 JUMP JUMPDEST DUP1 PUSH1 0x1F ADD PUSH1 0x20 DUP1 SWAP2 DIV MUL PUSH1 0x20 ADD PUSH1 0x40 MLOAD SWAP1 DUP2 ADD PUSH1 0x40 MSTORE DUP1 SWAP3 SWAP2 SWAP1 DUP2 DUP2 MSTORE PUSH1 0x20 ADD DUP3 DUP1 SLOAD PUSH2 0xE34 SWAP1 PUSH2 0x2D78 JUMP JUMPDEST DUP1 ISZERO PUSH2 0xE81 JUMPI DUP1 PUSH1 0x1F LT PUSH2 0xE56 JUMPI PUSH2 0x100 DUP1 DUP4 SLOAD DIV MUL DUP4 MSTORE SWAP2 PUSH1 0x20 ADD SWAP2 PUSH2 0xE81 JUMP JUMPDEST DUP3 ADD SWAP2 SWAP1 PUSH1 0x0 MSTORE PUSH1 0x20 PUSH1 0x0 KECCAK256 SWAP1 JUMPDEST DUP2 SLOAD DUP2 MSTORE SWAP1 PUSH1 0x1 ADD SWAP1 PUSH1 0x20 ADD DUP1 DUP4 GT PUSH2 0xE64 JUMPI DUP3 SWAP1 SUB PUSH1 0x1F AND DUP3 ADD SWAP2 JUMPDEST POP POP POP POP POP SWAP1 DUP1 PUSH1 0x2 ADD SLOAD SWAP1 DUP1 PUSH1 0x3 ADD SLOAD SWAP1 DUP1 PUSH1 0x4 ADD DUP1 SLOAD PUSH2 0xEA2 SWAP1 PUSH2 0x2D78 JUMP JUMPDEST DUP1 PUSH1 0x1F ADD PUSH1 0x20 DUP1 SWAP2 DIV MUL PUSH1 0x20 ADD PUSH1 0x40 MLOAD SWAP1 DUP2 ADD PUSH1 0x40 MSTORE DUP1 SWAP3 SWAP2 SWAP1 DUP2 DUP2 MSTORE PUSH1 0x20 ADD DUP3 DUP1 SLOAD PUSH2 0xECE SWAP1 PUSH2 0x2D78 JUMP JUMPDEST DUP1 ISZERO PUSH2 0xF1B JUMPI DUP1 PUSH1 0x1F LT PUSH2 0xEF0 JUMPI PUSH2 0x100 DUP1 DUP4 SLOAD DIV MUL DUP4 MSTORE SWAP2 PUSH1 0x20 ADD SWAP2 PUSH2 0xF1B JUMP JUMPDEST DUP3 ADD SWAP2 SWAP1 PUSH1 0x0 MSTORE PUSH1 0x20 PUSH1 0x0 KECCAK256 SWAP1 JUMPDEST DUP2 SLOAD DUP2 MSTORE SWAP1 PUSH1 0x1 ADD SWAP1 PUSH1 0x20 ADD DUP1 DUP4 GT PUSH2 0xEFE JUMPI DUP3 SWAP1 SUB PUSH1 0x1F AND DUP3 ADD SWAP2 JUMPDEST POP POP POP POP POP SWAP1 DUP1 PUSH1 0x5 ADD SLOAD SWAP1 DUP1 PUSH1 0x6 ADD DUP1 SLOAD PUSH2 0xF36 SWAP1 PUSH2 0x2D78 JUMP JUMPDEST DUP1 PUSH1 0x1F ADD PUSH1 0x20 DUP1 SWAP2 DIV MUL PUSH1 0x20 ADD PUSH1 0x40 MLOAD SWAP1 DUP2 ADD PUSH1 0x40 MSTORE DUP1 SWAP3 SWAP2 SWAP1 DUP2 DUP2 MSTORE PUSH1 0x20 ADD DUP3 DUP1 SLOAD PUSH2 0xF62 SWAP1 PUSH2 0x2D78 JUMP JUMPDEST DUP1 ISZERO PUSH2 0xFAF JUMPI DUP1 PUSH1 0x1F LT PUSH2 0xF84 JUMPI PUSH2 0x100 DUP1 DUP4 SLOAD DIV MUL DUP4 MSTORE SWAP2 PUSH1 0x20 ADD SWAP2 PUSH2 0xFAF JUMP JUMPDEST DUP3 ADD SWAP2 SWAP1 PUSH1 0x0 MSTORE PUSH1 0x20 PUSH1 0x0 KECCAK256 SWAP1 JUMPDEST DUP2 SLOAD DUP2 MSTORE SWAP1 PUSH1 0x1 ADD SWAP1 PUSH1 0x20 ADD DUP1 DUP4 GT PUSH2 0xF92 JUMPI DUP3 SWAP1 SUB PUSH1 0x1F AND DUP3 ADD SWAP2 JUMPDEST POP POP POP POP POP SWAP1 DUP1 PUSH1 0x7 ADD SLOAD SWAP1 DUP1 PUSH1 0x8 ADD DUP1 SLOAD PUSH2 0xFCA SWAP1 PUSH2 0x2D78 JUMP JUMPDEST DUP1 PUSH1 0x1F ADD PUSH1 0x20 DUP1 SWAP2 DIV MUL PUSH1 0x20 ADD PUSH1 0x40 MLOAD SWAP1 DUP2 ADD PUSH1 0x40 MSTORE DUP1 SWAP3 SWAP2 SWAP1 DUP2 DUP2 MSTORE PUSH1 0x20 ADD DUP3 DUP1 SLOAD PUSH2 0xFF6 SWAP1 PUSH2 0x2D78 JUMP JUMPDEST DUP1 ISZERO PUSH2 0x1043 JUMPI DUP1 PUSH1 0x1F LT PUSH2 0x1018 JUMPI PUSH2 0x100 DUP1 DUP4 SLOAD DIV MUL DUP4 MSTORE SWAP2 PUSH1 0x20 ADD SWAP2 PUSH2 0x1043 JUMP JUMPDEST DUP3 ADD SWAP2 SWAP1 PUSH1 0x0 MSTORE PUSH1 0x20 PUSH1 0x0 KECCAK256 SWAP1 JUMPDEST DUP2 SLOAD DUP2 MSTORE SWAP1 PUSH1 0x1 ADD SWAP1 PUSH1 0x20 ADD DUP1 DUP4 GT PUSH2 0x1026 JUMPI DUP3 SWAP1 SUB PUSH1 0x1F AND DUP3 ADD SWAP2 JUMPDEST POP POP POP POP POP SWAP1 DUP1 PUSH1 0x9 ADD SLOAD SWAP1 POP DUP11 JUMP JUMPDEST PUSH1 0x3 PUSH1 0x1 PUSH1 0x0 PUSH1 0x3 DUP6 PUSH1 0x40 MLOAD PUSH2 0x1069 SWAP2 SWAP1 PUSH2 0x310E JUMP JUMPDEST SWAP1 DUP2 MSTORE PUSH1 0x20 ADD PUSH1 0x40 MLOAD DUP1 SWAP2 SUB SWAP1 KECCAK256 PUSH1 0x0 ADD PUSH1 0x0 SWAP1 SLOAD SWAP1 PUSH2 0x100 EXP SWAP1 DIV PUSH20 0xFFFFFFFFFFFFFFFFFFFFFFFFFFFFFFFFFFFFFFFF AND PUSH20 0xFFFFFFFFFFFFFFFFFFFFFFFFFFFFFFFFFFFFFFFF AND PUSH20 0xFFFFFFFFFFFFFFFFFFFFFFFFFFFFFFFFFFFFFFFF AND DUP2 MSTORE PUSH1 0x20 ADD SWAP1 DUP2 MSTORE PUSH1 0x20 ADD PUSH1 0x0 KECCAK256 SLOAD LT PUSH2 0x17F0 JUMPI PUSH1 0x0 PUSH20 0xFFFFFFFFFFFFFFFFFFFFFFFFFFFFFFFFFFFFFFFF AND PUSH1 0x3 DUP4 PUSH1 0x40 MLOAD PUSH2 0x1103 SWAP2 SWAP1 PUSH2 0x310E JUMP JUMPDEST SWAP1 DUP2 MSTORE PUSH1 0x20 ADD PUSH1 0x40 MLOAD DUP1 SWAP2 SUB SWAP1 KECCAK256 PUSH1 0x0 ADD PUSH1 0x0 SWAP1 SLOAD SWAP1 PUSH2 0x100 EXP SWAP1 DIV PUSH20 0xFFFFFFFFFFFFFFFFFFFFFFFFFFFFFFFFFFFFFFFF AND PUSH20 0xFFFFFFFFFFFFFFFFFFFFFFFFFFFFFFFFFFFFFFFF AND SUB ISZERO PUSH2 0x17F0 JUMPI PUSH1 0x1 PUSH1 0x4 DUP4 PUSH1 0x40 MLOAD PUSH2 0x1163 SWAP2 SWAP1 PUSH2 0x310E JUMP JUMPDEST SWAP1 DUP2 MSTORE PUSH1 0x20 ADD PUSH1 0x40 MLOAD DUP1 SWAP2 SUB SWAP1 KECCAK256 PUSH1 0x2 ADD SLOAD SUB PUSH2 0x17F0 JUMPI PUSH1 0x3 DUP3 PUSH1 0x40 MLOAD PUSH2 0x118A SWAP2 SWAP1 PUSH2 0x310E JUMP JUMPDEST SWAP1 DUP2 MSTORE PUSH1 0x20 ADD PUSH1 0x40 MLOAD DUP1 SWAP2 SUB SWAP1 KECCAK256 PUSH1 0x3 ADD PUSH1 0x0 SWAP1 SLOAD SWAP1 PUSH2 0x100 EXP SWAP1 DIV PUSH20 0xFFFFFFFFFFFFFFFFFFFFFFFFFFFFFFFFFFFFFFFF AND PUSH20 0xFFFFFFFFFFFFFFFFFFFFFFFFFFFFFFFFFFFFFFFF AND CALLER PUSH20 0xFFFFFFFFFFFFFFFFFFFFFFFFFFFFFFFFFFFFFFFF AND SUB PUSH2 0x1275 JUMPI DUP1 PUSH1 0x4 DUP4 PUSH1 0x40 MLOAD PUSH2 0x11FF SWAP2 SWAP1 PUSH2 0x310E JUMP JUMPDEST SWAP1 DUP2 MSTORE PUSH1 0x20 ADD PUSH1 0x40 MLOAD DUP1 SWAP2 SUB SWAP1 KECCAK256 PUSH1 0x4 ADD SWAP1 DUP2 PUSH2 0x121C SWAP2 SWAP1 PUSH2 0x2F55 JUMP JUMPDEST POP PUSH1 0x1 PUSH1 0x4 DUP4 PUSH1 0x40 MLOAD PUSH2 0x122F SWAP2 SWAP1 PUSH2 0x310E JUMP JUMPDEST SWAP1 DUP2 MSTORE PUSH1 0x20 ADD PUSH1 0x40 MLOAD DUP1 SWAP2 SUB SWAP1 KECCAK256 PUSH1 0x3 ADD SLOAD PUSH2 0x124B SWAP2 SWAP1 PUSH2 0x309E JUMP JUMPDEST PUSH1 0x4 DUP4 PUSH1 0x40 MLOAD PUSH2 0x125B SWAP2 SWAP1 PUSH2 0x310E JUMP JUMPDEST SWAP1 DUP2 MSTORE PUSH1 0x20 ADD PUSH1 0x40 MLOAD DUP1 SWAP2 SUB SWAP1 KECCAK256 PUSH1 0x5 ADD DUP2 SWAP1 SSTORE POP PUSH2 0x1472 JUMP JUMPDEST PUSH1 0x3 DUP3 PUSH1 0x40 MLOAD PUSH2 0x1285 SWAP2 SWAP1 PUSH2 0x310E JUMP JUMPDEST SWAP1 DUP2 MSTORE PUSH1 0x20 ADD PUSH1 0x40 MLOAD DUP1 SWAP2 SUB SWAP1 KECCAK256 PUSH1 0x5 ADD PUSH1 0x0 SWAP1 SLOAD SWAP1 PUSH2 0x100 EXP SWAP1 DIV PUSH20 0xFFFFFFFFFFFFFFFFFFFFFFFFFFFFFFFFFFFFFFFF AND PUSH20 0xFFFFFFFFFFFFFFFFFFFFFFFFFFFFFFFFFFFFFFFF AND CALLER PUSH20 0xFFFFFFFFFFFFFFFFFFFFFFFFFFFFFFFFFFFFFFFF AND SUB PUSH2 0x1370 JUMPI DUP1 PUSH1 0x4 DUP4 PUSH1 0x40 MLOAD PUSH2 0x12FA SWAP2 SWAP1 PUSH2 0x310E JUMP JUMPDEST SWAP1 DUP2 MSTORE PUSH1 0x20 ADD PUSH1 0x40 MLOAD DUP1 SWAP2 SUB SWAP1 KECCAK256 PUSH1 0x6 ADD SWAP1 DUP2 PUSH2 0x1317 SWAP2 SWAP1 PUSH2 0x2F55 JUMP JUMPDEST POP PUSH1 0x1 PUSH1 0x4 DUP4 PUSH1 0x40 MLOAD PUSH2 0x132A SWAP2 SWAP1 PUSH2 0x310E JUMP JUMPDEST SWAP1 DUP2 MSTORE PUSH1 0x20 ADD PUSH1 0x40 MLOAD DUP1 SWAP2 SUB SWAP1 KECCAK256 PUSH1 0x3 ADD SLOAD PUSH2 0x1346 SWAP2 SWAP1 PUSH2 0x309E JUMP JUMPDEST PUSH1 0x4 DUP4 PUSH1 0x40 MLOAD PUSH2 0x1356 SWAP2 SWAP1 PUSH2 0x310E JUMP JUMPDEST SWAP1 DUP2 MSTORE PUSH1 0x20 ADD PUSH1 0x40 MLOAD DUP1 SWAP2 SUB SWAP1 KECCAK256 PUSH1 0x7 ADD DUP2 SWAP1 SSTORE POP PUSH2 0x1471 JUMP JUMPDEST PUSH1 0x3 DUP3 PUSH1 0x40 MLOAD PUSH2 0x1380 SWAP2 SWAP1 PUSH2 0x310E JUMP JUMPDEST SWAP1 DUP2 MSTORE PUSH1 0x20 ADD PUSH1 0x40 MLOAD DUP1 SWAP2 SUB SWAP1 KECCAK256 PUSH1 0x7 ADD PUSH1 0x0 SWAP1 SLOAD SWAP1 PUSH2 0x100 EXP SWAP1 DIV PUSH20 0xFFFFFFFFFFFFFFFFFFFFFFFFFFFFFFFFFFFFFFFF AND PUSH20 0xFFFFFFFFFFFFFFFFFFFFFFFFFFFFFFFFFFFFFFFF AND CALLER PUSH20 0xFFFFFFFFFFFFFFFFFFFFFFFFFFFFFFFFFFFFFFFF AND SUB PUSH2 0x146B JUMPI DUP1 PUSH1 0x4 DUP4 PUSH1 0x40 MLOAD PUSH2 0x13F5 SWAP2 SWAP1 PUSH2 0x310E JUMP JUMPDEST SWAP1 DUP2 MSTORE PUSH1 0x20 ADD PUSH1 0x40 MLOAD DUP1 SWAP2 SUB SWAP1 KECCAK256 PUSH1 0x8 ADD SWAP1 DUP2 PUSH2 0x1412 SWAP2 SWAP1 PUSH2 0x2F55 JUMP JUMPDEST POP PUSH1 0x1 PUSH1 0x4 DUP4 PUSH1 0x40 MLOAD PUSH2 0x1425 SWAP2 SWAP1 PUSH2 0x310E JUMP JUMPDEST SWAP1 DUP2 MSTORE PUSH1 0x20 ADD PUSH1 0x40 MLOAD DUP1 SWAP2 SUB SWAP1 KECCAK256 PUSH1 0x3 ADD SLOAD PUSH2 0x1441 SWAP2 SWAP1 PUSH2 0x309E JUMP JUMPDEST PUSH1 0x4 DUP4 PUSH1 0x40 MLOAD PUSH2 0x1451 SWAP2 SWAP1 PUSH2 0x310E JUMP JUMPDEST SWAP1 DUP2 MSTORE PUSH1 0x20 ADD PUSH1 0x40 MLOAD DUP1 SWAP2 SUB SWAP1 KECCAK256 PUSH1 0x9 ADD DUP2 SWAP1 SSTORE POP PUSH2 0x1470 JUMP JUMPDEST PUSH2 0x17F0 JUMP JUMPDEST JUMPDEST JUMPDEST PUSH1 0x0 PUSH1 0x4 DUP4 PUSH1 0x40 MLOAD PUSH2 0x1484 SWAP2 SWAP1 PUSH2 0x310E JUMP JUMPDEST SWAP1 DUP2 MSTORE PUSH1 0x20 ADD PUSH1 0x40 MLOAD DUP1 SWAP2 SUB SWAP1 KECCAK256 PUSH1 0x9 ADD SLOAD PUSH1 0x4 DUP5 PUSH1 0x40 MLOAD PUSH2 0x14A6 SWAP2 SWAP1 PUSH2 0x310E JUMP JUMPDEST SWAP1 DUP2 MSTORE PUSH1 0x20 ADD PUSH1 0x40 MLOAD DUP1 SWAP2 SUB SWAP1 KECCAK256 PUSH1 0x7 ADD SLOAD PUSH1 0x4 DUP6 PUSH1 0x40 MLOAD PUSH2 0x14C8 SWAP2 SWAP1 PUSH2 0x310E JUMP JUMPDEST SWAP1 DUP2 MSTORE PUSH1 0x20 ADD PUSH1 0x40 MLOAD DUP1 SWAP2 SUB SWAP1 KECCAK256 PUSH1 0x5 ADD SLOAD PUSH2 0x14E4 SWAP2 SWAP1 PUSH2 0x309E JUMP JUMPDEST PUSH2 0x14EE SWAP2 SWAP1 PUSH2 0x309E JUMP JUMPDEST SWAP1 POP PUSH1 0x2 PUSH1 0x4 DUP5 PUSH1 0x40 MLOAD PUSH2 0x1502 SWAP2 SWAP1 PUSH2 0x310E JUMP JUMPDEST SWAP1 DUP2 MSTORE PUSH1 0x20 ADD PUSH1 0x40 MLOAD DUP1 SWAP2 SUB SWAP1 KECCAK256 PUSH1 0x3 ADD SLOAD PUSH1 0x3 PUSH2 0x1520 SWAP2 SWAP1 PUSH2 0x3125 JUMP JUMPDEST DUP3 PUSH2 0x152B SWAP2 SWAP1 PUSH2 0x3167 JUMP JUMPDEST LT PUSH2 0x17EE JUMPI PUSH1 0x2 PUSH1 0x4 DUP5 PUSH1 0x40 MLOAD PUSH2 0x1542 SWAP2 SWAP1 PUSH2 0x310E JUMP JUMPDEST SWAP1 DUP2 MSTORE PUSH1 0x20 ADD PUSH1 0x40 MLOAD DUP1 SWAP2 SUB SWAP1 KECCAK256 PUSH1 0x2 ADD DUP2 SWAP1 SSTORE POP PUSH1 0x1 PUSH1 0x4 DUP5 PUSH1 0x40 MLOAD PUSH2 0x1569 SWAP2 SWAP1 PUSH2 0x310E JUMP JUMPDEST SWAP1 DUP2 MSTORE PUSH1 0x20 ADD PUSH1 0x40 MLOAD DUP1 SWAP2 SUB SWAP1 KECCAK256 PUSH1 0x3 ADD PUSH1 0x0 DUP3 DUP3 SLOAD PUSH2 0x1589 SWAP2 SWAP1 PUSH2 0x309E JUMP JUMPDEST SWAP3 POP POP DUP2 SWAP1 SSTORE POP PUSH1 0x3 PUSH1 0x1 PUSH1 0x0 PUSH1 0x3 DUP7 PUSH1 0x40 MLOAD PUSH2 0x15A6 SWAP2 SWAP1 PUSH2 0x310E JUMP JUMPDEST SWAP1 DUP2 MSTORE PUSH1 0x20 ADD PUSH1 0x40 MLOAD DUP1 SWAP2 SUB SWAP1 KECCAK256 PUSH1 0x0 ADD PUSH1 0x0 SWAP1 SLOAD SWAP1 PUSH2 0x100 EXP SWAP1 DIV PUSH20 0xFFFFFFFFFFFFFFFFFFFFFFFFFFFFFFFFFFFFFFFF AND PUSH20 0xFFFFFFFFFFFFFFFFFFFFFFFFFFFFFFFFFFFFFFFF AND PUSH20 0xFFFFFFFFFFFFFFFFFFFFFFFFFFFFFFFFFFFFFFFF AND DUP2 MSTORE PUSH1 0x20 ADD SWAP1 DUP2 MSTORE PUSH1 0x20 ADD PUSH1 0x0 KECCAK256 PUSH1 0x0 DUP3 DUP3 SLOAD PUSH2 0x1621 SWAP2 SWAP1 PUSH2 0x3167 JUMP JUMPDEST SWAP3 POP POP DUP2 SWAP1 SSTORE POP PUSH1 0x1 DUP1 PUSH1 0x0 PUSH1 0x3 DUP7 PUSH1 0x40 MLOAD PUSH2 0x163D SWAP2 SWAP1 PUSH2 0x310E JUMP JUMPDEST SWAP1 DUP2 MSTORE PUSH1 0x20 ADD PUSH1 0x40 MLOAD DUP1 SWAP2 SUB SWAP1 KECCAK256 PUSH1 0x3 ADD PUSH1 0x0 SWAP1 SLOAD SWAP1 PUSH2 0x100 EXP SWAP1 DIV PUSH20 0xFFFFFFFFFFFFFFFFFFFFFFFFFFFFFFFFFFFFFFFF AND PUSH20 0xFFFFFFFFFFFFFFFFFFFFFFFFFFFFFFFFFFFFFFFF AND PUSH20 0xFFFFFFFFFFFFFFFFFFFFFFFFFFFFFFFFFFFFFFFF AND DUP2 MSTORE PUSH1 0x20 ADD SWAP1 DUP2 MSTORE PUSH1 0x20 ADD PUSH1 0x0 KECCAK256 PUSH1 0x0 DUP3 DUP3 SLOAD PUSH2 0x16B8 SWAP2 SWAP1 PUSH2 0x309E JUMP JUMPDEST SWAP3 POP POP DUP2 SWAP1 SSTORE POP PUSH1 0x1 DUP1 PUSH1 0x0 PUSH1 0x3 DUP7 PUSH1 0x40 MLOAD PUSH2 0x16D4 SWAP2 SWAP1 PUSH2 0x310E JUMP JUMPDEST SWAP1 DUP2 MSTORE PUSH1 0x20 ADD PUSH1 0x40 MLOAD DUP1 SWAP2 SUB SWAP1 KECCAK256 PUSH1 0x5 ADD PUSH1 0x0 SWAP1 SLOAD SWAP1 PUSH2 0x100 EXP SWAP1 DIV PUSH20 0xFFFFFFFFFFFFFFFFFFFFFFFFFFFFFFFFFFFFFFFF AND PUSH20 0xFFFFFFFFFFFFFFFFFFFFFFFFFFFFFFFFFFFFFFFF AND PUSH20 0xFFFFFFFFFFFFFFFFFFFFFFFFFFFFFFFFFFFFFFFF AND DUP2 MSTORE PUSH1 0x20 ADD SWAP1 DUP2 MSTORE PUSH1 0x20 ADD PUSH1 0x0 KECCAK256 PUSH1 0x0 DUP3 DUP3 SLOAD PUSH2 0x174F SWAP2 SWAP1 PUSH2 0x309E JUMP JUMPDEST SWAP3 POP POP DUP2 SWAP1 SSTORE POP PUSH1 0x1 DUP1 PUSH1 0x0 PUSH1 0x3 DUP7 PUSH1 0x40 MLOAD PUSH2 0x176B SWAP2 SWAP1 PUSH2 0x310E JUMP JUMPDEST SWAP1 DUP2 MSTORE PUSH1 0x20 ADD PUSH1 0x40 MLOAD DUP1 SWAP2 SUB SWAP1 KECCAK256 PUSH1 0x7 ADD PUSH1 0x0 SWAP1 SLOAD SWAP1 PUSH2 0x100 EXP SWAP1 DIV PUSH20 0xFFFFFFFFFFFFFFFFFFFFFFFFFFFFFFFFFFFFFFFF AND PUSH20 0xFFFFFFFFFFFFFFFFFFFFFFFFFFFFFFFFFFFFFFFF AND PUSH20 0xFFFFFFFFFFFFFFFFFFFFFFFFFFFFFFFFFFFFFFFF AND DUP2 MSTORE PUSH1 0x20 ADD SWAP1 DUP2 MSTORE PUSH1 0x20 ADD PUSH1 0x0 KECCAK256 PUSH1 0x0 DUP3 DUP3 SLOAD PUSH2 0x17E6 SWAP2 SWAP1 PUSH2 0x309E JUMP JUMPDEST SWAP3 POP POP DUP2 SWAP1 SSTORE POP JUMPDEST POP JUMPDEST POP POP JUMP JUMPDEST PUSH1 0x4 DUP2 DUP1 MLOAD PUSH1 0x20 DUP2 ADD DUP3 ADD DUP1 MLOAD DUP5 DUP3 MSTORE PUSH1 0x20 DUP4 ADD PUSH1 0x20 DUP6 ADD KECCAK256 DUP2 DUP4 MSTORE DUP1 SWAP6 POP POP POP POP POP POP PUSH1 0x0 SWAP2 POP SWAP1 POP DUP1 PUSH1 0x0 ADD PUSH1 0x0 SWAP1 SLOAD SWAP1 PUSH2 0x100 EXP SWAP1 DIV PUSH20 0xFFFFFFFFFFFFFFFFFFFFFFFFFFFFFFFFFFFFFFFF AND SWAP1 DUP1 PUSH1 0x1 ADD DUP1 SLOAD PUSH2 0x1853 SWAP1 PUSH2 0x2D78 JUMP JUMPDEST DUP1 PUSH1 0x1F ADD PUSH1 0x20 DUP1 SWAP2 DIV MUL PUSH1 0x20 ADD PUSH1 0x40 MLOAD SWAP1 DUP2 ADD PUSH1 0x40 MSTORE DUP1 SWAP3 SWAP2 SWAP1 DUP2 DUP2 MSTORE PUSH1 0x20 ADD DUP3 DUP1 SLOAD PUSH2 0x187F SWAP1 PUSH2 0x2D78 JUMP JUMPDEST DUP1 ISZERO PUSH2 0x18CC JUMPI DUP1 PUSH1 0x1F LT PUSH2 0x18A1 JUMPI PUSH2 0x100 DUP1 DUP4 SLOAD DIV MUL DUP4 MSTORE SWAP2 PUSH1 0x20 ADD SWAP2 PUSH2 0x18CC JUMP JUMPDEST DUP3 ADD SWAP2 SWAP1 PUSH1 0x0 MSTORE PUSH1 0x20 PUSH1 0x0 KECCAK256 SWAP1 JUMPDEST DUP2 SLOAD DUP2 MSTORE SWAP1 PUSH1 0x1 ADD SWAP1 PUSH1 0x20 ADD DUP1 DUP4 GT PUSH2 0x18AF JUMPI DUP3 SWAP1 SUB PUSH1 0x1F AND DUP3 ADD SWAP2 JUMPDEST POP POP POP POP POP SWAP1 DUP1 PUSH1 0x2 ADD SLOAD SWAP1 DUP1 PUSH1 0x3 ADD SLOAD SWAP1 DUP1 PUSH1 0x4 ADD DUP1 SLOAD PUSH2 0x18ED SWAP1 PUSH2 0x2D78 JUMP JUMPDEST DUP1 PUSH1 0x1F ADD PUSH1 0x20 DUP1 SWAP2 DIV MUL PUSH1 0x20 ADD PUSH1 0x40 MLOAD SWAP1 DUP2 ADD PUSH1 0x40 MSTORE DUP1 SWAP3 SWAP2 SWAP1 DUP2 DUP2 MSTORE PUSH1 0x20 ADD DUP3 DUP1 SLOAD PUSH2 0x1919 SWAP1 PUSH2 0x2D78 JUMP JUMPDEST DUP1 ISZERO PUSH2 0x1966 JUMPI DUP1 PUSH1 0x1F LT PUSH2 0x193B JUMPI PUSH2 0x100 DUP1 DUP4 SLOAD DIV MUL DUP4 MSTORE SWAP2 PUSH1 0x20 ADD SWAP2 PUSH2 0x1966 JUMP JUMPDEST DUP3 ADD SWAP2 SWAP1 PUSH1 0x0 MSTORE PUSH1 0x20 PUSH1 0x0 KECCAK256 SWAP1 JUMPDEST DUP2 SLOAD DUP2 MSTORE SWAP1 PUSH1 0x1 ADD SWAP1 PUSH1 0x20 ADD DUP1 DUP4 GT PUSH2 0x1949 JUMPI DUP3 SWAP1 SUB PUSH1 0x1F AND DUP3 ADD SWAP2 JUMPDEST POP POP POP POP POP SWAP1 DUP1 PUSH1 0x5 ADD SLOAD SWAP1 DUP1 PUSH1 0x6 ADD DUP1 SLOAD PUSH2 0x1981 SWAP1 PUSH2 0x2D78 JUMP JUMPDEST DUP1 PUSH1 0x1F ADD PUSH1 0x20 DUP1 SWAP2 DIV MUL PUSH1 0x20 ADD PUSH1 0x40 MLOAD SWAP1 DUP2 ADD PUSH1 0x40 MSTORE DUP1 SWAP3 SWAP2 SWAP1 DUP2 DUP2 MSTORE PUSH1 0x20 ADD DUP3 DUP1 SLOAD PUSH2 0x19AD SWAP1 PUSH2 0x2D78 JUMP JUMPDEST DUP1 ISZERO PUSH2 0x19FA JUMPI DUP1 PUSH1 0x1F LT PUSH2 0x19CF JUMPI PUSH2 0x100 DUP1 DUP4 SLOAD DIV MUL DUP4 MSTORE SWAP2 PUSH1 0x20 ADD SWAP2 PUSH2 0x19FA JUMP JUMPDEST DUP3 ADD SWAP2 SWAP1 PUSH1 0x0 MSTORE PUSH1 0x20 PUSH1 0x0 KECCAK256 SWAP1 JUMPDEST DUP2 SLOAD DUP2 MSTORE SWAP1 PUSH1 0x1 ADD SWAP1 PUSH1 0x20 ADD DUP1 DUP4 GT PUSH2 0x19DD JUMPI DUP3 SWAP1 SUB PUSH1 0x1F AND DUP3 ADD SWAP2 JUMPDEST POP POP POP POP POP SWAP1 DUP1 PUSH1 0x7 ADD SLOAD SWAP1 DUP1 PUSH1 0x8 ADD DUP1 SLOAD PUSH2 0x1A15 SWAP1 PUSH2 0x2D78 JUMP JUMPDEST DUP1 PUSH1 0x1F ADD PUSH1 0x20 DUP1 SWAP2 DIV MUL PUSH1 0x20 ADD PUSH1 0x40 MLOAD SWAP1 DUP2 ADD PUSH1 0x40 MSTORE DUP1 SWAP3 SWAP2 SWAP1 DUP2 DUP2 MSTORE PUSH1 0x20 ADD DUP3 DUP1 SLOAD PUSH2 0x1A41 SWAP1 PUSH2 0x2D78 JUMP JUMPDEST DUP1 ISZERO PUSH2 0x1A8E JUMPI DUP1 PUSH1 0x1F LT PUSH2 0x1A63 JUMPI PUSH2 0x100 DUP1 DUP4 SLOAD DIV MUL DUP4 MSTORE SWAP2 PUSH1 0x20 ADD SWAP2 PUSH2 0x1A8E JUMP JUMPDEST DUP3 ADD SWAP2 SWAP1 PUSH1 0x0 MSTORE PUSH1 0x20 PUSH1 0x0 KECCAK256 SWAP1 JUMPDEST DUP2 SLOAD DUP2 MSTORE SWAP1 PUSH1 0x1 ADD SWAP1 PUSH1 0x20 ADD DUP1 DUP4 GT PUSH2 0x1A71 JUMPI DUP3 SWAP1 SUB PUSH1 0x1F AND DUP3 ADD SWAP2 JUMPDEST POP POP POP POP POP SWAP1 DUP1 PUSH1 0x9 ADD SLOAD SWAP1 POP DUP11 JUMP JUMPDEST PUSH1 0x0 PUSH20 0xFFFFFFFFFFFFFFFFFFFFFFFFFFFFFFFFFFFFFFFF AND PUSH1 0x3 DUP3 PUSH1 0x40 MLOAD PUSH2 0x1AC6 SWAP2 SWAP1 PUSH2 0x310E JUMP JUMPDEST SWAP1 DUP2 MSTORE PUSH1 0x20 ADD PUSH1 0x40 MLOAD DUP1 SWAP2 SUB SWAP1 KECCAK256 PUSH1 0x0 ADD PUSH1 0x0 SWAP1 SLOAD SWAP1 PUSH2 0x100 EXP SWAP1 DIV PUSH20 0xFFFFFFFFFFFFFFFFFFFFFFFFFFFFFFFFFFFFFFFF AND PUSH20 0xFFFFFFFFFFFFFFFFFFFFFFFFFFFFFFFFFFFFFFFF AND SUB ISZERO PUSH2 0x1B3C JUMPI PUSH1 0x1 PUSH1 0x5 DUP3 PUSH1 0x40 MLOAD PUSH2 0x1B26 SWAP2 SWAP1 PUSH2 0x310E JUMP JUMPDEST SWAP1 DUP2 MSTORE PUSH1 0x20 ADD PUSH1 0x40 MLOAD DUP1 SWAP2 SUB SWAP1 KECCAK256 PUSH1 0x2 ADD DUP2 SWAP1 SSTORE POP JUMPDEST POP JUMP JUMPDEST PUSH1 0x1 PUSH1 0x0 CALLER PUSH20 0xFFFFFFFFFFFFFFFFFFFFFFFFFFFFFFFFFFFFFFFF AND PUSH20 0xFFFFFFFFFFFFFFFFFFFFFFFFFFFFFFFFFFFFFFFF AND DUP2 MSTORE PUSH1 0x20 ADD SWAP1 DUP2 MSTORE PUSH1 0x20 ADD PUSH1 0x0 KECCAK256 SLOAD DUP2 GT ISZERO PUSH2 0x1C04 JUMPI DUP1 PUSH1 0x1 PUSH1 0x0 CALLER PUSH20 0xFFFFFFFFFFFFFFFFFFFFFFFFFFFFFFFFFFFFFFFF AND PUSH20 0xFFFFFFFFFFFFFFFFFFFFFFFFFFFFFFFFFFFFFFFF AND DUP2 MSTORE PUSH1 0x20 ADD SWAP1 DUP2 MSTORE PUSH1 0x20 ADD PUSH1 0x0 KECCAK256 SLOAD PUSH1 0x40 MLOAD PUSH32 0xCF47918100000000000000000000000000000000000000000000000000000000 DUP2 MSTORE PUSH1 0x4 ADD PUSH2 0x1BFB SWAP3 SWAP2 SWAP1 PUSH2 0x319B JUMP JUMPDEST PUSH1 0x40 MLOAD DUP1 SWAP2 SUB SWAP1 REVERT JUMPDEST DUP1 PUSH1 0x1 PUSH1 0x0 CALLER PUSH20 0xFFFFFFFFFFFFFFFFFFFFFFFFFFFFFFFFFFFFFFFF AND PUSH20 0xFFFFFFFFFFFFFFFFFFFFFFFFFFFFFFFFFFFFFFFF AND DUP2 MSTORE PUSH1 0x20 ADD SWAP1 DUP2 MSTORE PUSH1 0x20 ADD PUSH1 0x0 KECCAK256 PUSH1 0x0 DUP3 DUP3 SLOAD PUSH2 0x1C53 SWAP2 SWAP1 PUSH2 0x3167 JUMP JUMPDEST SWAP3 POP POP DUP2 SWAP1 SSTORE POP DUP1 PUSH1 0x1 PUSH1 0x0 DUP5 PUSH20 0xFFFFFFFFFFFFFFFFFFFFFFFFFFFFFFFFFFFFFFFF AND PUSH20 0xFFFFFFFFFFFFFFFFFFFFFFFFFFFFFFFFFFFFFFFF AND DUP2 MSTORE PUSH1 0x20 ADD SWAP1 DUP2 MSTORE PUSH1 0x20 ADD PUSH1 0x0 KECCAK256 PUSH1 0x0 DUP3 DUP3 SLOAD PUSH2 0x1CA9 SWAP2 SWAP1 PUSH2 0x309E JUMP JUMPDEST SWAP3 POP POP DUP2 SWAP1 SSTORE POP PUSH32 0x3990DB2D31862302A685E8086B5755072A6E2B5B780AF1EE81ECE35EE3CD3345 CALLER DUP4 DUP4 PUSH1 0x40 MLOAD PUSH2 0x1CE3 SWAP4 SWAP3 SWAP2 SWAP1 PUSH2 0x31C4 JUMP JUMPDEST PUSH1 0x40 MLOAD DUP1 SWAP2 SUB SWAP1 LOG1 POP POP JUMP JUMPDEST PUSH1 0x60 PUSH1 0x2 DUP1 SLOAD DUP1 PUSH1 0x20 MUL PUSH1 0x20 ADD PUSH1 0x40 MLOAD SWAP1 DUP2 ADD PUSH1 0x40 MSTORE DUP1 SWAP3 SWAP2 SWAP1 DUP2 DUP2 MSTORE PUSH1 0x20 ADD PUSH1 0x0 SWAP1 JUMPDEST DUP3 DUP3 LT ISZERO PUSH2 0x1E2D JUMPI DUP4 DUP3 SWAP1 PUSH1 0x0 MSTORE PUSH1 0x20 PUSH1 0x0 KECCAK256 SWAP1 PUSH1 0x2 MUL ADD PUSH1 0x40 MLOAD DUP1 PUSH1 0x40 ADD PUSH1 0x40 MSTORE SWAP1 DUP2 PUSH1 0x0 DUP3 ADD PUSH1 0x0 SWAP1 SLOAD SWAP1 PUSH2 0x100 EXP SWAP1 DIV PUSH20 0xFFFFFFFFFFFFFFFFFFFFFFFFFFFFFFFFFFFFFFFF AND PUSH20 0xFFFFFFFFFFFFFFFFFFFFFFFFFFFFFFFFFFFFFFFF AND PUSH20 0xFFFFFFFFFFFFFFFFFFFFFFFFFFFFFFFFFFFFFFFF AND DUP2 MSTORE PUSH1 0x20 ADD PUSH1 0x1 DUP3 ADD DUP1 SLOAD PUSH2 0x1D9C SWAP1 PUSH2 0x2D78 JUMP JUMPDEST DUP1 PUSH1 0x1F ADD PUSH1 0x20 DUP1 SWAP2 DIV MUL PUSH1 0x20 ADD PUSH1 0x40 MLOAD SWAP1 DUP2 ADD PUSH1 0x40 MSTORE DUP1 SWAP3 SWAP2 SWAP1 DUP2 DUP2 MSTORE PUSH1 0x20 ADD DUP3 DUP1 SLOAD PUSH2 0x1DC8 SWAP1 PUSH2 0x2D78 JUMP JUMPDEST DUP1 ISZERO PUSH2 0x1E15 JUMPI DUP1 PUSH1 0x1F LT PUSH2 0x1DEA JUMPI PUSH2 0x100 DUP1 DUP4 SLOAD DIV MUL DUP4 MSTORE SWAP2 PUSH1 0x20 ADD SWAP2 PUSH2 0x1E15 JUMP JUMPDEST DUP3 ADD SWAP2 SWAP1 PUSH1 0x0 MSTORE PUSH1 0x20 PUSH1 0x0 KECCAK256 SWAP1 JUMPDEST DUP2 SLOAD DUP2 MSTORE SWAP1 PUSH1 0x1 ADD SWAP1 PUSH1 0x20 ADD DUP1 DUP4 GT PUSH2 0x1DF8 JUMPI DUP3 SWAP1 SUB PUSH1 0x1F AND DUP3 ADD SWAP2 JUMPDEST POP POP POP POP POP DUP2 MSTORE POP POP DUP2 MSTORE PUSH1 0x20 ADD SWAP1 PUSH1 0x1 ADD SWAP1 PUSH2 0x1D13 JUMP JUMPDEST POP POP POP POP SWAP1 POP SWAP1 JUMP JUMPDEST PUSH1 0x0 PUSH20 0xFFFFFFFFFFFFFFFFFFFFFFFFFFFFFFFFFFFFFFFF AND PUSH1 0x3 DUP9 PUSH1 0x40 MLOAD PUSH2 0x1E5E SWAP2 SWAP1 PUSH2 0x310E JUMP JUMPDEST SWAP1 DUP2 MSTORE PUSH1 0x20 ADD PUSH1 0x40 MLOAD DUP1 SWAP2 SUB SWAP1 KECCAK256 PUSH1 0x0 ADD PUSH1 0x0 SWAP1 SLOAD SWAP1 PUSH2 0x100 EXP SWAP1 DIV PUSH20 0xFFFFFFFFFFFFFFFFFFFFFFFFFFFFFFFFFFFFFFFF AND PUSH20 0xFFFFFFFFFFFFFFFFFFFFFFFFFFFFFFFFFFFFFFFF AND SUB PUSH2 0x1F3F JUMPI PUSH1 0x6 PUSH1 0x1 PUSH1 0x0 CALLER PUSH20 0xFFFFFFFFFFFFFFFFFFFFFFFFFFFFFFFFFFFFFFFF AND PUSH20 0xFFFFFFFFFFFFFFFFFFFFFFFFFFFFFFFFFFFFFFFF AND DUP2 MSTORE PUSH1 0x20 ADD SWAP1 DUP2 MSTORE PUSH1 0x20 ADD PUSH1 0x0 KECCAK256 SLOAD LT PUSH2 0x2447 JUMPI PUSH2 0x1F1D PUSH1 0x0 DUP1 SLOAD SWAP1 PUSH2 0x100 EXP SWAP1 DIV PUSH20 0xFFFFFFFFFFFFFFFFFFFFFFFFFFFFFFFFFFFFFFFF AND PUSH1 0x3 PUSH2 0x1B3F JUMP JUMPDEST PUSH2 0x1F28 DUP6 PUSH1 0x1 PUSH2 0x1B3F JUMP JUMPDEST PUSH2 0x1F33 DUP4 PUSH1 0x1 PUSH2 0x1B3F JUMP JUMPDEST PUSH2 0x1F3E DUP2 PUSH1 0x1 PUSH2 0x1B3F JUMP JUMPDEST JUMPDEST PUSH1 0x40 MLOAD DUP1 PUSH2 0x100 ADD PUSH1 0x40 MSTORE DUP1 CALLER PUSH20 0xFFFFFFFFFFFFFFFFFFFFFFFFFFFFFFFFFFFFFFFF AND DUP2 MSTORE PUSH1 0x20 ADD DUP9 DUP2 MSTORE PUSH1 0x20 ADD DUP8 DUP2 MSTORE PUSH1 0x20 ADD DUP7 PUSH20 0xFFFFFFFFFFFFFFFFFFFFFFFFFFFFFFFFFFFFFFFF AND DUP2 MSTORE PUSH1 0x20 ADD DUP6 DUP2 MSTORE PUSH1 0x20 ADD DUP5 PUSH20 0xFFFFFFFFFFFFFFFFFFFFFFFFFFFFFFFFFFFFFFFF AND DUP2 MSTORE PUSH1 0x20 ADD DUP4 DUP2 MSTORE PUSH1 0x20 ADD DUP3 PUSH20 0xFFFFFFFFFFFFFFFFFFFFFFFFFFFFFFFFFFFFFFFF AND DUP2 MSTORE POP PUSH1 0x3 DUP9 PUSH1 0x40 MLOAD PUSH2 0x1FE1 SWAP2 SWAP1 PUSH2 0x310E JUMP JUMPDEST SWAP1 DUP2 MSTORE PUSH1 0x20 ADD PUSH1 0x40 MLOAD DUP1 SWAP2 SUB SWAP1 KECCAK256 PUSH1 0x0 DUP3 ADD MLOAD DUP2 PUSH1 0x0 ADD PUSH1 0x0 PUSH2 0x100 EXP DUP2 SLOAD DUP2 PUSH20 0xFFFFFFFFFFFFFFFFFFFFFFFFFFFFFFFFFFFFFFFF MUL NOT AND SWAP1 DUP4 PUSH20 0xFFFFFFFFFFFFFFFFFFFFFFFFFFFFFFFFFFFFFFFF AND MUL OR SWAP1 SSTORE POP PUSH1 0x20 DUP3 ADD MLOAD DUP2 PUSH1 0x1 ADD SWAP1 DUP2 PUSH2 0x204B SWAP2 SWAP1 PUSH2 0x2F55 JUMP JUMPDEST POP PUSH1 0x40 DUP3 ADD MLOAD DUP2 PUSH1 0x2 ADD SSTORE PUSH1 0x60 DUP3 ADD MLOAD DUP2 PUSH1 0x3 ADD PUSH1 0x0 PUSH2 0x100 EXP DUP2 SLOAD DUP2 PUSH20 0xFFFFFFFFFFFFFFFFFFFFFFFFFFFFFFFFFFFFFFFF MUL NOT AND SWAP1 DUP4 PUSH20 0xFFFFFFFFFFFFFFFFFFFFFFFFFFFFFFFFFFFFFFFF AND MUL OR SWAP1 SSTORE POP PUSH1 0x80 DUP3 ADD MLOAD DUP2 PUSH1 0x4 ADD SSTORE PUSH1 0xA0 DUP3 ADD MLOAD DUP2 PUSH1 0x5 ADD PUSH1 0x0 PUSH2 0x100 EXP DUP2 SLOAD DUP2 PUSH20 0xFFFFFFFFFFFFFFFFFFFFFFFFFFFFFFFFFFFFFFFF MUL NOT AND SWAP1 DUP4 PUSH20 0xFFFFFFFFFFFFFFFFFFFFFFFFFFFFFFFFFFFFFFFF AND MUL OR SWAP1 SSTORE POP PUSH1 0xC0 DUP3 ADD MLOAD DUP2 PUSH1 0x6 ADD SSTORE PUSH1 0xE0 DUP3 ADD MLOAD DUP2 PUSH1 0x7 ADD PUSH1 0x0 PUSH2 0x100 EXP DUP2 SLOAD DUP2 PUSH20 0xFFFFFFFFFFFFFFFFFFFFFFFFFFFFFFFFFFFFFFFF MUL NOT AND SWAP1 DUP4 PUSH20 0xFFFFFFFFFFFFFFFFFFFFFFFFFFFFFFFFFFFFFFFF AND MUL OR SWAP1 SSTORE POP SWAP1 POP POP PUSH1 0x40 MLOAD DUP1 PUSH2 0x140 ADD PUSH1 0x40 MSTORE DUP1 CALLER PUSH20 0xFFFFFFFFFFFFFFFFFFFFFFFFFFFFFFFFFFFFFFFF AND DUP2 MSTORE PUSH1 0x20 ADD DUP9 DUP2 MSTORE PUSH1 0x20 ADD PUSH1 0x0 DUP2 MSTORE PUSH1 0x20 ADD PUSH1 0x0 DUP2 MSTORE PUSH1 0x20 ADD PUSH1 0x40 MLOAD DUP1 PUSH1 0x20 ADD PUSH1 0x40 MSTORE DUP1 PUSH1 0x0 DUP2 MSTORE POP DUP2 MSTORE PUSH1 0x20 ADD PUSH1 0x0 DUP2 MSTORE PUSH1 0x20 ADD PUSH1 0x40 MLOAD DUP1 PUSH1 0x20 ADD PUSH1 0x40 MSTORE DUP1 PUSH1 0x0 DUP2 MSTORE POP DUP2 MSTORE PUSH1 0x20 ADD PUSH1 0x0 DUP2 MSTORE PUSH1 0x20 ADD PUSH1 0x40 MLOAD DUP1 PUSH1 0x20 ADD PUSH1 0x40 MSTORE DUP1 PUSH1 0x0 DUP2 MSTORE POP DUP2 MSTORE PUSH1 0x20 ADD PUSH1 0x0 DUP2 MSTORE POP PUSH1 0x4 DUP9 PUSH1 0x40 MLOAD PUSH2 0x21E0 SWAP2 SWAP1 PUSH2 0x310E JUMP JUMPDEST SWAP1 DUP2 MSTORE PUSH1 0x20 ADD PUSH1 0x40 MLOAD DUP1 SWAP2 SUB SWAP1 KECCAK256 PUSH1 0x0 DUP3 ADD MLOAD DUP2 PUSH1 0x0 ADD PUSH1 0x0 PUSH2 0x100 EXP DUP2 SLOAD DUP2 PUSH20 0xFFFFFFFFFFFFFFFFFFFFFFFFFFFFFFFFFFFFFFFF MUL NOT AND SWAP1 DUP4 PUSH20 0xFFFFFFFFFFFFFFFFFFFFFFFFFFFFFFFFFFFFFFFF AND MUL OR SWAP1 SSTORE POP PUSH1 0x20 DUP3 ADD MLOAD DUP2 PUSH1 0x1 ADD SWAP1 DUP2 PUSH2 0x224A SWAP2 SWAP1 PUSH2 0x2F55 JUMP JUMPDEST POP PUSH1 0x40 DUP3 ADD MLOAD DUP2 PUSH1 0x2 ADD SSTORE PUSH1 0x60 DUP3 ADD MLOAD DUP2 PUSH1 0x3 ADD SSTORE PUSH1 0x80 DUP3 ADD MLOAD DUP2 PUSH1 0x4 ADD SWAP1 DUP2 PUSH2 0x2274 SWAP2 SWAP1 PUSH2 0x2F55 JUMP JUMPDEST POP PUSH1 0xA0 DUP3 ADD MLOAD DUP2 PUSH1 0x5 ADD SSTORE PUSH1 0xC0 DUP3 ADD MLOAD DUP2 PUSH1 0x6 ADD SWAP1 DUP2 PUSH2 0x2294 SWAP2 SWAP1 PUSH2 0x2F55 JUMP JUMPDEST POP PUSH1 0xE0 DUP3 ADD MLOAD DUP2 PUSH1 0x7 ADD SSTORE PUSH2 0x100 DUP3 ADD MLOAD DUP2 PUSH1 0x8 ADD SWAP1 DUP2 PUSH2 0x22B5 SWAP2 SWAP1 PUSH2 0x2F55 JUMP JUMPDEST POP PUSH2 0x120 DUP3 ADD MLOAD DUP2 PUSH1 0x9 ADD SSTORE SWAP1 POP POP PUSH1 0x40 MLOAD DUP1 PUSH2 0x140 ADD PUSH1 0x40 MSTORE DUP1 CALLER PUSH20 0xFFFFFFFFFFFFFFFFFFFFFFFFFFFFFFFFFFFFFFFF AND DUP2 MSTORE PUSH1 0x20 ADD DUP9 DUP2 MSTORE PUSH1 0x20 ADD PUSH1 0x0 DUP2 MSTORE PUSH1 0x20 ADD PUSH1 0x0 DUP2 MSTORE PUSH1 0x20 ADD PUSH1 0x40 MLOAD DUP1 PUSH1 0x20 ADD PUSH1 0x40 MSTORE DUP1 PUSH1 0x0 DUP2 MSTORE POP DUP2 MSTORE PUSH1 0x20 ADD PUSH1 0x0 DUP2 MSTORE PUSH1 0x20 ADD PUSH1 0x40 MLOAD DUP1 PUSH1 0x20 ADD PUSH1 0x40 MSTORE DUP1 PUSH1 0x0 DUP2 MSTORE POP DUP2 MSTORE PUSH1 0x20 ADD PUSH1 0x0 DUP2 MSTORE PUSH1 0x20 ADD PUSH1 0x40 MLOAD DUP1 PUSH1 0x20 ADD PUSH1 0x40 MSTORE DUP1 PUSH1 0x0 DUP2 MSTORE POP DUP2 MSTORE PUSH1 0x20 ADD PUSH1 0x0 DUP2 MSTORE POP PUSH1 0x5 DUP9 PUSH1 0x40 MLOAD PUSH2 0x2362 SWAP2 SWAP1 PUSH2 0x310E JUMP JUMPDEST SWAP1 DUP2 MSTORE PUSH1 0x20 ADD PUSH1 0x40 MLOAD DUP1 SWAP2 SUB SWAP1 KECCAK256 PUSH1 0x0 DUP3 ADD MLOAD DUP2 PUSH1 0x0 ADD PUSH1 0x0 PUSH2 0x100 EXP DUP2 SLOAD DUP2 PUSH20 0xFFFFFFFFFFFFFFFFFFFFFFFFFFFFFFFFFFFFFFFF MUL NOT AND SWAP1 DUP4 PUSH20 0xFFFFFFFFFFFFFFFFFFFFFFFFFFFFFFFFFFFFFFFF AND MUL OR SWAP1 SSTORE POP PUSH1 0x20 DUP3 ADD MLOAD DUP2 PUSH1 0x1 ADD SWAP1 DUP2 PUSH2 0x23CC SWAP2 SWAP1 PUSH2 0x2F55 JUMP JUMPDEST POP PUSH1 0x40 DUP3 ADD MLOAD DUP2 PUSH1 0x2 ADD SSTORE PUSH1 0x60 DUP3 ADD MLOAD DUP2 PUSH1 0x3 ADD SSTORE PUSH1 0x80 DUP3 ADD MLOAD DUP2 PUSH1 0x4 ADD SWAP1 DUP2 PUSH2 0x23F6 SWAP2 SWAP1 PUSH2 0x2F55 JUMP JUMPDEST POP PUSH1 0xA0 DUP3 ADD MLOAD DUP2 PUSH1 0x5 ADD SSTORE PUSH1 0xC0 DUP3 ADD MLOAD DUP2 PUSH1 0x6 ADD SWAP1 DUP2 PUSH2 0x2416 SWAP2 SWAP1 PUSH2 0x2F55 JUMP JUMPDEST POP PUSH1 0xE0 DUP3 ADD MLOAD DUP2 PUSH1 0x7 ADD SSTORE PUSH2 0x100 DUP3 ADD MLOAD DUP2 PUSH1 0x8 ADD SWAP1 DUP2 PUSH2 0x2437 SWAP2 SWAP1 PUSH2 0x2F55 JUMP JUMPDEST POP PUSH2 0x120 DUP3 ADD MLOAD DUP2 PUSH1 0x9 ADD SSTORE SWAP1 POP POP JUMPDEST POP POP POP POP POP POP POP JUMP JUMPDEST PUSH1 0x3 DUP2 DUP1 MLOAD PUSH1 0x20 DUP2 ADD DUP3 ADD DUP1 MLOAD DUP5 DUP3 MSTORE PUSH1 0x20 DUP4 ADD PUSH1 0x20 DUP6 ADD KECCAK256 DUP2 DUP4 MSTORE DUP1 SWAP6 POP POP POP POP POP POP PUSH1 0x0 SWAP2 POP SWAP1 POP DUP1 PUSH1 0x0 ADD PUSH1 0x0 SWAP1 SLOAD SWAP1 PUSH2 0x100 EXP SWAP1 DIV PUSH20 0xFFFFFFFFFFFFFFFFFFFFFFFFFFFFFFFFFFFFFFFF AND SWAP1 DUP1 PUSH1 0x1 ADD DUP1 SLOAD PUSH2 0x24AF SWAP1 PUSH2 0x2D78 JUMP JUMPDEST DUP1 PUSH1 0x1F ADD PUSH1 0x20 DUP1 SWAP2 DIV MUL PUSH1 0x20 ADD PUSH1 0x40 MLOAD SWAP1 DUP2 ADD PUSH1 0x40 MSTORE DUP1 SWAP3 SWAP2 SWAP1 DUP2 DUP2 MSTORE PUSH1 0x20 ADD DUP3 DUP1 SLOAD PUSH2 0x24DB SWAP1 PUSH2 0x2D78 JUMP JUMPDEST DUP1 ISZERO PUSH2 0x2528 JUMPI DUP1 PUSH1 0x1F LT PUSH2 0x24FD JUMPI PUSH2 0x100 DUP1 DUP4 SLOAD DIV MUL DUP4 MSTORE SWAP2 PUSH1 0x20 ADD SWAP2 PUSH2 0x2528 JUMP JUMPDEST DUP3 ADD SWAP2 SWAP1 PUSH1 0x0 MSTORE PUSH1 0x20 PUSH1 0x0 KECCAK256 SWAP1 JUMPDEST DUP2 SLOAD DUP2 MSTORE SWAP1 PUSH1 0x1 ADD SWAP1 PUSH1 0x20 ADD DUP1 DUP4 GT PUSH2 0x250B JUMPI DUP3 SWAP1 SUB PUSH1 0x1F AND DUP3 ADD SWAP2 JUMPDEST POP POP POP POP POP SWAP1 DUP1 PUSH1 0x2 ADD SLOAD SWAP1 DUP1 PUSH1 0x3 ADD PUSH1 0x0 SWAP1 SLOAD SWAP1 PUSH2 0x100 EXP SWAP1 DIV PUSH20 0xFFFFFFFFFFFFFFFFFFFFFFFFFFFFFFFFFFFFFFFF AND SWAP1 DUP1 PUSH1 0x4 ADD SLOAD SWAP1 DUP1 PUSH1 0x5 ADD PUSH1 0x0 SWAP1 SLOAD SWAP1 PUSH2 0x100 EXP SWAP1 DIV PUSH20 0xFFFFFFFFFFFFFFFFFFFFFFFFFFFFFFFFFFFFFFFF AND SWAP1 DUP1 PUSH1 0x6 ADD SLOAD SWAP1 DUP1 PUSH1 0x7 ADD PUSH1 0x0 SWAP1 SLOAD SWAP1 PUSH2 0x100 EXP SWAP1 DIV PUSH20 0xFFFFFFFFFFFFFFFFFFFFFFFFFFFFFFFFFFFFFFFF AND SWAP1 POP DUP9 JUMP JUMPDEST PUSH1 0x0 PUSH20 0xFFFFFFFFFFFFFFFFFFFFFFFFFFFFFFFFFFFFFFFF DUP3 AND SWAP1 POP SWAP2 SWAP1 POP JUMP JUMPDEST PUSH1 0x0 PUSH2 0x25E1 DUP3 PUSH2 0x25B6 JUMP JUMPDEST SWAP1 POP SWAP2 SWAP1 POP JUMP JUMPDEST PUSH2 0x25F1 DUP2 PUSH2 0x25D6 JUMP JUMPDEST DUP3 MSTORE POP POP JUMP JUMPDEST PUSH1 0x0 PUSH1 0x20 DUP3 ADD SWAP1 POP PUSH2 0x260C PUSH1 0x0 DUP4 ADD DUP5 PUSH2 0x25E8 JUMP JUMPDEST SWAP3 SWAP2 POP POP JUMP JUMPDEST PUSH1 0x0 PUSH1 0x40 MLOAD SWAP1 POP SWAP1 JUMP JUMPDEST PUSH1 0x0 DUP1 REVERT JUMPDEST PUSH1 0x0 DUP1 REVERT JUMPDEST PUSH1 0x0 DUP1 REVERT JUMPDEST PUSH1 0x0 DUP1 REVERT JUMPDEST PUSH1 0x0 PUSH1 0x1F NOT PUSH1 0x1F DUP4 ADD AND SWAP1 POP SWAP2 SWAP1 POP JUMP JUMPDEST PUSH32 0x4E487B7100000000000000000000000000000000000000000000000000000000 PUSH1 0x0 MSTORE PUSH1 0x41 PUSH1 0x4 MSTORE PUSH1 0x24 PUSH1 0x0 REVERT JUMPDEST PUSH2 0x2679 DUP3 PUSH2 0x2630 JUMP JUMPDEST DUP2 ADD DUP2 DUP2 LT PUSH8 0xFFFFFFFFFFFFFFFF DUP3 GT OR ISZERO PUSH2 0x2698 JUMPI PUSH2 0x2697 PUSH2 0x2641 JUMP JUMPDEST JUMPDEST DUP1 PUSH1 0x40 MSTORE POP POP POP JUMP JUMPDEST PUSH1 0x0 PUSH2 0x26AB PUSH2 0x2612 JUMP JUMPDEST SWAP1 POP PUSH2 0x26B7 DUP3 DUP3 PUSH2 0x2670 JUMP JUMPDEST SWAP2 SWAP1 POP JUMP JUMPDEST PUSH1 0x0 PUSH8 0xFFFFFFFFFFFFFFFF DUP3 GT ISZERO PUSH2 0x26D7 JUMPI PUSH2 0x26D6 PUSH2 0x2641 JUMP JUMPDEST JUMPDEST PUSH2 0x26E0 DUP3 PUSH2 0x2630 JUMP JUMPDEST SWAP1 POP PUSH1 0x20 DUP2 ADD SWAP1 POP SWAP2 SWAP1 POP JUMP JUMPDEST DUP3 DUP2 DUP4 CALLDATACOPY PUSH1 0x0 DUP4 DUP4 ADD MSTORE POP POP POP JUMP JUMPDEST PUSH1 0x0 PUSH2 0x270F PUSH2 0x270A DUP5 PUSH2 0x26BC JUMP JUMPDEST PUSH2 0x26A1 JUMP JUMPDEST SWAP1 POP DUP3 DUP2 MSTORE PUSH1 0x20 DUP2 ADD DUP5 DUP5 DUP5 ADD GT ISZERO PUSH2 0x272B JUMPI PUSH2 0x272A PUSH2 0x262B JUMP JUMPDEST JUMPDEST PUSH2 0x2736 DUP5 DUP3 DUP6 PUSH2 0x26ED JUMP JUMPDEST POP SWAP4 SWAP3 POP POP POP JUMP JUMPDEST PUSH1 0x0 DUP3 PUSH1 0x1F DUP4 ADD SLT PUSH2 0x2753 JUMPI PUSH2 0x2752 PUSH2 0x2626 JUMP JUMPDEST JUMPDEST DUP2 CALLDATALOAD PUSH2 0x2763 DUP5 DUP3 PUSH1 0x20 DUP7 ADD PUSH2 0x26FC JUMP JUMPDEST SWAP2 POP POP SWAP3 SWAP2 POP POP JUMP JUMPDEST PUSH1 0x0 PUSH1 0x20 DUP3 DUP5 SUB SLT ISZERO PUSH2 0x2782 JUMPI PUSH2 0x2781 PUSH2 0x261C JUMP JUMPDEST JUMPDEST PUSH1 0x0 DUP3 ADD CALLDATALOAD PUSH8 0xFFFFFFFFFFFFFFFF DUP2 GT ISZERO PUSH2 0x27A0 JUMPI PUSH2 0x279F PUSH2 0x2621 JUMP JUMPDEST JUMPDEST PUSH2 0x27AC DUP5 DUP3 DUP6 ADD PUSH2 0x273E JUMP JUMPDEST SWAP2 POP POP SWAP3 SWAP2 POP POP JUMP JUMPDEST PUSH2 0x27BE DUP2 PUSH2 0x25D6 JUMP JUMPDEST DUP2 EQ PUSH2 0x27C9 JUMPI PUSH1 0x0 DUP1 REVERT JUMPDEST POP JUMP JUMPDEST PUSH1 0x0 DUP2 CALLDATALOAD SWAP1 POP PUSH2 0x27DB DUP2 PUSH2 0x27B5 JUMP JUMPDEST SWAP3 SWAP2 POP POP JUMP JUMPDEST PUSH1 0x0 PUSH1 0x20 DUP3 DUP5 SUB SLT ISZERO PUSH2 0x27F7 JUMPI PUSH2 0x27F6 PUSH2 0x261C JUMP JUMPDEST JUMPDEST PUSH1 0x0 PUSH2 0x2805 DUP5 DUP3 DUP6 ADD PUSH2 0x27CC JUMP JUMPDEST SWAP2 POP POP SWAP3 SWAP2 POP POP JUMP JUMPDEST PUSH1 0x0 DUP2 SWAP1 POP SWAP2 SWAP1 POP JUMP JUMPDEST PUSH2 0x2821 DUP2 PUSH2 0x280E JUMP JUMPDEST DUP3 MSTORE POP POP JUMP JUMPDEST PUSH1 0x0 PUSH1 0x20 DUP3 ADD SWAP1 POP PUSH2 0x283C PUSH1 0x0 DUP4 ADD DUP5 PUSH2 0x2818 JUMP JUMPDEST SWAP3 SWAP2 POP POP JUMP JUMPDEST PUSH2 0x284B DUP2 PUSH2 0x280E JUMP JUMPDEST DUP2 EQ PUSH2 0x2856 JUMPI PUSH1 0x0 DUP1 REVERT JUMPDEST POP JUMP JUMPDEST PUSH1 0x0 DUP2 CALLDATALOAD SWAP1 POP PUSH2 0x2868 DUP2 PUSH2 0x2842 JUMP JUMPDEST SWAP3 SWAP2 POP POP JUMP JUMPDEST PUSH1 0x0 DUP1 PUSH1 0x40 DUP4 DUP6 SUB SLT ISZERO PUSH2 0x2885 JUMPI PUSH2 0x2884 PUSH2 0x261C JUMP JUMPDEST JUMPDEST PUSH1 0x0 PUSH2 0x2893 DUP6 DUP3 DUP7 ADD PUSH2 0x27CC JUMP JUMPDEST SWAP3 POP POP PUSH1 0x20 PUSH2 0x28A4 DUP6 DUP3 DUP7 ADD PUSH2 0x2859 JUMP JUMPDEST SWAP2 POP POP SWAP3 POP SWAP3 SWAP1 POP JUMP JUMPDEST PUSH1 0x0 DUP1 PUSH1 0x40 DUP4 DUP6 SUB SLT ISZERO PUSH2 0x28C5 JUMPI PUSH2 0x28C4 PUSH2 0x261C JUMP JUMPDEST JUMPDEST PUSH1 0x0 DUP4 ADD CALLDATALOAD PUSH8 0xFFFFFFFFFFFFFFFF DUP2 GT ISZERO PUSH2 0x28E3 JUMPI PUSH2 0x28E2 PUSH2 0x2621 JUMP JUMPDEST JUMPDEST PUSH2 0x28EF DUP6 DUP3 DUP7 ADD PUSH2 0x273E JUMP JUMPDEST SWAP3 POP POP PUSH1 0x20 DUP4 ADD CALLDATALOAD PUSH8 0xFFFFFFFFFFFFFFFF DUP2 GT ISZERO PUSH2 0x2910 JUMPI PUSH2 0x290F PUSH2 0x2621 JUMP JUMPDEST JUMPDEST PUSH2 0x291C DUP6 DUP3 DUP7 ADD PUSH2 0x273E JUMP JUMPDEST SWAP2 POP POP SWAP3 POP SWAP3 SWAP1 POP JUMP JUMPDEST PUSH1 0x0 DUP2 MLOAD SWAP1 POP SWAP2 SWAP1 POP JUMP JUMPDEST PUSH1 0x0 DUP3 DUP3 MSTORE PUSH1 0x20 DUP3 ADD SWAP1 POP SWAP3 SWAP2 POP POP JUMP JUMPDEST PUSH1 0x0 JUMPDEST DUP4 DUP2 LT ISZERO PUSH2 0x2960 JUMPI DUP1 DUP3 ADD MLOAD DUP2 DUP5 ADD MSTORE PUSH1 0x20 DUP2 ADD SWAP1 POP PUSH2 0x2945 JUMP JUMPDEST PUSH1 0x0 DUP5 DUP5 ADD MSTORE POP POP POP POP JUMP JUMPDEST PUSH1 0x0 PUSH2 0x2977 DUP3 PUSH2 0x2926 JUMP JUMPDEST PUSH2 0x2981 DUP2 DUP6 PUSH2 0x2931 JUMP JUMPDEST SWAP4 POP PUSH2 0x2991 DUP2 DUP6 PUSH1 0x20 DUP7 ADD PUSH2 0x2942 JUMP JUMPDEST PUSH2 0x299A DUP2 PUSH2 0x2630 JUMP JUMPDEST DUP5 ADD SWAP2 POP POP SWAP3 SWAP2 POP POP JUMP JUMPDEST PUSH1 0x0 PUSH2 0x140 DUP3 ADD SWAP1 POP PUSH2 0x29BB PUSH1 0x0 DUP4 ADD DUP14 PUSH2 0x25E8 JUMP JUMPDEST DUP2 DUP2 SUB PUSH1 0x20 DUP4 ADD MSTORE PUSH2 0x29CD DUP2 DUP13 PUSH2 0x296C JUMP JUMPDEST SWAP1 POP PUSH2 0x29DC PUSH1 0x40 DUP4 ADD DUP12 PUSH2 0x2818 JUMP JUMPDEST PUSH2 0x29E9 PUSH1 0x60 DUP4 ADD DUP11 PUSH2 0x2818 JUMP JUMPDEST DUP2 DUP2 SUB PUSH1 0x80 DUP4 ADD MSTORE PUSH2 0x29FB DUP2 DUP10 PUSH2 0x296C JUMP JUMPDEST SWAP1 POP PUSH2 0x2A0A PUSH1 0xA0 DUP4 ADD DUP9 PUSH2 0x2818 JUMP JUMPDEST DUP2 DUP2 SUB PUSH1 0xC0 DUP4 ADD MSTORE PUSH2 0x2A1C DUP2 DUP8 PUSH2 0x296C JUMP JUMPDEST SWAP1 POP PUSH2 0x2A2B PUSH1 0xE0 DUP4 ADD DUP7 PUSH2 0x2818 JUMP JUMPDEST DUP2 DUP2 SUB PUSH2 0x100 DUP4 ADD MSTORE PUSH2 0x2A3E DUP2 DUP6 PUSH2 0x296C JUMP JUMPDEST SWAP1 POP PUSH2 0x2A4E PUSH2 0x120 DUP4 ADD DUP5 PUSH2 0x2818 JUMP JUMPDEST SWAP12 SWAP11 POP POP POP POP POP POP POP POP POP POP POP JUMP JUMPDEST PUSH1 0x0 DUP2 MLOAD SWAP1 POP SWAP2 SWAP1 POP JUMP JUMPDEST PUSH1 0x0 DUP3 DUP3 MSTORE PUSH1 0x20 DUP3 ADD SWAP1 POP SWAP3 SWAP2 POP POP JUMP JUMPDEST PUSH1 0x0 DUP2 SWAP1 POP PUSH1 0x20 DUP3 ADD SWAP1 POP SWAP2 SWAP1 POP JUMP JUMPDEST PUSH2 0x2A92 DUP2 PUSH2 0x25D6 JUMP JUMPDEST DUP3 MSTORE POP POP JUMP JUMPDEST PUSH1 0x0 DUP3 DUP3 MSTORE PUSH1 0x20 DUP3 ADD SWAP1 POP SWAP3 SWAP2 POP POP JUMP JUMPDEST PUSH1 0x0 PUSH2 0x2AB4 DUP3 PUSH2 0x2926 JUMP JUMPDEST PUSH2 0x2ABE DUP2 DUP6 PUSH2 0x2A98 JUMP JUMPDEST SWAP4 POP PUSH2 0x2ACE DUP2 DUP6 PUSH1 0x20 DUP7 ADD PUSH2 0x2942 JUMP JUMPDEST PUSH2 0x2AD7 DUP2 PUSH2 0x2630 JUMP JUMPDEST DUP5 ADD SWAP2 POP POP SWAP3 SWAP2 POP POP JUMP JUMPDEST PUSH1 0x0 PUSH1 0x40 DUP4 ADD PUSH1 0x0 DUP4 ADD MLOAD PUSH2 0x2AFA PUSH1 0x0 DUP7 ADD DUP3 PUSH2 0x2A89 JUMP JUMPDEST POP PUSH1 0x20 DUP4 ADD MLOAD DUP5 DUP3 SUB PUSH1 0x20 DUP7 ADD MSTORE PUSH2 0x2B12 DUP3 DUP3 PUSH2 0x2AA9 JUMP JUMPDEST SWAP2 POP POP DUP1 SWAP2 POP POP SWAP3 SWAP2 POP POP JUMP JUMPDEST PUSH1 0x0 PUSH2 0x2B2B DUP4 DUP4 PUSH2 0x2AE2 JUMP JUMPDEST SWAP1 POP SWAP3 SWAP2 POP POP JUMP JUMPDEST PUSH1 0x0 PUSH1 0x20 DUP3 ADD SWAP1 POP SWAP2 SWAP1 POP JUMP JUMPDEST PUSH1 0x0 PUSH2 0x2B4B DUP3 PUSH2 0x2A5D JUMP JUMPDEST PUSH2 0x2B55 DUP2 DUP6 PUSH2 0x2A68 JUMP JUMPDEST SWAP4 POP DUP4 PUSH1 0x20 DUP3 MUL DUP6 ADD PUSH2 0x2B67 DUP6 PUSH2 0x2A79 JUMP JUMPDEST DUP1 PUSH1 0x0 JUMPDEST DUP6 DUP2 LT ISZERO PUSH2 0x2BA3 JUMPI DUP5 DUP5 SUB DUP10 MSTORE DUP2 MLOAD PUSH2 0x2B84 DUP6 DUP3 PUSH2 0x2B1F JUMP JUMPDEST SWAP5 POP PUSH2 0x2B8F DUP4 PUSH2 0x2B33 JUMP JUMPDEST SWAP3 POP PUSH1 0x20 DUP11 ADD SWAP10 POP POP PUSH1 0x1 DUP2 ADD SWAP1 POP PUSH2 0x2B6B JUMP JUMPDEST POP DUP3 SWAP8 POP DUP8 SWAP6 POP POP POP POP POP POP SWAP3 SWAP2 POP POP JUMP JUMPDEST PUSH1 0x0 PUSH1 0x20 DUP3 ADD SWAP1 POP DUP2 DUP2 SUB PUSH1 0x0 DUP4 ADD MSTORE PUSH2 0x2BCF DUP2 DUP5 PUSH2 0x2B40 JUMP JUMPDEST SWAP1 POP SWAP3 SWAP2 POP POP JUMP JUMPDEST PUSH1 0x0 DUP1 PUSH1 0x0 DUP1 PUSH1 0x0 DUP1 PUSH1 0x0 PUSH1 0xE0 DUP9 DUP11 SUB SLT ISZERO PUSH2 0x2BF6 JUMPI PUSH2 0x2BF5 PUSH2 0x261C JUMP JUMPDEST JUMPDEST PUSH1 0x0 DUP9 ADD CALLDATALOAD PUSH8 0xFFFFFFFFFFFFFFFF DUP2 GT ISZERO PUSH2 0x2C14 JUMPI PUSH2 0x2C13 PUSH2 0x2621 JUMP JUMPDEST JUMPDEST PUSH2 0x2C20 DUP11 DUP3 DUP12 ADD PUSH2 0x273E JUMP JUMPDEST SWAP8 POP POP PUSH1 0x20 PUSH2 0x2C31 DUP11 DUP3 DUP12 ADD PUSH2 0x2859 JUMP JUMPDEST SWAP7 POP POP PUSH1 0x40 PUSH2 0x2C42 DUP11 DUP3 DUP12 ADD PUSH2 0x27CC JUMP JUMPDEST SWAP6 POP POP PUSH1 0x60 PUSH2 0x2C53 DUP11 DUP3 DUP12 ADD PUSH2 0x2859 JUMP JUMPDEST SWAP5 POP POP PUSH1 0x80 PUSH2 0x2C64 DUP11 DUP3 DUP12 ADD PUSH2 0x27CC JUMP JUMPDEST SWAP4 POP POP PUSH1 0xA0 PUSH2 0x2C75 DUP11 DUP3 DUP12 ADD PUSH2 0x2859 JUMP JUMPDEST SWAP3 POP POP PUSH1 0xC0 PUSH2 0x2C86 DUP11 DUP3 DUP12 ADD PUSH2 0x27CC JUMP JUMPDEST SWAP2 POP POP SWAP3 SWAP6 SWAP9 SWAP2 SWAP5 SWAP8 POP SWAP3 SWAP6 POP JUMP JUMPDEST PUSH1 0x0 PUSH2 0x100 DUP3 ADD SWAP1 POP PUSH2 0x2CAB PUSH1 0x0 DUP4 ADD DUP12 PUSH2 0x25E8 JUMP JUMPDEST DUP2 DUP2 SUB PUSH1 0x20 DUP4 ADD MSTORE PUSH2 0x2CBD DUP2 DUP11 PUSH2 0x296C JUMP JUMPDEST SWAP1 POP PUSH2 0x2CCC PUSH1 0x40 DUP4 ADD DUP10 PUSH2 0x2818 JUMP JUMPDEST PUSH2 0x2CD9 PUSH1 0x60 DUP4 ADD DUP9 PUSH2 0x25E8 JUMP JUMPDEST PUSH2 0x2CE6 PUSH1 0x80 DUP4 ADD DUP8 PUSH2 0x2818 JUMP JUMPDEST PUSH2 0x2CF3 PUSH1 0xA0 DUP4 ADD DUP7 PUSH2 0x25E8 JUMP JUMPDEST PUSH2 0x2D00 PUSH1 0xC0 DUP4 ADD DUP6 PUSH2 0x2818 JUMP JUMPDEST PUSH2 0x2D0D PUSH1 0xE0 DUP4 ADD DUP5 PUSH2 0x25E8 JUMP JUMPDEST SWAP10 SWAP9 POP POP POP POP POP POP POP POP POP JUMP JUMPDEST PUSH32 0x4E487B7100000000000000000000000000000000000000000000000000000000 PUSH1 0x0 MSTORE PUSH1 0x32 PUSH1 0x4 MSTORE PUSH1 0x24 PUSH1 0x0 REVERT JUMPDEST PUSH32 0x4E487B7100000000000000000000000000000000000000000000000000000000 PUSH1 0x0 MSTORE PUSH1 0x22 PUSH1 0x4 MSTORE PUSH1 0x24 PUSH1 0x0 REVERT JUMPDEST PUSH1 0x0 PUSH1 0x2 DUP3 DIV SWAP1 POP PUSH1 0x1 DUP3 AND DUP1 PUSH2 0x2D90 JUMPI PUSH1 0x7F DUP3 AND SWAP2 POP JUMPDEST PUSH1 0x20 DUP3 LT DUP2 SUB PUSH2 0x2DA3 JUMPI PUSH2 0x2DA2 PUSH2 0x2D49 JUMP JUMPDEST JUMPDEST POP SWAP2 SWAP1 POP JUMP JUMPDEST PUSH1 0x0 DUP2 SWAP1 POP DUP2 PUSH1 0x0 MSTORE PUSH1 0x20 PUSH1 0x0 KECCAK256 SWAP1 POP SWAP2 SWAP1 POP JUMP JUMPDEST PUSH1 0x0 PUSH1 0x20 PUSH1 0x1F DUP4 ADD DIV SWAP1 POP SWAP2 SWAP1 POP JUMP JUMPDEST PUSH1 0x0 DUP3 DUP3 SHL SWAP1 POP SWAP3 SWAP2 POP POP JUMP JUMPDEST PUSH1 0x0 PUSH1 0x8 DUP4 MUL PUSH2 0x2E0B PUSH32 0xFFFFFFFFFFFFFFFFFFFFFFFFFFFFFFFFFFFFFFFFFFFFFFFFFFFFFFFFFFFFFFFF DUP3 PUSH2 0x2DCE JUMP JUMPDEST PUSH2 0x2E15 DUP7 DUP4 PUSH2 0x2DCE JUMP JUMPDEST SWAP6 POP DUP1 NOT DUP5 AND SWAP4 POP DUP1 DUP7 AND DUP5 OR SWAP3 POP POP POP SWAP4 SWAP3 POP POP POP JUMP JUMPDEST PUSH1 0x0 DUP2 SWAP1 POP SWAP2 SWAP1 POP JUMP JUMPDEST PUSH1 0x0 PUSH2 0x2E52 PUSH2 0x2E4D PUSH2 0x2E48 DUP5 PUSH2 0x280E JUMP JUMPDEST PUSH2 0x2E2D JUMP JUMPDEST PUSH2 0x280E JUMP JUMPDEST SWAP1 POP SWAP2 SWAP1 POP JUMP JUMPDEST PUSH1 0x0 DUP2 SWAP1 POP SWAP2 SWAP1 POP JUMP JUMPDEST PUSH2 0x2E6C DUP4 PUSH2 0x2E37 JUMP JUMPDEST PUSH2 0x2E80 PUSH2 0x2E78 DUP3 PUSH2 0x2E59 JUMP JUMPDEST DUP5 DUP5 SLOAD PUSH2 0x2DDB JUMP JUMPDEST DUP3 SSTORE POP POP POP POP JUMP JUMPDEST PUSH1 0x0 SWAP1 JUMP JUMPDEST PUSH2 0x2E95 PUSH2 0x2E88 JUMP JUMPDEST PUSH2 0x2EA0 DUP2 DUP5 DUP5 PUSH2 0x2E63 JUMP JUMPDEST POP POP POP JUMP JUMPDEST JUMPDEST DUP2 DUP2 LT ISZERO PUSH2 0x2EC4 JUMPI PUSH2 0x2EB9 PUSH1 0x0 DUP3 PUSH2 0x2E8D JUMP JUMPDEST PUSH1 0x1 DUP2 ADD SWAP1 POP PUSH2 0x2EA6 JUMP JUMPDEST POP POP JUMP JUMPDEST PUSH1 0x1F DUP3 GT ISZERO PUSH2 0x2F09 JUMPI PUSH2 0x2EDA DUP2 PUSH2 0x2DA9 JUMP JUMPDEST PUSH2 0x2EE3 DUP5 PUSH2 0x2DBE JUMP JUMPDEST DUP2 ADD PUSH1 0x20 DUP6 LT ISZERO PUSH2 0x2EF2 JUMPI DUP2 SWAP1 POP JUMPDEST PUSH2 0x2F06 PUSH2 0x2EFE DUP6 PUSH2 0x2DBE JUMP JUMPDEST DUP4 ADD DUP3 PUSH2 0x2EA5 JUMP JUMPDEST POP POP JUMPDEST POP POP POP JUMP JUMPDEST PUSH1 0x0 DUP3 DUP3 SHR SWAP1 POP SWAP3 SWAP2 POP POP JUMP JUMPDEST PUSH1 0x0 PUSH2 0x2F2C PUSH1 0x0 NOT DUP5 PUSH1 0x8 MUL PUSH2 0x2F0E JUMP JUMPDEST NOT DUP1 DUP4 AND SWAP2 POP POP SWAP3 SWAP2 POP POP JUMP JUMPDEST PUSH1 0x0 PUSH2 0x2F45 DUP4 DUP4 PUSH2 0x2F1B JUMP JUMPDEST SWAP2 POP DUP3 PUSH1 0x2 MUL DUP3 OR SWAP1 POP SWAP3 SWAP2 POP POP JUMP JUMPDEST PUSH2 0x2F5E DUP3 PUSH2 0x2926 JUMP JUMPDEST PUSH8 0xFFFFFFFFFFFFFFFF DUP2 GT ISZERO PUSH2 0x2F77 JUMPI PUSH2 0x2F76 PUSH2 0x2641 JUMP JUMPDEST JUMPDEST PUSH2 0x2F81 DUP3 SLOAD PUSH2 0x2D78 JUMP JUMPDEST PUSH2 0x2F8C DUP3 DUP3 DUP6 PUSH2 0x2EC8 JUMP JUMPDEST PUSH1 0x0 PUSH1 0x20 SWAP1 POP PUSH1 0x1F DUP4 GT PUSH1 0x1 DUP2 EQ PUSH2 0x2FBF JUMPI PUSH1 0x0 DUP5 ISZERO PUSH2 0x2FAD JUMPI DUP3 DUP8 ADD MLOAD SWAP1 POP JUMPDEST PUSH2 0x2FB7 DUP6 DUP3 PUSH2 0x2F39 JUMP JUMPDEST DUP7 SSTORE POP PUSH2 0x301F JUMP JUMPDEST PUSH1 0x1F NOT DUP5 AND PUSH2 0x2FCD DUP7 PUSH2 0x2DA9 JUMP JUMPDEST PUSH1 0x0 JUMPDEST DUP3 DUP2 LT ISZERO PUSH2 0x2FF5 JUMPI DUP5 DUP10 ADD MLOAD DUP3 SSTORE PUSH1 0x1 DUP3 ADD SWAP2 POP PUSH1 0x20 DUP6 ADD SWAP5 POP PUSH1 0x20 DUP2 ADD SWAP1 POP PUSH2 0x2FD0 JUMP JUMPDEST DUP7 DUP4 LT ISZERO PUSH2 0x3012 JUMPI DUP5 DUP10 ADD MLOAD PUSH2 0x300E PUSH1 0x1F DUP10 AND DUP3 PUSH2 0x2F1B JUMP JUMPDEST DUP4 SSTORE POP JUMPDEST PUSH1 0x1 PUSH1 0x2 DUP9 MUL ADD DUP9 SSTORE POP POP POP JUMPDEST POP POP POP POP POP POP JUMP JUMPDEST PUSH32 0x4E487B7100000000000000000000000000000000000000000000000000000000 PUSH1 0x0 MSTORE PUSH1 0x11 PUSH1 0x4 MSTORE PUSH1 0x24 PUSH1 0x0 REVERT JUMPDEST PUSH1 0x0 PUSH2 0x3061 DUP3 PUSH2 0x280E JUMP JUMPDEST SWAP2 POP PUSH32 0xFFFFFFFFFFFFFFFFFFFFFFFFFFFFFFFFFFFFFFFFFFFFFFFFFFFFFFFFFFFFFFFF DUP3 SUB PUSH2 0x3093 JUMPI PUSH2 0x3092 PUSH2 0x3027 JUMP JUMPDEST JUMPDEST PUSH1 0x1 DUP3 ADD SWAP1 POP SWAP2 SWAP1 POP JUMP JUMPDEST PUSH1 0x0 PUSH2 0x30A9 DUP3 PUSH2 0x280E JUMP JUMPDEST SWAP2 POP PUSH2 0x30B4 DUP4 PUSH2 0x280E JUMP JUMPDEST SWAP3 POP DUP3 DUP3 ADD SWAP1 POP DUP1 DUP3 GT ISZERO PUSH2 0x30CC JUMPI PUSH2 0x30CB PUSH2 0x3027 JUMP JUMPDEST JUMPDEST SWAP3 SWAP2 POP POP JUMP JUMPDEST PUSH1 0x0 DUP2 SWAP1 POP SWAP3 SWAP2 POP POP JUMP JUMPDEST PUSH1 0x0 PUSH2 0x30E8 DUP3 PUSH2 0x2926 JUMP JUMPDEST PUSH2 0x30F2 DUP2 DUP6 PUSH2 0x30D2 JUMP JUMPDEST SWAP4 POP PUSH2 0x3102 DUP2 DUP6 PUSH1 0x20 DUP7 ADD PUSH2 0x2942 JUMP JUMPDEST DUP1 DUP5 ADD SWAP2 POP POP SWAP3 SWAP2 POP POP JUMP JUMPDEST PUSH1 0x0 PUSH2 0x311A DUP3 DUP5 PUSH2 0x30DD JUMP JUMPDEST SWAP2 POP DUP2 SWAP1 POP SWAP3 SWAP2 POP POP JUMP JUMPDEST PUSH1 0x0 PUSH2 0x3130 DUP3 PUSH2 0x280E JUMP JUMPDEST SWAP2 POP PUSH2 0x313B DUP4 PUSH2 0x280E JUMP JUMPDEST SWAP3 POP DUP3 DUP3 MUL PUSH2 0x3149 DUP2 PUSH2 0x280E JUMP JUMPDEST SWAP2 POP DUP3 DUP3 DIV DUP5 EQ DUP4 ISZERO OR PUSH2 0x3160 JUMPI PUSH2 0x315F PUSH2 0x3027 JUMP JUMPDEST JUMPDEST POP SWAP3 SWAP2 POP POP JUMP JUMPDEST PUSH1 0x0 PUSH2 0x3172 DUP3 PUSH2 0x280E JUMP JUMPDEST SWAP2 POP PUSH2 0x317D DUP4 PUSH2 0x280E JUMP JUMPDEST SWAP3 POP DUP3 DUP3 SUB SWAP1 POP DUP2 DUP2 GT ISZERO PUSH2 0x3195 JUMPI PUSH2 0x3194 PUSH2 0x3027 JUMP JUMPDEST JUMPDEST SWAP3 SWAP2 POP POP JUMP JUMPDEST PUSH1 0x0 PUSH1 0x40 DUP3 ADD SWAP1 POP PUSH2 0x31B0 PUSH1 0x0 DUP4 ADD DUP6 PUSH2 0x2818 JUMP JUMPDEST PUSH2 0x31BD PUSH1 0x20 DUP4 ADD DUP5 PUSH2 0x2818 JUMP JUMPDEST SWAP4 SWAP3 POP POP POP JUMP JUMPDEST PUSH1 0x0 PUSH1 0x60 DUP3 ADD SWAP1 POP PUSH2 0x31D9 PUSH1 0x0 DUP4 ADD DUP7 PUSH2 0x25E8 JUMP JUMPDEST PUSH2 0x31E6 PUSH1 0x20 DUP4 ADD DUP6 PUSH2 0x25E8 JUMP JUMPDEST PUSH2 0x31F3 PUSH1 0x40 DUP4 ADD DUP5 PUSH2 0x2818 JUMP JUMPDEST SWAP5 SWAP4 POP POP POP POP JUMP INVALID LOG2 PUSH5 0x6970667358 0x22 SLT KECCAK256 0xB9 0xF 0x4F 0xA9 RETURNDATASIZE 0xB2 0xDD 0xB0 EXTCODESIZE RETURNDATACOPY SWAP6 0x4F 0xBA PUSH17 0x51076ACE2142A4AFEF82C81AB0641F6830 DUP13 PUSH5 0x736F6C6343 STOP ADDMOD SLT STOP CALLER "
				},
				"gasEstimates": {
					"creation": {
						"codeDepositCost": "2569800",
						"executionCost": "infinite",
						"totalCost": "infinite"
					},
					"external": {
						"balances(address)": "2882",
						"getNodes()": "infinite",
						"mint(address,uint256)": "infinite",
						"minter()": "2535",
						"recoverDone(string,string)": "infinite",
						"recoverHistoryList(string)": "infinite",
						"recoverRequest(string)": "infinite",
						"registerNode(string)": "infinite",
						"registerUser(string,uint256,address,uint256,address,uint256,address)": "infinite",
						"send(address,uint256)": "infinite",
						"signDone(string,string)": "infinite",
						"signHistoryList(string)": "infinite",
						"signRequest(string)": "infinite",
						"userList(string)": "infinite"
					}
				},
				"methodIdentifiers": {
					"balances(address)": "27e235e3",
					"getNodes()": "e29581aa",
					"mint(address,uint256)": "40c10f19",
					"minter()": "07546172",
					"recoverDone(string,string)": "8ab0c338",
					"recoverHistoryList(string)": "9940f736",
					"recoverRequest(string)": "64ca7ddd",
					"registerNode(string)": "27c6f43e",
					"registerUser(string,uint256,address,uint256,address,uint256,address)": "e41e0690",
					"send(address,uint256)": "d0679d34",
					"signDone(string,string)": "7612fc62",
					"signHistoryList(string)": "784138f3",
					"signRequest(string)": "c96b1f32",
					"userList(string)": "f30e1474"
				}
			},
			"storageLayout": {
				"storage": [
					{
						"astId": 3,
						"contract": "contracts/Dauth.sol:DAuth",
						"label": "minter",
						"offset": 0,
						"slot": "0",
						"type": "t_address"
					},
					{
						"astId": 7,
						"contract": "contracts/Dauth.sol:DAuth",
						"label": "balances",
						"offset": 0,
						"slot": "1",
						"type": "t_mapping(t_address,t_uint256)"
					},
					{
						"astId": 75,
						"contract": "contracts/Dauth.sol:DAuth",
						"label": "nodeList",
						"offset": 0,
						"slot": "2",
						"type": "t_array(t_struct(Node)12_storage)dyn_storage"
					},
					{
						"astId": 80,
						"contract": "contracts/Dauth.sol:DAuth",
						"label": "userList",
						"offset": 0,
						"slot": "3",
						"type": "t_mapping(t_string_memory_ptr,t_struct(User)29_storage)"
					},
					{
						"astId": 85,
						"contract": "contracts/Dauth.sol:DAuth",
						"label": "recoverHistoryList",
						"offset": 0,
						"slot": "4",
						"type": "t_mapping(t_string_memory_ptr,t_struct(RecoverHistory)50_storage)"
					},
					{
						"astId": 90,
						"contract": "contracts/Dauth.sol:DAuth",
						"label": "signHistoryList",
						"offset": 0,
						"slot": "5",
						"type": "t_mapping(t_string_memory_ptr,t_struct(SignHistory)71_storage)"
					},
					{
						"astId": 100,
						"contract": "contracts/Dauth.sol:DAuth",
						"label": "_totalSupply",
						"offset": 0,
						"slot": "6",
						"type": "t_uint256"
					},
					{
						"astId": 102,
						"contract": "contracts/Dauth.sol:DAuth",
						"label": "_decimals",
						"offset": 0,
						"slot": "7",
						"type": "t_uint8"
					},
					{
						"astId": 104,
						"contract": "contracts/Dauth.sol:DAuth",
						"label": "_symbol",
						"offset": 0,
						"slot": "8",
						"type": "t_string_storage"
					},
					{
						"astId": 106,
						"contract": "contracts/Dauth.sol:DAuth",
						"label": "_name",
						"offset": 0,
						"slot": "9",
						"type": "t_string_storage"
					},
					{
						"astId": 110,
						"contract": "contracts/Dauth.sol:DAuth",
						"label": "_balances",
						"offset": 0,
						"slot": "10",
						"type": "t_mapping(t_address,t_uint256)"
					}
				],
				"types": {
					"t_address": {
						"encoding": "inplace",
						"label": "address",
						"numberOfBytes": "20"
					},
					"t_array(t_struct(Node)12_storage)dyn_storage": {
						"base": "t_struct(Node)12_storage",
						"encoding": "dynamic_array",
						"label": "struct DAuth.Node[]",
						"numberOfBytes": "32"
					},
					"t_mapping(t_address,t_uint256)": {
						"encoding": "mapping",
						"key": "t_address",
						"label": "mapping(address => uint256)",
						"numberOfBytes": "32",
						"value": "t_uint256"
					},
					"t_mapping(t_string_memory_ptr,t_struct(RecoverHistory)50_storage)": {
						"encoding": "mapping",
						"key": "t_string_memory_ptr",
						"label": "mapping(string => struct DAuth.RecoverHistory)",
						"numberOfBytes": "32",
						"value": "t_struct(RecoverHistory)50_storage"
					},
					"t_mapping(t_string_memory_ptr,t_struct(SignHistory)71_storage)": {
						"encoding": "mapping",
						"key": "t_string_memory_ptr",
						"label": "mapping(string => struct DAuth.SignHistory)",
						"numberOfBytes": "32",
						"value": "t_struct(SignHistory)71_storage"
					},
					"t_mapping(t_string_memory_ptr,t_struct(User)29_storage)": {
						"encoding": "mapping",
						"key": "t_string_memory_ptr",
						"label": "mapping(string => struct DAuth.User)",
						"numberOfBytes": "32",
						"value": "t_struct(User)29_storage"
					},
					"t_string_memory_ptr": {
						"encoding": "bytes",
						"label": "string",
						"numberOfBytes": "32"
					},
					"t_string_storage": {
						"encoding": "bytes",
						"label": "string",
						"numberOfBytes": "32"
					},
					"t_struct(Node)12_storage": {
						"encoding": "inplace",
						"label": "struct DAuth.Node",
						"members": [
							{
								"astId": 9,
								"contract": "contracts/Dauth.sol:DAuth",
								"label": "nodeAddress",
								"offset": 0,
								"slot": "0",
								"type": "t_address"
							},
							{
								"astId": 11,
								"contract": "contracts/Dauth.sol:DAuth",
								"label": "nodePubKey",
								"offset": 0,
								"slot": "1",
								"type": "t_string_storage"
							}
						],
						"numberOfBytes": "64"
					},
					"t_struct(RecoverHistory)50_storage": {
						"encoding": "inplace",
						"label": "struct DAuth.RecoverHistory",
						"members": [
							{
								"astId": 31,
								"contract": "contracts/Dauth.sol:DAuth",
								"label": "userAddress",
								"offset": 0,
								"slot": "0",
								"type": "t_address"
							},
							{
								"astId": 33,
								"contract": "contracts/Dauth.sol:DAuth",
								"label": "userId",
								"offset": 0,
								"slot": "1",
								"type": "t_string_storage"
							},
							{
								"astId": 35,
								"contract": "contracts/Dauth.sol:DAuth",
								"label": "status",
								"offset": 0,
								"slot": "2",
								"type": "t_uint256"
							},
							{
								"astId": 37,
								"contract": "contracts/Dauth.sol:DAuth",
								"label": "serialNumber",
								"offset": 0,
								"slot": "3",
								"type": "t_uint256"
							},
							{
								"astId": 39,
								"contract": "contracts/Dauth.sol:DAuth",
								"label": "recoverProof1",
								"offset": 0,
								"slot": "4",
								"type": "t_string_storage"
							},
							{
								"astId": 41,
								"contract": "contracts/Dauth.sol:DAuth",
								"label": "nodeConfirm1",
								"offset": 0,
								"slot": "5",
								"type": "t_uint256"
							},
							{
								"astId": 43,
								"contract": "contracts/Dauth.sol:DAuth",
								"label": "recoverProof2",
								"offset": 0,
								"slot": "6",
								"type": "t_string_storage"
							},
							{
								"astId": 45,
								"contract": "contracts/Dauth.sol:DAuth",
								"label": "nodeConfirm2",
								"offset": 0,
								"slot": "7",
								"type": "t_uint256"
							},
							{
								"astId": 47,
								"contract": "contracts/Dauth.sol:DAuth",
								"label": "recoverProof3",
								"offset": 0,
								"slot": "8",
								"type": "t_string_storage"
							},
							{
								"astId": 49,
								"contract": "contracts/Dauth.sol:DAuth",
								"label": "nodeConfirm3",
								"offset": 0,
								"slot": "9",
								"type": "t_uint256"
							}
						],
						"numberOfBytes": "320"
					},
					"t_struct(SignHistory)71_storage": {
						"encoding": "inplace",
						"label": "struct DAuth.SignHistory",
						"members": [
							{
								"astId": 52,
								"contract": "contracts/Dauth.sol:DAuth",
								"label": "userAddress",
								"offset": 0,
								"slot": "0",
								"type": "t_address"
							},
							{
								"astId": 54,
								"contract": "contracts/Dauth.sol:DAuth",
								"label": "userId",
								"offset": 0,
								"slot": "1",
								"type": "t_string_storage"
							},
							{
								"astId": 56,
								"contract": "contracts/Dauth.sol:DAuth",
								"label": "status",
								"offset": 0,
								"slot": "2",
								"type": "t_uint256"
							},
							{
								"astId": 58,
								"contract": "contracts/Dauth.sol:DAuth",
								"label": "serialNumber",
								"offset": 0,
								"slot": "3",
								"type": "t_uint256"
							},
							{
								"astId": 60,
								"contract": "contracts/Dauth.sol:DAuth",
								"label": "signProof1",
								"offset": 0,
								"slot": "4",
								"type": "t_string_storage"
							},
							{
								"astId": 62,
								"contract": "contracts/Dauth.sol:DAuth",
								"label": "nodeConfirm1",
								"offset": 0,
								"slot": "5",
								"type": "t_uint256"
							},
							{
								"astId": 64,
								"contract": "contracts/Dauth.sol:DAuth",
								"label": "signProof2",
								"offset": 0,
								"slot": "6",
								"type": "t_string_storage"
							},
							{
								"astId": 66,
								"contract": "contracts/Dauth.sol:DAuth",
								"label": "nodeConfirm2",
								"offset": 0,
								"slot": "7",
								"type": "t_uint256"
							},
							{
								"astId": 68,
								"contract": "contracts/Dauth.sol:DAuth",
								"label": "signProof3",
								"offset": 0,
								"slot": "8",
								"type": "t_string_storage"
							},
							{
								"astId": 70,
								"contract": "contracts/Dauth.sol:DAuth",
								"label": "nodeConfirm3",
								"offset": 0,
								"slot": "9",
								"type": "t_uint256"
							}
						],
						"numberOfBytes": "320"
					},
					"t_struct(User)29_storage": {
						"encoding": "inplace",
						"label": "struct DAuth.User",
						"members": [
							{
								"astId": 14,
								"contract": "contracts/Dauth.sol:DAuth",
								"label": "userAddress",
								"offset": 0,
								"slot": "0",
								"type": "t_address"
							},
							{
								"astId": 16,
								"contract": "contracts/Dauth.sol:DAuth",
								"label": "userID",
								"offset": 0,
								"slot": "1",
								"type": "t_string_storage"
							},
							{
								"astId": 18,
								"contract": "contracts/Dauth.sol:DAuth",
								"label": "condition1Type",
								"offset": 0,
								"slot": "2",
								"type": "t_uint256"
							},
							{
								"astId": 20,
								"contract": "contracts/Dauth.sol:DAuth",
								"label": "nodeAddress1",
								"offset": 0,
								"slot": "3",
								"type": "t_address"
							},
							{
								"astId": 22,
								"contract": "contracts/Dauth.sol:DAuth",
								"label": "condition2Type",
								"offset": 0,
								"slot": "4",
								"type": "t_uint256"
							},
							{
								"astId": 24,
								"contract": "contracts/Dauth.sol:DAuth",
								"label": "nodeAddress2",
								"offset": 0,
								"slot": "5",
								"type": "t_address"
							},
							{
								"astId": 26,
								"contract": "contracts/Dauth.sol:DAuth",
								"label": "condition3Type",
								"offset": 0,
								"slot": "6",
								"type": "t_uint256"
							},
							{
								"astId": 28,
								"contract": "contracts/Dauth.sol:DAuth",
								"label": "nodeAddress3",
								"offset": 0,
								"slot": "7",
								"type": "t_address"
							}
						],
						"numberOfBytes": "256"
					},
					"t_uint256": {
						"encoding": "inplace",
						"label": "uint256",
						"numberOfBytes": "32"
					},
					"t_uint8": {
						"encoding": "inplace",
						"label": "uint8",
						"numberOfBytes": "1"
					}
				}
			},
			"userdoc": {
				"kind": "user",
				"methods": {},
				"version": 1
			}
		}
	}
}